{
  "abi": [
    {
      "type": "function",
      "name": "UPGRADE_INTERFACE_VERSION",
      "inputs": [],
      "outputs": [
        {
          "name": "",
          "type": "string",
          "internalType": "string"
        }
      ],
      "stateMutability": "view"
    },
    {
      "type": "function",
      "name": "addCollateralTokens",
      "inputs": [
        {
          "name": "_tokens",
          "type": "address[]",
          "internalType": "address[]"
        },
        {
          "name": "_priceFeeds",
          "type": "bytes32[]",
          "internalType": "bytes32[]"
        }
      ],
      "outputs": [],
      "stateMutability": "nonpayable"
    },
    {
      "type": "function",
      "name": "addLoanableToken",
      "inputs": [
        {
          "name": "_token",
          "type": "address",
          "internalType": "address"
        },
        {
          "name": "_priceFeed",
          "type": "bytes32",
          "internalType": "bytes32"
        }
      ],
      "outputs": [],
      "stateMutability": "nonpayable"
    },
    {
      "type": "function",
      "name": "createLendingRequest",
      "inputs": [
        {
          "name": "_amount",
          "type": "uint256",
          "internalType": "uint256"
        },
        {
          "name": "_interest",
          "type": "uint8",
          "internalType": "uint8"
        },
        {
          "name": "_returnDate",
          "type": "uint256",
          "internalType": "uint256"
        },
        {
          "name": "_loanCurrency",
          "type": "address",
          "internalType": "address"
        }
      ],
      "outputs": [],
      "stateMutability": "nonpayable"
    },
    {
      "type": "function",
      "name": "depositCollateral",
      "inputs": [
        {
          "name": "_tokenCollateralAddress",
          "type": "address",
          "internalType": "address"
        },
        {
          "name": "_amountOfCollateral",
          "type": "uint256",
          "internalType": "uint256"
        }
      ],
      "outputs": [],
      "stateMutability": "nonpayable"
    },
    {
      "type": "function",
      "name": "getAccountCollateralValue",
      "inputs": [
        {
          "name": "_user",
          "type": "address",
          "internalType": "address"
        }
      ],
      "outputs": [
        {
          "name": "_totalCollateralValueInUsd",
          "type": "uint256",
          "internalType": "uint256"
        }
      ],
      "stateMutability": "view"
    },
    {
      "type": "function",
      "name": "getAllCollateralToken",
      "inputs": [],
      "outputs": [
        {
          "name": "",
          "type": "address[]",
          "internalType": "address[]"
        }
      ],
      "stateMutability": "view"
    },
    {
      "type": "function",
      "name": "getAllOfferForUser",
      "inputs": [
        {
          "name": "_borrower",
          "type": "address",
          "internalType": "address"
        },
        {
          "name": "_requestId",
          "type": "uint96",
          "internalType": "uint96"
        }
      ],
      "outputs": [
        {
          "name": "",
          "type": "tuple[]",
          "internalType": "struct Protocol.Offer[]",
          "components": [
            {
              "name": "offerId",
              "type": "uint256",
              "internalType": "uint256"
            },
            {
              "name": "tokenAddr",
              "type": "address",
              "internalType": "address"
            },
            {
              "name": "author",
              "type": "address",
              "internalType": "address"
            },
            {
              "name": "amount",
              "type": "uint256",
              "internalType": "uint256"
            },
            {
              "name": "interest",
              "type": "uint8",
              "internalType": "uint8"
            },
            {
              "name": "returnDate",
              "type": "uint256",
              "internalType": "uint256"
            },
            {
              "name": "offerStatus",
              "type": "uint8",
              "internalType": "enum Protocol.OfferStatus"
            }
          ]
        }
      ],
      "stateMutability": "view"
    },
    {
      "type": "function",
      "name": "getAllRequest",
      "inputs": [],
      "outputs": [
        {
          "name": "",
          "type": "tuple[]",
          "internalType": "struct Protocol.Request[]",
          "components": [
            {
              "name": "requestId",
              "type": "uint96",
              "internalType": "uint96"
            },
            {
              "name": "author",
              "type": "address",
              "internalType": "address"
            },
            {
              "name": "amount",
              "type": "uint256",
              "internalType": "uint256"
            },
            {
              "name": "interest",
              "type": "uint8",
              "internalType": "uint8"
            },
            {
              "name": "_totalRepayment",
              "type": "uint256",
              "internalType": "uint256"
            },
            {
              "name": "offer",
              "type": "tuple[]",
              "internalType": "struct Protocol.Offer[]",
              "components": [
                {
                  "name": "offerId",
                  "type": "uint256",
                  "internalType": "uint256"
                },
                {
                  "name": "tokenAddr",
                  "type": "address",
                  "internalType": "address"
                },
                {
                  "name": "author",
                  "type": "address",
                  "internalType": "address"
                },
                {
                  "name": "amount",
                  "type": "uint256",
                  "internalType": "uint256"
                },
                {
                  "name": "interest",
                  "type": "uint8",
                  "internalType": "uint8"
                },
                {
                  "name": "returnDate",
                  "type": "uint256",
                  "internalType": "uint256"
                },
                {
                  "name": "offerStatus",
                  "type": "uint8",
                  "internalType": "enum Protocol.OfferStatus"
                }
              ]
            },
            {
              "name": "returnDate",
              "type": "uint256",
              "internalType": "uint256"
            },
            {
              "name": "lender",
              "type": "address",
              "internalType": "address"
            },
            {
              "name": "loanRequestAddr",
              "type": "address",
              "internalType": "address"
            },
            {
              "name": "status",
              "type": "uint8",
              "internalType": "enum Protocol.Status"
            }
          ]
        }
      ],
      "stateMutability": "view"
    },
    {
      "type": "function",
      "name": "getLoanableAssets",
      "inputs": [],
      "outputs": [
        {
          "name": "_assets",
          "type": "address[]",
          "internalType": "address[]"
        }
      ],
      "stateMutability": "view"
    },
    {
      "type": "function",
      "name": "getRequestById",
      "inputs": [
        {
          "name": "_requestId",
          "type": "uint96",
          "internalType": "uint96"
        }
      ],
      "outputs": [
        {
          "name": "",
          "type": "tuple",
          "internalType": "struct Protocol.Request",
          "components": [
            {
              "name": "requestId",
              "type": "uint96",
              "internalType": "uint96"
            },
            {
              "name": "author",
              "type": "address",
              "internalType": "address"
            },
            {
              "name": "amount",
              "type": "uint256",
              "internalType": "uint256"
            },
            {
              "name": "interest",
              "type": "uint8",
              "internalType": "uint8"
            },
            {
              "name": "_totalRepayment",
              "type": "uint256",
              "internalType": "uint256"
            },
            {
              "name": "offer",
              "type": "tuple[]",
              "internalType": "struct Protocol.Offer[]",
              "components": [
                {
                  "name": "offerId",
                  "type": "uint256",
                  "internalType": "uint256"
                },
                {
                  "name": "tokenAddr",
                  "type": "address",
                  "internalType": "address"
                },
                {
                  "name": "author",
                  "type": "address",
                  "internalType": "address"
                },
                {
                  "name": "amount",
                  "type": "uint256",
                  "internalType": "uint256"
                },
                {
                  "name": "interest",
                  "type": "uint8",
                  "internalType": "uint8"
                },
                {
                  "name": "returnDate",
                  "type": "uint256",
                  "internalType": "uint256"
                },
                {
                  "name": "offerStatus",
                  "type": "uint8",
                  "internalType": "enum Protocol.OfferStatus"
                }
              ]
            },
            {
              "name": "returnDate",
              "type": "uint256",
              "internalType": "uint256"
            },
            {
              "name": "lender",
              "type": "address",
              "internalType": "address"
            },
            {
              "name": "loanRequestAddr",
              "type": "address",
              "internalType": "address"
            },
            {
              "name": "status",
              "type": "uint8",
              "internalType": "enum Protocol.Status"
            }
          ]
        }
      ],
      "stateMutability": "view"
    },
    {
      "type": "function",
      "name": "getUsdValue",
      "inputs": [
        {
          "name": "_token",
          "type": "address",
          "internalType": "address"
        },
        {
          "name": "_amount",
          "type": "uint256",
          "internalType": "uint256"
        }
      ],
      "outputs": [
        {
          "name": "",
          "type": "uint256",
          "internalType": "uint256"
        }
      ],
      "stateMutability": "view"
    },
    {
      "type": "function",
      "name": "getUserEmail",
      "inputs": [
        {
          "name": "_user",
          "type": "address",
          "internalType": "address"
        }
      ],
      "outputs": [
        {
          "name": "",
          "type": "string",
          "internalType": "string"
        }
      ],
      "stateMutability": "view"
    },
    {
      "type": "function",
      "name": "getUserRequest",
      "inputs": [
        {
          "name": "_user",
          "type": "address",
          "internalType": "address"
        },
        {
          "name": "_requestId",
          "type": "uint96",
          "internalType": "uint96"
        }
      ],
      "outputs": [
        {
          "name": "",
          "type": "tuple",
          "internalType": "struct Protocol.Request",
          "components": [
            {
              "name": "requestId",
              "type": "uint96",
              "internalType": "uint96"
            },
            {
              "name": "author",
              "type": "address",
              "internalType": "address"
            },
            {
              "name": "amount",
              "type": "uint256",
              "internalType": "uint256"
            },
            {
              "name": "interest",
              "type": "uint8",
              "internalType": "uint8"
            },
            {
              "name": "_totalRepayment",
              "type": "uint256",
              "internalType": "uint256"
            },
            {
              "name": "offer",
              "type": "tuple[]",
              "internalType": "struct Protocol.Offer[]",
              "components": [
                {
                  "name": "offerId",
                  "type": "uint256",
                  "internalType": "uint256"
                },
                {
                  "name": "tokenAddr",
                  "type": "address",
                  "internalType": "address"
                },
                {
                  "name": "author",
                  "type": "address",
                  "internalType": "address"
                },
                {
                  "name": "amount",
                  "type": "uint256",
                  "internalType": "uint256"
                },
                {
                  "name": "interest",
                  "type": "uint8",
                  "internalType": "uint8"
                },
                {
                  "name": "returnDate",
                  "type": "uint256",
                  "internalType": "uint256"
                },
                {
                  "name": "offerStatus",
                  "type": "uint8",
                  "internalType": "enum Protocol.OfferStatus"
                }
              ]
            },
            {
              "name": "returnDate",
              "type": "uint256",
              "internalType": "uint256"
            },
            {
              "name": "lender",
              "type": "address",
              "internalType": "address"
            },
            {
              "name": "loanRequestAddr",
              "type": "address",
              "internalType": "address"
            },
            {
              "name": "status",
              "type": "uint8",
              "internalType": "enum Protocol.Status"
            }
          ]
        }
      ],
      "stateMutability": "view"
    },
    {
      "type": "function",
      "name": "get_gitCoinPoint",
      "inputs": [
        {
          "name": "_user",
          "type": "address",
          "internalType": "address"
        }
      ],
      "outputs": [
        {
          "name": "_score",
          "type": "uint256",
          "internalType": "uint256"
        }
      ],
      "stateMutability": "view"
    },
    {
      "type": "function",
      "name": "gets_addressToCollateralDeposited",
      "inputs": [
        {
          "name": "_sender",
          "type": "address",
          "internalType": "address"
        },
        {
          "name": "_tokenAddr",
          "type": "address",
          "internalType": "address"
        }
      ],
      "outputs": [
        {
          "name": "",
          "type": "uint256",
          "internalType": "uint256"
        }
      ],
      "stateMutability": "view"
    },
    {
      "type": "function",
      "name": "initialize",
      "inputs": [
        {
          "name": "_initialOwner",
          "type": "address",
          "internalType": "address"
        },
        {
          "name": "_tokens",
          "type": "address[]",
          "internalType": "address[]"
        },
        {
          "name": "_priceFeeds",
          "type": "bytes32[]",
          "internalType": "bytes32[]"
        },
        {
          "name": "_peerAddress",
          "type": "address",
          "internalType": "address"
        },
        {
          "name": "pythContract",
          "type": "address",
          "internalType": "address"
        }
      ],
      "outputs": [],
      "stateMutability": "nonpayable"
    },
    {
      "type": "function",
      "name": "isVerified",
      "inputs": [
        {
          "name": "_user",
          "type": "address",
          "internalType": "address"
        }
      ],
      "outputs": [
        {
          "name": "",
          "type": "bool",
          "internalType": "bool"
        }
      ],
      "stateMutability": "view"
    },
    {
      "type": "function",
      "name": "makeLendingOffer",
      "inputs": [
        {
          "name": "_borrower",
          "type": "address",
          "internalType": "address"
        },
        {
          "name": "_requestId",
          "type": "uint96",
          "internalType": "uint96"
        },
        {
          "name": "_amount",
          "type": "uint256",
          "internalType": "uint256"
        },
        {
          "name": "_interest",
          "type": "uint8",
          "internalType": "uint8"
        },
        {
          "name": "_returnedDate",
          "type": "uint256",
          "internalType": "uint256"
        },
        {
          "name": "_tokenAddress",
          "type": "address",
          "internalType": "address"
        }
      ],
      "outputs": [],
      "stateMutability": "nonpayable"
    },
    {
      "type": "function",
      "name": "owner",
      "inputs": [],
      "outputs": [
        {
          "name": "",
          "type": "address",
          "internalType": "address"
        }
      ],
      "stateMutability": "view"
    },
    {
      "type": "function",
      "name": "proxiableUUID",
      "inputs": [],
      "outputs": [
        {
          "name": "",
          "type": "bytes32",
          "internalType": "bytes32"
        }
      ],
      "stateMutability": "view"
    },
    {
      "type": "function",
      "name": "removeCollateralTokens",
      "inputs": [
        {
          "name": "_tokens",
          "type": "address[]",
          "internalType": "address[]"
        }
      ],
      "outputs": [],
      "stateMutability": "nonpayable"
    },
    {
      "type": "function",
      "name": "renounceOwnership",
      "inputs": [],
      "outputs": [],
      "stateMutability": "nonpayable"
    },
    {
      "type": "function",
      "name": "repayLoan",
      "inputs": [
        {
          "name": "_requestId",
          "type": "uint96",
          "internalType": "uint96"
        },
        {
          "name": "_amount",
          "type": "uint256",
          "internalType": "uint256"
        }
      ],
      "outputs": [],
      "stateMutability": "nonpayable"
    },
    {
      "type": "function",
      "name": "respondToLendingOffer",
      "inputs": [
        {
          "name": "_requestId",
          "type": "uint96",
          "internalType": "uint96"
        },
        {
          "name": "_offerId",
          "type": "uint96",
          "internalType": "uint96"
        },
        {
          "name": "_status",
          "type": "uint8",
          "internalType": "enum Protocol.OfferStatus"
        }
      ],
      "outputs": [],
      "stateMutability": "nonpayable"
    },
    {
      "type": "function",
      "name": "serviceRequest",
      "inputs": [
        {
          "name": "_borrower",
          "type": "address",
          "internalType": "address"
        },
        {
          "name": "_requestId",
          "type": "uint8",
          "internalType": "uint8"
        },
        {
          "name": "_tokenAddress",
          "type": "address",
          "internalType": "address"
        }
      ],
      "outputs": [],
      "stateMutability": "nonpayable"
    },
    {
      "type": "function",
      "name": "transferOwnership",
      "inputs": [
        {
          "name": "newOwner",
          "type": "address",
          "internalType": "address"
        }
      ],
      "outputs": [],
      "stateMutability": "nonpayable"
    },
    {
      "type": "function",
      "name": "updateEmail",
      "inputs": [
        {
          "name": "_user",
          "type": "address",
          "internalType": "address"
        },
        {
          "name": "_email",
          "type": "string",
          "internalType": "string"
        },
        {
          "name": "_status",
          "type": "bool",
          "internalType": "bool"
        }
      ],
      "outputs": [],
      "stateMutability": "nonpayable"
    },
    {
      "type": "function",
      "name": "updateGPScore",
      "inputs": [
        {
          "name": "_user",
          "type": "address",
          "internalType": "address"
        },
        {
          "name": "_score",
          "type": "uint256",
          "internalType": "uint256"
        }
      ],
      "outputs": [],
      "stateMutability": "nonpayable"
    },
    {
      "type": "function",
      "name": "updatePriceFeeds",
      "inputs": [
        {
          "name": "priceUpdate",
          "type": "bytes[]",
          "internalType": "bytes[]"
        }
      ],
      "outputs": [],
      "stateMutability": "payable"
    },
    {
      "type": "function",
      "name": "upgradeToAndCall",
      "inputs": [
        {
          "name": "newImplementation",
          "type": "address",
          "internalType": "address"
        },
        {
          "name": "data",
          "type": "bytes",
          "internalType": "bytes"
        }
      ],
      "outputs": [],
      "stateMutability": "payable"
    },
    {
      "type": "function",
      "name": "withdrawCollateral",
      "inputs": [
        {
          "name": "_tokenCollateralAddress",
          "type": "address",
          "internalType": "address"
        },
        {
          "name": "_amount",
          "type": "uint256",
          "internalType": "uint256"
        }
      ],
      "outputs": [],
      "stateMutability": "nonpayable"
    },
    {
      "type": "event",
      "name": "CollateralDeposited",
      "inputs": [
        {
          "name": "_sender",
          "type": "address",
          "indexed": true,
          "internalType": "address"
        },
        {
          "name": "_token",
          "type": "address",
          "indexed": true,
          "internalType": "address"
        },
        {
          "name": "_value",
          "type": "uint256",
          "indexed": false,
          "internalType": "uint256"
        }
      ],
      "anonymous": false
    },
    {
      "type": "event",
      "name": "CollateralWithdrawn",
      "inputs": [
        {
          "name": "sender",
          "type": "address",
          "indexed": true,
          "internalType": "address"
        },
        {
          "name": "_tokenCollateralAddress",
          "type": "address",
          "indexed": true,
          "internalType": "address"
        },
        {
          "name": "_amount",
          "type": "uint256",
          "indexed": false,
          "internalType": "uint256"
        }
      ],
      "anonymous": false
    },
    {
      "type": "event",
      "name": "Initialized",
      "inputs": [
        {
          "name": "version",
          "type": "uint64",
          "indexed": false,
          "internalType": "uint64"
        }
      ],
      "anonymous": false
    },
    {
      "type": "event",
      "name": "LoanRepayment",
      "inputs": [
        {
          "name": "sender",
          "type": "address",
          "indexed": true,
          "internalType": "address"
        },
        {
          "name": "id",
          "type": "uint96",
          "indexed": false,
          "internalType": "uint96"
        },
        {
          "name": "amount",
          "type": "uint256",
          "indexed": false,
          "internalType": "uint256"
        }
      ],
      "anonymous": false
    },
    {
      "type": "event",
      "name": "OfferAccepted",
      "inputs": [
        {
          "name": "sender",
          "type": "address",
          "indexed": true,
          "internalType": "address"
        },
        {
          "name": "id",
          "type": "uint96",
          "indexed": false,
          "internalType": "uint96"
        },
        {
          "name": "amount",
          "type": "uint256",
          "indexed": true,
          "internalType": "uint256"
        }
      ],
      "anonymous": false
    },
    {
      "type": "event",
      "name": "OfferCreated",
      "inputs": [
        {
          "name": "_lender",
          "type": "address",
          "indexed": true,
          "internalType": "address"
        },
        {
          "name": "indexed_tokenAddress",
          "type": "address",
          "indexed": false,
          "internalType": "address"
        },
        {
          "name": "_amount",
          "type": "uint256",
          "indexed": false,
          "internalType": "uint256"
        },
        {
          "name": "_requestId",
          "type": "uint96",
          "indexed": true,
          "internalType": "uint96"
        }
      ],
      "anonymous": false
    },
    {
      "type": "event",
      "name": "OwnershipTransferred",
      "inputs": [
        {
          "name": "previousOwner",
          "type": "address",
          "indexed": true,
          "internalType": "address"
        },
        {
          "name": "newOwner",
          "type": "address",
          "indexed": true,
          "internalType": "address"
        }
      ],
      "anonymous": false
    },
    {
      "type": "event",
      "name": "RequestCreated",
      "inputs": [
        {
          "name": "_borrower",
          "type": "address",
          "indexed": true,
          "internalType": "address"
        },
        {
          "name": "requestId",
          "type": "uint96",
          "indexed": true,
          "internalType": "uint96"
        },
        {
          "name": "_amount",
          "type": "uint256",
          "indexed": false,
          "internalType": "uint256"
        },
        {
          "name": "_interest",
          "type": "uint8",
          "indexed": false,
          "internalType": "uint8"
        }
      ],
      "anonymous": false
    },
    {
      "type": "event",
      "name": "RespondToLendingOffer",
      "inputs": [
        {
          "name": "sender",
          "type": "address",
          "indexed": true,
          "internalType": "address"
        },
        {
          "name": "_offerId",
          "type": "uint256",
          "indexed": true,
          "internalType": "uint256"
        },
        {
          "name": "_status",
          "type": "uint8",
          "indexed": false,
          "internalType": "uint8"
        },
        {
          "name": "_offerStatus",
          "type": "uint8",
          "indexed": false,
          "internalType": "uint8"
        }
      ],
      "anonymous": false
    },
    {
      "type": "event",
      "name": "ServiceRequestSuccessful",
      "inputs": [
        {
          "name": "sender",
          "type": "address",
          "indexed": true,
          "internalType": "address"
        },
        {
          "name": "_borrower",
          "type": "address",
          "indexed": true,
          "internalType": "address"
        },
        {
          "name": "_requestId",
          "type": "uint8",
          "indexed": false,
          "internalType": "uint8"
        },
        {
          "name": "amount",
          "type": "uint256",
          "indexed": false,
          "internalType": "uint256"
        }
      ],
      "anonymous": false
    },
    {
      "type": "event",
      "name": "UpdateLoanableToken",
      "inputs": [
        {
          "name": "_token",
          "type": "address",
          "indexed": true,
          "internalType": "address"
        },
        {
          "name": "_priceFeed",
          "type": "bytes32",
          "indexed": false,
          "internalType": "bytes32"
        },
        {
          "name": "sender",
          "type": "address",
          "indexed": true,
          "internalType": "address"
        }
      ],
      "anonymous": false
    },
    {
      "type": "event",
      "name": "UpdatedCollateralTokens",
      "inputs": [
        {
          "name": "sender",
          "type": "address",
          "indexed": true,
          "internalType": "address"
        },
        {
          "name": "newTokensCount",
          "type": "uint8",
          "indexed": false,
          "internalType": "uint8"
        }
      ],
      "anonymous": false
    },
    {
      "type": "event",
      "name": "Upgraded",
      "inputs": [
        {
          "name": "implementation",
          "type": "address",
          "indexed": true,
          "internalType": "address"
        }
      ],
      "anonymous": false
    },
    {
      "type": "error",
      "name": "AddressEmptyCode",
      "inputs": [
        {
          "name": "target",
          "type": "address",
          "internalType": "address"
        }
      ]
    },
    {
      "type": "error",
      "name": "ERC1967InvalidImplementation",
      "inputs": [
        {
          "name": "implementation",
          "type": "address",
          "internalType": "address"
        }
      ]
    },
    {
      "type": "error",
      "name": "ERC1967NonPayable",
      "inputs": []
    },
    {
      "type": "error",
      "name": "FailedInnerCall",
      "inputs": []
    },
    {
      "type": "error",
      "name": "InvalidInitialization",
      "inputs": []
    },
    {
      "type": "error",
      "name": "NotInitializing",
      "inputs": []
    },
    {
      "type": "error",
      "name": "OwnableInvalidOwner",
      "inputs": [
        {
          "name": "owner",
          "type": "address",
          "internalType": "address"
        }
      ]
    },
    {
      "type": "error",
      "name": "OwnableUnauthorizedAccount",
      "inputs": [
        {
          "name": "account",
          "type": "address",
          "internalType": "address"
        }
      ]
    },
    {
      "type": "error",
      "name": "Protocol__BreaksHealthFactor",
      "inputs": []
    },
    {
      "type": "error",
      "name": "Protocol__DateMustBeInFuture",
      "inputs": []
    },
    {
      "type": "error",
      "name": "Protocol__EmailNotVerified",
      "inputs": []
    },
    {
      "type": "error",
      "name": "Protocol__InsufficientAllowance",
      "inputs": []
    },
    {
      "type": "error",
      "name": "Protocol__InsufficientBalance",
      "inputs": []
    },
    {
      "type": "error",
      "name": "Protocol__InsufficientCollateral",
      "inputs": []
    },
    {
      "type": "error",
      "name": "Protocol__InsufficientCollateralDeposited",
      "inputs": []
    },
    {
      "type": "error",
      "name": "Protocol__InvalidAddress",
      "inputs": []
    },
    {
      "type": "error",
      "name": "Protocol__InvalidAmount",
      "inputs": []
    },
    {
      "type": "error",
      "name": "Protocol__InvalidId",
      "inputs": []
    },
    {
      "type": "error",
      "name": "Protocol__InvalidToken",
      "inputs": []
    },
    {
      "type": "error",
      "name": "Protocol__MustBeMoreThanZero",
      "inputs": []
    },
    {
      "type": "error",
      "name": "Protocol__OfferNotOpen",
      "inputs": []
    },
    {
      "type": "error",
      "name": "Protocol__RequestNotOpen",
      "inputs": []
    },
    {
      "type": "error",
      "name": "Protocol__RequestNotServiced",
      "inputs": []
    },
    {
      "type": "error",
      "name": "Protocol__TokenNotAllowed",
      "inputs": []
    },
    {
      "type": "error",
      "name": "Protocol__TokenNotLoanable",
      "inputs": []
    },
    {
      "type": "error",
      "name": "Protocol__TransferFailed",
      "inputs": []
    },
    {
      "type": "error",
      "name": "Protocol__Unauthorized",
      "inputs": []
    },
    {
      "type": "error",
      "name": "Protocol__tokensAndPriceFeedsArrayMustBeSameLength",
      "inputs": []
    },
    {
      "type": "error",
      "name": "UUPSUnauthorizedCallContext",
      "inputs": []
    },
    {
      "type": "error",
      "name": "UUPSUnsupportedProxiableUUID",
      "inputs": [
        {
          "name": "slot",
          "type": "bytes32",
          "internalType": "bytes32"
        }
      ]
    }
  ],
  "bytecode": {
    "object": "0x60a06040523060805234801561001457600080fd5b5060805161478961003e6000396000818161319a015281816131c3015261330401526147896000f3fe6080604052600436106101e35760003560e01c806388bd658511610102578063c147a89211610095578063ef9e5e2811610064578063ef9e5e281461060f578063f2cc0ba514610622578063f2fde38b1461065b578063f9f22ec21461067b57600080fd5b8063c147a8921461058f578063c660d112146105af578063eb703464146105cf578063ecb0fe38146105ef57600080fd5b8063ad3cb1cc116100d1578063ad3cb1cc146104d6578063b202dc2014610507578063b9209e331461051c578063bf3439431461056f57600080fd5b806388bd6585146104225780638da5cb5b146104425780639480e94814610489578063a5d5db0c146104b657600080fd5b80634f1ef2861161017a5780635894473011610149578063589447301461039e578063715018a6146103cb5780637d1a4450146103e057806386f5483f1461040057600080fd5b80634f1ef28614610300578063527ed1261461031357806352d1902d14610367578063545569ba1461037c57600080fd5b806315b19dc2116101b657806315b19dc214610280578063350c35e9146102a057806341239496146102c057806342e292c1146102e057600080fd5b806302727e34146101e8578063065a1f871461021e5780631143e606146102405780631308aedc14610260575b600080fd5b3480156101f457600080fd5b5061020861020336600461398f565b61069b565b6040516102159190613b56565b60405180910390f35b34801561022a57600080fd5b5061023e610239366004613c2b565b610aab565b005b34801561024c57600080fd5b5061020861025b366004613ca0565b610aec565b34801561026c57600080fd5b5061023e61027b366004613ce4565b610cac565b34801561028c57600080fd5b5061023e61029b366004613e22565b611049565b3480156102ac57600080fd5b5061023e6102bb366004613eb7565b6112fa565b3480156102cc57600080fd5b5061023e6102db366004613ee1565b6114a8565b3480156102ec57600080fd5b5061023e6102fb366004613eb7565b611878565b61023e61030e366004613f24565b61189f565b34801561031f57600080fd5b5061035961032e366004613f85565b6001600160a01b03918216600090815260036020908152604080832093909416825291909152205490565b604051908152602001610215565b34801561037357600080fd5b506103596118be565b34801561038857600080fd5b506103916118db565b6040516102159190613faf565b3480156103aa57600080fd5b506103be6103b9366004613ca0565b611cf5565b6040516102159190614013565b3480156103d757600080fd5b5061023e611e05565b3480156103ec57600080fd5b506103596103fb36600461405c565b611e19565b34801561040c57600080fd5b50610415611e96565b6040516102159190614077565b34801561042e57600080fd5b5061023e61043d366004613eb7565b611ef8565b34801561044e57600080fd5b507f9016d09d72d40fdae2fd8ceac6b6234c7706214fd39c1cd1e609a0528c199300546040516001600160a01b039091168152602001610215565b34801561049557600080fd5b506104a96104a436600461405c565b611fb0565b60405161021591906140dc565b3480156104c257600080fd5b5061023e6104d1366004613eb7565b61205c565b3480156104e257600080fd5b506104a9604051806040016040528060058152602001640352e302e360dc1b81525081565b34801561051357600080fd5b506104156121c7565b34801561052857600080fd5b5061055f61053736600461405c565b6001600160a01b0316600090815260046020526040902060010154600160a01b900460ff1690565b6040519015158152602001610215565b34801561057b57600080fd5b5061023e61058a36600461410f565b612227565b34801561059b57600080fd5b5061023e6105aa366004614175565b6125aa565b3480156105bb57600080fd5b506103596105ca366004613eb7565b6127e3565b3480156105db57600080fd5b5061023e6105ea366004614191565b612940565b3480156105fb57600080fd5b5061023e61060a3660046141ea565b612a89565b61023e61061d36600461422a565b612cc3565b34801561062e57600080fd5b5061035961063d36600461405c565b6001600160a01b031660009081526004602052604090206002015490565b34801561066757600080fd5b5061023e61067636600461405c565b612da3565b34801561068757600080fd5b5061023e61069636600461429e565b612de1565b6106a36137d3565b816001600160601b03166000036106cd5760405163239de89960e11b815260040160405180910390fd5b6008546001600160601b038316106106f85760405163239de89960e11b815260040160405180910390fd5b600060086107076001856142f0565b6001600160601b03168154811061072057610720614317565b600091825260208083206040805161014081018252600890940290910180546001600160601b03811685526001600160a01b03600160601b9091041684840152600181015484830152600281015460ff166060850152600381015460808501526004810180548351818602810186019094528084529495919460a08701949192909184015b8282101561085b5760008481526020908190206040805160e081018252600786029092018054835260018101546001600160a01b03908116948401949094526002808201549094169183019190915260038101546060830152600481015460ff9081166080840152600582015460a084015260068201549293919260c0850192911690811115610837576108376139aa565b6002811115610848576108486139aa565b81525050815260200190600101906107a5565b505050908252506005820154602082015260068201546001600160a01b03908116604083015260078301549081166060830152608090910190600160a01b900460ff1660028111156108af576108af6139aa565b60028111156108c0576108c06139aa565b90525060208101519091506001600160a01b0316156108f2576040516377d7571d60e01b815260040160405180910390fd5b6020808201516001600160a01b0390811660009081526005835260408082206001600160601b03808916845290855281832082516101408101845281549283168152600160601b90920490941681860152600184015481830152600284015460ff16606082015260038401546080820152600484018054835181880281018801909452808452919560a08701949192919084015b82821015610a3c5760008481526020908190206040805160e081018252600786029092018054835260018101546001600160a01b03908116948401949094526002808201549094169183019190915260038101546060830152600481015460ff9081166080840152600582015460a084015260068201549293919260c0850192911690811115610a1857610a186139aa565b6002811115610a2957610a296139aa565b8152505081526020019060010190610986565b505050908252506005820154602082015260068201546001600160a01b03908116604083015260078301549081166060830152608090910190600160a01b900460ff166002811115610a9057610a906139aa565b6002811115610aa157610aa16139aa565b9052509392505050565b6001600160a01b038316600090815260046020526040902060018101805460ff60a01b1916600160a01b84151502179055610ae683826143b1565b50505050565b610af46137d3565b6001600160a01b0380841660009081526005602090815260408083206001600160601b03808816855290835281842082516101408101845281549283168152600160601b90920490951681840152600185015481830152600285015460ff1660608201526003850154608082015260048501805483518186028101860190945280845291959460a087019491929184015b82821015610c3b5760008481526020908190206040805160e081018252600786029092018054835260018101546001600160a01b03908116948401949094526002808201549094169183019190915260038101546060830152600481015460ff9081166080840152600582015460a084015260068201549293919260c0850192911690811115610c1757610c176139aa565b6002811115610c2857610c286139aa565b8152505081526020019060010190610b85565b505050908252506005820154602082015260068201546001600160a01b03908116604083015260078301549081166060830152608090910190600160a01b900460ff166002811115610c8f57610c8f6139aa565b6002811115610ca057610ca06139aa565b90525090505b92915050565b610cb584612fc6565b6001600160a01b03811660009081526002602052604090205460ff16610cee576040516356d7e0a760e11b815260040160405180910390fd5b610cf733612fe7565b6000610d0382866127e3565b90506001811015610d2757604051632894e1e760e11b815260040160405180910390fd5b6000610d3233611e19565b905060006064610d43836055614470565b610d4d9190614487565b336000908152600460205260409020600301549091508190610d709085906144a9565b10610d8e576040516301401b1b60e61b815260040160405180910390fd5b600b54610da5906001600160601b031660016144bc565b600b80546bffffffffffffffffffffffff19166001600160601b03929092169182179055336000818152600560208181526040808420868552909152909120600160601b90920290921781556001810189905560028101805460ff191660ff8a16179055908101869055610e1b8689898861302a565b600382019081556007820180546001600160a01b038881166001600160a81b031990921691909117909155600880546001818101835560008390528554919092027ff3f7a9fe364faab93b216da50a3214154f22a0a2b415b23a84c8169e8b636ee3810180546bffffffffffffffffffffffff19166001600160601b0390931692831781558654600160601b908190049095169094029091178355908401547ff3f7a9fe364faab93b216da50a3214154f22a0a2b415b23a84c8169e8b636ee482015560028401547ff3f7a9fe364faab93b216da50a3214154f22a0a2b415b23a84c8169e8b636ee58201805460ff191660ff90921691909117905591547ff3f7a9fe364faab93b216da50a3214154f22a0a2b415b23a84c8169e8b636ee68301556004830180548493610f73927ff3f7a9fe364faab93b216da50a3214154f22a0a2b415b23a84c8169e8b636ee790910191613824565b506005828101549082015560068083015490820180546001600160a01b03199081166001600160a01b03938416179091556007808501805491850180549384169290941691821784555460ff600160a01b918290041693926001600160a81b03191690911790836002811115610feb57610feb6139aa565b021790555050600b54604080518b815260ff8b1660208201526001600160601b03909216925033917f0807eacd5bad907205ebefdda3454f0f6cc3a26350e903c00cb8ea89a8d05a7c91015b60405180910390a35050505050505050565b7ff0c57e16840df040f15088dc2f81fe391c3923bec73e23a9662efc9c229c6a008054600160401b810460ff1615906001600160401b031660008115801561108e5750825b90506000826001600160401b031660011480156110aa5750303b155b9050811580156110b8575080155b156110d65760405163f92ee8a960e01b815260040160405180910390fd5b845467ffffffffffffffff19166001178555831561110057845460ff60401b1916600160401b1785555b6111098a61306a565b885188511461112b5760405163082e439b60e31b815260040160405180910390fd5b60005b88518110156112775760006001600160a01b03168a828151811061115457611154614317565b60200260200101516001600160a01b03161461126f576001600260008c848151811061118257611182614317565b60200260200101516001600160a01b03166001600160a01b0316815260200190815260200160002060006101000a81548160ff02191690831515021790555060068a82815181106111d5576111d5614317565b60209081029190910181015182546001810184556000938452919092200180546001600160a01b0319166001600160a01b03909216919091179055885189908290811061122457611224614317565b6020026020010151600160008c848151811061124257611242614317565b60200260200101516001600160a01b03166001600160a01b03168152602001908152602001600020819055505b60010161112e565b50600080546001600160a01b03808a166001600160a01b031992831617909255600980549289169290911691909117905583156112ee57845460ff60401b19168555604051600181527fc7f505b2f371ae2175ee4913f4499e1f2633a7b5936321eed1cdaeb6115181d29060200160405180910390a15b50505050505050505050565b61130381612fc6565b61130e82600161307b565b61131733612fe7565b3360009081526003602090815260408083206001600160a01b03861684529091529020548181101561135c57604051634a1dbc7160e11b815260040160405180910390fd5b3360009081526003602090815260408083206001600160a01b03871684529091528120805484929061138f9084906144dc565b9091555061139e9050336130b1565b60405163a9059cbb60e01b8152336004820152602481018390526000906001600160a01b0385169063a9059cbb906044016020604051808303816000875af11580156113ee573d6000803e3d6000fd5b505050506040513d601f19601f8201168201806040525081019061141291906144ef565b9050806114615760405162461bcd60e51b8152602060048201526018602482015277141c9bdd1bd8dbdb17d7d51c985b9cd9995c91985a5b195960421b60448201526064015b60405180910390fd5b6040518381526001600160a01b0385169033907f45892a46e6cef329bb642da6d69846d324db43d19008edc141ed82382eda1bee906020015b60405180910390a350505050565b6114b133612fe7565b6001600160a01b038316600090815260056020908152604080832060ff861684529091528120906007820154600160a01b900460ff1660028111156114f8576114f86139aa565b1461151657604051630308adab60e11b815260040160405180910390fd5b60078101546001600160a01b0383811691161461154657604051638d6a7ae360e01b815260040160405180910390fd5b6006810180546001600160a01b031916331790556007810180546001919060ff60a01b1916600160a01b83021790555060018101546040516370a0823160e01b815233600482015281906001600160a01b038516906370a0823190602401602060405180830381865afa1580156115c1573d6000803e3d6000fd5b505050506040513d601f19601f820116820180604052508101906115e5919061450c565b101561160457604051632c67d2bb60e21b815260040160405180910390fd5b604051636eb1769f60e11b815233600482015230602482015281906001600160a01b0385169063dd62ed3e90604401602060405180830381865afa158015611650573d6000803e3d6000fd5b505050506040513d601f19601f82011682018060405250810190611674919061450c565b10156116935760405163664487c960e11b815260040160405180910390fd5b600061169f84836127e3565b60058401546001850154600286015460078701549394506000936116d193929160ff16906001600160a01b031661302a565b6116db90836144a9565b60038581018290558554600160601b90046001600160a01b031660009081526004602052604081209091018054929350839290919061171b9084906144a9565b9091555050835460019061173e90600160601b90046001600160a01b03166130e0565b101561175d576040516301401b1b60e61b815260040160405180910390fd5b6040516323b872dd60e01b81526000906001600160a01b038716906323b872dd906117909033908c908990600401614525565b6020604051808303816000875af11580156117af573d6000803e3d6000fd5b505050506040513d601f19601f820116820180604052508101906117d391906144ef565b90508061181d5760405162461bcd60e51b8152602060048201526018602482015277141c9bdd1bd8dbdb17d7d51c985b9cd9995c91985a5b195960421b6044820152606401611458565b60078501805460ff60a01b1916600160a01b1790556040805160ff89168152602081018690526001600160a01b038a169133917f68ef04fb42d7e82507c8eaf02fcc640e240c344b11c6df3e26f182cde14b5df69101611037565b611880613134565b6001600160a01b03909116600090815260046020526040902060020155565b6118a761318f565b6118b082613234565b6118ba828261323c565b5050565b60006118c86132f9565b5060008051602061473483398151915290565b600b5460609060016001600160601b03909116101561190d5760405163239de89960e11b815260040160405180910390fd5b600a54600111156119315760405163239de89960e11b815260040160405180910390fd5b6000805b600a548110156119e95760005b600b546001600160601b03908116908216116119e05760006001600160a01b031660056000600a858154811061197a5761197a614317565b60009182526020808320909101546001600160a01b03908116845283820194909452604092830182206001600160601b038716835290522054600160601b900416146119ce57826119ca81614549565b9350505b806119d881614562565b915050611942565b50600101611935565b506000816001600160401b03811115611a0457611a04613b80565b604051908082528060200260200182016040528015611a3d57816020015b611a2a6137d3565b815260200190600190039081611a225790505b5090506000805b600a54811015611cec5760005b600b546001600160601b0390811690821611611ce35760006001600160a01b031660056000600a8581548110611a8957611a89614317565b60009182526020808320909101546001600160a01b03908116845283820194909452604092830182206001600160601b038716835290522054600160601b90041614611cd15760056000600a8481548110611ae657611ae6614317565b60009182526020808320909101546001600160a01b03908116845283820194909452604092830182206001600160601b03808716845290825283832084516101408101865281549283168152600160601b90920490951681830152600185015481850152600285015460ff1660608201526003850154608082015260048501805485518185028101850190965280865291959460a0870194909391929184015b82821015611c3c5760008481526020908190206040805160e081018252600786029092018054835260018101546001600160a01b03908116948401949094526002808201549094169183019190915260038101546060830152600481015460ff9081166080840152600582015460a084015260068201549293919260c0850192911690811115611c1857611c186139aa565b6002811115611c2957611c296139aa565b8152505081526020019060010190611b86565b505050908252506005820154602082015260068201546001600160a01b03908116604083015260078301549081166060830152608090910190600160a01b900460ff166002811115611c9057611c906139aa565b6002811115611ca157611ca16139aa565b81525050848481518110611cb757611cb7614317565b60200260200101819052508280611ccd90614549565b9350505b80611cdb81614562565b915050611a51565b50600101611a44565b50909392505050565b6001600160a01b03821660009081526005602090815260408083206001600160601b0385168452825280832060048101805483518186028101860190945280845260609592949192909184015b82821015611df85760008481526020908190206040805160e081018252600786029092018054835260018101546001600160a01b03908116948401949094526002808201549094169183019190915260038101546060830152600481015460ff9081166080840152600582015460a084015260068201549293919260c0850192911690811115611dd457611dd46139aa565b6002811115611de557611de56139aa565b8152505081526020019060010190611d42565b5050505091505092915050565b611e0d613134565b611e176000613342565b565b6000805b600654811015611e9057600060068281548110611e3c57611e3c614317565b60009182526020808320909101546001600160a01b03878116845260038352604080852091909216808552925290912054909150611e7a82826127e3565b611e8490856144a9565b93505050600101611e1d565b50919050565b60606007805480602002602001604051908101604052809291908181526020018280548015611eee57602002820191906000526020600020905b81546001600160a01b03168152600190910190602001808311611ed0575b5050505050905090565b611f00613134565b6001600160a01b0382166000818152600260209081526040808320805460ff19166001908117909155918290528083208590556007805492830181559092527fa66cc928b5edb82af9bd49922954155ab7b0942694bea4ce44661d9a8736c6880180546001600160a01b03191683179055513391907f9f19fcb1a937dd3e369cba40ca1965cc82e45072e4692441109145bf5919a51c90611fa49085815260200190565b60405180910390a35050565b6001600160a01b0381166000908152600460205260409020805460609190611fd79061432d565b80601f01602080910402602001604051908101604052809291908181526020018280546120039061432d565b80156120505780601f1061202557610100808354040283529160200191612050565b820191906000526020600020905b81548152906001019060200180831161203357829003601f168201915b50505050509050919050565b61206581612fc6565b61207082600161307b565b3360009081526003602090815260408083206001600160a01b0386168452909152812080548392906120a39084906144a9565b9091555050600a80546001810182556000919091527fc65a7bb8d6351c1cf70c95a316cc6a92839c986682d98bc35f958f4883f9d2a80180546001600160a01b031916339081179091556040518281526001600160a01b03841691907ff1c0dd7e9b98bbff859029005ef89b127af049cd18df1a8d79f0b7e019911e569060200160405180910390a36040516323b872dd60e01b81526000906001600160a01b038416906323b872dd9061215f90339030908790600401614525565b6020604051808303816000875af115801561217e573d6000803e3d6000fd5b505050506040513d601f19601f820116820180604052508101906121a291906144ef565b9050806121c257604051633ef92ae360e01b815260040160405180910390fd5b505050565b60606006805480602002602001604051908101604052809291908181526020018280548015611eee576020028201919060005260206000209081546001600160a01b03168152600190910190602001808311611ed0575050505050905090565b61223084612fc6565b61223c8360ff16612fc6565b61224533612fe7565b6001600160a01b03861660009081526005602090815260408083206001600160601b03891684529091528120906007820154600160a01b900460ff166002811115612292576122926139aa565b146122b057604051630308adab60e11b815260040160405180910390fd5b6040516370a0823160e01b815233600482015285906001600160a01b038416906370a0823190602401602060405180830381865afa1580156122f6573d6000803e3d6000fd5b505050506040513d601f19601f8201168201806040525081019061231a919061450c565b101561233957604051632c67d2bb60e21b815260040160405180910390fd5b60078101546001600160a01b0383811691161461236957604051638d6a7ae360e01b815260040160405180910390fd5b60405163095ea7b360e01b8152306004820152602481018690526001600160a01b0383169063095ea7b3906044016020604051808303816000875af11580156123b6573d6000803e3d6000fd5b505050506040513d601f19601f820116820180604052508101906123da91906144ef565b50600b546123f990600160601b90046001600160601b031660016144bc565b600b600c6101000a8154816001600160601b0302191690836001600160601b0316021790555061245c6040805160e081018252600080825260208201819052918101829052606081018290526080810182905260a081018290529060c082015290565b600b54600160601b90046001600160601b0316815233604082015260ff851660808201526001600160a01b038316602082015260a08101849052600060c0820181905250606081018681526004808401805460018181018355600092835260209283902086516007909302019182559185015181830180546001600160a01b039283166001600160a01b031991821617909155604087015160028085018054929094169190921617909155935160038201556080850151928101805460ff90941660ff1994851617905560a0850151600582015560c085015160068201805487969395929491939216918490811115612557576125576139aa565b021790555050604080516001600160a01b0386168152602081018990526001600160601b038a16925033917fdf16db0d27d7635b8d159cc120b79ee1f896448cea3cfbeed50b227cdcb5d07f9101611037565b6125b333612fe7565b3360009081526005602090815260408083206001600160601b0386168452909152812060078101549091906125f1906001600160a01b0316846127e3565b905060016007830154600160a01b900460ff166002811115612615576126156139aa565b1461263357604051631b582c3360e01b815260040160405180910390fd5b60078201546040516370a0823160e01b81523360048201526001600160a01b0390911690849082906370a0823190602401602060405180830381865afa158015612681573d6000803e3d6000fd5b505050506040513d601f19601f820116820180604052508101906126a5919061450c565b10156126c457604051632c67d2bb60e21b815260040160405180910390fd5b818360030154106126ee57818360030160008282546126e391906144dc565b909155506126fc9050565b600383018054600090915591505b826003015460000361271e5760078301805460ff60a01b1916600160a11b1790555b60068301546040516323b872dd60e01b81526001600160a01b03808416926323b872dd9261275492339216908990600401614525565b6020604051808303816000875af1158015612773573d6000803e3d6000fd5b505050506040513d601f19601f8201168201806040525081019061279791906144ef565b50604080516001600160601b03871681526020810186905233917fe4da8da4d1fb918a46281382df3b2a3b88ac58a0f388dd4766074deaf8442e4d910160405180910390a25050505050565b6001600160a01b038216600090815260016020526040812054806128425760405162461bcd60e51b8152602060048201526016602482015275283937ba37b1b7b62fafa4b73b30b634b22a37b5b2b760511b6044820152606401611458565b6009546040516396834ad360e01b8152600481018390526000916001600160a01b0316906396834ad390602401608060405180830381865afa15801561288c573d6000803e3d6000fd5b505050506040513d601f19601f820116820180604052508101906128b09190614588565b805190915060070b60008112156129095760405162461bcd60e51b815260206004820152601760248201527f50726f746f636f6c5f5f4e6567617469766550726963650000000000000000006044820152606401611458565b670de0b6b3a7640000856129226402540be40084614470565b61292c9190614470565b6129369190614487565b9695505050505050565b612948613134565b61295133612fe7565b80518251146129735760405163082e439b60e31b815260040160405180910390fd5b60005b82518160ff161015612a4857818160ff168151811061299757612997614317565b602002602001015160016000858460ff16815181106129b8576129b8614317565b60200260200101516001600160a01b03166001600160a01b03168152602001908152602001600020819055506006838260ff16815181106129fb576129fb614317565b60209081029190910181015182546001810184556000938452919092200180546001600160a01b0319166001600160a01b0390921691909117905580612a408161461e565b915050612976565b5060065460405160ff909116815233907f0925d805c5c6b06c1ed914b3b0fbc81bd432609f86b0b87d11c28ce5589eaa559060200160405180910390a25050565b612a9233612fe7565b3360009081526005602090815260408083206001600160601b03871684529091528120906007820154600160a01b900460ff166002811115612ad657612ad66139aa565b14612af457604051630308adab60e11b815260040160405180910390fd5b60048101546001600160601b0384161115612b225760405163239de89960e11b815260040160405180910390fd5b600081600401846001600160601b031681548110612b4257612b42614317565b6000918252602082206007909102019150600682015460ff166002811115612b6c57612b6c6139aa565b14612b8a57604051633bb6356d60e11b815260040160405180910390fd5b8154600160601b90046001600160a01b03163314612bbb576040516322b9d68360e11b815260040160405180910390fd5b60068101805484919060ff19166001836002811115612bdc57612bdc6139aa565b02179055506002836002811115612bf557612bf56139aa565b03612c0a57612c058282866133b3565b612c37565b6001836002811115612c1e57612c1e6139aa565b03612c3757612c3781600601805460ff19166001179055565b60078201546001600160601b0385169033907fab279fedbdba1d45060b4c9e9bcd25880fd8bb000daf59c9504616277660346290600160a01b900460ff166002811115612c8657612c866139aa565b600685015460ff166002811115612c9f57612c9f6139aa565b6040805160ff93841681529290911660208301520160405180910390a35050505050565b60095460405163d47eed4560e01b81526000916001600160a01b03169063d47eed4590612cf69086908690600401614666565b602060405180830381865afa158015612d13573d6000803e3d6000fd5b505050506040513d601f19601f82011682018060405250810190612d37919061450c565b600954604051631df3cbc560e31b81529192506001600160a01b03169063ef9e5e28908390612d6c9087908790600401614666565b6000604051808303818588803b158015612d8557600080fd5b505af1158015612d99573d6000803e3d6000fd5b5050505050505050565b612dab613134565b6001600160a01b038116612dd557604051631e4fbdf760e01b815260006004820152602401611458565b612dde81613342565b50565b612de9613134565b612df233612fe7565b60005b81518160ff161015612f86576000801b60016000848460ff1681518110612e1e57612e1e614317565b60200260200101516001600160a01b03166001600160a01b031681526020019081526020016000208190555060005b60065460ff82161015612f7357828260ff1681518110612e6f57612e6f614317565b60200260200101516001600160a01b031660068260ff1681548110612e9657612e96614317565b6000918252602090912001546001600160a01b031603612f615760068054612ec0906001906144dc565b81548110612ed057612ed0614317565b600091825260209091200154600680546001600160a01b039092169160ff8416908110612eff57612eff614317565b9060005260206000200160006101000a8154816001600160a01b0302191690836001600160a01b031602179055506006805480612f3e57612f3e614701565b600082815260209020810160001990810180546001600160a01b03191690550190555b80612f6b8161461e565b915050612e4d565b5080612f7e8161461e565b915050612df5565b5060065460405160ff909116815233907f0925d805c5c6b06c1ed914b3b0fbc81bd432609f86b0b87d11c28ce5589eaa559060200160405180910390a250565b60008111612dde576040516351c6e81760e01b815260040160405180910390fd5b6001600160a01b038116600090815260046020526040902060010154600160a01b900460ff16612dde5760405163ba7330c360e01b815260040160405180910390fd5b60004285101561304d57604051635ac7b73160e01b815260040160405180910390fd5b600061305983866127e3565b9050606461292c60ff861683614470565b613072613586565b612dde816135cf565b6001600160a01b0382166000908152602082905260409020546118ba5760405163335dc1d160e01b815260040160405180910390fd5b60006130bc826130e0565b905060018110156118ba576040516306142b2f60e41b815260040160405180910390fd5b60008060006130ee846135d7565b909250905060006064613102605584614470565b61310c9190614487565b905082613121670de0b6b3a764000083614470565b61312b9190614487565b95945050505050565b336131667f9016d09d72d40fdae2fd8ceac6b6234c7706214fd39c1cd1e609a0528c199300546001600160a01b031690565b6001600160a01b031614611e175760405163118cdaa760e01b8152336004820152602401611458565b306001600160a01b037f000000000000000000000000000000000000000000000000000000000000000016148061321657507f00000000000000000000000000000000000000000000000000000000000000006001600160a01b031661320a600080516020614734833981519152546001600160a01b031690565b6001600160a01b031614155b15611e175760405163703e46dd60e11b815260040160405180910390fd5b612dde613134565b816001600160a01b03166352d1902d6040518163ffffffff1660e01b8152600401602060405180830381865afa925050508015613296575060408051601f3d908101601f191682019092526132939181019061450c565b60015b6132be57604051634c9c8ce360e01b81526001600160a01b0383166004820152602401611458565b60008051602061473483398151915281146132ef57604051632a87526960e21b815260048101829052602401611458565b6121c28383613604565b306001600160a01b037f00000000000000000000000000000000000000000000000000000000000000001614611e175760405163703e46dd60e11b815260040160405180910390fd5b7f9016d09d72d40fdae2fd8ceac6b6234c7706214fd39c1cd1e609a0528c19930080546001600160a01b031981166001600160a01b03848116918217845560405192169182907f8be0079c531659141344cd1fd0a4f28419497f9722a3daafe3b4186f6b6457e090600090a3505050565b600282810154600685810180546001600160a01b0319166001600160a01b0393841617905560078601805460ff60a01b1916600160a01b1790558401805460ff1916909217909155600583015460038401546004850154600186015460009461342294939260ff16911661302a565b60038581018290558554600160601b90046001600160a01b03166000908152600460205260408120909101805492935083929091906134629084906144a9565b9091555050835460019061348590600160601b90046001600160a01b03166130e0565b10156134a4576040516301401b1b60e61b815260040160405180910390fd5b60018301546002840154855460038601546040516323b872dd60e01b81526001600160a01b03948516946323b872dd946134f09490821693600160601b90910490911691600401614525565b6020604051808303816000875af115801561350f573d6000803e3d6000fd5b505050506040513d601f19601f8201168201806040525081019061353391906144ef565b50600383015484546040516001600160601b0385168152600160601b9091046001600160a01b0316907fb025ffaea53389db0d078526e665be7950273096aa78f9163da82946accaa5999060200161149a565b7ff0c57e16840df040f15088dc2f81fe391c3923bec73e23a9662efc9c229c6a0054600160401b900460ff16611e1757604051631afcd79f60e31b815260040160405180910390fd5b612dab613586565b6001600160a01b038116600090815260046020526040812060030154906135fd83611e19565b9050915091565b61360d8261365a565b6040516001600160a01b038316907fbc7cd75a20ee27fd9adebab32041f755214dbc6bffa90cc0225b39da2e5c2d3b90600090a2805115613652576121c282826136bf565b6118ba61372c565b806001600160a01b03163b60000361369057604051634c9c8ce360e01b81526001600160a01b0382166004820152602401611458565b60008051602061473483398151915280546001600160a01b0319166001600160a01b0392909216919091179055565b6060600080846001600160a01b0316846040516136dc9190614717565b600060405180830381855af49150503d8060008114613717576040519150601f19603f3d011682016040523d82523d6000602084013e61371c565b606091505b509150915061312b85838361374b565b3415611e175760405163b398979f60e01b815260040160405180910390fd5b6060826137605761375b826137aa565b6137a3565b815115801561377757506001600160a01b0384163b155b156137a057604051639996b31560e01b81526001600160a01b0385166004820152602401611458565b50805b9392505050565b8051156137ba5780518082602001fd5b604051630a12f52160e11b815260040160405180910390fd5b604080516101408101825260008082526020820181905291810182905260608082018390526080820183905260a082015260c0810182905260e0810182905261010081018290529061012082015290565b8280548282559060005260206000209060070281019282156139045760005260206000209160070282015b82811115613904578254825560018084015481840180546001600160a01b03199081166001600160a01b03938416179091556002808701548187018054909316931692909217905560038086015490850155600480860154908501805460ff1990811660ff938416179091556005808801549087015560068088015490870180548996899693909516949193169184908111156138ee576138ee6139aa565b021790555050509160070191906007019061384f565b50613910929150613914565b5090565b5b808211156139105760008082556001820180546001600160a01b031990811690915560028301805490911690556003820181905560048201805460ff1990811690915560058301919091556006820180549091169055600701613915565b80356001600160601b038116811461398a57600080fd5b919050565b6000602082840312156139a157600080fd5b6137a382613973565b634e487b7160e01b600052602160045260246000fd5b60038110612dde57634e487b7160e01b600052602160045260246000fd5b805182526000602082015160018060a01b03808216602086015280604085015116604086015250506060820151606084015260ff608083015116608084015260a082015160a084015260c0820151613a35816139c0565b60c0840152505060e00190565b60008151808452602080850194506020840160005b83811015613a7857613a6a8783516139de565b965090820190600101613a57565b509495945050505050565b613a8c816139c0565b9052565b80516001600160601b0316825260006101406020830151613abc60208601826001600160a01b03169052565b50604083015160408501526060830151613adb606086018260ff169052565b506080830151608085015260a08301518160a0860152613afd82860182613a42565b91505060c083015160c085015260e0830151613b2460e08601826001600160a01b03169052565b50610100838101516001600160a01b03169085015261012080840151613b4c82870182613a83565b5090949350505050565b6020815260006137a36020830184613a90565b80356001600160a01b038116811461398a57600080fd5b634e487b7160e01b600052604160045260246000fd5b604051601f8201601f191681016001600160401b0381118282101715613bbe57613bbe613b80565b604052919050565b60006001600160401b03831115613bdf57613bdf613b80565b613bf2601f8401601f1916602001613b96565b9050828152838383011115613c0657600080fd5b828260208301376000602084830101529392505050565b8015158114612dde57600080fd5b600080600060608486031215613c4057600080fd5b613c4984613b69565b925060208401356001600160401b03811115613c6457600080fd5b8401601f81018613613c7557600080fd5b613c8486823560208401613bc6565b9250506040840135613c9581613c1d565b809150509250925092565b60008060408385031215613cb357600080fd5b613cbc83613b69565b9150613cca60208401613973565b90509250929050565b803560ff8116811461398a57600080fd5b60008060008060808587031215613cfa57600080fd5b84359350613d0a60208601613cd3565b925060408501359150613d1f60608601613b69565b905092959194509250565b60006001600160401b03821115613d4357613d43613b80565b5060051b60200190565b600082601f830112613d5e57600080fd5b81356020613d73613d6e83613d2a565b613b96565b8083825260208201915060208460051b870101935086841115613d9557600080fd5b602086015b84811015613db857613dab81613b69565b8352918301918301613d9a565b509695505050505050565b600082601f830112613dd457600080fd5b81356020613de4613d6e83613d2a565b8083825260208201915060208460051b870101935086841115613e0657600080fd5b602086015b84811015613db85780358352918301918301613e0b565b600080600080600060a08688031215613e3a57600080fd5b613e4386613b69565b945060208601356001600160401b0380821115613e5f57600080fd5b613e6b89838a01613d4d565b95506040880135915080821115613e8157600080fd5b50613e8e88828901613dc3565b935050613e9d60608701613b69565b9150613eab60808701613b69565b90509295509295909350565b60008060408385031215613eca57600080fd5b613ed383613b69565b946020939093013593505050565b600080600060608486031215613ef657600080fd5b613eff84613b69565b9250613f0d60208501613cd3565b9150613f1b60408501613b69565b90509250925092565b60008060408385031215613f3757600080fd5b613f4083613b69565b915060208301356001600160401b03811115613f5b57600080fd5b8301601f81018513613f6c57600080fd5b613f7b85823560208401613bc6565b9150509250929050565b60008060408385031215613f9857600080fd5b613fa183613b69565b9150613cca60208401613b69565b600060208083016020845280855180835260408601915060408160051b87010192506020870160005b8281101561400657603f19888603018452613ff4858351613a90565b94509285019290850190600101613fd8565b5092979650505050505050565b6020808252825182820181905260009190848201906040850190845b81811015614050576140428385516139de565b93850193925060010161402f565b50909695505050505050565b60006020828403121561406e57600080fd5b6137a382613b69565b6020808252825182820181905260009190848201906040850190845b818110156140505783516001600160a01b031683529284019291840191600101614093565b60005b838110156140d35781810151838201526020016140bb565b50506000910152565b60208152600082518060208401526140fb8160408501602087016140b8565b601f01601f19169190910160400192915050565b60008060008060008060c0878903121561412857600080fd5b61413187613b69565b955061413f60208801613973565b94506040870135935061415460608801613cd3565b92506080870135915061416960a08801613b69565b90509295509295509295565b6000806040838503121561418857600080fd5b613ed383613973565b600080604083850312156141a457600080fd5b82356001600160401b03808211156141bb57600080fd5b6141c786838701613d4d565b935060208501359150808211156141dd57600080fd5b50613f7b85828601613dc3565b6000806000606084860312156141ff57600080fd5b61420884613973565b925061421660208501613973565b9150604084013560038110613c9557600080fd5b6000806020838503121561423d57600080fd5b82356001600160401b038082111561425457600080fd5b818501915085601f83011261426857600080fd5b81358181111561427757600080fd5b8660208260051b850101111561428c57600080fd5b60209290920196919550909350505050565b6000602082840312156142b057600080fd5b81356001600160401b038111156142c657600080fd5b6142d284828501613d4d565b949350505050565b634e487b7160e01b600052601160045260246000fd5b6001600160601b03828116828216039080821115614310576143106142da565b5092915050565b634e487b7160e01b600052603260045260246000fd5b600181811c9082168061434157607f821691505b602082108103611e9057634e487b7160e01b600052602260045260246000fd5b601f8211156121c2576000816000526020600020601f850160051c8101602086101561438a5750805b601f850160051c820191505b818110156143a957828155600101614396565b505050505050565b81516001600160401b038111156143ca576143ca613b80565b6143de816143d8845461432d565b84614361565b602080601f83116001811461441357600084156143fb5750858301515b600019600386901b1c1916600185901b1785556143a9565b600085815260208120601f198616915b8281101561444257888601518255948401946001909101908401614423565b50858210156144605787850151600019600388901b60f8161c191681555b5050505050600190811b01905550565b8082028115828204841417610ca657610ca66142da565b6000826144a457634e487b7160e01b600052601260045260246000fd5b500490565b80820180821115610ca657610ca66142da565b6001600160601b03818116838216019080821115614310576143106142da565b81810381811115610ca657610ca66142da565b60006020828403121561450157600080fd5b81516137a381613c1d565b60006020828403121561451e57600080fd5b5051919050565b6001600160a01b039384168152919092166020820152604081019190915260600190565b60006001820161455b5761455b6142da565b5060010190565b60006001600160601b0380831681810361457e5761457e6142da565b6001019392505050565b60006080828403121561459a57600080fd5b604051608081016001600160401b0382821081831117156145bd576145bd613b80565b81604052845191508160070b82146145d457600080fd5b90825260208401519080821682146145eb57600080fd5b5060208201526040830151600381900b811461460657600080fd5b60408201526060928301519281019290925250919050565b600060ff821660ff8103614634576146346142da565b60010192915050565b81835281816020850137506000828201602090810191909152601f909101601f19169091010190565b60208082528181018390526000906040600585901b8401810190840186845b878110156146f457868403603f190183528135368a9003601e190181126146ab57600080fd5b890185810190356001600160401b038111156146c657600080fd5b8036038213156146d557600080fd5b6146e086828461463d565b955050509184019190840190600101614685565b5091979650505050505050565b634e487b7160e01b600052603160045260246000fd5b600082516147298184602087016140b8565b919091019291505056fe360894a13ba1a3210667c828492db98dca3e2076cc3735a920a3ca505d382bbca26469706673582212203bdc1e14b4f4c0a3090cfe12de8c94bb5e2e2ce70da3ab2b441eeb1cf70613d764736f6c63430008180033",
    "linkReferences": {}
  },
  "methodIdentifiers": {
    "UPGRADE_INTERFACE_VERSION()": "ad3cb1cc",
    "addCollateralTokens(address[],bytes32[])": "eb703464",
    "addLoanableToken(address,bytes32)": "88bd6585",
    "createLendingRequest(uint256,uint8,uint256,address)": "1308aedc",
    "depositCollateral(address,uint256)": "a5d5db0c",
    "getAccountCollateralValue(address)": "7d1a4450",
    "getAllCollateralToken()": "b202dc20",
    "getAllOfferForUser(address,uint96)": "58944730",
    "getAllRequest()": "545569ba",
    "getLoanableAssets()": "86f5483f",
    "getRequestById(uint96)": "02727e34",
    "getUsdValue(address,uint256)": "c660d112",
    "getUserEmail(address)": "9480e948",
    "getUserRequest(address,uint96)": "1143e606",
    "get_gitCoinPoint(address)": "f2cc0ba5",
    "gets_addressToCollateralDeposited(address,address)": "527ed126",
    "initialize(address,address[],bytes32[],address,address)": "15b19dc2",
    "isVerified(address)": "b9209e33",
    "makeLendingOffer(address,uint96,uint256,uint8,uint256,address)": "bf343943",
    "owner()": "8da5cb5b",
    "proxiableUUID()": "52d1902d",
    "removeCollateralTokens(address[])": "f9f22ec2",
    "renounceOwnership()": "715018a6",
    "repayLoan(uint96,uint256)": "c147a892",
    "respondToLendingOffer(uint96,uint96,uint8)": "ecb0fe38",
    "serviceRequest(address,uint8,address)": "41239496",
    "transferOwnership(address)": "f2fde38b",
    "updateEmail(address,string,bool)": "065a1f87",
    "updateGPScore(address,uint256)": "42e292c1",
    "updatePriceFeeds(bytes[])": "ef9e5e28",
    "upgradeToAndCall(address,bytes)": "4f1ef286",
    "withdrawCollateral(address,uint256)": "350c35e9"
  },
  "id": 52
}