{
  "abi": [
    {
      "type": "constructor",
      "inputs": [
        {
          "name": "_tokenAddress",
          "type": "address",
          "internalType": "address"
        }
      ],
      "stateMutability": "nonpayable"
    },
    {
      "type": "function",
      "name": "createProposal",
      "inputs": [
        {
          "name": "_title",
          "type": "string",
          "internalType": "string"
        },
        {
          "name": "_options",
          "type": "string[]",
          "internalType": "string[]"
        },
        {
          "name": "_status",
          "type": "uint8",
          "internalType": "enum Governance.Status"
        },
        {
          "name": "_deadline",
          "type": "uint256",
          "internalType": "uint256"
        }
      ],
      "outputs": [],
      "stateMutability": "nonpayable"
    },
    {
      "type": "function",
      "name": "delegateVote",
      "inputs": [
        {
          "name": "_delegate",
          "type": "address",
          "internalType": "address"
        },
        {
          "name": "_proposalId",
          "type": "uint256",
          "internalType": "uint256"
        }
      ],
      "outputs": [],
      "stateMutability": "nonpayable"
    },
    {
      "type": "function",
      "name": "getAllProposals",
      "inputs": [],
      "outputs": [
        {
          "name": "",
          "type": "tuple[]",
          "internalType": "struct Governance.Proposal[]",
          "components": [
            {
              "name": "id",
              "type": "uint256",
              "internalType": "uint256"
            },
            {
              "name": "initiator",
              "type": "address",
              "internalType": "address"
            },
            {
              "name": "title",
              "type": "string",
              "internalType": "string"
            },
            {
              "name": "options",
              "type": "string[]",
              "internalType": "string[]"
            },
            {
              "name": "vote_count",
              "type": "uint96[]",
              "internalType": "uint96[]"
            },
            {
              "name": "status",
              "type": "uint8",
              "internalType": "enum Governance.Status"
            },
            {
              "name": "deadline",
              "type": "uint256",
              "internalType": "uint256"
            }
          ]
        }
      ],
      "stateMutability": "view"
    },
    {
      "type": "function",
      "name": "getDelegatedVotes",
      "inputs": [
        {
          "name": "_voter",
          "type": "address",
          "internalType": "address"
        },
        {
          "name": "_proposalId",
          "type": "uint256",
          "internalType": "uint256"
        }
      ],
      "outputs": [
        {
          "name": "",
          "type": "uint96",
          "internalType": "uint96"
        }
      ],
      "stateMutability": "view"
    },
    {
      "type": "function",
      "name": "getProposal",
      "inputs": [
        {
          "name": "_id",
          "type": "uint256",
          "internalType": "uint256"
        }
      ],
      "outputs": [
        {
          "name": "proposal_",
          "type": "tuple",
          "internalType": "struct Governance.Proposal",
          "components": [
            {
              "name": "id",
              "type": "uint256",
              "internalType": "uint256"
            },
            {
              "name": "initiator",
              "type": "address",
              "internalType": "address"
            },
            {
              "name": "title",
              "type": "string",
              "internalType": "string"
            },
            {
              "name": "options",
              "type": "string[]",
              "internalType": "string[]"
            },
            {
              "name": "vote_count",
              "type": "uint96[]",
              "internalType": "uint96[]"
            },
            {
              "name": "status",
              "type": "uint8",
              "internalType": "enum Governance.Status"
            },
            {
              "name": "deadline",
              "type": "uint256",
              "internalType": "uint256"
            }
          ]
        }
      ],
      "stateMutability": "view"
    },
    {
      "type": "function",
      "name": "getProposalLimit",
      "inputs": [
        {
          "name": "start",
          "type": "uint256",
          "internalType": "uint256"
        },
        {
          "name": "limit",
          "type": "uint256",
          "internalType": "uint256"
        }
      ],
      "outputs": [
        {
          "name": "",
          "type": "tuple[]",
          "internalType": "struct Governance.Proposal[]",
          "components": [
            {
              "name": "id",
              "type": "uint256",
              "internalType": "uint256"
            },
            {
              "name": "initiator",
              "type": "address",
              "internalType": "address"
            },
            {
              "name": "title",
              "type": "string",
              "internalType": "string"
            },
            {
              "name": "options",
              "type": "string[]",
              "internalType": "string[]"
            },
            {
              "name": "vote_count",
              "type": "uint96[]",
              "internalType": "uint96[]"
            },
            {
              "name": "status",
              "type": "uint8",
              "internalType": "enum Governance.Status"
            },
            {
              "name": "deadline",
              "type": "uint256",
              "internalType": "uint256"
            }
          ]
        }
      ],
      "stateMutability": "view"
    },
    {
      "type": "function",
      "name": "getProposalStatus",
      "inputs": [
        {
          "name": "_proposalId",
          "type": "uint256",
          "internalType": "uint256"
        }
      ],
      "outputs": [
        {
          "name": "",
          "type": "uint8",
          "internalType": "enum Governance.Status"
        }
      ],
      "stateMutability": "view"
    },
    {
      "type": "function",
      "name": "getTotalProposals",
      "inputs": [],
      "outputs": [
        {
          "name": "",
          "type": "uint256",
          "internalType": "uint256"
        }
      ],
      "stateMutability": "view"
    },
    {
      "type": "function",
      "name": "getVotingPower",
      "inputs": [
        {
          "name": "_voter",
          "type": "address",
          "internalType": "address"
        }
      ],
      "outputs": [
        {
          "name": "",
          "type": "uint256",
          "internalType": "uint256"
        }
      ],
      "stateMutability": "view"
    },
    {
      "type": "function",
      "name": "owner",
      "inputs": [],
      "outputs": [
        {
          "name": "",
          "type": "address",
          "internalType": "address"
        }
      ],
      "stateMutability": "view"
    },
    {
      "type": "function",
      "name": "renounceOwnership",
      "inputs": [],
      "outputs": [],
      "stateMutability": "nonpayable"
    },
    {
      "type": "function",
      "name": "stakeForVotingPower",
      "inputs": [],
      "outputs": [],
      "stateMutability": "nonpayable"
    },
    {
      "type": "function",
      "name": "transferOwnership",
      "inputs": [
        {
          "name": "newOwner",
          "type": "address",
          "internalType": "address"
        }
      ],
      "outputs": [],
      "stateMutability": "nonpayable"
    },
    {
      "type": "function",
      "name": "updateProposalStatus",
      "inputs": [
        {
          "name": "_proposalId",
          "type": "uint256",
          "internalType": "uint256"
        },
        {
          "name": "_status",
          "type": "uint8",
          "internalType": "enum Governance.Status"
        }
      ],
      "outputs": [],
      "stateMutability": "nonpayable"
    },
    {
      "type": "function",
      "name": "vote",
      "inputs": [
        {
          "name": "_id",
          "type": "uint256",
          "internalType": "uint256"
        },
        {
          "name": "_option",
          "type": "uint256",
          "internalType": "uint256"
        }
      ],
      "outputs": [],
      "stateMutability": "nonpayable"
    },
    {
      "type": "function",
      "name": "withdrawAndRevokeVotingPower",
      "inputs": [],
      "outputs": [],
      "stateMutability": "nonpayable"
    },
    {
      "type": "event",
      "name": "CreatedProposal",
      "inputs": [
        {
          "name": "msgSender",
          "type": "address",
          "indexed": true,
          "internalType": "address"
        },
        {
          "name": "proposalId",
          "type": "uint256",
          "indexed": true,
          "internalType": "uint256"
        },
        {
          "name": "deadline",
          "type": "uint256",
          "indexed": true,
          "internalType": "uint256"
        }
      ],
      "anonymous": false
    },
    {
      "type": "event",
      "name": "OwnershipTransferred",
      "inputs": [
        {
          "name": "previousOwner",
          "type": "address",
          "indexed": true,
          "internalType": "address"
        },
        {
          "name": "newOwner",
          "type": "address",
          "indexed": true,
          "internalType": "address"
        }
      ],
      "anonymous": false
    },
    {
      "type": "event",
      "name": "ProposalUpdated",
      "inputs": [
        {
          "name": "proposalId",
          "type": "uint256",
          "indexed": true,
          "internalType": "uint256"
        },
        {
          "name": "status",
          "type": "uint8",
          "indexed": false,
          "internalType": "uint8"
        },
        {
          "name": "deadline",
          "type": "uint256",
          "indexed": false,
          "internalType": "uint256"
        }
      ],
      "anonymous": false
    },
    {
      "type": "event",
      "name": "VoteDelegated",
      "inputs": [
        {
          "name": "from",
          "type": "address",
          "indexed": true,
          "internalType": "address"
        },
        {
          "name": "delegate",
          "type": "address",
          "indexed": true,
          "internalType": "address"
        },
        {
          "name": "proposalId",
          "type": "uint256",
          "indexed": false,
          "internalType": "uint256"
        },
        {
          "name": "numberOfVotes",
          "type": "uint96",
          "indexed": false,
          "internalType": "uint96"
        }
      ],
      "anonymous": false
    },
    {
      "type": "event",
      "name": "Voted",
      "inputs": [
        {
          "name": "msgSender",
          "type": "address",
          "indexed": true,
          "internalType": "address"
        },
        {
          "name": "id",
          "type": "uint256",
          "indexed": true,
          "internalType": "uint256"
        },
        {
          "name": "options",
          "type": "uint256",
          "indexed": true,
          "internalType": "uint256"
        }
      ],
      "anonymous": false
    },
    {
      "type": "event",
      "name": "VotingPowerAdded",
      "inputs": [
        {
          "name": "msgSender",
          "type": "address",
          "indexed": true,
          "internalType": "address"
        },
        {
          "name": "contractAddress",
          "type": "address",
          "indexed": true,
          "internalType": "address"
        },
        {
          "name": "amount",
          "type": "uint256",
          "indexed": true,
          "internalType": "uint256"
        }
      ],
      "anonymous": false
    },
    {
      "type": "event",
      "name": "VotingPowerReduced",
      "inputs": [
        {
          "name": "msgSender",
          "type": "address",
          "indexed": true,
          "internalType": "address"
        },
        {
          "name": "contractAddress",
          "type": "address",
          "indexed": true,
          "internalType": "address"
        },
        {
          "name": "amount",
          "type": "uint256",
          "indexed": true,
          "internalType": "uint256"
        }
      ],
      "anonymous": false
    },
    {
      "type": "error",
      "name": "Governance__AlreadyStaked",
      "inputs": []
    },
    {
      "type": "error",
      "name": "Governance__AlreadyVoted",
      "inputs": []
    },
    {
      "type": "error",
      "name": "Governance__NoStakedToken",
      "inputs": []
    },
    {
      "type": "error",
      "name": "Governance__NotEnoughAllowance",
      "inputs": []
    },
    {
      "type": "error",
      "name": "Governance__NotEnoughTokenBalance",
      "inputs": []
    },
    {
      "type": "error",
      "name": "Governance__NotEnoughVotingPower",
      "inputs": []
    },
    {
      "type": "error",
      "name": "Governance__OptionDoesNotExist",
      "inputs": []
    },
    {
      "type": "error",
      "name": "Governance__ProposalDoesNotExist",
      "inputs": []
    },
    {
      "type": "error",
      "name": "Governance__ProposalExpired",
      "inputs": []
    },
    {
      "type": "error",
      "name": "Governance__ProposalInactive",
      "inputs": []
    },
    {
      "type": "error",
      "name": "OwnableInvalidOwner",
      "inputs": [
        {
          "name": "owner",
          "type": "address",
          "internalType": "address"
        }
      ]
    },
    {
      "type": "error",
      "name": "OwnableUnauthorizedAccount",
      "inputs": [
        {
          "name": "account",
          "type": "address",
          "internalType": "address"
        }
      ]
    }
  ],
  "bytecode": {
    "object": "0x6080604052683635c9adc5dea000006001553480156200001e57600080fd5b506040516200247d3803806200247d8339810160408190526200004191620000ea565b33806200006857604051631e4fbdf760e01b81526000600482015260240160405180910390fd5b62000073816200009a565b50600380546001600160a01b0319166001600160a01b03929092169190911790556200011c565b600080546001600160a01b038381166001600160a01b0319831681178455604051919092169283917f8be0079c531659141344cd1fd0a4f28419497f9722a3daafe3b4186f6b6457e09190a35050565b600060208284031215620000fd57600080fd5b81516001600160a01b03811681146200011557600080fd5b9392505050565b612351806200012c6000396000f3fe608060405234801561001057600080fd5b50600436106101005760003560e01c8063926f732711610097578063cceb68f511610066578063cceb68f51461021c578063e650a0e414610224578063e86250fd1461027b578063f2fde38b1461028e57600080fd5b8063926f7327146101a4578063b384abef146101b7578063bb4d4436146101ca578063c7f758a8146101fc57600080fd5b806369bb6fb6116100d357806369bb6fb614610159578063715018a614610161578063773eade6146101695780638da5cb5b1461018957600080fd5b80630fab929a146101055780631a5007dd1461011a57806331b8c77214610131578063401853b714610139575b600080fd5b610118610113366004611c96565b6102a1565b005b6002545b6040519081526020015b60405180910390f35b6101186102b7565b61014c610147366004611cc2565b6104e9565b6040516101289190611d13565b6101186107b2565b6101186108ba565b61017c610177366004611d21565b6108ce565b6040516101289190611e9f565b6000546040516001600160a01b039091168152602001610128565b6101186101b2366004611f1a565b610c58565b6101186101c5366004611d21565b610f29565b61011e6101d8366004611f44565b6001600160a01b03166000908152600560205260409020546001600160601b031690565b61020f61020a366004611cc2565b611190565b6040516101289190611f66565b61017c611458565b610263610232366004611f1a565b6001600160a01b0391909116600090815260086020908152604080832093835292905220546001600160601b031690565b6040516001600160601b039091168152602001610128565b610118610289366004612030565b611709565b61011861029c366004611f44565b61192e565b6102a961196c565b6102b38282611999565b5050565b6001546003546040516370a0823160e01b81523360048201526001600160a01b03909116906370a0823190602401602060405180830381865afa158015610302573d6000803e3d6000fd5b505050506040513d601f19601f82011682018060405250810190610326919061212f565b101561034557604051633fcd411360e11b815260040160405180910390fd5b600154600354604051636eb1769f60e11b81523360048201523060248201526001600160a01b039091169063dd62ed3e90604401602060405180830381865afa158015610396573d6000803e3d6000fd5b505050506040513d601f19601f820116820180604052508101906103ba919061212f565b10156103d957604051637a11e9fd60e01b815260040160405180910390fd5b600154336000908152600660205260409020540361040a57604051639559c1c360e01b815260040160405180910390fd5b6003546001546040516323b872dd60e01b815233600482015230602482015260448101919091526001600160a01b03909116906323b872dd906064016020604051808303816000875af1158015610465573d6000803e3d6000fd5b505050506040513d601f19601f820116820180604052508101906104899190612148565b5060018054336000818152600660209081526040808320949094556005905282812080546001600160601b0319168517905592549151919230927f93c3bde061ba74efd3a7573086c7c9642298c6a8f61b7dc7de8bcb88efd9ed409190a4565b6000600254821061050d5760405163b4eb52cb60e01b815260040160405180910390fd5b6000600483815481106105225761052261216a565b90600052602060002090600702016040518060e0016040529081600082015481526020016001820160009054906101000a90046001600160a01b03166001600160a01b03166001600160a01b0316815260200160028201805461058490612180565b80601f01602080910402602001604051908101604052809291908181526020018280546105b090612180565b80156105fd5780601f106105d2576101008083540402835291602001916105fd565b820191906000526020600020905b8154815290600101906020018083116105e057829003601f168201915b5050505050815260200160038201805480602002602001604051908101604052809291908181526020016000905b828210156106d757838290600052602060002001805461064a90612180565b80601f016020809104026020016040519081016040528092919081815260200182805461067690612180565b80156106c35780601f10610698576101008083540402835291602001916106c3565b820191906000526020600020905b8154815290600101906020018083116106a657829003601f168201915b50505050508152602001906001019061062b565b5050505081526020016004820180548060200260200160405190810160405280929190818152602001828054801561076057602002820191906000526020600020906000905b82829054906101000a90046001600160601b03166001600160601b0316815260200190600c0190602082600b0104928301926001038202915080841161071d5790505b505050918352505060058281015460209092019160ff169081111561078757610787611cdb565b600581111561079857610798611cdb565b81526006919091015460209091015260a001519392505050565b60015433600090815260066020526040902054146107e3576040516367c4a20160e11b815260040160405180910390fd5b33600081815260056020908152604080832080546001600160601b0319169055600690915280822091909155600354600154915163a9059cbb60e01b8152600481019390935260248301919091526001600160a01b03169063a9059cbb906044016020604051808303816000875af1158015610863573d6000803e3d6000fd5b505050506040513d601f19601f820116820180604052508101906108879190612148565b50600154604051309033907f0fd138e185a2d845a1fb3528bbcfed706a5513e9d54c1969abd356f883d69d6090600090a4565b6108c261196c565b6108cc6000611a65565b565b6002546060906108de83856121d0565b11156109275760405162461bcd60e51b8152602060048201526013602482015272496e646578206f7574206f6620626f756e647360681b60448201526064015b60405180910390fd5b60008267ffffffffffffffff81111561094257610942611f79565b60405190808252806020026020018201604052801561097b57816020015b610968611ab5565b8152602001906001900390816109605790505b50905060005b83811015610c4e57600461099582876121d0565b815481106109a5576109a561216a565b90600052602060002090600702016040518060e0016040529081600082015481526020016001820160009054906101000a90046001600160a01b03166001600160a01b03166001600160a01b03168152602001600282018054610a0790612180565b80601f0160208091040260200160405190810160405280929190818152602001828054610a3390612180565b8015610a805780601f10610a5557610100808354040283529160200191610a80565b820191906000526020600020905b815481529060010190602001808311610a6357829003601f168201915b5050505050815260200160038201805480602002602001604051908101604052809291908181526020016000905b82821015610b5a578382906000526020600020018054610acd90612180565b80601f0160208091040260200160405190810160405280929190818152602001828054610af990612180565b8015610b465780601f10610b1b57610100808354040283529160200191610b46565b820191906000526020600020905b815481529060010190602001808311610b2957829003601f168201915b505050505081526020019060010190610aae565b50505050815260200160048201805480602002602001604051908101604052809291908181526020018280548015610be357602002820191906000526020600020906000905b82829054906101000a90046001600160601b03166001600160601b0316815260200190600c0190602082600b01049283019260010382029150808411610ba05790505b505050918352505060058281015460209092019160ff1690811115610c0a57610c0a611cdb565b6005811115610c1b57610c1b611cdb565b8152602001600682015481525050828281518110610c3b57610c3b61216a565b6020908102919091010152600101610981565b5090505b92915050565b6002548110610c7a5760405163b4eb52cb60e01b815260040160405180910390fd5b336001600160a01b03831603610cd25760405162461bcd60e51b815260206004820152601760248201527f43616e6e6f742064656c656761746520746f2073656c66000000000000000000604482015260640161091e565b336000908152600560205260408120546001600160601b03169003610d0a57604051634fea183360e01b815260040160405180910390fd5b33600090815260076020908152604080832084845290915290205460ff1615610d46576040516323039bc360e11b815260040160405180910390fd5b6001600160a01b0382166000908152600560205260409020546001600160601b0316600114610db75760405162461bcd60e51b815260206004820152601e60248201527f43616e6e6f742064656c656761746520746f206e6f6e206d656d626572730000604482015260640161091e565b6001600160a01b038216600090815260076020908152604080832084845290915290205460ff1615610e205760405162461bcd60e51b815260206004820152601260248201527111195b1959d85d19481a185cc81d9bdd195960721b604482015260640161091e565b3360008181526007602090815260408083208584528252808320805460ff19166001908117909155938352600882528083208584529091528120549091610e70916001600160601b0316906121e3565b6001600160a01b0384166000908152600860209081526040808320868452909152902054909150610eab9082906001600160601b03166121e3565b6001600160a01b038416600081815260086020908152604080832087845282529182902080546001600160601b0319166001600160601b03958616179055815186815293851690840152909133917f70718a9d836322a97e8db74c205fcc1064b4fe6e1c1d2f468d60eda54c0b51d2910160405180910390a3505050565b6002548210610f4b5760405163b4eb52cb60e01b815260040160405180910390fd5b600060048381548110610f6057610f6061216a565b60009182526020808320338452600582526040808520546008845281862089875290935290932054600790920290920192506001600160601b039182169116610fa981836121e3565b9150600160058085015460ff1690811115610fc657610fc6611cdb565b14610fe357604051627c1af760e31b815260040160405180910390fd5b816001600160601b031660000361100d57604051634fea183360e01b815260040160405180910390fd5b33600090815260076020908152604080832088845290915290205460ff1615611049576040516323039bc360e11b815260040160405180910390fd5b826006015442111561106e57604051636defe7b760e01b815260040160405180910390fd5b6003830154841061109257604051638c9d404b60e01b815260040160405180910390fd5b3360009081526007602090815260408083208884529091529020805460ff19166001179055600483018054839190869081106110d0576110d061216a565b9060005260206000209060029182820401919006600c029054906101000a90046001600160601b031661110391906121e3565b8360040185815481106111185761111861216a565b9060005260206000209060029182820401919006600c026101000a8154816001600160601b0302191690836001600160601b031602179055508385336001600160a01b03167fea66f58e474bc09f580000e81f31b334d171db387d0c6098ba47bd897741679b60405160405180910390a45050505050565b611198611ab5565b60025482106111ba5760405163b4eb52cb60e01b815260040160405180910390fd5b600482815481106111cd576111cd61216a565b90600052602060002090600702016040518060e0016040529081600082015481526020016001820160009054906101000a90046001600160a01b03166001600160a01b03166001600160a01b0316815260200160028201805461122f90612180565b80601f016020809104026020016040519081016040528092919081815260200182805461125b90612180565b80156112a85780601f1061127d576101008083540402835291602001916112a8565b820191906000526020600020905b81548152906001019060200180831161128b57829003601f168201915b5050505050815260200160038201805480602002602001604051908101604052809291908181526020016000905b828210156113825783829060005260206000200180546112f590612180565b80601f016020809104026020016040519081016040528092919081815260200182805461132190612180565b801561136e5780601f106113435761010080835404028352916020019161136e565b820191906000526020600020905b81548152906001019060200180831161135157829003601f168201915b5050505050815260200190600101906112d6565b5050505081526020016004820180548060200260200160405190810160405280929190818152602001828054801561140b57602002820191906000526020600020906000905b82829054906101000a90046001600160601b03166001600160601b0316815260200190600c0190602082600b010492830192600103820291508084116113c85790505b505050918352505060058281015460209092019160ff169081111561143257611432611cdb565b600581111561144357611443611cdb565b81526020016006820154815250509050919050565b60606004805480602002602001604051908101604052809291908181526020016000905b828210156117005760008481526020908190206040805160e081018252600786029092018054835260018101546001600160a01b031693830193909352600283018054929392918401916114cf90612180565b80601f01602080910402602001604051908101604052809291908181526020018280546114fb90612180565b80156115485780601f1061151d57610100808354040283529160200191611548565b820191906000526020600020905b81548152906001019060200180831161152b57829003601f168201915b5050505050815260200160038201805480602002602001604051908101604052809291908181526020016000905b8282101561162257838290600052602060002001805461159590612180565b80601f01602080910402602001604051908101604052809291908181526020018280546115c190612180565b801561160e5780601f106115e35761010080835404028352916020019161160e565b820191906000526020600020905b8154815290600101906020018083116115f157829003601f168201915b505050505081526020019060010190611576565b505050508152602001600482018054806020026020016040519081016040528092919081815260200182805480156116ab57602002820191906000526020600020906000905b82829054906101000a90046001600160601b03166001600160601b0316815260200190600c0190602082600b010492830192600103820291508084116116685790505b505050918352505060058281015460209092019160ff16908111156116d2576116d2611cdb565b60058111156116e3576116e3611cdb565b81526020016006820154815250508152602001906001019061147c565b50505050905090565b61171161196c565b61171b81426121d0565b9050611725611ab5565b6002548152336020820152606081018490526040810185905260a0810183600581111561175457611754611cdb565b9081600581111561176757611767611cdb565b90525060c08101829052835167ffffffffffffffff81111561178b5761178b611f79565b6040519080825280602002602001820160405280156117b4578160200160208202803683370190505b5060808201526004805460018101825560009190915281517f8a35acfbc15ff81a39ae7d344fd709f28e8600b4aa8c65c6b64bfe7fe36bd19b600790920291820190815560208301517f8a35acfbc15ff81a39ae7d344fd709f28e8600b4aa8c65c6b64bfe7fe36bd19c830180546001600160a01b0319166001600160a01b03909216919091179055604083015183927f8a35acfbc15ff81a39ae7d344fd709f28e8600b4aa8c65c6b64bfe7fe36bd19d0190611871908261225b565b506060820151805161188d916003840191602090910190611b0c565b50608082015180516118a9916004840191602090910190611b62565b5060a08201518160050160006101000a81548160ff021916908360058111156118d4576118d4611cdb565b021790555060c08201518160060155505060025460016118f491906121d0565b600255805160405183919033907f97bfdd6f6b99b16a64ac36fbb12ba2ebff71eb1c72b56f88338d183904951cee90600090a45050505050565b61193661196c565b6001600160a01b03811661196057604051631e4fbdf760e01b81526000600482015260240161091e565b61196981611a65565b50565b6000546001600160a01b031633146108cc5760405163118cdaa760e01b815233600482015260240161091e565b60025482106119bb5760405163b4eb52cb60e01b815260040160405180910390fd5b6000600483815481106119d0576119d061216a565b90600052602060002090600702019050818160050160006101000a81548160ff02191690836005811115611a0657611a06611cdb565b0217905550827f8db03eb621a54f66e546e21127c3d292ca1ce60d929dca0af547bf8e96259036836005811115611a3f57611a3f611cdb565b60068401546040805160ff909316835260208301919091520160405180910390a2505050565b600080546001600160a01b038381166001600160a01b0319831681178455604051919092169283917f8be0079c531659141344cd1fd0a4f28419497f9722a3daafe3b4186f6b6457e09190a35050565b6040518060e001604052806000815260200160006001600160a01b0316815260200160608152602001606081526020016060815260200160006005811115611aff57611aff611cdb565b8152602001600081525090565b828054828255906000526020600020908101928215611b52579160200282015b82811115611b525782518290611b42908261225b565b5091602001919060010190611b2c565b50611b5e929150611c16565b5090565b82805482825590600052602060002090600101600290048101928215611c0a5791602002820160005b83821115611bd557835183826101000a8154816001600160601b0302191690836001600160601b031602179055509260200192600c01602081600b01049283019260010302611b8b565b8015611c085782816101000a8154906001600160601b030219169055600c01602081600b01049283019260010302611bd5565b505b50611b5e929150611c33565b80821115611b5e576000611c2a8282611c48565b50600101611c16565b5b80821115611b5e5760008155600101611c34565b508054611c5490612180565b6000825580601f10611c64575050565b601f0160209004906000526020600020908101906119699190611c33565b803560068110611c9157600080fd5b919050565b60008060408385031215611ca957600080fd5b82359150611cb960208401611c82565b90509250929050565b600060208284031215611cd457600080fd5b5035919050565b634e487b7160e01b600052602160045260246000fd5b60068110611d0f57634e487b7160e01b600052602160045260246000fd5b9052565b60208101610c528284611cf1565b60008060408385031215611d3457600080fd5b50508035926020909101359150565b6000815180845260005b81811015611d6957602081850181015186830182015201611d4d565b506000602082860101526020601f19601f83011685010191505092915050565b60008151808452602080850194506020840160005b83811015611dc35781516001600160601b031687529582019590820190600101611d9e565b509495945050505050565b805182526000602060018060a01b03818401511681850152604083015160e06040860152611dff60e0860182611d43565b9050606084015185820360608701528181518084528484019150848160051b850101858401935060005b82811015611e5757601f19868303018452611e45828651611d43565b94870194938701939150600101611e29565b506080880151955088810360808a0152611e718187611d89565b9550505050505060a0830151611e8a60a0860182611cf1565b5060c083015160c08501528091505092915050565b600060208083016020845280855180835260408601915060408160051b87010192506020870160005b82811015611ef657603f19888603018452611ee4858351611dce565b94509285019290850190600101611ec8565b5092979650505050505050565b80356001600160a01b0381168114611c9157600080fd5b60008060408385031215611f2d57600080fd5b611f3683611f03565b946020939093013593505050565b600060208284031215611f5657600080fd5b611f5f82611f03565b9392505050565b602081526000611f5f6020830184611dce565b634e487b7160e01b600052604160045260246000fd5b604051601f8201601f1916810167ffffffffffffffff81118282101715611fb857611fb8611f79565b604052919050565b600082601f830112611fd157600080fd5b813567ffffffffffffffff811115611feb57611feb611f79565b611ffe601f8201601f1916602001611f8f565b81815284602083860101111561201357600080fd5b816020850160208301376000918101602001919091529392505050565b6000806000806080858703121561204657600080fd5b843567ffffffffffffffff8082111561205e57600080fd5b61206a88838901611fc0565b955060209150818701358181111561208157600080fd5b8701601f8101891361209257600080fd5b8035828111156120a4576120a4611f79565b8060051b6120b3858201611f8f565b918252828101850191858101908c8411156120cd57600080fd5b86850192505b83831015612109578235868111156120eb5760008081fd5b6120f98e8983890101611fc0565b83525091860191908601906120d3565b8099505050505050505061211f60408601611c82565b9396929550929360600135925050565b60006020828403121561214157600080fd5b5051919050565b60006020828403121561215a57600080fd5b81518015158114611f5f57600080fd5b634e487b7160e01b600052603260045260246000fd5b600181811c9082168061219457607f821691505b6020821081036121b457634e487b7160e01b600052602260045260246000fd5b50919050565b634e487b7160e01b600052601160045260246000fd5b80820180821115610c5257610c526121ba565b6001600160601b03818116838216019080821115612203576122036121ba565b5092915050565b601f821115612256576000816000526020600020601f850160051c810160208610156122335750805b601f850160051c820191505b818110156122525782815560010161223f565b5050505b505050565b815167ffffffffffffffff81111561227557612275611f79565b612289816122838454612180565b8461220a565b602080601f8311600181146122be57600084156122a65750858301515b600019600386901b1c1916600185901b178555612252565b600085815260208120601f198616915b828110156122ed578886015182559484019460019091019084016122ce565b508582101561230b5787850151600019600388901b60f8161c191681555b5050505050600190811b0190555056fea2646970667358221220655441dea46ace53f9424cb3264065cf9ab258996e4714917fdac7c41b3b36c564736f6c63430008180033",
    "linkReferences": {}
  },
  "methodIdentifiers": {
    "createProposal(string,string[],uint8,uint256)": "e86250fd",
    "delegateVote(address,uint256)": "926f7327",
    "getAllProposals()": "cceb68f5",
    "getDelegatedVotes(address,uint256)": "e650a0e4",
    "getProposal(uint256)": "c7f758a8",
    "getProposalLimit(uint256,uint256)": "773eade6",
    "getProposalStatus(uint256)": "401853b7",
    "getTotalProposals()": "1a5007dd",
    "getVotingPower(address)": "bb4d4436",
    "owner()": "8da5cb5b",
    "renounceOwnership()": "715018a6",
    "stakeForVotingPower()": "31b8c772",
    "transferOwnership(address)": "f2fde38b",
    "updateProposalStatus(uint256,uint8)": "0fab929a",
    "vote(uint256,uint256)": "b384abef",
    "withdrawAndRevokeVotingPower()": "69bb6fb6"
  },
  "id": 45
}