{
	"contracts/CoreLoanPlatform.sol": {
		"CoreLoanPlatform": {
			"abi": [
				{
					"inputs": [
						{
							"internalType": "address",
							"name": "_USD",
							"type": "address"
						},
						{
							"internalType": "address",
							"name": "_BTC",
							"type": "address"
						}
					],
					"stateMutability": "nonpayable",
					"type": "constructor"
				},
				{
					"inputs": [
						{
							"internalType": "address",
							"name": "target",
							"type": "address"
						}
					],
					"name": "AddressEmptyCode",
					"type": "error"
				},
				{
					"inputs": [
						{
							"internalType": "address",
							"name": "account",
							"type": "address"
						}
					],
					"name": "AddressInsufficientBalance",
					"type": "error"
				},
				{
					"inputs": [],
					"name": "FailedInnerCall",
					"type": "error"
				},
				{
					"inputs": [
						{
							"internalType": "address",
							"name": "owner",
							"type": "address"
						}
					],
					"name": "OwnableInvalidOwner",
					"type": "error"
				},
				{
					"inputs": [
						{
							"internalType": "address",
							"name": "account",
							"type": "address"
						}
					],
					"name": "OwnableUnauthorizedAccount",
					"type": "error"
				},
				{
					"inputs": [
						{
							"internalType": "address",
							"name": "token",
							"type": "address"
						}
					],
					"name": "SafeERC20FailedOperation",
					"type": "error"
				},
				{
					"anonymous": false,
					"inputs": [
						{
							"indexed": true,
							"internalType": "address",
							"name": "lender",
							"type": "address"
						},
						{
							"indexed": false,
							"internalType": "uint256",
							"name": "amount",
							"type": "uint256"
						}
					],
					"name": "BTCDeposited",
					"type": "event"
				},
				{
					"anonymous": false,
					"inputs": [
						{
							"indexed": true,
							"internalType": "address",
							"name": "lender",
							"type": "address"
						},
						{
							"indexed": false,
							"internalType": "uint256",
							"name": "amount",
							"type": "uint256"
						}
					],
					"name": "BTCWithdrawn",
					"type": "event"
				},
				{
					"anonymous": false,
					"inputs": [
						{
							"indexed": true,
							"internalType": "address",
							"name": "user",
							"type": "address"
						},
						{
							"indexed": false,
							"internalType": "uint256",
							"name": "amount",
							"type": "uint256"
						}
					],
					"name": "CollateralDeposited",
					"type": "event"
				},
				{
					"anonymous": false,
					"inputs": [
						{
							"indexed": true,
							"internalType": "address",
							"name": "user",
							"type": "address"
						},
						{
							"indexed": false,
							"internalType": "uint256",
							"name": "amount",
							"type": "uint256"
						}
					],
					"name": "CollateralWithdrawn",
					"type": "event"
				},
				{
					"anonymous": false,
					"inputs": [
						{
							"indexed": true,
							"internalType": "address",
							"name": "borrower",
							"type": "address"
						},
						{
							"indexed": false,
							"internalType": "uint256",
							"name": "amount",
							"type": "uint256"
						},
						{
							"indexed": false,
							"internalType": "uint256",
							"name": "interest",
							"type": "uint256"
						}
					],
					"name": "LoanRepaid",
					"type": "event"
				},
				{
					"anonymous": false,
					"inputs": [
						{
							"indexed": true,
							"internalType": "address",
							"name": "borrower",
							"type": "address"
						},
						{
							"indexed": false,
							"internalType": "uint256",
							"name": "amount",
							"type": "uint256"
						},
						{
							"indexed": false,
							"internalType": "uint256",
							"name": "collateral",
							"type": "uint256"
						}
					],
					"name": "LoanTaken",
					"type": "event"
				},
				{
					"anonymous": false,
					"inputs": [
						{
							"indexed": true,
							"internalType": "address",
							"name": "previousOwner",
							"type": "address"
						},
						{
							"indexed": true,
							"internalType": "address",
							"name": "newOwner",
							"type": "address"
						}
					],
					"name": "OwnershipTransferred",
					"type": "event"
				},
				{
					"inputs": [],
					"name": "BORROWABLE_RATIO",
					"outputs": [
						{
							"internalType": "uint256",
							"name": "",
							"type": "uint256"
						}
					],
					"stateMutability": "view",
					"type": "function"
				},
				{
					"inputs": [],
					"name": "BTC",
					"outputs": [
						{
							"internalType": "contract IERC20",
							"name": "",
							"type": "address"
						}
					],
					"stateMutability": "view",
					"type": "function"
				},
				{
					"inputs": [],
					"name": "COLLATERAL_RATIO",
					"outputs": [
						{
							"internalType": "uint256",
							"name": "",
							"type": "uint256"
						}
					],
					"stateMutability": "view",
					"type": "function"
				},
				{
					"inputs": [],
					"name": "INTEREST_RATE",
					"outputs": [
						{
							"internalType": "uint256",
							"name": "",
							"type": "uint256"
						}
					],
					"stateMutability": "view",
					"type": "function"
				},
				{
					"inputs": [],
					"name": "LOAN_DURATION",
					"outputs": [
						{
							"internalType": "uint256",
							"name": "",
							"type": "uint256"
						}
					],
					"stateMutability": "view",
					"type": "function"
				},
				{
					"inputs": [],
					"name": "USD",
					"outputs": [
						{
							"internalType": "contract IERC20",
							"name": "",
							"type": "address"
						}
					],
					"stateMutability": "view",
					"type": "function"
				},
				{
					"inputs": [
						{
							"internalType": "uint256",
							"name": "amount",
							"type": "uint256"
						}
					],
					"name": "borrowBTC",
					"outputs": [],
					"stateMutability": "nonpayable",
					"type": "function"
				},
				{
					"inputs": [
						{
							"internalType": "address",
							"name": "user",
							"type": "address"
						}
					],
					"name": "calculateInterest",
					"outputs": [
						{
							"internalType": "uint256",
							"name": "",
							"type": "uint256"
						}
					],
					"stateMutability": "view",
					"type": "function"
				},
				{
					"inputs": [
						{
							"internalType": "uint256",
							"name": "amount",
							"type": "uint256"
						}
					],
					"name": "depositBTC",
					"outputs": [],
					"stateMutability": "nonpayable",
					"type": "function"
				},
				{
					"inputs": [
						{
							"internalType": "uint256",
							"name": "amount",
							"type": "uint256"
						}
					],
					"name": "depositCollateral",
					"outputs": [],
					"stateMutability": "nonpayable",
					"type": "function"
				},
				{
					"inputs": [
						{
							"internalType": "address",
							"name": "user",
							"type": "address"
						}
					],
					"name": "getBorrowableAmount",
					"outputs": [
						{
							"internalType": "uint256",
							"name": "",
							"type": "uint256"
						}
					],
					"stateMutability": "view",
					"type": "function"
				},
				{
					"inputs": [],
					"name": "getCurrentApy",
					"outputs": [
						{
							"internalType": "uint256",
							"name": "",
							"type": "uint256"
						}
					],
					"stateMutability": "pure",
					"type": "function"
				},
				{
					"inputs": [
						{
							"internalType": "address",
							"name": "lender",
							"type": "address"
						}
					],
					"name": "getLenderBalance",
					"outputs": [
						{
							"internalType": "uint256",
							"name": "",
							"type": "uint256"
						}
					],
					"stateMutability": "view",
					"type": "function"
				},
				{
					"inputs": [
						{
							"internalType": "address",
							"name": "borrower",
							"type": "address"
						}
					],
					"name": "getLoanDetails",
					"outputs": [
						{
							"components": [
								{
									"internalType": "uint256",
									"name": "amount",
									"type": "uint256"
								},
								{
									"internalType": "uint256",
									"name": "collateral",
									"type": "uint256"
								},
								{
									"internalType": "uint256",
									"name": "timestamp",
									"type": "uint256"
								},
								{
									"internalType": "bool",
									"name": "active",
									"type": "bool"
								}
							],
							"internalType": "struct CoreLoanPlatform.Loan",
							"name": "",
							"type": "tuple"
						}
					],
					"stateMutability": "view",
					"type": "function"
				},
				{
					"inputs": [],
					"name": "getTotalBorrowed",
					"outputs": [
						{
							"internalType": "uint256",
							"name": "",
							"type": "uint256"
						}
					],
					"stateMutability": "view",
					"type": "function"
				},
				{
					"inputs": [],
					"name": "getTotalStaked",
					"outputs": [
						{
							"internalType": "uint256",
							"name": "",
							"type": "uint256"
						}
					],
					"stateMutability": "view",
					"type": "function"
				},
				{
					"inputs": [
						{
							"internalType": "address",
							"name": "user",
							"type": "address"
						}
					],
					"name": "getUserBorrowed",
					"outputs": [
						{
							"internalType": "uint256",
							"name": "",
							"type": "uint256"
						}
					],
					"stateMutability": "view",
					"type": "function"
				},
				{
					"inputs": [
						{
							"internalType": "address",
							"name": "user",
							"type": "address"
						}
					],
					"name": "getUserCollateral",
					"outputs": [
						{
							"internalType": "uint256",
							"name": "",
							"type": "uint256"
						}
					],
					"stateMutability": "view",
					"type": "function"
				},
				{
					"inputs": [
						{
							"internalType": "address",
							"name": "user",
							"type": "address"
						}
					],
					"name": "getUserStaked",
					"outputs": [
						{
							"internalType": "uint256",
							"name": "",
							"type": "uint256"
						}
					],
					"stateMutability": "view",
					"type": "function"
				},
				{
					"inputs": [
						{
							"internalType": "address",
							"name": "",
							"type": "address"
						}
					],
					"name": "lenderBalances",
					"outputs": [
						{
							"internalType": "uint256",
							"name": "",
							"type": "uint256"
						}
					],
					"stateMutability": "view",
					"type": "function"
				},
				{
					"inputs": [
						{
							"internalType": "address",
							"name": "",
							"type": "address"
						}
					],
					"name": "loans",
					"outputs": [
						{
							"internalType": "uint256",
							"name": "amount",
							"type": "uint256"
						},
						{
							"internalType": "uint256",
							"name": "collateral",
							"type": "uint256"
						},
						{
							"internalType": "uint256",
							"name": "timestamp",
							"type": "uint256"
						},
						{
							"internalType": "bool",
							"name": "active",
							"type": "bool"
						}
					],
					"stateMutability": "view",
					"type": "function"
				},
				{
					"inputs": [],
					"name": "owner",
					"outputs": [
						{
							"internalType": "address",
							"name": "",
							"type": "address"
						}
					],
					"stateMutability": "view",
					"type": "function"
				},
				{
					"inputs": [],
					"name": "renounceOwnership",
					"outputs": [],
					"stateMutability": "nonpayable",
					"type": "function"
				},
				{
					"inputs": [
						{
							"internalType": "address",
							"name": "user",
							"type": "address"
						}
					],
					"name": "repayLoan",
					"outputs": [],
					"stateMutability": "nonpayable",
					"type": "function"
				},
				{
					"inputs": [
						{
							"internalType": "address",
							"name": "newOwner",
							"type": "address"
						}
					],
					"name": "transferOwnership",
					"outputs": [],
					"stateMutability": "nonpayable",
					"type": "function"
				},
				{
					"inputs": [
						{
							"internalType": "address",
							"name": "",
							"type": "address"
						}
					],
					"name": "userCollateral",
					"outputs": [
						{
							"internalType": "uint256",
							"name": "",
							"type": "uint256"
						}
					],
					"stateMutability": "view",
					"type": "function"
				},
				{
					"inputs": [
						{
							"internalType": "uint256",
							"name": "amount",
							"type": "uint256"
						}
					],
					"name": "withdrawBTC",
					"outputs": [],
					"stateMutability": "nonpayable",
					"type": "function"
				},
				{
					"inputs": [
						{
							"internalType": "uint256",
							"name": "amount",
							"type": "uint256"
						}
					],
					"name": "withdrawCollateral",
					"outputs": [],
					"stateMutability": "nonpayable",
					"type": "function"
				}
			],
			"devdoc": {
				"errors": {
					"AddressEmptyCode(address)": [
						{
							"details": "There's no code at `target` (it is not a contract)."
						}
					],
					"AddressInsufficientBalance(address)": [
						{
							"details": "The ETH balance of the account is not enough to perform the operation."
						}
					],
					"FailedInnerCall()": [
						{
							"details": "A call to an address target failed. The target may have reverted."
						}
					],
					"OwnableInvalidOwner(address)": [
						{
							"details": "The owner is not a valid owner account. (eg. `address(0)`)"
						}
					],
					"OwnableUnauthorizedAccount(address)": [
						{
							"details": "The caller account is not authorized to perform an operation."
						}
					],
					"SafeERC20FailedOperation(address)": [
						{
							"details": "An operation with an ERC20 token failed."
						}
					]
				},
				"kind": "dev",
				"methods": {
					"owner()": {
						"details": "Returns the address of the current owner."
					},
					"renounceOwnership()": {
						"details": "Leaves the contract without owner. It will not be possible to call `onlyOwner` functions. Can only be called by the current owner. NOTE: Renouncing ownership will leave the contract without an owner, thereby disabling any functionality that is only available to the owner."
					},
					"transferOwnership(address)": {
						"details": "Transfers ownership of the contract to a new account (`newOwner`). Can only be called by the current owner."
					}
				},
				"version": 1
			},
			"evm": {
				"assembly": "    /* \"contracts/CoreLoanPlatform.sol\":235:6920  contract CoreLoanPlatform is Ownable {... */\n  mstore(0x40, 0xc0)\n    /* \"contracts/CoreLoanPlatform.sol\":750:751  0 */\n  0x00\n    /* \"contracts/CoreLoanPlatform.sol\":720:751  uint256 private totalStaked = 0 */\n  0x01\n  sstore\n    /* \"contracts/CoreLoanPlatform.sol\":816:817  0 */\n  0x00\n    /* \"contracts/CoreLoanPlatform.sol\":784:817  uint256 private totalBorrowed = 0 */\n  0x02\n  sstore\n    /* \"contracts/CoreLoanPlatform.sol\":1624:1867  constructor(address _USD, address _BTC) Ownable(msg.sender) {... */\n  callvalue\n  dup1\n  iszero\n  tag_1\n  jumpi\n  0x00\n  dup1\n  revert\ntag_1:\n  pop\n  mload(0x40)\n  sub(codesize, bytecodeSize)\n  dup1\n  bytecodeSize\n  dup4\n  codecopy\n  dup2\n  dup2\n  add\n  0x40\n  mstore\n  dup2\n  add\n  swap1\n  tag_2\n  swap2\n  swap1\n  tag_3\n  jump\t// in\ntag_2:\n    /* \"contracts/CoreLoanPlatform.sol\":1672:1682  msg.sender */\n  caller\n    /* \"@openzeppelin/contracts/access/Ownable.sol\":1297:1298  0 */\n  0x00\n    /* \"@openzeppelin/contracts/access/Ownable.sol\":1273:1299  initialOwner == address(0) */\n  0xffffffffffffffffffffffffffffffffffffffff\n  and\n    /* \"@openzeppelin/contracts/access/Ownable.sol\":1273:1285  initialOwner */\n  dup2\n    /* \"@openzeppelin/contracts/access/Ownable.sol\":1273:1299  initialOwner == address(0) */\n  0xffffffffffffffffffffffffffffffffffffffff\n  and\n  sub\n    /* \"@openzeppelin/contracts/access/Ownable.sol\":1269:1364  if (initialOwner == address(0)) {... */\n  tag_7\n  jumpi\n    /* \"@openzeppelin/contracts/access/Ownable.sol\":1350:1351  0 */\n  0x00\n    /* \"@openzeppelin/contracts/access/Ownable.sol\":1322:1353  OwnableInvalidOwner(address(0)) */\n  mload(0x40)\n  0x1e4fbdf700000000000000000000000000000000000000000000000000000000\n  dup2\n  mstore\n  0x04\n  add\n  tag_8\n  swap2\n  swap1\n  tag_9\n  jump\t// in\ntag_8:\n  mload(0x40)\n  dup1\n  swap2\n  sub\n  swap1\n  revert\n    /* \"@openzeppelin/contracts/access/Ownable.sol\":1269:1364  if (initialOwner == address(0)) {... */\ntag_7:\n    /* \"@openzeppelin/contracts/access/Ownable.sol\":1373:1405  _transferOwnership(initialOwner) */\n  tag_10\n    /* \"@openzeppelin/contracts/access/Ownable.sol\":1392:1404  initialOwner */\n  dup2\n    /* \"@openzeppelin/contracts/access/Ownable.sol\":1373:1391  _transferOwnership */\n  shl(0x20, tag_11)\n    /* \"@openzeppelin/contracts/access/Ownable.sol\":1373:1405  _transferOwnership(initialOwner) */\n  0x20\n  shr\n  jump\t// in\ntag_10:\n    /* \"@openzeppelin/contracts/access/Ownable.sol\":1225:1412  constructor(address initialOwner) {... */\n  pop\n    /* \"contracts/CoreLoanPlatform.sol\":1731:1732  0 */\n  0x00\n    /* \"contracts/CoreLoanPlatform.sol\":1715:1733  _USD != address(0) */\n  0xffffffffffffffffffffffffffffffffffffffff\n  and\n    /* \"contracts/CoreLoanPlatform.sol\":1715:1719  _USD */\n  dup3\n    /* \"contracts/CoreLoanPlatform.sol\":1715:1733  _USD != address(0) */\n  0xffffffffffffffffffffffffffffffffffffffff\n  and\n  eq\n  iszero\n    /* \"contracts/CoreLoanPlatform.sol\":1715:1755  _USD != address(0) && _BTC != address(0) */\n  dup1\n  iszero\n  tag_13\n  jumpi\n  pop\n    /* \"contracts/CoreLoanPlatform.sol\":1753:1754  0 */\n  0x00\n    /* \"contracts/CoreLoanPlatform.sol\":1737:1755  _BTC != address(0) */\n  0xffffffffffffffffffffffffffffffffffffffff\n  and\n    /* \"contracts/CoreLoanPlatform.sol\":1737:1741  _BTC */\n  dup2\n    /* \"contracts/CoreLoanPlatform.sol\":1737:1755  _BTC != address(0) */\n  0xffffffffffffffffffffffffffffffffffffffff\n  and\n  eq\n  iszero\n    /* \"contracts/CoreLoanPlatform.sol\":1715:1755  _USD != address(0) && _BTC != address(0) */\ntag_13:\n    /* \"contracts/CoreLoanPlatform.sol\":1694:1804  require(... */\n  tag_14\n  jumpi\n  mload(0x40)\n  0x08c379a000000000000000000000000000000000000000000000000000000000\n  dup2\n  mstore\n  0x04\n  add\n  tag_15\n  swap1\n  tag_16\n  jump\t// in\ntag_15:\n  mload(0x40)\n  dup1\n  swap2\n  sub\n  swap1\n  revert\ntag_14:\n    /* \"contracts/CoreLoanPlatform.sol\":1827:1831  _USD */\n  dup2\n    /* \"contracts/CoreLoanPlatform.sol\":1814:1832  USD = IERC20(_USD) */\n  0xffffffffffffffffffffffffffffffffffffffff\n  and\n  0x80\n  dup2\n  0xffffffffffffffffffffffffffffffffffffffff\n  and\n  dup2\n  mstore\n  pop\n  pop\n    /* \"contracts/CoreLoanPlatform.sol\":1855:1859  _BTC */\n  dup1\n    /* \"contracts/CoreLoanPlatform.sol\":1842:1860  BTC = IERC20(_BTC) */\n  0xffffffffffffffffffffffffffffffffffffffff\n  and\n  0xa0\n  dup2\n  0xffffffffffffffffffffffffffffffffffffffff\n  and\n  dup2\n  mstore\n  pop\n  pop\n    /* \"contracts/CoreLoanPlatform.sol\":1624:1867  constructor(address _USD, address _BTC) Ownable(msg.sender) {... */\n  pop\n  pop\n    /* \"contracts/CoreLoanPlatform.sol\":235:6920  contract CoreLoanPlatform is Ownable {... */\n  jump(tag_17)\n    /* \"@openzeppelin/contracts/access/Ownable.sol\":2912:3099  function _transferOwnership(address newOwner) internal virtual {... */\ntag_11:\n    /* \"@openzeppelin/contracts/access/Ownable.sol\":2985:3001  address oldOwner */\n  0x00\n    /* \"@openzeppelin/contracts/access/Ownable.sol\":3004:3010  _owner */\n  dup1\n  0x00\n  swap1\n  sload\n  swap1\n  0x0100\n  exp\n  swap1\n  div\n  0xffffffffffffffffffffffffffffffffffffffff\n  and\n    /* \"@openzeppelin/contracts/access/Ownable.sol\":2985:3010  address oldOwner = _owner */\n  swap1\n  pop\n    /* \"@openzeppelin/contracts/access/Ownable.sol\":3029:3037  newOwner */\n  dup2\n    /* \"@openzeppelin/contracts/access/Ownable.sol\":3020:3026  _owner */\n  0x00\n  dup1\n    /* \"@openzeppelin/contracts/access/Ownable.sol\":3020:3037  _owner = newOwner */\n  0x0100\n  exp\n  dup2\n  sload\n  dup2\n  0xffffffffffffffffffffffffffffffffffffffff\n  mul\n  not\n  and\n  swap1\n  dup4\n  0xffffffffffffffffffffffffffffffffffffffff\n  and\n  mul\n  or\n  swap1\n  sstore\n  pop\n    /* \"@openzeppelin/contracts/access/Ownable.sol\":3083:3091  newOwner */\n  dup2\n    /* \"@openzeppelin/contracts/access/Ownable.sol\":3052:3092  OwnershipTransferred(oldOwner, newOwner) */\n  0xffffffffffffffffffffffffffffffffffffffff\n  and\n    /* \"@openzeppelin/contracts/access/Ownable.sol\":3073:3081  oldOwner */\n  dup2\n    /* \"@openzeppelin/contracts/access/Ownable.sol\":3052:3092  OwnershipTransferred(oldOwner, newOwner) */\n  0xffffffffffffffffffffffffffffffffffffffff\n  and\n  0x8be0079c531659141344cd1fd0a4f28419497f9722a3daafe3b4186f6b6457e0\n  mload(0x40)\n  mload(0x40)\n  dup1\n  swap2\n  sub\n  swap1\n  log3\n    /* \"@openzeppelin/contracts/access/Ownable.sol\":2975:3099  {... */\n  pop\n    /* \"@openzeppelin/contracts/access/Ownable.sol\":2912:3099  function _transferOwnership(address newOwner) internal virtual {... */\n  pop\n  jump\t// out\n    /* \"#utility.yul\":88:205   */\ntag_20:\n    /* \"#utility.yul\":197:198   */\n  0x00\n    /* \"#utility.yul\":194:195   */\n  dup1\n    /* \"#utility.yul\":187:199   */\n  revert\n    /* \"#utility.yul\":334:460   */\ntag_22:\n    /* \"#utility.yul\":371:378   */\n  0x00\n    /* \"#utility.yul\":411:453   */\n  0xffffffffffffffffffffffffffffffffffffffff\n    /* \"#utility.yul\":404:409   */\n  dup3\n    /* \"#utility.yul\":400:454   */\n  and\n    /* \"#utility.yul\":389:454   */\n  swap1\n  pop\n    /* \"#utility.yul\":334:460   */\n  swap2\n  swap1\n  pop\n  jump\t// out\n    /* \"#utility.yul\":466:562   */\ntag_23:\n    /* \"#utility.yul\":503:510   */\n  0x00\n    /* \"#utility.yul\":532:556   */\n  tag_36\n    /* \"#utility.yul\":550:555   */\n  dup3\n    /* \"#utility.yul\":532:556   */\n  tag_22\n  jump\t// in\ntag_36:\n    /* \"#utility.yul\":521:556   */\n  swap1\n  pop\n    /* \"#utility.yul\":466:562   */\n  swap2\n  swap1\n  pop\n  jump\t// out\n    /* \"#utility.yul\":568:690   */\ntag_24:\n    /* \"#utility.yul\":641:665   */\n  tag_38\n    /* \"#utility.yul\":659:664   */\n  dup2\n    /* \"#utility.yul\":641:665   */\n  tag_23\n  jump\t// in\ntag_38:\n    /* \"#utility.yul\":634:639   */\n  dup2\n    /* \"#utility.yul\":631:666   */\n  eq\n    /* \"#utility.yul\":621:684   */\n  tag_39\n  jumpi\n    /* \"#utility.yul\":680:681   */\n  0x00\n    /* \"#utility.yul\":677:678   */\n  dup1\n    /* \"#utility.yul\":670:682   */\n  revert\n    /* \"#utility.yul\":621:684   */\ntag_39:\n    /* \"#utility.yul\":568:690   */\n  pop\n  jump\t// out\n    /* \"#utility.yul\":696:839   */\ntag_25:\n    /* \"#utility.yul\":753:758   */\n  0x00\n    /* \"#utility.yul\":784:790   */\n  dup2\n    /* \"#utility.yul\":778:791   */\n  mload\n    /* \"#utility.yul\":769:791   */\n  swap1\n  pop\n    /* \"#utility.yul\":800:833   */\n  tag_41\n    /* \"#utility.yul\":827:832   */\n  dup2\n    /* \"#utility.yul\":800:833   */\n  tag_24\n  jump\t// in\ntag_41:\n    /* \"#utility.yul\":696:839   */\n  swap3\n  swap2\n  pop\n  pop\n  jump\t// out\n    /* \"#utility.yul\":845:1352   */\ntag_3:\n    /* \"#utility.yul\":924:930   */\n  0x00\n    /* \"#utility.yul\":932:938   */\n  dup1\n    /* \"#utility.yul\":981:983   */\n  0x40\n    /* \"#utility.yul\":969:978   */\n  dup4\n    /* \"#utility.yul\":960:967   */\n  dup6\n    /* \"#utility.yul\":956:979   */\n  sub\n    /* \"#utility.yul\":952:984   */\n  slt\n    /* \"#utility.yul\":949:1068   */\n  iszero\n  tag_43\n  jumpi\n    /* \"#utility.yul\":987:1066   */\n  tag_44\n  tag_20\n  jump\t// in\ntag_44:\n    /* \"#utility.yul\":949:1068   */\ntag_43:\n    /* \"#utility.yul\":1107:1108   */\n  0x00\n    /* \"#utility.yul\":1132:1196   */\n  tag_45\n    /* \"#utility.yul\":1188:1195   */\n  dup6\n    /* \"#utility.yul\":1179:1185   */\n  dup3\n    /* \"#utility.yul\":1168:1177   */\n  dup7\n    /* \"#utility.yul\":1164:1186   */\n  add\n    /* \"#utility.yul\":1132:1196   */\n  tag_25\n  jump\t// in\ntag_45:\n    /* \"#utility.yul\":1122:1196   */\n  swap3\n  pop\n    /* \"#utility.yul\":1078:1206   */\n  pop\n    /* \"#utility.yul\":1245:1247   */\n  0x20\n    /* \"#utility.yul\":1271:1335   */\n  tag_46\n    /* \"#utility.yul\":1327:1334   */\n  dup6\n    /* \"#utility.yul\":1318:1324   */\n  dup3\n    /* \"#utility.yul\":1307:1316   */\n  dup7\n    /* \"#utility.yul\":1303:1325   */\n  add\n    /* \"#utility.yul\":1271:1335   */\n  tag_25\n  jump\t// in\ntag_46:\n    /* \"#utility.yul\":1261:1335   */\n  swap2\n  pop\n    /* \"#utility.yul\":1216:1345   */\n  pop\n    /* \"#utility.yul\":845:1352   */\n  swap3\n  pop\n  swap3\n  swap1\n  pop\n  jump\t// out\n    /* \"#utility.yul\":1358:1476   */\ntag_26:\n    /* \"#utility.yul\":1445:1469   */\n  tag_48\n    /* \"#utility.yul\":1463:1468   */\n  dup2\n    /* \"#utility.yul\":1445:1469   */\n  tag_23\n  jump\t// in\ntag_48:\n    /* \"#utility.yul\":1440:1443   */\n  dup3\n    /* \"#utility.yul\":1433:1470   */\n  mstore\n    /* \"#utility.yul\":1358:1476   */\n  pop\n  pop\n  jump\t// out\n    /* \"#utility.yul\":1482:1704   */\ntag_9:\n    /* \"#utility.yul\":1575:1579   */\n  0x00\n    /* \"#utility.yul\":1613:1615   */\n  0x20\n    /* \"#utility.yul\":1602:1611   */\n  dup3\n    /* \"#utility.yul\":1598:1616   */\n  add\n    /* \"#utility.yul\":1590:1616   */\n  swap1\n  pop\n    /* \"#utility.yul\":1626:1697   */\n  tag_50\n    /* \"#utility.yul\":1694:1695   */\n  0x00\n    /* \"#utility.yul\":1683:1692   */\n  dup4\n    /* \"#utility.yul\":1679:1696   */\n  add\n    /* \"#utility.yul\":1670:1676   */\n  dup5\n    /* \"#utility.yul\":1626:1697   */\n  tag_26\n  jump\t// in\ntag_50:\n    /* \"#utility.yul\":1482:1704   */\n  swap3\n  swap2\n  pop\n  pop\n  jump\t// out\n    /* \"#utility.yul\":1710:1879   */\ntag_27:\n    /* \"#utility.yul\":1794:1805   */\n  0x00\n    /* \"#utility.yul\":1828:1834   */\n  dup3\n    /* \"#utility.yul\":1823:1826   */\n  dup3\n    /* \"#utility.yul\":1816:1835   */\n  mstore\n    /* \"#utility.yul\":1868:1872   */\n  0x20\n    /* \"#utility.yul\":1863:1866   */\n  dup3\n    /* \"#utility.yul\":1859:1873   */\n  add\n    /* \"#utility.yul\":1844:1873   */\n  swap1\n  pop\n    /* \"#utility.yul\":1710:1879   */\n  swap3\n  swap2\n  pop\n  pop\n  jump\t// out\n    /* \"#utility.yul\":1885:2058   */\ntag_28:\n    /* \"#utility.yul\":2025:2050   */\n  0x496e76616c696420746f6b656e20616464726573736573000000000000000000\n    /* \"#utility.yul\":2021:2022   */\n  0x00\n    /* \"#utility.yul\":2013:2019   */\n  dup3\n    /* \"#utility.yul\":2009:2023   */\n  add\n    /* \"#utility.yul\":2002:2051   */\n  mstore\n    /* \"#utility.yul\":1885:2058   */\n  pop\n  jump\t// out\n    /* \"#utility.yul\":2064:2430   */\ntag_29:\n    /* \"#utility.yul\":2206:2209   */\n  0x00\n    /* \"#utility.yul\":2227:2294   */\n  tag_54\n    /* \"#utility.yul\":2291:2293   */\n  0x17\n    /* \"#utility.yul\":2286:2289   */\n  dup4\n    /* \"#utility.yul\":2227:2294   */\n  tag_27\n  jump\t// in\ntag_54:\n    /* \"#utility.yul\":2220:2294   */\n  swap2\n  pop\n    /* \"#utility.yul\":2303:2396   */\n  tag_55\n    /* \"#utility.yul\":2392:2395   */\n  dup3\n    /* \"#utility.yul\":2303:2396   */\n  tag_28\n  jump\t// in\ntag_55:\n    /* \"#utility.yul\":2421:2423   */\n  0x20\n    /* \"#utility.yul\":2416:2419   */\n  dup3\n    /* \"#utility.yul\":2412:2424   */\n  add\n    /* \"#utility.yul\":2405:2424   */\n  swap1\n  pop\n    /* \"#utility.yul\":2064:2430   */\n  swap2\n  swap1\n  pop\n  jump\t// out\n    /* \"#utility.yul\":2436:2855   */\ntag_16:\n    /* \"#utility.yul\":2602:2606   */\n  0x00\n    /* \"#utility.yul\":2640:2642   */\n  0x20\n    /* \"#utility.yul\":2629:2638   */\n  dup3\n    /* \"#utility.yul\":2625:2643   */\n  add\n    /* \"#utility.yul\":2617:2643   */\n  swap1\n  pop\n    /* \"#utility.yul\":2689:2698   */\n  dup2\n    /* \"#utility.yul\":2683:2687   */\n  dup2\n    /* \"#utility.yul\":2679:2699   */\n  sub\n    /* \"#utility.yul\":2675:2676   */\n  0x00\n    /* \"#utility.yul\":2664:2673   */\n  dup4\n    /* \"#utility.yul\":2660:2677   */\n  add\n    /* \"#utility.yul\":2653:2700   */\n  mstore\n    /* \"#utility.yul\":2717:2848   */\n  tag_57\n    /* \"#utility.yul\":2843:2847   */\n  dup2\n    /* \"#utility.yul\":2717:2848   */\n  tag_29\n  jump\t// in\ntag_57:\n    /* \"#utility.yul\":2709:2848   */\n  swap1\n  pop\n    /* \"#utility.yul\":2436:2855   */\n  swap2\n  swap1\n  pop\n  jump\t// out\n    /* \"contracts/CoreLoanPlatform.sol\":235:6920  contract CoreLoanPlatform is Ownable {... */\ntag_17:\n  mload(0x80)\n  mload(0xa0)\n  codecopy(0x00, dataOffset(sub_0), dataSize(sub_0))\n  0x00\n  assignImmutable(\"0xceebc1e79b37113a3784d9bbf48b7ad015159a0fad39f370ddaba6e9581bdbc5\")\n  0x00\n  assignImmutable(\"0xb687940cdede3d6e24b115affb282228515a5bf2ffa7b65269e2dfb5ea745e96\")\n  return(0x00, dataSize(sub_0))\nstop\n\nsub_0: assembly {\n        /* \"contracts/CoreLoanPlatform.sol\":235:6920  contract CoreLoanPlatform is Ownable {... */\n      mstore(0x40, 0x80)\n      callvalue\n      dup1\n      iszero\n      tag_1\n      jumpi\n      0x00\n      dup1\n      revert\n    tag_1:\n      pop\n      jumpi(tag_2, lt(calldatasize, 0x04))\n      shr(0xe0, calldataload(0x00))\n      dup1\n      0xa6b6d798\n      gt\n      tag_31\n      jumpi\n      dup1\n      0xe02a4dfd\n      gt\n      tag_32\n      jumpi\n      dup1\n      0xe8a7da8e\n      gt\n      tag_33\n      jumpi\n      dup1\n      0xe8a7da8e\n      eq\n      tag_27\n      jumpi\n      dup1\n      0xf2fde38b\n      eq\n      tag_28\n      jumpi\n      dup1\n      0xf4925de5\n      eq\n      tag_29\n      jumpi\n      dup1\n      0xf69f1e4a\n      eq\n      tag_30\n      jumpi\n      jump(tag_2)\n    tag_33:\n      dup1\n      0xe02a4dfd\n      eq\n      tag_24\n      jumpi\n      dup1\n      0xe11932cf\n      eq\n      tag_25\n      jumpi\n      dup1\n      0xe86ef40b\n      eq\n      tag_26\n      jumpi\n      jump(tag_2)\n    tag_32:\n      dup1\n      0xbd09085a\n      gt\n      tag_34\n      jumpi\n      dup1\n      0xbd09085a\n      eq\n      tag_20\n      jumpi\n      dup1\n      0xd1a40564\n      eq\n      tag_21\n      jumpi\n      dup1\n      0xd9e69a05\n      eq\n      tag_22\n      jumpi\n      dup1\n      0xdac3fc3f\n      eq\n      tag_23\n      jumpi\n      jump(tag_2)\n    tag_34:\n      dup1\n      0xa6b6d798\n      eq\n      tag_17\n      jumpi\n      dup1\n      0xb6f7132f\n      eq\n      tag_18\n      jumpi\n      dup1\n      0xbad4a01f\n      eq\n      tag_19\n      jumpi\n      jump(tag_2)\n    tag_31:\n      dup1\n      0x691d1eb3\n      gt\n      tag_35\n      jumpi\n      dup1\n      0x73b4086b\n      gt\n      tag_36\n      jumpi\n      dup1\n      0x73b4086b\n      eq\n      tag_13\n      jumpi\n      dup1\n      0x8da5cb5b\n      eq\n      tag_14\n      jumpi\n      dup1\n      0x90b4588b\n      eq\n      tag_15\n      jumpi\n      dup1\n      0xa27a944d\n      eq\n      tag_16\n      jumpi\n      jump(tag_2)\n    tag_36:\n      dup1\n      0x691d1eb3\n      eq\n      tag_10\n      jumpi\n      dup1\n      0x6e35f124\n      eq\n      tag_11\n      jumpi\n      dup1\n      0x715018a6\n      eq\n      tag_12\n      jumpi\n      jump(tag_2)\n    tag_35:\n      dup1\n      0x1bf6c21b\n      gt\n      tag_37\n      jumpi\n      dup1\n      0x1bf6c21b\n      eq\n      tag_6\n      jumpi\n      dup1\n      0x2792949d\n      eq\n      tag_7\n      jumpi\n      dup1\n      0x5b72a33a\n      eq\n      tag_8\n      jumpi\n      dup1\n      0x6112fe2e\n      eq\n      tag_9\n      jumpi\n      jump(tag_2)\n    tag_37:\n      dup1\n      0x0307c4a1\n      eq\n      tag_3\n      jumpi\n      dup1\n      0x0917e776\n      eq\n      tag_4\n      jumpi\n      dup1\n      0x190ef1e6\n      eq\n      tag_5\n      jumpi\n    tag_2:\n      0x00\n      dup1\n      revert\n        /* \"contracts/CoreLoanPlatform.sol\":6609:6706  function getTotalBorrowed() external view returns (uint256) {... */\n    tag_3:\n      tag_38\n      tag_39\n      jump\t// in\n    tag_38:\n      mload(0x40)\n      tag_40\n      swap2\n      swap1\n      tag_41\n      jump\t// in\n    tag_40:\n      mload(0x40)\n      dup1\n      swap2\n      sub\n      swap1\n      return\n        /* \"contracts/CoreLoanPlatform.sol\":6510:6603  function getTotalStaked() external view returns (uint256) {... */\n    tag_4:\n      tag_42\n      tag_43\n      jump\t// in\n    tag_42:\n      mload(0x40)\n      tag_44\n      swap2\n      swap1\n      tag_41\n      jump\t// in\n    tag_44:\n      mload(0x40)\n      dup1\n      swap2\n      sub\n      swap1\n      return\n        /* \"contracts/CoreLoanPlatform.sol\":5139:5790  function repayLoan(address user) external {... */\n    tag_5:\n      tag_45\n      0x04\n      dup1\n      calldatasize\n      sub\n      dup2\n      add\n      swap1\n      tag_46\n      swap2\n      swap1\n      tag_47\n      jump\t// in\n    tag_46:\n      tag_48\n      jump\t// in\n    tag_45:\n      stop\n        /* \"contracts/CoreLoanPlatform.sol\":311:338  IERC20 public immutable USD */\n    tag_6:\n      tag_49\n      tag_50\n      jump\t// in\n    tag_49:\n      mload(0x40)\n      tag_51\n      swap2\n      swap1\n      tag_52\n      jump\t// in\n    tag_51:\n      mload(0x40)\n      dup1\n      swap2\n      sub\n      swap1\n      return\n        /* \"contracts/CoreLoanPlatform.sol\":344:371  IERC20 public immutable BTC */\n    tag_7:\n      tag_53\n      tag_54\n      jump\t// in\n    tag_53:\n      mload(0x40)\n      tag_55\n      swap2\n      swap1\n      tag_52\n      jump\t// in\n    tag_55:\n      mload(0x40)\n      dup1\n      swap2\n      sub\n      swap1\n      return\n        /* \"contracts/CoreLoanPlatform.sol\":544:585  uint256 public constant INTEREST_RATE = 5 */\n    tag_8:\n      tag_56\n      tag_57\n      jump\t// in\n    tag_56:\n      mload(0x40)\n      tag_58\n      swap2\n      swap1\n      tag_41\n      jump\t// in\n    tag_58:\n      mload(0x40)\n      dup1\n      swap2\n      sub\n      swap1\n      return\n        /* \"contracts/CoreLoanPlatform.sol\":2165:2897  function withdrawCollateral(uint256 amount) external {... */\n    tag_9:\n      tag_59\n      0x04\n      dup1\n      calldatasize\n      sub\n      dup2\n      add\n      swap1\n      tag_60\n      swap2\n      swap1\n      tag_61\n      jump\t// in\n    tag_60:\n      tag_62\n      jump\t// in\n    tag_59:\n      stop\n        /* \"contracts/CoreLoanPlatform.sol\":3940:4086  function getBorrowableAmount(address user) external view returns (uint256) {... */\n    tag_10:\n      tag_63\n      0x04\n      dup1\n      calldatasize\n      sub\n      dup2\n      add\n      swap1\n      tag_64\n      swap2\n      swap1\n      tag_47\n      jump\t// in\n    tag_64:\n      tag_65\n      jump\t// in\n    tag_63:\n      mload(0x40)\n      tag_66\n      swap2\n      swap1\n      tag_41\n      jump\t// in\n    tag_66:\n      mload(0x40)\n      dup1\n      swap2\n      sub\n      swap1\n      return\n        /* \"contracts/CoreLoanPlatform.sol\":456:501  uint256 public constant BORROWABLE_RATIO = 80 */\n    tag_11:\n      tag_67\n      tag_68\n      jump\t// in\n    tag_67:\n      mload(0x40)\n      tag_69\n      swap2\n      swap1\n      tag_41\n      jump\t// in\n    tag_69:\n      mload(0x40)\n      dup1\n      swap2\n      sub\n      swap1\n      return\n        /* \"@openzeppelin/contracts/access/Ownable.sol\":2293:2394  function renounceOwnership() public virtual onlyOwner {... */\n    tag_12:\n      tag_70\n      tag_71\n      jump\t// in\n    tag_70:\n      stop\n        /* \"contracts/CoreLoanPlatform.sol\":978:1015  mapping(address => Loan) public loans */\n    tag_13:\n      tag_72\n      0x04\n      dup1\n      calldatasize\n      sub\n      dup2\n      add\n      swap1\n      tag_73\n      swap2\n      swap1\n      tag_47\n      jump\t// in\n    tag_73:\n      tag_74\n      jump\t// in\n    tag_72:\n      mload(0x40)\n      tag_75\n      swap5\n      swap4\n      swap3\n      swap2\n      swap1\n      tag_76\n      jump\t// in\n    tag_75:\n      mload(0x40)\n      dup1\n      swap2\n      sub\n      swap1\n      return\n        /* \"@openzeppelin/contracts/access/Ownable.sol\":1638:1723  function owner() public view virtual returns (address) {... */\n    tag_14:\n      tag_77\n      tag_78\n      jump\t// in\n    tag_77:\n      mload(0x40)\n      tag_79\n      swap2\n      swap1\n      tag_80\n      jump\t// in\n    tag_79:\n      mload(0x40)\n      dup1\n      swap2\n      sub\n      swap1\n      return\n        /* \"contracts/CoreLoanPlatform.sol\":4537:4914  function withdrawBTC(uint256 amount) external {... */\n    tag_15:\n      tag_81\n      0x04\n      dup1\n      calldatasize\n      sub\n      dup2\n      add\n      swap1\n      tag_82\n      swap2\n      swap1\n      tag_61\n      jump\t// in\n    tag_82:\n      tag_83\n      jump\t// in\n    tag_81:\n      stop\n        /* \"contracts/CoreLoanPlatform.sol\":1076:1125  mapping(address => uint256) public lenderBalances */\n    tag_16:\n      tag_84\n      0x04\n      dup1\n      calldatasize\n      sub\n      dup2\n      add\n      swap1\n      tag_85\n      swap2\n      swap1\n      tag_47\n      jump\t// in\n    tag_85:\n      tag_86\n      jump\t// in\n    tag_84:\n      mload(0x40)\n      tag_87\n      swap2\n      swap1\n      tag_41\n      jump\t// in\n    tag_87:\n      mload(0x40)\n      dup1\n      swap2\n      sub\n      swap1\n      return\n        /* \"contracts/CoreLoanPlatform.sol\":4215:4531  function depositBTC(uint256 amount) external {... */\n    tag_17:\n      tag_88\n      0x04\n      dup1\n      calldatasize\n      sub\n      dup2\n      add\n      swap1\n      tag_89\n      swap2\n      swap1\n      tag_61\n      jump\t// in\n    tag_89:\n      tag_90\n      jump\t// in\n    tag_88:\n      stop\n        /* \"contracts/CoreLoanPlatform.sol\":4092:4209  function getUserCollateral(address user) external view returns (uint256) {... */\n    tag_18:\n      tag_91\n      0x04\n      dup1\n      calldatasize\n      sub\n      dup2\n      add\n      swap1\n      tag_92\n      swap2\n      swap1\n      tag_47\n      jump\t// in\n    tag_92:\n      tag_93\n      jump\t// in\n    tag_91:\n      mload(0x40)\n      tag_94\n      swap2\n      swap1\n      tag_41\n      jump\t// in\n    tag_94:\n      mload(0x40)\n      dup1\n      swap2\n      sub\n      swap1\n      return\n        /* \"contracts/CoreLoanPlatform.sol\":1873:2159  function depositCollateral(uint256 amount) external {... */\n    tag_19:\n      tag_95\n      0x04\n      dup1\n      calldatasize\n      sub\n      dup2\n      add\n      swap1\n      tag_96\n      swap2\n      swap1\n      tag_61\n      jump\t// in\n    tag_96:\n      tag_97\n      jump\t// in\n    tag_95:\n      stop\n        /* \"contracts/CoreLoanPlatform.sol\":6384:6504  function getLenderBalance(address lender) external view returns (uint256) {... */\n    tag_20:\n      tag_98\n      0x04\n      dup1\n      calldatasize\n      sub\n      dup2\n      add\n      swap1\n      tag_99\n      swap2\n      swap1\n      tag_47\n      jump\t// in\n    tag_99:\n      tag_100\n      jump\t// in\n    tag_98:\n      mload(0x40)\n      tag_101\n      swap2\n      swap1\n      tag_41\n      jump\t// in\n    tag_101:\n      mload(0x40)\n      dup1\n      swap2\n      sub\n      swap1\n      return\n        /* \"contracts/CoreLoanPlatform.sol\":2903:3934  function borrowBTC(uint256 amount) external {... */\n    tag_21:\n      tag_102\n      0x04\n      dup1\n      calldatasize\n      sub\n      dup2\n      add\n      swap1\n      tag_103\n      swap2\n      swap1\n      tag_61\n      jump\t// in\n    tag_103:\n      tag_104\n      jump\t// in\n    tag_102:\n      stop\n        /* \"contracts/CoreLoanPlatform.sol\":378:424  uint256 public constant COLLATERAL_RATIO = 150 */\n    tag_22:\n      tag_105\n      tag_106\n      jump\t// in\n    tag_105:\n      mload(0x40)\n      tag_107\n      swap2\n      swap1\n      tag_41\n      jump\t// in\n    tag_107:\n      mload(0x40)\n      dup1\n      swap2\n      sub\n      swap1\n      return\n        /* \"contracts/CoreLoanPlatform.sol\":4920:5033  function getUserStaked(address user) external view returns (uint256) {... */\n    tag_23:\n      tag_108\n      0x04\n      dup1\n      calldatasize\n      sub\n      dup2\n      add\n      swap1\n      tag_109\n      swap2\n      swap1\n      tag_47\n      jump\t// in\n    tag_109:\n      tag_110\n      jump\t// in\n    tag_108:\n      mload(0x40)\n      tag_111\n      swap2\n      swap1\n      tag_41\n      jump\t// in\n    tag_111:\n      mload(0x40)\n      dup1\n      swap2\n      sub\n      swap1\n      return\n        /* \"contracts/CoreLoanPlatform.sol\":611:658  uint256 public constant LOAN_DURATION = 30 days */\n    tag_24:\n      tag_112\n      tag_113\n      jump\t// in\n    tag_112:\n      mload(0x40)\n      tag_114\n      swap2\n      swap1\n      tag_41\n      jump\t// in\n    tag_114:\n      mload(0x40)\n      dup1\n      swap2\n      sub\n      swap1\n      return\n        /* \"contracts/CoreLoanPlatform.sol\":5796:6227  function calculateInterest(address user) external view returns (uint256) {... */\n    tag_25:\n      tag_115\n      0x04\n      dup1\n      calldatasize\n      sub\n      dup2\n      add\n      swap1\n      tag_116\n      swap2\n      swap1\n      tag_47\n      jump\t// in\n    tag_116:\n      tag_117\n      jump\t// in\n    tag_115:\n      mload(0x40)\n      tag_118\n      swap2\n      swap1\n      tag_41\n      jump\t// in\n    tag_118:\n      mload(0x40)\n      dup1\n      swap2\n      sub\n      swap1\n      return\n        /* \"contracts/CoreLoanPlatform.sol\":6712:6918  function getUserBorrowed(address user) external view returns (uint256) {... */\n    tag_26:\n      tag_119\n      0x04\n      dup1\n      calldatasize\n      sub\n      dup2\n      add\n      swap1\n      tag_120\n      swap2\n      swap1\n      tag_47\n      jump\t// in\n    tag_120:\n      tag_121\n      jump\t// in\n    tag_119:\n      mload(0x40)\n      tag_122\n      swap2\n      swap1\n      tag_41\n      jump\t// in\n    tag_122:\n      mload(0x40)\n      dup1\n      swap2\n      sub\n      swap1\n      return\n        /* \"contracts/CoreLoanPlatform.sol\":6233:6378  function getLoanDetails(address borrower)... */\n    tag_27:\n      tag_123\n      0x04\n      dup1\n      calldatasize\n      sub\n      dup2\n      add\n      swap1\n      tag_124\n      swap2\n      swap1\n      tag_47\n      jump\t// in\n    tag_124:\n      tag_125\n      jump\t// in\n    tag_123:\n      mload(0x40)\n      tag_126\n      swap2\n      swap1\n      tag_127\n      jump\t// in\n    tag_126:\n      mload(0x40)\n      dup1\n      swap2\n      sub\n      swap1\n      return\n        /* \"@openzeppelin/contracts/access/Ownable.sol\":2543:2758  function transferOwnership(address newOwner) public virtual onlyOwner {... */\n    tag_28:\n      tag_128\n      0x04\n      dup1\n      calldatasize\n      sub\n      dup2\n      add\n      swap1\n      tag_129\n      swap2\n      swap1\n      tag_47\n      jump\t// in\n    tag_129:\n      tag_130\n      jump\t// in\n    tag_128:\n      stop\n        /* \"contracts/CoreLoanPlatform.sol\":5039:5133  function getCurrentApy() external pure returns (uint256) {... */\n    tag_29:\n      tag_131\n      tag_132\n      jump\t// in\n    tag_131:\n      mload(0x40)\n      tag_133\n      swap2\n      swap1\n      tag_41\n      jump\t// in\n    tag_133:\n      mload(0x40)\n      dup1\n      swap2\n      sub\n      swap1\n      return\n        /* \"contracts/CoreLoanPlatform.sol\":1021:1070  mapping(address => uint256) public userCollateral */\n    tag_30:\n      tag_134\n      0x04\n      dup1\n      calldatasize\n      sub\n      dup2\n      add\n      swap1\n      tag_135\n      swap2\n      swap1\n      tag_47\n      jump\t// in\n    tag_135:\n      tag_136\n      jump\t// in\n    tag_134:\n      mload(0x40)\n      tag_137\n      swap2\n      swap1\n      tag_41\n      jump\t// in\n    tag_137:\n      mload(0x40)\n      dup1\n      swap2\n      sub\n      swap1\n      return\n        /* \"contracts/CoreLoanPlatform.sol\":6609:6706  function getTotalBorrowed() external view returns (uint256) {... */\n    tag_39:\n        /* \"contracts/CoreLoanPlatform.sol\":6660:6667  uint256 */\n      0x00\n        /* \"contracts/CoreLoanPlatform.sol\":6686:6699  totalBorrowed */\n      sload(0x02)\n        /* \"contracts/CoreLoanPlatform.sol\":6679:6699  return totalBorrowed */\n      swap1\n      pop\n        /* \"contracts/CoreLoanPlatform.sol\":6609:6706  function getTotalBorrowed() external view returns (uint256) {... */\n      swap1\n      jump\t// out\n        /* \"contracts/CoreLoanPlatform.sol\":6510:6603  function getTotalStaked() external view returns (uint256) {... */\n    tag_43:\n        /* \"contracts/CoreLoanPlatform.sol\":6559:6566  uint256 */\n      0x00\n        /* \"contracts/CoreLoanPlatform.sol\":6585:6596  totalStaked */\n      sload(0x01)\n        /* \"contracts/CoreLoanPlatform.sol\":6578:6596  return totalStaked */\n      swap1\n      pop\n        /* \"contracts/CoreLoanPlatform.sol\":6510:6603  function getTotalStaked() external view returns (uint256) {... */\n      swap1\n      jump\t// out\n        /* \"contracts/CoreLoanPlatform.sol\":5139:5790  function repayLoan(address user) external {... */\n    tag_48:\n        /* \"contracts/CoreLoanPlatform.sol\":5191:5208  Loan storage loan */\n      0x00\n        /* \"contracts/CoreLoanPlatform.sol\":5211:5216  loans */\n      0x03\n        /* \"contracts/CoreLoanPlatform.sol\":5211:5222  loans[user] */\n      0x00\n        /* \"contracts/CoreLoanPlatform.sol\":5217:5221  user */\n      dup4\n        /* \"contracts/CoreLoanPlatform.sol\":5211:5222  loans[user] */\n      0xffffffffffffffffffffffffffffffffffffffff\n      and\n      0xffffffffffffffffffffffffffffffffffffffff\n      and\n      dup2\n      mstore\n      0x20\n      add\n      swap1\n      dup2\n      mstore\n      0x20\n      add\n      0x00\n      keccak256\n        /* \"contracts/CoreLoanPlatform.sol\":5191:5222  Loan storage loan = loans[user] */\n      swap1\n      pop\n        /* \"contracts/CoreLoanPlatform.sol\":5240:5244  loan */\n      dup1\n        /* \"contracts/CoreLoanPlatform.sol\":5240:5251  loan.active */\n      0x03\n      add\n      0x00\n      swap1\n      sload\n      swap1\n      0x0100\n      exp\n      swap1\n      div\n      0xff\n      and\n        /* \"contracts/CoreLoanPlatform.sol\":5232:5270  require(loan.active, \"No active loan\") */\n      tag_141\n      jumpi\n      mload(0x40)\n      0x08c379a000000000000000000000000000000000000000000000000000000000\n      dup2\n      mstore\n      0x04\n      add\n      tag_142\n      swap1\n      tag_143\n      jump\t// in\n    tag_142:\n      mload(0x40)\n      dup1\n      swap2\n      sub\n      swap1\n      revert\n    tag_141:\n        /* \"contracts/CoreLoanPlatform.sol\":5280:5299  uint256 daysElapsed */\n      0x00\n        /* \"contracts/CoreLoanPlatform.sol\":708:713  86400 */\n      0x015180\n        /* \"contracts/CoreLoanPlatform.sol\":5321:5325  loan */\n      dup3\n        /* \"contracts/CoreLoanPlatform.sol\":5321:5335  loan.timestamp */\n      0x02\n      add\n      sload\n        /* \"contracts/CoreLoanPlatform.sol\":5303:5318  block.timestamp */\n      timestamp\n        /* \"contracts/CoreLoanPlatform.sol\":5303:5335  block.timestamp - loan.timestamp */\n      tag_144\n      swap2\n      swap1\n      tag_145\n      jump\t// in\n    tag_144:\n        /* \"contracts/CoreLoanPlatform.sol\":5302:5367  (block.timestamp - loan.timestamp) /... */\n      tag_146\n      swap2\n      swap1\n      tag_147\n      jump\t// in\n    tag_146:\n        /* \"contracts/CoreLoanPlatform.sol\":5280:5367  uint256 daysElapsed = (block.timestamp - loan.timestamp) /... */\n      swap1\n      pop\n        /* \"contracts/CoreLoanPlatform.sol\":5400:5402  30 */\n      0x1e\n        /* \"contracts/CoreLoanPlatform.sol\":5385:5396  daysElapsed */\n      dup2\n        /* \"contracts/CoreLoanPlatform.sol\":5385:5402  daysElapsed <= 30 */\n      gt\n      iszero\n        /* \"contracts/CoreLoanPlatform.sol\":5377:5437  require(daysElapsed <= 30, \"Loan duration exceeded 30 days\") */\n      tag_148\n      jumpi\n      mload(0x40)\n      0x08c379a000000000000000000000000000000000000000000000000000000000\n      dup2\n      mstore\n      0x04\n      add\n      tag_149\n      swap1\n      tag_150\n      jump\t// in\n    tag_149:\n      mload(0x40)\n      dup1\n      swap2\n      sub\n      swap1\n      revert\n    tag_148:\n        /* \"contracts/CoreLoanPlatform.sol\":5447:5463  uint256 interest */\n      0x00\n        /* \"contracts/CoreLoanPlatform.sol\":5512:5517  36500 */\n      0x8e94\n        /* \"contracts/CoreLoanPlatform.sol\":5497:5508  daysElapsed */\n      dup3\n        /* \"contracts/CoreLoanPlatform.sol\":584:585  5 */\n      0x05\n        /* \"contracts/CoreLoanPlatform.sol\":5467:5471  loan */\n      dup6\n        /* \"contracts/CoreLoanPlatform.sol\":5467:5478  loan.amount */\n      0x00\n      add\n      sload\n        /* \"contracts/CoreLoanPlatform.sol\":5467:5494  loan.amount * INTEREST_RATE */\n      tag_151\n      swap2\n      swap1\n      tag_152\n      jump\t// in\n    tag_151:\n        /* \"contracts/CoreLoanPlatform.sol\":5467:5508  loan.amount * INTEREST_RATE * daysElapsed */\n      tag_153\n      swap2\n      swap1\n      tag_152\n      jump\t// in\n    tag_153:\n        /* \"contracts/CoreLoanPlatform.sol\":5466:5517  (loan.amount * INTEREST_RATE * daysElapsed) / 36500 */\n      tag_154\n      swap2\n      swap1\n      tag_147\n      jump\t// in\n    tag_154:\n        /* \"contracts/CoreLoanPlatform.sol\":5447:5517  uint256 interest = (loan.amount * INTEREST_RATE * daysElapsed) / 36500 */\n      swap1\n      pop\n        /* \"contracts/CoreLoanPlatform.sol\":5527:5549  uint256 totalRepayment */\n      0x00\n        /* \"contracts/CoreLoanPlatform.sol\":5566:5574  interest */\n      dup2\n        /* \"contracts/CoreLoanPlatform.sol\":5552:5556  loan */\n      dup5\n        /* \"contracts/CoreLoanPlatform.sol\":5552:5563  loan.amount */\n      0x00\n      add\n      sload\n        /* \"contracts/CoreLoanPlatform.sol\":5552:5574  loan.amount + interest */\n      tag_155\n      swap2\n      swap1\n      tag_156\n      jump\t// in\n    tag_155:\n        /* \"contracts/CoreLoanPlatform.sol\":5527:5574  uint256 totalRepayment = loan.amount + interest */\n      swap1\n      pop\n        /* \"contracts/CoreLoanPlatform.sol\":5584:5641  BTC.safeTransferFrom(user, address(this), totalRepayment) */\n      tag_157\n        /* \"contracts/CoreLoanPlatform.sol\":5605:5609  user */\n      dup6\n        /* \"contracts/CoreLoanPlatform.sol\":5619:5623  this */\n      address\n        /* \"contracts/CoreLoanPlatform.sol\":5626:5640  totalRepayment */\n      dup4\n        /* \"contracts/CoreLoanPlatform.sol\":5584:5587  BTC */\n      immutable(\"0xceebc1e79b37113a3784d9bbf48b7ad015159a0fad39f370ddaba6e9581bdbc5\")\n        /* \"contracts/CoreLoanPlatform.sol\":5584:5604  BTC.safeTransferFrom */\n      0xffffffffffffffffffffffffffffffffffffffff\n      and\n      tag_158\n      swap1\n        /* \"contracts/CoreLoanPlatform.sol\":5584:5641  BTC.safeTransferFrom(user, address(this), totalRepayment) */\n      swap4\n      swap3\n      swap2\n      swap1\n      0xffffffff\n      and\n      jump\t// in\n    tag_157:\n        /* \"contracts/CoreLoanPlatform.sol\":5665:5670  false */\n      0x00\n        /* \"contracts/CoreLoanPlatform.sol\":5651:5655  loan */\n      dup5\n        /* \"contracts/CoreLoanPlatform.sol\":5651:5662  loan.active */\n      0x03\n      add\n      0x00\n        /* \"contracts/CoreLoanPlatform.sol\":5651:5670  loan.active = false */\n      0x0100\n      exp\n      dup2\n      sload\n      dup2\n      0xff\n      mul\n      not\n      and\n      swap1\n      dup4\n      iszero\n      iszero\n      mul\n      or\n      swap1\n      sstore\n      pop\n        /* \"contracts/CoreLoanPlatform.sol\":5712:5716  loan */\n      dup4\n        /* \"contracts/CoreLoanPlatform.sol\":5712:5723  loan.amount */\n      0x00\n      add\n      sload\n        /* \"contracts/CoreLoanPlatform.sol\":5696:5709  totalBorrowed */\n      sload(0x02)\n        /* \"contracts/CoreLoanPlatform.sol\":5696:5723  totalBorrowed - loan.amount */\n      tag_159\n      swap2\n      swap1\n      tag_145\n      jump\t// in\n    tag_159:\n        /* \"contracts/CoreLoanPlatform.sol\":5680:5693  totalBorrowed */\n      0x02\n        /* \"contracts/CoreLoanPlatform.sol\":5680:5723  totalBorrowed = totalBorrowed - loan.amount */\n      dup2\n      swap1\n      sstore\n      pop\n        /* \"contracts/CoreLoanPlatform.sol\":5749:5759  msg.sender */\n      caller\n        /* \"contracts/CoreLoanPlatform.sol\":5738:5783  LoanRepaid(msg.sender, loan.amount, interest) */\n      0xffffffffffffffffffffffffffffffffffffffff\n      and\n      0xc7ce0a35f17b490de2a317e7fecb2cae86b1abffb03800b2f492823521382698\n        /* \"contracts/CoreLoanPlatform.sol\":5761:5765  loan */\n      dup6\n        /* \"contracts/CoreLoanPlatform.sol\":5761:5772  loan.amount */\n      0x00\n      add\n      sload\n        /* \"contracts/CoreLoanPlatform.sol\":5774:5782  interest */\n      dup5\n        /* \"contracts/CoreLoanPlatform.sol\":5738:5783  LoanRepaid(msg.sender, loan.amount, interest) */\n      mload(0x40)\n      tag_160\n      swap3\n      swap2\n      swap1\n      tag_161\n      jump\t// in\n    tag_160:\n      mload(0x40)\n      dup1\n      swap2\n      sub\n      swap1\n      log2\n        /* \"contracts/CoreLoanPlatform.sol\":5181:5790  {... */\n      pop\n      pop\n      pop\n      pop\n        /* \"contracts/CoreLoanPlatform.sol\":5139:5790  function repayLoan(address user) external {... */\n      pop\n      jump\t// out\n        /* \"contracts/CoreLoanPlatform.sol\":311:338  IERC20 public immutable USD */\n    tag_50:\n      immutable(\"0xb687940cdede3d6e24b115affb282228515a5bf2ffa7b65269e2dfb5ea745e96\")\n      dup2\n      jump\t// out\n        /* \"contracts/CoreLoanPlatform.sol\":344:371  IERC20 public immutable BTC */\n    tag_54:\n      immutable(\"0xceebc1e79b37113a3784d9bbf48b7ad015159a0fad39f370ddaba6e9581bdbc5\")\n      dup2\n      jump\t// out\n        /* \"contracts/CoreLoanPlatform.sol\":544:585  uint256 public constant INTEREST_RATE = 5 */\n    tag_57:\n        /* \"contracts/CoreLoanPlatform.sol\":584:585  5 */\n      0x05\n        /* \"contracts/CoreLoanPlatform.sol\":544:585  uint256 public constant INTEREST_RATE = 5 */\n      dup2\n      jump\t// out\n        /* \"contracts/CoreLoanPlatform.sol\":2165:2897  function withdrawCollateral(uint256 amount) external {... */\n    tag_62:\n        /* \"contracts/CoreLoanPlatform.sol\":2245:2246  0 */\n      0x00\n        /* \"contracts/CoreLoanPlatform.sol\":2236:2242  amount */\n      dup2\n        /* \"contracts/CoreLoanPlatform.sol\":2236:2246  amount > 0 */\n      gt\n        /* \"contracts/CoreLoanPlatform.sol\":2228:2280  require(amount > 0, \"Amount must be greater than 0\") */\n      tag_163\n      jumpi\n      mload(0x40)\n      0x08c379a000000000000000000000000000000000000000000000000000000000\n      dup2\n      mstore\n      0x04\n      add\n      tag_164\n      swap1\n      tag_165\n      jump\t// in\n    tag_164:\n      mload(0x40)\n      dup1\n      swap2\n      sub\n      swap1\n      revert\n    tag_163:\n        /* \"contracts/CoreLoanPlatform.sol\":2341:2347  amount */\n      dup1\n        /* \"contracts/CoreLoanPlatform.sol\":2311:2325  userCollateral */\n      0x04\n        /* \"contracts/CoreLoanPlatform.sol\":2311:2337  userCollateral[msg.sender] */\n      0x00\n        /* \"contracts/CoreLoanPlatform.sol\":2326:2336  msg.sender */\n      caller\n        /* \"contracts/CoreLoanPlatform.sol\":2311:2337  userCollateral[msg.sender] */\n      0xffffffffffffffffffffffffffffffffffffffff\n      and\n      0xffffffffffffffffffffffffffffffffffffffff\n      and\n      dup2\n      mstore\n      0x20\n      add\n      swap1\n      dup2\n      mstore\n      0x20\n      add\n      0x00\n      keccak256\n      sload\n        /* \"contracts/CoreLoanPlatform.sol\":2311:2347  userCollateral[msg.sender] >= amount */\n      lt\n      iszero\n        /* \"contracts/CoreLoanPlatform.sol\":2290:2396  require(... */\n      tag_166\n      jumpi\n      mload(0x40)\n      0x08c379a000000000000000000000000000000000000000000000000000000000\n      dup2\n      mstore\n      0x04\n      add\n      tag_167\n      swap1\n      tag_168\n      jump\t// in\n    tag_167:\n      mload(0x40)\n      dup1\n      swap2\n      sub\n      swap1\n      revert\n    tag_166:\n        /* \"contracts/CoreLoanPlatform.sol\":2406:2428  uint256 borrowedAmount */\n      0x00\n        /* \"contracts/CoreLoanPlatform.sol\":2431:2436  loans */\n      0x03\n        /* \"contracts/CoreLoanPlatform.sol\":2431:2448  loans[msg.sender] */\n      0x00\n        /* \"contracts/CoreLoanPlatform.sol\":2437:2447  msg.sender */\n      caller\n        /* \"contracts/CoreLoanPlatform.sol\":2431:2448  loans[msg.sender] */\n      0xffffffffffffffffffffffffffffffffffffffff\n      and\n      0xffffffffffffffffffffffffffffffffffffffff\n      and\n      dup2\n      mstore\n      0x20\n      add\n      swap1\n      dup2\n      mstore\n      0x20\n      add\n      0x00\n      keccak256\n        /* \"contracts/CoreLoanPlatform.sol\":2431:2455  loans[msg.sender].active */\n      0x03\n      add\n      0x00\n      swap1\n      sload\n      swap1\n      0x0100\n      exp\n      swap1\n      div\n      0xff\n      and\n        /* \"contracts/CoreLoanPlatform.sol\":2431:2510  loans[msg.sender].active... */\n      tag_169\n      jumpi\n        /* \"contracts/CoreLoanPlatform.sol\":2509:2510  0 */\n      0x00\n        /* \"contracts/CoreLoanPlatform.sol\":2431:2510  loans[msg.sender].active... */\n      jump(tag_170)\n    tag_169:\n        /* \"contracts/CoreLoanPlatform.sol\":2470:2475  loans */\n      0x03\n        /* \"contracts/CoreLoanPlatform.sol\":2470:2487  loans[msg.sender] */\n      0x00\n        /* \"contracts/CoreLoanPlatform.sol\":2476:2486  msg.sender */\n      caller\n        /* \"contracts/CoreLoanPlatform.sol\":2470:2487  loans[msg.sender] */\n      0xffffffffffffffffffffffffffffffffffffffff\n      and\n      0xffffffffffffffffffffffffffffffffffffffff\n      and\n      dup2\n      mstore\n      0x20\n      add\n      swap1\n      dup2\n      mstore\n      0x20\n      add\n      0x00\n      keccak256\n        /* \"contracts/CoreLoanPlatform.sol\":2470:2494  loans[msg.sender].amount */\n      0x00\n      add\n      sload\n        /* \"contracts/CoreLoanPlatform.sol\":2431:2510  loans[msg.sender].active... */\n    tag_170:\n        /* \"contracts/CoreLoanPlatform.sol\":2406:2510  uint256 borrowedAmount = loans[msg.sender].active... */\n      swap1\n      pop\n        /* \"contracts/CoreLoanPlatform.sol\":2520:2546  uint256 requiredCollateral */\n      0x00\n        /* \"contracts/CoreLoanPlatform.sol\":2587:2590  100 */\n      0x64\n        /* \"contracts/CoreLoanPlatform.sol\":421:424  150 */\n      0x96\n        /* \"contracts/CoreLoanPlatform.sol\":2550:2564  borrowedAmount */\n      dup4\n        /* \"contracts/CoreLoanPlatform.sol\":2550:2583  borrowedAmount * COLLATERAL_RATIO */\n      tag_171\n      swap2\n      swap1\n      tag_152\n      jump\t// in\n    tag_171:\n        /* \"contracts/CoreLoanPlatform.sol\":2549:2590  (borrowedAmount * COLLATERAL_RATIO) / 100 */\n      tag_172\n      swap2\n      swap1\n      tag_147\n      jump\t// in\n    tag_172:\n        /* \"contracts/CoreLoanPlatform.sol\":2520:2590  uint256 requiredCollateral = (borrowedAmount * COLLATERAL_RATIO) / 100 */\n      swap1\n      pop\n        /* \"contracts/CoreLoanPlatform.sol\":2660:2678  requiredCollateral */\n      dup1\n        /* \"contracts/CoreLoanPlatform.sol\":2650:2656  amount */\n      dup4\n        /* \"contracts/CoreLoanPlatform.sol\":2621:2635  userCollateral */\n      0x04\n        /* \"contracts/CoreLoanPlatform.sol\":2621:2647  userCollateral[msg.sender] */\n      0x00\n        /* \"contracts/CoreLoanPlatform.sol\":2636:2646  msg.sender */\n      caller\n        /* \"contracts/CoreLoanPlatform.sol\":2621:2647  userCollateral[msg.sender] */\n      0xffffffffffffffffffffffffffffffffffffffff\n      and\n      0xffffffffffffffffffffffffffffffffffffffff\n      and\n      dup2\n      mstore\n      0x20\n      add\n      swap1\n      dup2\n      mstore\n      0x20\n      add\n      0x00\n      keccak256\n      sload\n        /* \"contracts/CoreLoanPlatform.sol\":2621:2656  userCollateral[msg.sender] - amount */\n      tag_173\n      swap2\n      swap1\n      tag_145\n      jump\t// in\n    tag_173:\n        /* \"contracts/CoreLoanPlatform.sol\":2621:2678  userCollateral[msg.sender] - amount >= requiredCollateral */\n      lt\n      iszero\n        /* \"contracts/CoreLoanPlatform.sol\":2600:2744  require(... */\n      tag_174\n      jumpi\n      mload(0x40)\n      0x08c379a000000000000000000000000000000000000000000000000000000000\n      dup2\n      mstore\n      0x04\n      add\n      tag_175\n      swap1\n      tag_176\n      jump\t// in\n    tag_175:\n      mload(0x40)\n      dup1\n      swap2\n      sub\n      swap1\n      revert\n    tag_174:\n        /* \"contracts/CoreLoanPlatform.sol\":2784:2790  amount */\n      dup3\n        /* \"contracts/CoreLoanPlatform.sol\":2754:2768  userCollateral */\n      0x04\n        /* \"contracts/CoreLoanPlatform.sol\":2754:2780  userCollateral[msg.sender] */\n      0x00\n        /* \"contracts/CoreLoanPlatform.sol\":2769:2779  msg.sender */\n      caller\n        /* \"contracts/CoreLoanPlatform.sol\":2754:2780  userCollateral[msg.sender] */\n      0xffffffffffffffffffffffffffffffffffffffff\n      and\n      0xffffffffffffffffffffffffffffffffffffffff\n      and\n      dup2\n      mstore\n      0x20\n      add\n      swap1\n      dup2\n      mstore\n      0x20\n      add\n      0x00\n      keccak256\n      0x00\n        /* \"contracts/CoreLoanPlatform.sol\":2754:2790  userCollateral[msg.sender] -= amount */\n      dup3\n      dup3\n      sload\n      tag_177\n      swap2\n      swap1\n      tag_145\n      jump\t// in\n    tag_177:\n      swap3\n      pop\n      pop\n      dup2\n      swap1\n      sstore\n      pop\n        /* \"contracts/CoreLoanPlatform.sol\":2800:2836  USD.safeTransfer(msg.sender, amount) */\n      tag_178\n        /* \"contracts/CoreLoanPlatform.sol\":2817:2827  msg.sender */\n      caller\n        /* \"contracts/CoreLoanPlatform.sol\":2829:2835  amount */\n      dup5\n        /* \"contracts/CoreLoanPlatform.sol\":2800:2803  USD */\n      immutable(\"0xb687940cdede3d6e24b115affb282228515a5bf2ffa7b65269e2dfb5ea745e96\")\n        /* \"contracts/CoreLoanPlatform.sol\":2800:2816  USD.safeTransfer */\n      0xffffffffffffffffffffffffffffffffffffffff\n      and\n      tag_179\n      swap1\n        /* \"contracts/CoreLoanPlatform.sol\":2800:2836  USD.safeTransfer(msg.sender, amount) */\n      swap3\n      swap2\n      swap1\n      0xffffffff\n      and\n      jump\t// in\n    tag_178:\n        /* \"contracts/CoreLoanPlatform.sol\":2871:2881  msg.sender */\n      caller\n        /* \"contracts/CoreLoanPlatform.sol\":2851:2890  CollateralWithdrawn(msg.sender, amount) */\n      0xffffffffffffffffffffffffffffffffffffffff\n      and\n      0xc30fcfbcaac9e0deffa719714eaa82396ff506a0d0d0eebe170830177288715d\n        /* \"contracts/CoreLoanPlatform.sol\":2883:2889  amount */\n      dup5\n        /* \"contracts/CoreLoanPlatform.sol\":2851:2890  CollateralWithdrawn(msg.sender, amount) */\n      mload(0x40)\n      tag_180\n      swap2\n      swap1\n      tag_41\n      jump\t// in\n    tag_180:\n      mload(0x40)\n      dup1\n      swap2\n      sub\n      swap1\n      log2\n        /* \"contracts/CoreLoanPlatform.sol\":2218:2897  {... */\n      pop\n      pop\n        /* \"contracts/CoreLoanPlatform.sol\":2165:2897  function withdrawCollateral(uint256 amount) external {... */\n      pop\n      jump\t// out\n        /* \"contracts/CoreLoanPlatform.sol\":3940:4086  function getBorrowableAmount(address user) external view returns (uint256) {... */\n    tag_65:\n        /* \"contracts/CoreLoanPlatform.sol\":4006:4013  uint256 */\n      0x00\n        /* \"contracts/CoreLoanPlatform.sol\":4076:4079  100 */\n      0x64\n        /* \"contracts/CoreLoanPlatform.sol\":499:501  80 */\n      0x50\n        /* \"contracts/CoreLoanPlatform.sol\":4033:4047  userCollateral */\n      0x04\n        /* \"contracts/CoreLoanPlatform.sol\":4033:4053  userCollateral[user] */\n      0x00\n        /* \"contracts/CoreLoanPlatform.sol\":4048:4052  user */\n      dup6\n        /* \"contracts/CoreLoanPlatform.sol\":4033:4053  userCollateral[user] */\n      0xffffffffffffffffffffffffffffffffffffffff\n      and\n      0xffffffffffffffffffffffffffffffffffffffff\n      and\n      dup2\n      mstore\n      0x20\n      add\n      swap1\n      dup2\n      mstore\n      0x20\n      add\n      0x00\n      keccak256\n      sload\n        /* \"contracts/CoreLoanPlatform.sol\":4033:4072  userCollateral[user] * BORROWABLE_RATIO */\n      tag_182\n      swap2\n      swap1\n      tag_152\n      jump\t// in\n    tag_182:\n        /* \"contracts/CoreLoanPlatform.sol\":4032:4079  (userCollateral[user] * BORROWABLE_RATIO) / 100 */\n      tag_183\n      swap2\n      swap1\n      tag_147\n      jump\t// in\n    tag_183:\n        /* \"contracts/CoreLoanPlatform.sol\":4025:4079  return (userCollateral[user] * BORROWABLE_RATIO) / 100 */\n      swap1\n      pop\n        /* \"contracts/CoreLoanPlatform.sol\":3940:4086  function getBorrowableAmount(address user) external view returns (uint256) {... */\n      swap2\n      swap1\n      pop\n      jump\t// out\n        /* \"contracts/CoreLoanPlatform.sol\":456:501  uint256 public constant BORROWABLE_RATIO = 80 */\n    tag_68:\n        /* \"contracts/CoreLoanPlatform.sol\":499:501  80 */\n      0x50\n        /* \"contracts/CoreLoanPlatform.sol\":456:501  uint256 public constant BORROWABLE_RATIO = 80 */\n      dup2\n      jump\t// out\n        /* \"@openzeppelin/contracts/access/Ownable.sol\":2293:2394  function renounceOwnership() public virtual onlyOwner {... */\n    tag_71:\n        /* \"@openzeppelin/contracts/access/Ownable.sol\":1531:1544  _checkOwner() */\n      tag_185\n        /* \"@openzeppelin/contracts/access/Ownable.sol\":1531:1542  _checkOwner */\n      tag_186\n        /* \"@openzeppelin/contracts/access/Ownable.sol\":1531:1544  _checkOwner() */\n      jump\t// in\n    tag_185:\n        /* \"@openzeppelin/contracts/access/Ownable.sol\":2357:2387  _transferOwnership(address(0)) */\n      tag_188\n        /* \"@openzeppelin/contracts/access/Ownable.sol\":2384:2385  0 */\n      0x00\n        /* \"@openzeppelin/contracts/access/Ownable.sol\":2357:2375  _transferOwnership */\n      tag_189\n        /* \"@openzeppelin/contracts/access/Ownable.sol\":2357:2387  _transferOwnership(address(0)) */\n      jump\t// in\n    tag_188:\n        /* \"@openzeppelin/contracts/access/Ownable.sol\":2293:2394  function renounceOwnership() public virtual onlyOwner {... */\n      jump\t// out\n        /* \"contracts/CoreLoanPlatform.sol\":978:1015  mapping(address => Loan) public loans */\n    tag_74:\n      mstore(0x20, 0x03)\n      dup1\n      0x00\n      mstore\n      keccak256(0x00, 0x40)\n      0x00\n      swap2\n      pop\n      swap1\n      pop\n      dup1\n      0x00\n      add\n      sload\n      swap1\n      dup1\n      0x01\n      add\n      sload\n      swap1\n      dup1\n      0x02\n      add\n      sload\n      swap1\n      dup1\n      0x03\n      add\n      0x00\n      swap1\n      sload\n      swap1\n      0x0100\n      exp\n      swap1\n      div\n      0xff\n      and\n      swap1\n      pop\n      dup5\n      jump\t// out\n        /* \"@openzeppelin/contracts/access/Ownable.sol\":1638:1723  function owner() public view virtual returns (address) {... */\n    tag_78:\n        /* \"@openzeppelin/contracts/access/Ownable.sol\":1684:1691  address */\n      0x00\n        /* \"@openzeppelin/contracts/access/Ownable.sol\":1710:1716  _owner */\n      dup1\n      0x00\n      swap1\n      sload\n      swap1\n      0x0100\n      exp\n      swap1\n      div\n      0xffffffffffffffffffffffffffffffffffffffff\n      and\n        /* \"@openzeppelin/contracts/access/Ownable.sol\":1703:1716  return _owner */\n      swap1\n      pop\n        /* \"@openzeppelin/contracts/access/Ownable.sol\":1638:1723  function owner() public view virtual returns (address) {... */\n      swap1\n      jump\t// out\n        /* \"contracts/CoreLoanPlatform.sol\":4537:4914  function withdrawBTC(uint256 amount) external {... */\n    tag_83:\n        /* \"contracts/CoreLoanPlatform.sol\":4610:4611  0 */\n      0x00\n        /* \"contracts/CoreLoanPlatform.sol\":4601:4607  amount */\n      dup2\n        /* \"contracts/CoreLoanPlatform.sol\":4601:4611  amount > 0 */\n      gt\n        /* \"contracts/CoreLoanPlatform.sol\":4593:4645  require(amount > 0, \"Amount must be greater than 0\") */\n      tag_192\n      jumpi\n      mload(0x40)\n      0x08c379a000000000000000000000000000000000000000000000000000000000\n      dup2\n      mstore\n      0x04\n      add\n      tag_193\n      swap1\n      tag_165\n      jump\t// in\n    tag_193:\n      mload(0x40)\n      dup1\n      swap2\n      sub\n      swap1\n      revert\n    tag_192:\n        /* \"contracts/CoreLoanPlatform.sol\":4693:4699  amount */\n      dup1\n        /* \"contracts/CoreLoanPlatform.sol\":4663:4677  lenderBalances */\n      0x05\n        /* \"contracts/CoreLoanPlatform.sol\":4663:4689  lenderBalances[msg.sender] */\n      0x00\n        /* \"contracts/CoreLoanPlatform.sol\":4678:4688  msg.sender */\n      caller\n        /* \"contracts/CoreLoanPlatform.sol\":4663:4689  lenderBalances[msg.sender] */\n      0xffffffffffffffffffffffffffffffffffffffff\n      and\n      0xffffffffffffffffffffffffffffffffffffffff\n      and\n      dup2\n      mstore\n      0x20\n      add\n      swap1\n      dup2\n      mstore\n      0x20\n      add\n      0x00\n      keccak256\n      sload\n        /* \"contracts/CoreLoanPlatform.sol\":4663:4699  lenderBalances[msg.sender] >= amount */\n      lt\n      iszero\n        /* \"contracts/CoreLoanPlatform.sol\":4655:4724  require(lenderBalances[msg.sender] >= amount, \"Insufficient balance\") */\n      tag_194\n      jumpi\n      mload(0x40)\n      0x08c379a000000000000000000000000000000000000000000000000000000000\n      dup2\n      mstore\n      0x04\n      add\n      tag_195\n      swap1\n      tag_196\n      jump\t// in\n    tag_195:\n      mload(0x40)\n      dup1\n      swap2\n      sub\n      swap1\n      revert\n    tag_194:\n        /* \"contracts/CoreLoanPlatform.sol\":4764:4770  amount */\n      dup1\n        /* \"contracts/CoreLoanPlatform.sol\":4734:4748  lenderBalances */\n      0x05\n        /* \"contracts/CoreLoanPlatform.sol\":4734:4760  lenderBalances[msg.sender] */\n      0x00\n        /* \"contracts/CoreLoanPlatform.sol\":4749:4759  msg.sender */\n      caller\n        /* \"contracts/CoreLoanPlatform.sol\":4734:4760  lenderBalances[msg.sender] */\n      0xffffffffffffffffffffffffffffffffffffffff\n      and\n      0xffffffffffffffffffffffffffffffffffffffff\n      and\n      dup2\n      mstore\n      0x20\n      add\n      swap1\n      dup2\n      mstore\n      0x20\n      add\n      0x00\n      keccak256\n      0x00\n        /* \"contracts/CoreLoanPlatform.sol\":4734:4770  lenderBalances[msg.sender] -= amount */\n      dup3\n      dup3\n      sload\n      tag_197\n      swap2\n      swap1\n      tag_145\n      jump\t// in\n    tag_197:\n      swap3\n      pop\n      pop\n      dup2\n      swap1\n      sstore\n      pop\n        /* \"contracts/CoreLoanPlatform.sol\":4808:4814  amount */\n      dup1\n        /* \"contracts/CoreLoanPlatform.sol\":4794:4805  totalStaked */\n      sload(0x01)\n        /* \"contracts/CoreLoanPlatform.sol\":4794:4814  totalStaked - amount */\n      tag_198\n      swap2\n      swap1\n      tag_145\n      jump\t// in\n    tag_198:\n        /* \"contracts/CoreLoanPlatform.sol\":4780:4791  totalStaked */\n      0x01\n        /* \"contracts/CoreLoanPlatform.sol\":4780:4814  totalStaked = totalStaked - amount */\n      dup2\n      swap1\n      sstore\n      pop\n        /* \"contracts/CoreLoanPlatform.sol\":4824:4860  BTC.safeTransfer(msg.sender, amount) */\n      tag_199\n        /* \"contracts/CoreLoanPlatform.sol\":4841:4851  msg.sender */\n      caller\n        /* \"contracts/CoreLoanPlatform.sol\":4853:4859  amount */\n      dup3\n        /* \"contracts/CoreLoanPlatform.sol\":4824:4827  BTC */\n      immutable(\"0xceebc1e79b37113a3784d9bbf48b7ad015159a0fad39f370ddaba6e9581bdbc5\")\n        /* \"contracts/CoreLoanPlatform.sol\":4824:4840  BTC.safeTransfer */\n      0xffffffffffffffffffffffffffffffffffffffff\n      and\n      tag_179\n      swap1\n        /* \"contracts/CoreLoanPlatform.sol\":4824:4860  BTC.safeTransfer(msg.sender, amount) */\n      swap3\n      swap2\n      swap1\n      0xffffffff\n      and\n      jump\t// in\n    tag_199:\n        /* \"contracts/CoreLoanPlatform.sol\":4888:4898  msg.sender */\n      caller\n        /* \"contracts/CoreLoanPlatform.sol\":4875:4907  BTCWithdrawn(msg.sender, amount) */\n      0xffffffffffffffffffffffffffffffffffffffff\n      and\n      0x46cb947848d6e66f42fd865aff4e0b9765da557ed05874db5a3c931ccea58ef1\n        /* \"contracts/CoreLoanPlatform.sol\":4900:4906  amount */\n      dup3\n        /* \"contracts/CoreLoanPlatform.sol\":4875:4907  BTCWithdrawn(msg.sender, amount) */\n      mload(0x40)\n      tag_200\n      swap2\n      swap1\n      tag_41\n      jump\t// in\n    tag_200:\n      mload(0x40)\n      dup1\n      swap2\n      sub\n      swap1\n      log2\n        /* \"contracts/CoreLoanPlatform.sol\":4537:4914  function withdrawBTC(uint256 amount) external {... */\n      pop\n      jump\t// out\n        /* \"contracts/CoreLoanPlatform.sol\":1076:1125  mapping(address => uint256) public lenderBalances */\n    tag_86:\n      mstore(0x20, 0x05)\n      dup1\n      0x00\n      mstore\n      keccak256(0x00, 0x40)\n      0x00\n      swap2\n      pop\n      swap1\n      pop\n      sload\n      dup2\n      jump\t// out\n        /* \"contracts/CoreLoanPlatform.sol\":4215:4531  function depositBTC(uint256 amount) external {... */\n    tag_90:\n        /* \"contracts/CoreLoanPlatform.sol\":4287:4288  0 */\n      0x00\n        /* \"contracts/CoreLoanPlatform.sol\":4278:4284  amount */\n      dup2\n        /* \"contracts/CoreLoanPlatform.sol\":4278:4288  amount > 0 */\n      gt\n        /* \"contracts/CoreLoanPlatform.sol\":4270:4322  require(amount > 0, \"Amount must be greater than 0\") */\n      tag_202\n      jumpi\n      mload(0x40)\n      0x08c379a000000000000000000000000000000000000000000000000000000000\n      dup2\n      mstore\n      0x04\n      add\n      tag_203\n      swap1\n      tag_165\n      jump\t// in\n    tag_203:\n      mload(0x40)\n      dup1\n      swap2\n      sub\n      swap1\n      revert\n    tag_202:\n        /* \"contracts/CoreLoanPlatform.sol\":4332:4387  BTC.safeTransferFrom(msg.sender, address(this), amount) */\n      tag_204\n        /* \"contracts/CoreLoanPlatform.sol\":4353:4363  msg.sender */\n      caller\n        /* \"contracts/CoreLoanPlatform.sol\":4373:4377  this */\n      address\n        /* \"contracts/CoreLoanPlatform.sol\":4380:4386  amount */\n      dup4\n        /* \"contracts/CoreLoanPlatform.sol\":4332:4335  BTC */\n      immutable(\"0xceebc1e79b37113a3784d9bbf48b7ad015159a0fad39f370ddaba6e9581bdbc5\")\n        /* \"contracts/CoreLoanPlatform.sol\":4332:4352  BTC.safeTransferFrom */\n      0xffffffffffffffffffffffffffffffffffffffff\n      and\n      tag_158\n      swap1\n        /* \"contracts/CoreLoanPlatform.sol\":4332:4387  BTC.safeTransferFrom(msg.sender, address(this), amount) */\n      swap4\n      swap3\n      swap2\n      swap1\n      0xffffffff\n      and\n      jump\t// in\n    tag_204:\n        /* \"contracts/CoreLoanPlatform.sol\":4427:4433  amount */\n      dup1\n        /* \"contracts/CoreLoanPlatform.sol\":4397:4411  lenderBalances */\n      0x05\n        /* \"contracts/CoreLoanPlatform.sol\":4397:4423  lenderBalances[msg.sender] */\n      0x00\n        /* \"contracts/CoreLoanPlatform.sol\":4412:4422  msg.sender */\n      caller\n        /* \"contracts/CoreLoanPlatform.sol\":4397:4423  lenderBalances[msg.sender] */\n      0xffffffffffffffffffffffffffffffffffffffff\n      and\n      0xffffffffffffffffffffffffffffffffffffffff\n      and\n      dup2\n      mstore\n      0x20\n      add\n      swap1\n      dup2\n      mstore\n      0x20\n      add\n      0x00\n      keccak256\n      0x00\n        /* \"contracts/CoreLoanPlatform.sol\":4397:4433  lenderBalances[msg.sender] += amount */\n      dup3\n      dup3\n      sload\n      tag_205\n      swap2\n      swap1\n      tag_156\n      jump\t// in\n    tag_205:\n      swap3\n      pop\n      pop\n      dup2\n      swap1\n      sstore\n      pop\n        /* \"contracts/CoreLoanPlatform.sol\":4471:4477  amount */\n      dup1\n        /* \"contracts/CoreLoanPlatform.sol\":4457:4468  totalStaked */\n      sload(0x01)\n        /* \"contracts/CoreLoanPlatform.sol\":4457:4477  totalStaked + amount */\n      tag_206\n      swap2\n      swap1\n      tag_156\n      jump\t// in\n    tag_206:\n        /* \"contracts/CoreLoanPlatform.sol\":4443:4454  totalStaked */\n      0x01\n        /* \"contracts/CoreLoanPlatform.sol\":4443:4477  totalStaked = totalStaked + amount */\n      dup2\n      swap1\n      sstore\n      pop\n        /* \"contracts/CoreLoanPlatform.sol\":4505:4515  msg.sender */\n      caller\n        /* \"contracts/CoreLoanPlatform.sol\":4492:4524  BTCDeposited(msg.sender, amount) */\n      0xffffffffffffffffffffffffffffffffffffffff\n      and\n      0xc876900062bf6768530bd9be84c146f5c051f4a50a5bf7fbcdd9ed4c8fb154\n        /* \"contracts/CoreLoanPlatform.sol\":4517:4523  amount */\n      dup3\n        /* \"contracts/CoreLoanPlatform.sol\":4492:4524  BTCDeposited(msg.sender, amount) */\n      mload(0x40)\n      tag_207\n      swap2\n      swap1\n      tag_41\n      jump\t// in\n    tag_207:\n      mload(0x40)\n      dup1\n      swap2\n      sub\n      swap1\n      log2\n        /* \"contracts/CoreLoanPlatform.sol\":4215:4531  function depositBTC(uint256 amount) external {... */\n      pop\n      jump\t// out\n        /* \"contracts/CoreLoanPlatform.sol\":4092:4209  function getUserCollateral(address user) external view returns (uint256) {... */\n    tag_93:\n        /* \"contracts/CoreLoanPlatform.sol\":4156:4163  uint256 */\n      0x00\n        /* \"contracts/CoreLoanPlatform.sol\":4182:4196  userCollateral */\n      0x04\n        /* \"contracts/CoreLoanPlatform.sol\":4182:4202  userCollateral[user] */\n      0x00\n        /* \"contracts/CoreLoanPlatform.sol\":4197:4201  user */\n      dup4\n        /* \"contracts/CoreLoanPlatform.sol\":4182:4202  userCollateral[user] */\n      0xffffffffffffffffffffffffffffffffffffffff\n      and\n      0xffffffffffffffffffffffffffffffffffffffff\n      and\n      dup2\n      mstore\n      0x20\n      add\n      swap1\n      dup2\n      mstore\n      0x20\n      add\n      0x00\n      keccak256\n      sload\n        /* \"contracts/CoreLoanPlatform.sol\":4175:4202  return userCollateral[user] */\n      swap1\n      pop\n        /* \"contracts/CoreLoanPlatform.sol\":4092:4209  function getUserCollateral(address user) external view returns (uint256) {... */\n      swap2\n      swap1\n      pop\n      jump\t// out\n        /* \"contracts/CoreLoanPlatform.sol\":1873:2159  function depositCollateral(uint256 amount) external {... */\n    tag_97:\n        /* \"contracts/CoreLoanPlatform.sol\":1952:1953  0 */\n      0x00\n        /* \"contracts/CoreLoanPlatform.sol\":1943:1949  amount */\n      dup2\n        /* \"contracts/CoreLoanPlatform.sol\":1943:1953  amount > 0 */\n      gt\n        /* \"contracts/CoreLoanPlatform.sol\":1935:1987  require(amount > 0, \"Amount must be greater than 0\") */\n      tag_210\n      jumpi\n      mload(0x40)\n      0x08c379a000000000000000000000000000000000000000000000000000000000\n      dup2\n      mstore\n      0x04\n      add\n      tag_211\n      swap1\n      tag_165\n      jump\t// in\n    tag_211:\n      mload(0x40)\n      dup1\n      swap2\n      sub\n      swap1\n      revert\n    tag_210:\n        /* \"contracts/CoreLoanPlatform.sol\":1997:2052  USD.safeTransferFrom(msg.sender, address(this), amount) */\n      tag_212\n        /* \"contracts/CoreLoanPlatform.sol\":2018:2028  msg.sender */\n      caller\n        /* \"contracts/CoreLoanPlatform.sol\":2038:2042  this */\n      address\n        /* \"contracts/CoreLoanPlatform.sol\":2045:2051  amount */\n      dup4\n        /* \"contracts/CoreLoanPlatform.sol\":1997:2000  USD */\n      immutable(\"0xb687940cdede3d6e24b115affb282228515a5bf2ffa7b65269e2dfb5ea745e96\")\n        /* \"contracts/CoreLoanPlatform.sol\":1997:2017  USD.safeTransferFrom */\n      0xffffffffffffffffffffffffffffffffffffffff\n      and\n      tag_158\n      swap1\n        /* \"contracts/CoreLoanPlatform.sol\":1997:2052  USD.safeTransferFrom(msg.sender, address(this), amount) */\n      swap4\n      swap3\n      swap2\n      swap1\n      0xffffffff\n      and\n      jump\t// in\n    tag_212:\n        /* \"contracts/CoreLoanPlatform.sol\":2092:2098  amount */\n      dup1\n        /* \"contracts/CoreLoanPlatform.sol\":2062:2076  userCollateral */\n      0x04\n        /* \"contracts/CoreLoanPlatform.sol\":2062:2088  userCollateral[msg.sender] */\n      0x00\n        /* \"contracts/CoreLoanPlatform.sol\":2077:2087  msg.sender */\n      caller\n        /* \"contracts/CoreLoanPlatform.sol\":2062:2088  userCollateral[msg.sender] */\n      0xffffffffffffffffffffffffffffffffffffffff\n      and\n      0xffffffffffffffffffffffffffffffffffffffff\n      and\n      dup2\n      mstore\n      0x20\n      add\n      swap1\n      dup2\n      mstore\n      0x20\n      add\n      0x00\n      keccak256\n      0x00\n        /* \"contracts/CoreLoanPlatform.sol\":2062:2098  userCollateral[msg.sender] += amount */\n      dup3\n      dup3\n      sload\n      tag_213\n      swap2\n      swap1\n      tag_156\n      jump\t// in\n    tag_213:\n      swap3\n      pop\n      pop\n      dup2\n      swap1\n      sstore\n      pop\n        /* \"contracts/CoreLoanPlatform.sol\":2133:2143  msg.sender */\n      caller\n        /* \"contracts/CoreLoanPlatform.sol\":2113:2152  CollateralDeposited(msg.sender, amount) */\n      0xffffffffffffffffffffffffffffffffffffffff\n      and\n      0xd7243f6f8212d5188fd054141cf6ea89cfc0d91facb8c3afe2f88a1358480142\n        /* \"contracts/CoreLoanPlatform.sol\":2145:2151  amount */\n      dup3\n        /* \"contracts/CoreLoanPlatform.sol\":2113:2152  CollateralDeposited(msg.sender, amount) */\n      mload(0x40)\n      tag_214\n      swap2\n      swap1\n      tag_41\n      jump\t// in\n    tag_214:\n      mload(0x40)\n      dup1\n      swap2\n      sub\n      swap1\n      log2\n        /* \"contracts/CoreLoanPlatform.sol\":1873:2159  function depositCollateral(uint256 amount) external {... */\n      pop\n      jump\t// out\n        /* \"contracts/CoreLoanPlatform.sol\":6384:6504  function getLenderBalance(address lender) external view returns (uint256) {... */\n    tag_100:\n        /* \"contracts/CoreLoanPlatform.sol\":6449:6456  uint256 */\n      0x00\n        /* \"contracts/CoreLoanPlatform.sol\":6475:6489  lenderBalances */\n      0x05\n        /* \"contracts/CoreLoanPlatform.sol\":6475:6497  lenderBalances[lender] */\n      0x00\n        /* \"contracts/CoreLoanPlatform.sol\":6490:6496  lender */\n      dup4\n        /* \"contracts/CoreLoanPlatform.sol\":6475:6497  lenderBalances[lender] */\n      0xffffffffffffffffffffffffffffffffffffffff\n      and\n      0xffffffffffffffffffffffffffffffffffffffff\n      and\n      dup2\n      mstore\n      0x20\n      add\n      swap1\n      dup2\n      mstore\n      0x20\n      add\n      0x00\n      keccak256\n      sload\n        /* \"contracts/CoreLoanPlatform.sol\":6468:6497  return lenderBalances[lender] */\n      swap1\n      pop\n        /* \"contracts/CoreLoanPlatform.sol\":6384:6504  function getLenderBalance(address lender) external view returns (uint256) {... */\n      swap2\n      swap1\n      pop\n      jump\t// out\n        /* \"contracts/CoreLoanPlatform.sol\":2903:3934  function borrowBTC(uint256 amount) external {... */\n    tag_104:\n        /* \"contracts/CoreLoanPlatform.sol\":2974:2975  0 */\n      0x00\n        /* \"contracts/CoreLoanPlatform.sol\":2965:2971  amount */\n      dup2\n        /* \"contracts/CoreLoanPlatform.sol\":2965:2975  amount > 0 */\n      gt\n        /* \"contracts/CoreLoanPlatform.sol\":2957:3009  require(amount > 0, \"Amount must be greater than 0\") */\n      tag_217\n      jumpi\n      mload(0x40)\n      0x08c379a000000000000000000000000000000000000000000000000000000000\n      dup2\n      mstore\n      0x04\n      add\n      tag_218\n      swap1\n      tag_165\n      jump\t// in\n    tag_218:\n      mload(0x40)\n      dup1\n      swap2\n      sub\n      swap1\n      revert\n    tag_217:\n        /* \"contracts/CoreLoanPlatform.sol\":3041:3046  loans */\n      0x03\n        /* \"contracts/CoreLoanPlatform.sol\":3041:3058  loans[msg.sender] */\n      0x00\n        /* \"contracts/CoreLoanPlatform.sol\":3047:3057  msg.sender */\n      caller\n        /* \"contracts/CoreLoanPlatform.sol\":3041:3058  loans[msg.sender] */\n      0xffffffffffffffffffffffffffffffffffffffff\n      and\n      0xffffffffffffffffffffffffffffffffffffffff\n      and\n      dup2\n      mstore\n      0x20\n      add\n      swap1\n      dup2\n      mstore\n      0x20\n      add\n      0x00\n      keccak256\n        /* \"contracts/CoreLoanPlatform.sol\":3041:3065  loans[msg.sender].active */\n      0x03\n      add\n      0x00\n      swap1\n      sload\n      swap1\n      0x0100\n      exp\n      swap1\n      div\n      0xff\n      and\n        /* \"contracts/CoreLoanPlatform.sol\":3040:3065  !loans[msg.sender].active */\n      iszero\n        /* \"contracts/CoreLoanPlatform.sol\":3019:3125  require(... */\n      tag_219\n      jumpi\n      mload(0x40)\n      0x08c379a000000000000000000000000000000000000000000000000000000000\n      dup2\n      mstore\n      0x04\n      add\n      tag_220\n      swap1\n      tag_221\n      jump\t// in\n    tag_220:\n      mload(0x40)\n      dup1\n      swap2\n      sub\n      swap1\n      revert\n    tag_219:\n        /* \"contracts/CoreLoanPlatform.sol\":3136:3162  uint256 requiredCollateral */\n      0x00\n        /* \"contracts/CoreLoanPlatform.sol\":3195:3198  100 */\n      0x64\n        /* \"contracts/CoreLoanPlatform.sol\":421:424  150 */\n      0x96\n        /* \"contracts/CoreLoanPlatform.sol\":3166:3172  amount */\n      dup4\n        /* \"contracts/CoreLoanPlatform.sol\":3166:3191  amount * COLLATERAL_RATIO */\n      tag_222\n      swap2\n      swap1\n      tag_152\n      jump\t// in\n    tag_222:\n        /* \"contracts/CoreLoanPlatform.sol\":3165:3198  (amount * COLLATERAL_RATIO) / 100 */\n      tag_223\n      swap2\n      swap1\n      tag_147\n      jump\t// in\n    tag_223:\n        /* \"contracts/CoreLoanPlatform.sol\":3136:3198  uint256 requiredCollateral = (amount * COLLATERAL_RATIO) / 100 */\n      swap1\n      pop\n        /* \"contracts/CoreLoanPlatform.sol\":3259:3277  requiredCollateral */\n      dup1\n        /* \"contracts/CoreLoanPlatform.sol\":3229:3243  userCollateral */\n      0x04\n        /* \"contracts/CoreLoanPlatform.sol\":3229:3255  userCollateral[msg.sender] */\n      0x00\n        /* \"contracts/CoreLoanPlatform.sol\":3244:3254  msg.sender */\n      caller\n        /* \"contracts/CoreLoanPlatform.sol\":3229:3255  userCollateral[msg.sender] */\n      0xffffffffffffffffffffffffffffffffffffffff\n      and\n      0xffffffffffffffffffffffffffffffffffffffff\n      and\n      dup2\n      mstore\n      0x20\n      add\n      swap1\n      dup2\n      mstore\n      0x20\n      add\n      0x00\n      keccak256\n      sload\n        /* \"contracts/CoreLoanPlatform.sol\":3229:3277  userCollateral[msg.sender] >= requiredCollateral */\n      lt\n      iszero\n        /* \"contracts/CoreLoanPlatform.sol\":3208:3326  require(... */\n      tag_224\n      jumpi\n      mload(0x40)\n      0x08c379a000000000000000000000000000000000000000000000000000000000\n      dup2\n      mstore\n      0x04\n      add\n      tag_225\n      swap1\n      tag_168\n      jump\t// in\n    tag_225:\n      mload(0x40)\n      dup1\n      swap2\n      sub\n      swap1\n      revert\n    tag_224:\n        /* \"contracts/CoreLoanPlatform.sol\":3337:3358  uint256 maxBorrowable */\n      0x00\n        /* \"contracts/CoreLoanPlatform.sol\":3423:3426  100 */\n      0x64\n        /* \"contracts/CoreLoanPlatform.sol\":499:501  80 */\n      0x50\n        /* \"contracts/CoreLoanPlatform.sol\":3362:3376  userCollateral */\n      0x04\n        /* \"contracts/CoreLoanPlatform.sol\":3362:3388  userCollateral[msg.sender] */\n      0x00\n        /* \"contracts/CoreLoanPlatform.sol\":3377:3387  msg.sender */\n      caller\n        /* \"contracts/CoreLoanPlatform.sol\":3362:3388  userCollateral[msg.sender] */\n      0xffffffffffffffffffffffffffffffffffffffff\n      and\n      0xffffffffffffffffffffffffffffffffffffffff\n      and\n      dup2\n      mstore\n      0x20\n      add\n      swap1\n      dup2\n      mstore\n      0x20\n      add\n      0x00\n      keccak256\n      sload\n        /* \"contracts/CoreLoanPlatform.sol\":3362:3419  userCollateral[msg.sender] *... */\n      tag_226\n      swap2\n      swap1\n      tag_152\n      jump\t// in\n    tag_226:\n        /* \"contracts/CoreLoanPlatform.sol\":3361:3426  (userCollateral[msg.sender] *... */\n      tag_227\n      swap2\n      swap1\n      tag_147\n      jump\t// in\n    tag_227:\n        /* \"contracts/CoreLoanPlatform.sol\":3337:3426  uint256 maxBorrowable = (userCollateral[msg.sender] *... */\n      swap1\n      pop\n        /* \"contracts/CoreLoanPlatform.sol\":3454:3467  maxBorrowable */\n      dup1\n        /* \"contracts/CoreLoanPlatform.sol\":3444:3450  amount */\n      dup4\n        /* \"contracts/CoreLoanPlatform.sol\":3444:3467  amount <= maxBorrowable */\n      gt\n      iszero\n        /* \"contracts/CoreLoanPlatform.sol\":3436:3499  require(amount <= maxBorrowable, \"Borrow amount exceeds limit\") */\n      tag_228\n      jumpi\n      mload(0x40)\n      0x08c379a000000000000000000000000000000000000000000000000000000000\n      dup2\n      mstore\n      0x04\n      add\n      tag_229\n      swap1\n      tag_230\n      jump\t// in\n    tag_229:\n      mload(0x40)\n      dup1\n      swap2\n      sub\n      swap1\n      revert\n    tag_228:\n        /* \"contracts/CoreLoanPlatform.sol\":3563:3569  amount */\n      dup3\n        /* \"contracts/CoreLoanPlatform.sol\":3531:3534  BTC */\n      immutable(\"0xceebc1e79b37113a3784d9bbf48b7ad015159a0fad39f370ddaba6e9581bdbc5\")\n        /* \"contracts/CoreLoanPlatform.sol\":3531:3544  BTC.balanceOf */\n      0xffffffffffffffffffffffffffffffffffffffff\n      and\n      0x70a08231\n        /* \"contracts/CoreLoanPlatform.sol\":3553:3557  this */\n      address\n        /* \"contracts/CoreLoanPlatform.sol\":3531:3559  BTC.balanceOf(address(this)) */\n      mload(0x40)\n      dup3\n      0xffffffff\n      and\n      0xe0\n      shl\n      dup2\n      mstore\n      0x04\n      add\n      tag_231\n      swap2\n      swap1\n      tag_80\n      jump\t// in\n    tag_231:\n      0x20\n      mload(0x40)\n      dup1\n      dup4\n      sub\n      dup2\n      dup7\n      gas\n      staticcall\n      iszero\n      dup1\n      iszero\n      tag_233\n      jumpi\n      returndatasize\n      0x00\n      dup1\n      returndatacopy\n      revert(0x00, returndatasize)\n    tag_233:\n      pop\n      pop\n      pop\n      pop\n      mload(0x40)\n      returndatasize\n      not(0x1f)\n      0x1f\n      dup3\n      add\n      and\n      dup3\n      add\n      dup1\n      0x40\n      mstore\n      pop\n      dup2\n      add\n      swap1\n      tag_234\n      swap2\n      swap1\n      tag_235\n      jump\t// in\n    tag_234:\n        /* \"contracts/CoreLoanPlatform.sol\":3531:3569  BTC.balanceOf(address(this)) >= amount */\n      lt\n      iszero\n        /* \"contracts/CoreLoanPlatform.sol\":3510:3623  require(... */\n      tag_236\n      jumpi\n      mload(0x40)\n      0x08c379a000000000000000000000000000000000000000000000000000000000\n      dup2\n      mstore\n      0x04\n      add\n      tag_237\n      swap1\n      tag_238\n      jump\t// in\n    tag_237:\n      mload(0x40)\n      dup1\n      swap2\n      sub\n      swap1\n      revert\n    tag_236:\n        /* \"contracts/CoreLoanPlatform.sol\":3654:3767  Loan(... */\n      mload(0x40)\n      dup1\n      0x80\n      add\n      0x40\n      mstore\n      dup1\n        /* \"contracts/CoreLoanPlatform.sol\":3672:3678  amount */\n      dup5\n        /* \"contracts/CoreLoanPlatform.sol\":3654:3767  Loan(... */\n      dup2\n      mstore\n      0x20\n      add\n        /* \"contracts/CoreLoanPlatform.sol\":3692:3710  requiredCollateral */\n      dup4\n        /* \"contracts/CoreLoanPlatform.sol\":3654:3767  Loan(... */\n      dup2\n      mstore\n      0x20\n      add\n        /* \"contracts/CoreLoanPlatform.sol\":3724:3739  block.timestamp */\n      timestamp\n        /* \"contracts/CoreLoanPlatform.sol\":3654:3767  Loan(... */\n      dup2\n      mstore\n      0x20\n      add\n        /* \"contracts/CoreLoanPlatform.sol\":3753:3757  true */\n      0x01\n        /* \"contracts/CoreLoanPlatform.sol\":3654:3767  Loan(... */\n      iszero\n      iszero\n      dup2\n      mstore\n      pop\n        /* \"contracts/CoreLoanPlatform.sol\":3634:3639  loans */\n      0x03\n        /* \"contracts/CoreLoanPlatform.sol\":3634:3651  loans[msg.sender] */\n      0x00\n        /* \"contracts/CoreLoanPlatform.sol\":3640:3650  msg.sender */\n      caller\n        /* \"contracts/CoreLoanPlatform.sol\":3634:3651  loans[msg.sender] */\n      0xffffffffffffffffffffffffffffffffffffffff\n      and\n      0xffffffffffffffffffffffffffffffffffffffff\n      and\n      dup2\n      mstore\n      0x20\n      add\n      swap1\n      dup2\n      mstore\n      0x20\n      add\n      0x00\n      keccak256\n        /* \"contracts/CoreLoanPlatform.sol\":3634:3767  loans[msg.sender] = Loan(... */\n      0x00\n      dup3\n      add\n      mload\n      dup2\n      0x00\n      add\n      sstore\n      0x20\n      dup3\n      add\n      mload\n      dup2\n      0x01\n      add\n      sstore\n      0x40\n      dup3\n      add\n      mload\n      dup2\n      0x02\n      add\n      sstore\n      0x60\n      dup3\n      add\n      mload\n      dup2\n      0x03\n      add\n      exp(0x0100, 0x00)\n      dup2\n      sload\n      dup2\n      0xff\n      mul\n      not\n      and\n      swap1\n      dup4\n      iszero\n      iszero\n      mul\n      or\n      swap1\n      sstore\n      pop\n      swap1\n      pop\n      pop\n        /* \"contracts/CoreLoanPlatform.sol\":3777:3813  BTC.safeTransfer(msg.sender, amount) */\n      tag_239\n        /* \"contracts/CoreLoanPlatform.sol\":3794:3804  msg.sender */\n      caller\n        /* \"contracts/CoreLoanPlatform.sol\":3806:3812  amount */\n      dup5\n        /* \"contracts/CoreLoanPlatform.sol\":3777:3780  BTC */\n      immutable(\"0xceebc1e79b37113a3784d9bbf48b7ad015159a0fad39f370ddaba6e9581bdbc5\")\n        /* \"contracts/CoreLoanPlatform.sol\":3777:3793  BTC.safeTransfer */\n      0xffffffffffffffffffffffffffffffffffffffff\n      and\n      tag_179\n      swap1\n        /* \"contracts/CoreLoanPlatform.sol\":3777:3813  BTC.safeTransfer(msg.sender, amount) */\n      swap3\n      swap2\n      swap1\n      0xffffffff\n      and\n      jump\t// in\n    tag_239:\n        /* \"contracts/CoreLoanPlatform.sol\":3856:3862  amount */\n      dup3\n        /* \"contracts/CoreLoanPlatform.sol\":3840:3853  totalBorrowed */\n      sload(0x02)\n        /* \"contracts/CoreLoanPlatform.sol\":3840:3862  totalBorrowed + amount */\n      tag_240\n      swap2\n      swap1\n      tag_156\n      jump\t// in\n    tag_240:\n        /* \"contracts/CoreLoanPlatform.sol\":3824:3837  totalBorrowed */\n      0x02\n        /* \"contracts/CoreLoanPlatform.sol\":3824:3862  totalBorrowed = totalBorrowed + amount */\n      dup2\n      swap1\n      sstore\n      pop\n        /* \"contracts/CoreLoanPlatform.sol\":3888:3898  msg.sender */\n      caller\n        /* \"contracts/CoreLoanPlatform.sol\":3878:3927  LoanTaken(msg.sender, amount, requiredCollateral) */\n      0xffffffffffffffffffffffffffffffffffffffff\n      and\n      0x6b9bb4766cf5ab74b890df959e4fad0e54b1c3885e49c9541d36253a6e39e6\n        /* \"contracts/CoreLoanPlatform.sol\":3900:3906  amount */\n      dup5\n        /* \"contracts/CoreLoanPlatform.sol\":3908:3926  requiredCollateral */\n      dup5\n        /* \"contracts/CoreLoanPlatform.sol\":3878:3927  LoanTaken(msg.sender, amount, requiredCollateral) */\n      mload(0x40)\n      tag_241\n      swap3\n      swap2\n      swap1\n      tag_161\n      jump\t// in\n    tag_241:\n      mload(0x40)\n      dup1\n      swap2\n      sub\n      swap1\n      log2\n        /* \"contracts/CoreLoanPlatform.sol\":2947:3934  {... */\n      pop\n      pop\n        /* \"contracts/CoreLoanPlatform.sol\":2903:3934  function borrowBTC(uint256 amount) external {... */\n      pop\n      jump\t// out\n        /* \"contracts/CoreLoanPlatform.sol\":378:424  uint256 public constant COLLATERAL_RATIO = 150 */\n    tag_106:\n        /* \"contracts/CoreLoanPlatform.sol\":421:424  150 */\n      0x96\n        /* \"contracts/CoreLoanPlatform.sol\":378:424  uint256 public constant COLLATERAL_RATIO = 150 */\n      dup2\n      jump\t// out\n        /* \"contracts/CoreLoanPlatform.sol\":4920:5033  function getUserStaked(address user) external view returns (uint256) {... */\n    tag_110:\n        /* \"contracts/CoreLoanPlatform.sol\":4980:4987  uint256 */\n      0x00\n        /* \"contracts/CoreLoanPlatform.sol\":5006:5020  lenderBalances */\n      0x05\n        /* \"contracts/CoreLoanPlatform.sol\":5006:5026  lenderBalances[user] */\n      0x00\n        /* \"contracts/CoreLoanPlatform.sol\":5021:5025  user */\n      dup4\n        /* \"contracts/CoreLoanPlatform.sol\":5006:5026  lenderBalances[user] */\n      0xffffffffffffffffffffffffffffffffffffffff\n      and\n      0xffffffffffffffffffffffffffffffffffffffff\n      and\n      dup2\n      mstore\n      0x20\n      add\n      swap1\n      dup2\n      mstore\n      0x20\n      add\n      0x00\n      keccak256\n      sload\n        /* \"contracts/CoreLoanPlatform.sol\":4999:5026  return lenderBalances[user] */\n      swap1\n      pop\n        /* \"contracts/CoreLoanPlatform.sol\":4920:5033  function getUserStaked(address user) external view returns (uint256) {... */\n      swap2\n      swap1\n      pop\n      jump\t// out\n        /* \"contracts/CoreLoanPlatform.sol\":611:658  uint256 public constant LOAN_DURATION = 30 days */\n    tag_113:\n        /* \"contracts/CoreLoanPlatform.sol\":651:658  30 days */\n      0x278d00\n        /* \"contracts/CoreLoanPlatform.sol\":611:658  uint256 public constant LOAN_DURATION = 30 days */\n      dup2\n      jump\t// out\n        /* \"contracts/CoreLoanPlatform.sol\":5796:6227  function calculateInterest(address user) external view returns (uint256) {... */\n    tag_117:\n        /* \"contracts/CoreLoanPlatform.sol\":5860:5867  uint256 */\n      0x00\n        /* \"contracts/CoreLoanPlatform.sol\":5879:5896  Loan storage loan */\n      dup1\n        /* \"contracts/CoreLoanPlatform.sol\":5899:5904  loans */\n      0x03\n        /* \"contracts/CoreLoanPlatform.sol\":5899:5910  loans[user] */\n      0x00\n        /* \"contracts/CoreLoanPlatform.sol\":5905:5909  user */\n      dup5\n        /* \"contracts/CoreLoanPlatform.sol\":5899:5910  loans[user] */\n      0xffffffffffffffffffffffffffffffffffffffff\n      and\n      0xffffffffffffffffffffffffffffffffffffffff\n      and\n      dup2\n      mstore\n      0x20\n      add\n      swap1\n      dup2\n      mstore\n      0x20\n      add\n      0x00\n      keccak256\n        /* \"contracts/CoreLoanPlatform.sol\":5879:5910  Loan storage loan = loans[user] */\n      swap1\n      pop\n        /* \"contracts/CoreLoanPlatform.sol\":5924:5928  loan */\n      dup1\n        /* \"contracts/CoreLoanPlatform.sol\":5924:5935  loan.active */\n      0x03\n      add\n      0x00\n      swap1\n      sload\n      swap1\n      0x0100\n      exp\n      swap1\n      div\n      0xff\n      and\n        /* \"contracts/CoreLoanPlatform.sol\":5920:6221  if (loan.active) {... */\n      iszero\n      tag_244\n      jumpi\n        /* \"contracts/CoreLoanPlatform.sol\":5951:5970  uint256 daysElapsed */\n      0x00\n        /* \"contracts/CoreLoanPlatform.sol\":708:713  86400 */\n      0x015180\n        /* \"contracts/CoreLoanPlatform.sol\":5992:5996  loan */\n      dup3\n        /* \"contracts/CoreLoanPlatform.sol\":5992:6006  loan.timestamp */\n      0x02\n      add\n      sload\n        /* \"contracts/CoreLoanPlatform.sol\":5974:5989  block.timestamp */\n      timestamp\n        /* \"contracts/CoreLoanPlatform.sol\":5974:6006  block.timestamp - loan.timestamp */\n      tag_245\n      swap2\n      swap1\n      tag_145\n      jump\t// in\n    tag_245:\n        /* \"contracts/CoreLoanPlatform.sol\":5973:6042  (block.timestamp - loan.timestamp) /... */\n      tag_246\n      swap2\n      swap1\n      tag_147\n      jump\t// in\n    tag_246:\n        /* \"contracts/CoreLoanPlatform.sol\":5951:6042  uint256 daysElapsed = (block.timestamp - loan.timestamp) /... */\n      swap1\n      pop\n        /* \"contracts/CoreLoanPlatform.sol\":6056:6072  uint256 interest */\n      0x00\n        /* \"contracts/CoreLoanPlatform.sol\":6137:6142  36500 */\n      0x8e94\n        /* \"contracts/CoreLoanPlatform.sol\":6106:6117  daysElapsed */\n      dup3\n        /* \"contracts/CoreLoanPlatform.sol\":584:585  5 */\n      0x05\n        /* \"contracts/CoreLoanPlatform.sol\":6076:6080  loan */\n      dup6\n        /* \"contracts/CoreLoanPlatform.sol\":6076:6087  loan.amount */\n      0x00\n      add\n      sload\n        /* \"contracts/CoreLoanPlatform.sol\":6076:6103  loan.amount * INTEREST_RATE */\n      tag_247\n      swap2\n      swap1\n      tag_152\n      jump\t// in\n    tag_247:\n        /* \"contracts/CoreLoanPlatform.sol\":6076:6117  loan.amount * INTEREST_RATE * daysElapsed */\n      tag_248\n      swap2\n      swap1\n      tag_152\n      jump\t// in\n    tag_248:\n        /* \"contracts/CoreLoanPlatform.sol\":6075:6142  (loan.amount * INTEREST_RATE * daysElapsed) /... */\n      tag_249\n      swap2\n      swap1\n      tag_147\n      jump\t// in\n    tag_249:\n        /* \"contracts/CoreLoanPlatform.sol\":6056:6142  uint256 interest = (loan.amount * INTEREST_RATE * daysElapsed) /... */\n      swap1\n      pop\n        /* \"contracts/CoreLoanPlatform.sol\":6163:6171  interest */\n      dup1\n        /* \"contracts/CoreLoanPlatform.sol\":6156:6171  return interest */\n      swap4\n      pop\n      pop\n      pop\n      pop\n      jump(tag_243)\n        /* \"contracts/CoreLoanPlatform.sol\":5920:6221  if (loan.active) {... */\n    tag_244:\n        /* \"contracts/CoreLoanPlatform.sol\":6209:6210  0 */\n      0x00\n        /* \"contracts/CoreLoanPlatform.sol\":6202:6210  return 0 */\n      swap2\n      pop\n      pop\n        /* \"contracts/CoreLoanPlatform.sol\":5796:6227  function calculateInterest(address user) external view returns (uint256) {... */\n    tag_243:\n      swap2\n      swap1\n      pop\n      jump\t// out\n        /* \"contracts/CoreLoanPlatform.sol\":6712:6918  function getUserBorrowed(address user) external view returns (uint256) {... */\n    tag_121:\n        /* \"contracts/CoreLoanPlatform.sol\":6774:6781  uint256 */\n      0x00\n        /* \"contracts/CoreLoanPlatform.sol\":6793:6810  Loan storage loan */\n      dup1\n        /* \"contracts/CoreLoanPlatform.sol\":6813:6818  loans */\n      0x03\n        /* \"contracts/CoreLoanPlatform.sol\":6813:6824  loans[user] */\n      0x00\n        /* \"contracts/CoreLoanPlatform.sol\":6819:6823  user */\n      dup5\n        /* \"contracts/CoreLoanPlatform.sol\":6813:6824  loans[user] */\n      0xffffffffffffffffffffffffffffffffffffffff\n      and\n      0xffffffffffffffffffffffffffffffffffffffff\n      and\n      dup2\n      mstore\n      0x20\n      add\n      swap1\n      dup2\n      mstore\n      0x20\n      add\n      0x00\n      keccak256\n        /* \"contracts/CoreLoanPlatform.sol\":6793:6824  Loan storage loan = loans[user] */\n      swap1\n      pop\n        /* \"contracts/CoreLoanPlatform.sol\":6838:6842  loan */\n      dup1\n        /* \"contracts/CoreLoanPlatform.sol\":6838:6849  loan.active */\n      0x03\n      add\n      0x00\n      swap1\n      sload\n      swap1\n      0x0100\n      exp\n      swap1\n      div\n      0xff\n      and\n        /* \"contracts/CoreLoanPlatform.sol\":6834:6894  if (loan.active) {... */\n      iszero\n      tag_252\n      jumpi\n        /* \"contracts/CoreLoanPlatform.sol\":6872:6876  loan */\n      dup1\n        /* \"contracts/CoreLoanPlatform.sol\":6872:6883  loan.amount */\n      0x00\n      add\n      sload\n        /* \"contracts/CoreLoanPlatform.sol\":6865:6883  return loan.amount */\n      swap2\n      pop\n      pop\n      jump(tag_251)\n        /* \"contracts/CoreLoanPlatform.sol\":6834:6894  if (loan.active) {... */\n    tag_252:\n        /* \"contracts/CoreLoanPlatform.sol\":6910:6911  0 */\n      0x00\n        /* \"contracts/CoreLoanPlatform.sol\":6903:6911  return 0 */\n      swap2\n      pop\n      pop\n        /* \"contracts/CoreLoanPlatform.sol\":6712:6918  function getUserBorrowed(address user) external view returns (uint256) {... */\n    tag_251:\n      swap2\n      swap1\n      pop\n      jump\t// out\n        /* \"contracts/CoreLoanPlatform.sol\":6233:6378  function getLoanDetails(address borrower)... */\n    tag_125:\n        /* \"contracts/CoreLoanPlatform.sol\":6322:6333  Loan memory */\n      tag_253\n      tag_254\n      jump\t// in\n    tag_253:\n        /* \"contracts/CoreLoanPlatform.sol\":6356:6361  loans */\n      0x03\n        /* \"contracts/CoreLoanPlatform.sol\":6356:6371  loans[borrower] */\n      0x00\n        /* \"contracts/CoreLoanPlatform.sol\":6362:6370  borrower */\n      dup4\n        /* \"contracts/CoreLoanPlatform.sol\":6356:6371  loans[borrower] */\n      0xffffffffffffffffffffffffffffffffffffffff\n      and\n      0xffffffffffffffffffffffffffffffffffffffff\n      and\n      dup2\n      mstore\n      0x20\n      add\n      swap1\n      dup2\n      mstore\n      0x20\n      add\n      0x00\n      keccak256\n        /* \"contracts/CoreLoanPlatform.sol\":6349:6371  return loans[borrower] */\n      mload(0x40)\n      dup1\n      0x80\n      add\n      0x40\n      mstore\n      swap1\n      dup2\n      0x00\n      dup3\n      add\n      sload\n      dup2\n      mstore\n      0x20\n      add\n      0x01\n      dup3\n      add\n      sload\n      dup2\n      mstore\n      0x20\n      add\n      0x02\n      dup3\n      add\n      sload\n      dup2\n      mstore\n      0x20\n      add\n      0x03\n      dup3\n      add\n      0x00\n      swap1\n      sload\n      swap1\n      0x0100\n      exp\n      swap1\n      div\n      0xff\n      and\n      iszero\n      iszero\n      iszero\n      iszero\n      dup2\n      mstore\n      pop\n      pop\n      swap1\n      pop\n        /* \"contracts/CoreLoanPlatform.sol\":6233:6378  function getLoanDetails(address borrower)... */\n      swap2\n      swap1\n      pop\n      jump\t// out\n        /* \"@openzeppelin/contracts/access/Ownable.sol\":2543:2758  function transferOwnership(address newOwner) public virtual onlyOwner {... */\n    tag_130:\n        /* \"@openzeppelin/contracts/access/Ownable.sol\":1531:1544  _checkOwner() */\n      tag_257\n        /* \"@openzeppelin/contracts/access/Ownable.sol\":1531:1542  _checkOwner */\n      tag_186\n        /* \"@openzeppelin/contracts/access/Ownable.sol\":1531:1544  _checkOwner() */\n      jump\t// in\n    tag_257:\n        /* \"@openzeppelin/contracts/access/Ownable.sol\":2647:2648  0 */\n      0x00\n        /* \"@openzeppelin/contracts/access/Ownable.sol\":2627:2649  newOwner == address(0) */\n      0xffffffffffffffffffffffffffffffffffffffff\n      and\n        /* \"@openzeppelin/contracts/access/Ownable.sol\":2627:2635  newOwner */\n      dup2\n        /* \"@openzeppelin/contracts/access/Ownable.sol\":2627:2649  newOwner == address(0) */\n      0xffffffffffffffffffffffffffffffffffffffff\n      and\n      sub\n        /* \"@openzeppelin/contracts/access/Ownable.sol\":2623:2714  if (newOwner == address(0)) {... */\n      tag_259\n      jumpi\n        /* \"@openzeppelin/contracts/access/Ownable.sol\":2700:2701  0 */\n      0x00\n        /* \"@openzeppelin/contracts/access/Ownable.sol\":2672:2703  OwnableInvalidOwner(address(0)) */\n      mload(0x40)\n      0x1e4fbdf700000000000000000000000000000000000000000000000000000000\n      dup2\n      mstore\n      0x04\n      add\n      tag_260\n      swap2\n      swap1\n      tag_80\n      jump\t// in\n    tag_260:\n      mload(0x40)\n      dup1\n      swap2\n      sub\n      swap1\n      revert\n        /* \"@openzeppelin/contracts/access/Ownable.sol\":2623:2714  if (newOwner == address(0)) {... */\n    tag_259:\n        /* \"@openzeppelin/contracts/access/Ownable.sol\":2723:2751  _transferOwnership(newOwner) */\n      tag_261\n        /* \"@openzeppelin/contracts/access/Ownable.sol\":2742:2750  newOwner */\n      dup2\n        /* \"@openzeppelin/contracts/access/Ownable.sol\":2723:2741  _transferOwnership */\n      tag_189\n        /* \"@openzeppelin/contracts/access/Ownable.sol\":2723:2751  _transferOwnership(newOwner) */\n      jump\t// in\n    tag_261:\n        /* \"@openzeppelin/contracts/access/Ownable.sol\":2543:2758  function transferOwnership(address newOwner) public virtual onlyOwner {... */\n      pop\n      jump\t// out\n        /* \"contracts/CoreLoanPlatform.sol\":5039:5133  function getCurrentApy() external pure returns (uint256) {... */\n    tag_132:\n        /* \"contracts/CoreLoanPlatform.sol\":5087:5094  uint256 */\n      0x00\n        /* \"contracts/CoreLoanPlatform.sol\":584:585  5 */\n      0x05\n        /* \"contracts/CoreLoanPlatform.sol\":5106:5126  return INTEREST_RATE */\n      swap1\n      pop\n        /* \"contracts/CoreLoanPlatform.sol\":5039:5133  function getCurrentApy() external pure returns (uint256) {... */\n      swap1\n      jump\t// out\n        /* \"contracts/CoreLoanPlatform.sol\":1021:1070  mapping(address => uint256) public userCollateral */\n    tag_136:\n      mstore(0x20, 0x04)\n      dup1\n      0x00\n      mstore\n      keccak256(0x00, 0x40)\n      0x00\n      swap2\n      pop\n      swap1\n      pop\n      sload\n      dup2\n      jump\t// out\n        /* \"@openzeppelin/contracts/token/ERC20/utils/SafeERC20.sol\":1702:1890  function safeTransferFrom(IERC20 token, address from, address to, uint256 value) internal {... */\n    tag_158:\n        /* \"@openzeppelin/contracts/token/ERC20/utils/SafeERC20.sol\":1802:1883  _callOptionalReturn(token, abi.encodeCall(token.transferFrom, (from, to, value))) */\n      tag_264\n        /* \"@openzeppelin/contracts/token/ERC20/utils/SafeERC20.sol\":1822:1827  token */\n      dup5\n        /* \"@openzeppelin/contracts/token/ERC20/utils/SafeERC20.sol\":1844:1849  token */\n      dup6\n        /* \"@openzeppelin/contracts/token/ERC20/utils/SafeERC20.sol\":1844:1862  token.transferFrom */\n      0xffffffffffffffffffffffffffffffffffffffff\n      and\n      0x23b872dd\n        /* \"@openzeppelin/contracts/token/ERC20/utils/SafeERC20.sol\":1865:1869  from */\n      dup7\n        /* \"@openzeppelin/contracts/token/ERC20/utils/SafeERC20.sol\":1871:1873  to */\n      dup7\n        /* \"@openzeppelin/contracts/token/ERC20/utils/SafeERC20.sol\":1875:1880  value */\n      dup7\n        /* \"@openzeppelin/contracts/token/ERC20/utils/SafeERC20.sol\":1829:1882  abi.encodeCall(token.transferFrom, (from, to, value)) */\n      add(0x24, mload(0x40))\n      tag_265\n      swap4\n      swap3\n      swap2\n      swap1\n      tag_266\n      jump\t// in\n    tag_265:\n      mload(0x40)\n      0x20\n      dup2\n      dup4\n      sub\n      sub\n      dup2\n      mstore\n      swap1\n      0x40\n      mstore\n      swap2\n      pop\n      0xe0\n      shl\n      0x20\n      dup3\n      add\n      dup1\n      mload\n      0xffffffffffffffffffffffffffffffffffffffffffffffffffffffff\n      dup4\n      dup2\n      dup4\n      and\n      or\n      dup4\n      mstore\n      pop\n      pop\n      pop\n      pop\n        /* \"@openzeppelin/contracts/token/ERC20/utils/SafeERC20.sol\":1802:1821  _callOptionalReturn */\n      tag_267\n        /* \"@openzeppelin/contracts/token/ERC20/utils/SafeERC20.sol\":1802:1883  _callOptionalReturn(token, abi.encodeCall(token.transferFrom, (from, to, value))) */\n      jump\t// in\n    tag_264:\n        /* \"@openzeppelin/contracts/token/ERC20/utils/SafeERC20.sol\":1702:1890  function safeTransferFrom(IERC20 token, address from, address to, uint256 value) internal {... */\n      pop\n      pop\n      pop\n      pop\n      jump\t// out\n        /* \"@openzeppelin/contracts/token/ERC20/utils/SafeERC20.sol\":1303:1463  function safeTransfer(IERC20 token, address to, uint256 value) internal {... */\n    tag_179:\n        /* \"@openzeppelin/contracts/token/ERC20/utils/SafeERC20.sol\":1385:1456  _callOptionalReturn(token, abi.encodeCall(token.transfer, (to, value))) */\n      tag_269\n        /* \"@openzeppelin/contracts/token/ERC20/utils/SafeERC20.sol\":1405:1410  token */\n      dup4\n        /* \"@openzeppelin/contracts/token/ERC20/utils/SafeERC20.sol\":1427:1432  token */\n      dup5\n        /* \"@openzeppelin/contracts/token/ERC20/utils/SafeERC20.sol\":1427:1441  token.transfer */\n      0xffffffffffffffffffffffffffffffffffffffff\n      and\n      0xa9059cbb\n        /* \"@openzeppelin/contracts/token/ERC20/utils/SafeERC20.sol\":1444:1446  to */\n      dup6\n        /* \"@openzeppelin/contracts/token/ERC20/utils/SafeERC20.sol\":1448:1453  value */\n      dup6\n        /* \"@openzeppelin/contracts/token/ERC20/utils/SafeERC20.sol\":1412:1455  abi.encodeCall(token.transfer, (to, value)) */\n      add(0x24, mload(0x40))\n      tag_270\n      swap3\n      swap2\n      swap1\n      tag_271\n      jump\t// in\n    tag_270:\n      mload(0x40)\n      0x20\n      dup2\n      dup4\n      sub\n      sub\n      dup2\n      mstore\n      swap1\n      0x40\n      mstore\n      swap2\n      pop\n      0xe0\n      shl\n      0x20\n      dup3\n      add\n      dup1\n      mload\n      0xffffffffffffffffffffffffffffffffffffffffffffffffffffffff\n      dup4\n      dup2\n      dup4\n      and\n      or\n      dup4\n      mstore\n      pop\n      pop\n      pop\n      pop\n        /* \"@openzeppelin/contracts/token/ERC20/utils/SafeERC20.sol\":1385:1404  _callOptionalReturn */\n      tag_267\n        /* \"@openzeppelin/contracts/token/ERC20/utils/SafeERC20.sol\":1385:1456  _callOptionalReturn(token, abi.encodeCall(token.transfer, (to, value))) */\n      jump\t// in\n    tag_269:\n        /* \"@openzeppelin/contracts/token/ERC20/utils/SafeERC20.sol\":1303:1463  function safeTransfer(IERC20 token, address to, uint256 value) internal {... */\n      pop\n      pop\n      pop\n      jump\t// out\n        /* \"@openzeppelin/contracts/access/Ownable.sol\":1796:1958  function _checkOwner() internal view virtual {... */\n    tag_186:\n        /* \"@openzeppelin/contracts/access/Ownable.sol\":1866:1878  _msgSender() */\n      tag_273\n        /* \"@openzeppelin/contracts/access/Ownable.sol\":1866:1876  _msgSender */\n      tag_274\n        /* \"@openzeppelin/contracts/access/Ownable.sol\":1866:1878  _msgSender() */\n      jump\t// in\n    tag_273:\n        /* \"@openzeppelin/contracts/access/Ownable.sol\":1855:1878  owner() != _msgSender() */\n      0xffffffffffffffffffffffffffffffffffffffff\n      and\n        /* \"@openzeppelin/contracts/access/Ownable.sol\":1855:1862  owner() */\n      tag_275\n        /* \"@openzeppelin/contracts/access/Ownable.sol\":1855:1860  owner */\n      tag_78\n        /* \"@openzeppelin/contracts/access/Ownable.sol\":1855:1862  owner() */\n      jump\t// in\n    tag_275:\n        /* \"@openzeppelin/contracts/access/Ownable.sol\":1855:1878  owner() != _msgSender() */\n      0xffffffffffffffffffffffffffffffffffffffff\n      and\n      eq\n        /* \"@openzeppelin/contracts/access/Ownable.sol\":1851:1952  if (owner() != _msgSender()) {... */\n      tag_276\n      jumpi\n        /* \"@openzeppelin/contracts/access/Ownable.sol\":1928:1940  _msgSender() */\n      tag_277\n        /* \"@openzeppelin/contracts/access/Ownable.sol\":1928:1938  _msgSender */\n      tag_274\n        /* \"@openzeppelin/contracts/access/Ownable.sol\":1928:1940  _msgSender() */\n      jump\t// in\n    tag_277:\n        /* \"@openzeppelin/contracts/access/Ownable.sol\":1901:1941  OwnableUnauthorizedAccount(_msgSender()) */\n      mload(0x40)\n      0x118cdaa700000000000000000000000000000000000000000000000000000000\n      dup2\n      mstore\n      0x04\n      add\n      tag_278\n      swap2\n      swap1\n      tag_80\n      jump\t// in\n    tag_278:\n      mload(0x40)\n      dup1\n      swap2\n      sub\n      swap1\n      revert\n        /* \"@openzeppelin/contracts/access/Ownable.sol\":1851:1952  if (owner() != _msgSender()) {... */\n    tag_276:\n        /* \"@openzeppelin/contracts/access/Ownable.sol\":1796:1958  function _checkOwner() internal view virtual {... */\n      jump\t// out\n        /* \"@openzeppelin/contracts/access/Ownable.sol\":2912:3099  function _transferOwnership(address newOwner) internal virtual {... */\n    tag_189:\n        /* \"@openzeppelin/contracts/access/Ownable.sol\":2985:3001  address oldOwner */\n      0x00\n        /* \"@openzeppelin/contracts/access/Ownable.sol\":3004:3010  _owner */\n      dup1\n      0x00\n      swap1\n      sload\n      swap1\n      0x0100\n      exp\n      swap1\n      div\n      0xffffffffffffffffffffffffffffffffffffffff\n      and\n        /* \"@openzeppelin/contracts/access/Ownable.sol\":2985:3010  address oldOwner = _owner */\n      swap1\n      pop\n        /* \"@openzeppelin/contracts/access/Ownable.sol\":3029:3037  newOwner */\n      dup2\n        /* \"@openzeppelin/contracts/access/Ownable.sol\":3020:3026  _owner */\n      0x00\n      dup1\n        /* \"@openzeppelin/contracts/access/Ownable.sol\":3020:3037  _owner = newOwner */\n      0x0100\n      exp\n      dup2\n      sload\n      dup2\n      0xffffffffffffffffffffffffffffffffffffffff\n      mul\n      not\n      and\n      swap1\n      dup4\n      0xffffffffffffffffffffffffffffffffffffffff\n      and\n      mul\n      or\n      swap1\n      sstore\n      pop\n        /* \"@openzeppelin/contracts/access/Ownable.sol\":3083:3091  newOwner */\n      dup2\n        /* \"@openzeppelin/contracts/access/Ownable.sol\":3052:3092  OwnershipTransferred(oldOwner, newOwner) */\n      0xffffffffffffffffffffffffffffffffffffffff\n      and\n        /* \"@openzeppelin/contracts/access/Ownable.sol\":3073:3081  oldOwner */\n      dup2\n        /* \"@openzeppelin/contracts/access/Ownable.sol\":3052:3092  OwnershipTransferred(oldOwner, newOwner) */\n      0xffffffffffffffffffffffffffffffffffffffff\n      and\n      0x8be0079c531659141344cd1fd0a4f28419497f9722a3daafe3b4186f6b6457e0\n      mload(0x40)\n      mload(0x40)\n      dup1\n      swap2\n      sub\n      swap1\n      log3\n        /* \"@openzeppelin/contracts/access/Ownable.sol\":2975:3099  {... */\n      pop\n        /* \"@openzeppelin/contracts/access/Ownable.sol\":2912:3099  function _transferOwnership(address newOwner) internal virtual {... */\n      pop\n      jump\t// out\n        /* \"@openzeppelin/contracts/token/ERC20/utils/SafeERC20.sol\":4059:4688  function _callOptionalReturn(IERC20 token, bytes memory data) private {... */\n    tag_267:\n        /* \"@openzeppelin/contracts/token/ERC20/utils/SafeERC20.sol\":4478:4501  bytes memory returndata */\n      0x00\n        /* \"@openzeppelin/contracts/token/ERC20/utils/SafeERC20.sol\":4504:4537  address(token).functionCall(data) */\n      tag_281\n        /* \"@openzeppelin/contracts/token/ERC20/utils/SafeERC20.sol\":4532:4536  data */\n      dup3\n        /* \"@openzeppelin/contracts/token/ERC20/utils/SafeERC20.sol\":4512:4517  token */\n      dup5\n        /* \"@openzeppelin/contracts/token/ERC20/utils/SafeERC20.sol\":4504:4531  address(token).functionCall */\n      0xffffffffffffffffffffffffffffffffffffffff\n      and\n      tag_282\n      swap1\n        /* \"@openzeppelin/contracts/token/ERC20/utils/SafeERC20.sol\":4504:4537  address(token).functionCall(data) */\n      swap2\n      swap1\n      0xffffffff\n      and\n      jump\t// in\n    tag_281:\n        /* \"@openzeppelin/contracts/token/ERC20/utils/SafeERC20.sol\":4478:4537  bytes memory returndata = address(token).functionCall(data) */\n      swap1\n      pop\n        /* \"@openzeppelin/contracts/token/ERC20/utils/SafeERC20.sol\":4572:4573  0 */\n      0x00\n        /* \"@openzeppelin/contracts/token/ERC20/utils/SafeERC20.sol\":4551:4561  returndata */\n      dup2\n        /* \"@openzeppelin/contracts/token/ERC20/utils/SafeERC20.sol\":4551:4568  returndata.length */\n      mload\n        /* \"@openzeppelin/contracts/token/ERC20/utils/SafeERC20.sol\":4551:4573  returndata.length != 0 */\n      eq\n      iszero\n        /* \"@openzeppelin/contracts/token/ERC20/utils/SafeERC20.sol\":4551:4608  returndata.length != 0 && !abi.decode(returndata, (bool)) */\n      dup1\n      iszero\n      tag_283\n      jumpi\n      pop\n        /* \"@openzeppelin/contracts/token/ERC20/utils/SafeERC20.sol\":4589:4599  returndata */\n      dup1\n        /* \"@openzeppelin/contracts/token/ERC20/utils/SafeERC20.sol\":4578:4608  abi.decode(returndata, (bool)) */\n      dup1\n      0x20\n      add\n      swap1\n      mload\n      dup2\n      add\n      swap1\n      tag_284\n      swap2\n      swap1\n      tag_285\n      jump\t// in\n    tag_284:\n        /* \"@openzeppelin/contracts/token/ERC20/utils/SafeERC20.sol\":4577:4608  !abi.decode(returndata, (bool)) */\n      iszero\n        /* \"@openzeppelin/contracts/token/ERC20/utils/SafeERC20.sol\":4551:4608  returndata.length != 0 && !abi.decode(returndata, (bool)) */\n    tag_283:\n        /* \"@openzeppelin/contracts/token/ERC20/utils/SafeERC20.sol\":4547:4682  if (returndata.length != 0 && !abi.decode(returndata, (bool))) {... */\n      iszero\n      tag_286\n      jumpi\n        /* \"@openzeppelin/contracts/token/ERC20/utils/SafeERC20.sol\":4664:4669  token */\n      dup3\n        /* \"@openzeppelin/contracts/token/ERC20/utils/SafeERC20.sol\":4631:4671  SafeERC20FailedOperation(address(token)) */\n      mload(0x40)\n      0x5274afe700000000000000000000000000000000000000000000000000000000\n      dup2\n      mstore\n      0x04\n      add\n      tag_287\n      swap2\n      swap1\n      tag_80\n      jump\t// in\n    tag_287:\n      mload(0x40)\n      dup1\n      swap2\n      sub\n      swap1\n      revert\n        /* \"@openzeppelin/contracts/token/ERC20/utils/SafeERC20.sol\":4547:4682  if (returndata.length != 0 && !abi.decode(returndata, (bool))) {... */\n    tag_286:\n        /* \"@openzeppelin/contracts/token/ERC20/utils/SafeERC20.sol\":4129:4688  {... */\n      pop\n        /* \"@openzeppelin/contracts/token/ERC20/utils/SafeERC20.sol\":4059:4688  function _callOptionalReturn(IERC20 token, bytes memory data) private {... */\n      pop\n      pop\n      jump\t// out\n        /* \"@openzeppelin/contracts/utils/Context.sol\":656:752  function _msgSender() internal view virtual returns (address) {... */\n    tag_274:\n        /* \"@openzeppelin/contracts/utils/Context.sol\":709:716  address */\n      0x00\n        /* \"@openzeppelin/contracts/utils/Context.sol\":735:745  msg.sender */\n      caller\n        /* \"@openzeppelin/contracts/utils/Context.sol\":728:745  return msg.sender */\n      swap1\n      pop\n        /* \"@openzeppelin/contracts/utils/Context.sol\":656:752  function _msgSender() internal view virtual returns (address) {... */\n      swap1\n      jump\t// out\n        /* \"@openzeppelin/contracts/utils/Address.sol\":2705:2856  function functionCall(address target, bytes memory data) internal returns (bytes memory) {... */\n    tag_282:\n        /* \"@openzeppelin/contracts/utils/Address.sol\":2780:2792  bytes memory */\n      0x60\n        /* \"@openzeppelin/contracts/utils/Address.sol\":2811:2849  functionCallWithValue(target, data, 0) */\n      tag_290\n        /* \"@openzeppelin/contracts/utils/Address.sol\":2833:2839  target */\n      dup4\n        /* \"@openzeppelin/contracts/utils/Address.sol\":2841:2845  data */\n      dup4\n        /* \"@openzeppelin/contracts/utils/Address.sol\":2847:2848  0 */\n      0x00\n        /* \"@openzeppelin/contracts/utils/Address.sol\":2811:2832  functionCallWithValue */\n      tag_291\n        /* \"@openzeppelin/contracts/utils/Address.sol\":2811:2849  functionCallWithValue(target, data, 0) */\n      jump\t// in\n    tag_290:\n        /* \"@openzeppelin/contracts/utils/Address.sol\":2804:2849  return functionCallWithValue(target, data, 0) */\n      swap1\n      pop\n        /* \"@openzeppelin/contracts/utils/Address.sol\":2705:2856  function functionCall(address target, bytes memory data) internal returns (bytes memory) {... */\n      swap3\n      swap2\n      pop\n      pop\n      jump\t// out\n        /* \"@openzeppelin/contracts/utils/Address.sol\":3180:3572  function functionCallWithValue(address target, bytes memory data, uint256 value) internal returns (bytes memory) {... */\n    tag_291:\n        /* \"@openzeppelin/contracts/utils/Address.sol\":3279:3291  bytes memory */\n      0x60\n        /* \"@openzeppelin/contracts/utils/Address.sol\":3331:3336  value */\n      dup2\n        /* \"@openzeppelin/contracts/utils/Address.sol\":3307:3328  address(this).balance */\n      selfbalance\n        /* \"@openzeppelin/contracts/utils/Address.sol\":3307:3336  address(this).balance < value */\n      lt\n        /* \"@openzeppelin/contracts/utils/Address.sol\":3303:3411  if (address(this).balance < value) {... */\n      iszero\n      tag_293\n      jumpi\n        /* \"@openzeppelin/contracts/utils/Address.sol\":3394:3398  this */\n      address\n        /* \"@openzeppelin/contracts/utils/Address.sol\":3359:3400  AddressInsufficientBalance(address(this)) */\n      mload(0x40)\n      0xcd78605900000000000000000000000000000000000000000000000000000000\n      dup2\n      mstore\n      0x04\n      add\n      tag_294\n      swap2\n      swap1\n      tag_80\n      jump\t// in\n    tag_294:\n      mload(0x40)\n      dup1\n      swap2\n      sub\n      swap1\n      revert\n        /* \"@openzeppelin/contracts/utils/Address.sol\":3303:3411  if (address(this).balance < value) {... */\n    tag_293:\n        /* \"@openzeppelin/contracts/utils/Address.sol\":3421:3433  bool success */\n      0x00\n        /* \"@openzeppelin/contracts/utils/Address.sol\":3435:3458  bytes memory returndata */\n      dup1\n        /* \"@openzeppelin/contracts/utils/Address.sol\":3462:3468  target */\n      dup6\n        /* \"@openzeppelin/contracts/utils/Address.sol\":3462:3473  target.call */\n      0xffffffffffffffffffffffffffffffffffffffff\n      and\n        /* \"@openzeppelin/contracts/utils/Address.sol\":3481:3486  value */\n      dup5\n        /* \"@openzeppelin/contracts/utils/Address.sol\":3488:3492  data */\n      dup7\n        /* \"@openzeppelin/contracts/utils/Address.sol\":3462:3493  target.call{value: value}(data) */\n      mload(0x40)\n      tag_295\n      swap2\n      swap1\n      tag_296\n      jump\t// in\n    tag_295:\n      0x00\n      mload(0x40)\n      dup1\n      dup4\n      sub\n      dup2\n      dup6\n      dup8\n      gas\n      call\n      swap3\n      pop\n      pop\n      pop\n      returndatasize\n      dup1\n      0x00\n      dup2\n      eq\n      tag_299\n      jumpi\n      mload(0x40)\n      swap2\n      pop\n      and(add(returndatasize, 0x3f), not(0x1f))\n      dup3\n      add\n      0x40\n      mstore\n      returndatasize\n      dup3\n      mstore\n      returndatasize\n      0x00\n      0x20\n      dup5\n      add\n      returndatacopy\n      jump(tag_298)\n    tag_299:\n      0x60\n      swap2\n      pop\n    tag_298:\n      pop\n        /* \"@openzeppelin/contracts/utils/Address.sol\":3420:3493  (bool success, bytes memory returndata) = target.call{value: value}(data) */\n      swap2\n      pop\n      swap2\n      pop\n        /* \"@openzeppelin/contracts/utils/Address.sol\":3510:3565  verifyCallResultFromTarget(target, success, returndata) */\n      tag_300\n        /* \"@openzeppelin/contracts/utils/Address.sol\":3537:3543  target */\n      dup7\n        /* \"@openzeppelin/contracts/utils/Address.sol\":3545:3552  success */\n      dup4\n        /* \"@openzeppelin/contracts/utils/Address.sol\":3554:3564  returndata */\n      dup4\n        /* \"@openzeppelin/contracts/utils/Address.sol\":3510:3536  verifyCallResultFromTarget */\n      tag_301\n        /* \"@openzeppelin/contracts/utils/Address.sol\":3510:3565  verifyCallResultFromTarget(target, success, returndata) */\n      jump\t// in\n    tag_300:\n        /* \"@openzeppelin/contracts/utils/Address.sol\":3503:3565  return verifyCallResultFromTarget(target, success, returndata) */\n      swap3\n      pop\n      pop\n      pop\n        /* \"@openzeppelin/contracts/utils/Address.sol\":3180:3572  function functionCallWithValue(address target, bytes memory data, uint256 value) internal returns (bytes memory) {... */\n      swap4\n      swap3\n      pop\n      pop\n      pop\n      jump\t// out\n        /* \"@openzeppelin/contracts/utils/Address.sol\":4625:5207  function verifyCallResultFromTarget(... */\n    tag_301:\n        /* \"@openzeppelin/contracts/utils/Address.sol\":4769:4781  bytes memory */\n      0x60\n        /* \"@openzeppelin/contracts/utils/Address.sol\":4798:4805  success */\n      dup3\n        /* \"@openzeppelin/contracts/utils/Address.sol\":4793:5201  if (!success) {... */\n      tag_303\n      jumpi\n        /* \"@openzeppelin/contracts/utils/Address.sol\":4821:4840  _revert(returndata) */\n      tag_304\n        /* \"@openzeppelin/contracts/utils/Address.sol\":4829:4839  returndata */\n      dup3\n        /* \"@openzeppelin/contracts/utils/Address.sol\":4821:4828  _revert */\n      tag_305\n        /* \"@openzeppelin/contracts/utils/Address.sol\":4821:4840  _revert(returndata) */\n      jump\t// in\n    tag_304:\n        /* \"@openzeppelin/contracts/utils/Address.sol\":4793:5201  if (!success) {... */\n      jump(tag_306)\n    tag_303:\n        /* \"@openzeppelin/contracts/utils/Address.sol\":5066:5067  0 */\n      0x00\n        /* \"@openzeppelin/contracts/utils/Address.sol\":5045:5055  returndata */\n      dup3\n        /* \"@openzeppelin/contracts/utils/Address.sol\":5045:5062  returndata.length */\n      mload\n        /* \"@openzeppelin/contracts/utils/Address.sol\":5045:5067  returndata.length == 0 */\n      eq\n        /* \"@openzeppelin/contracts/utils/Address.sol\":5045:5094  returndata.length == 0 && target.code.length == 0 */\n      dup1\n      iszero\n      tag_307\n      jumpi\n      pop\n        /* \"@openzeppelin/contracts/utils/Address.sol\":5093:5094  0 */\n      0x00\n        /* \"@openzeppelin/contracts/utils/Address.sol\":5071:5077  target */\n      dup5\n        /* \"@openzeppelin/contracts/utils/Address.sol\":5071:5089  target.code.length */\n      0xffffffffffffffffffffffffffffffffffffffff\n      and\n      extcodesize\n        /* \"@openzeppelin/contracts/utils/Address.sol\":5071:5094  target.code.length == 0 */\n      eq\n        /* \"@openzeppelin/contracts/utils/Address.sol\":5045:5094  returndata.length == 0 && target.code.length == 0 */\n    tag_307:\n        /* \"@openzeppelin/contracts/utils/Address.sol\":5041:5160  if (returndata.length == 0 && target.code.length == 0) {... */\n      iszero\n      tag_308\n      jumpi\n        /* \"@openzeppelin/contracts/utils/Address.sol\":5138:5144  target */\n      dup4\n        /* \"@openzeppelin/contracts/utils/Address.sol\":5121:5145  AddressEmptyCode(target) */\n      mload(0x40)\n      0x9996b31500000000000000000000000000000000000000000000000000000000\n      dup2\n      mstore\n      0x04\n      add\n      tag_309\n      swap2\n      swap1\n      tag_80\n      jump\t// in\n    tag_309:\n      mload(0x40)\n      dup1\n      swap2\n      sub\n      swap1\n      revert\n        /* \"@openzeppelin/contracts/utils/Address.sol\":5041:5160  if (returndata.length == 0 && target.code.length == 0) {... */\n    tag_308:\n        /* \"@openzeppelin/contracts/utils/Address.sol\":5180:5190  returndata */\n      dup2\n        /* \"@openzeppelin/contracts/utils/Address.sol\":5173:5190  return returndata */\n      swap1\n      pop\n      jump(tag_302)\n        /* \"@openzeppelin/contracts/utils/Address.sol\":4793:5201  if (!success) {... */\n    tag_306:\n        /* \"@openzeppelin/contracts/utils/Address.sol\":4625:5207  function verifyCallResultFromTarget(... */\n    tag_302:\n      swap4\n      swap3\n      pop\n      pop\n      pop\n      jump\t// out\n        /* \"@openzeppelin/contracts/utils/Address.sol\":5743:6259  function _revert(bytes memory returndata) private pure {... */\n    tag_305:\n        /* \"@openzeppelin/contracts/utils/Address.sol\":5894:5895  0 */\n      0x00\n        /* \"@openzeppelin/contracts/utils/Address.sol\":5874:5884  returndata */\n      dup2\n        /* \"@openzeppelin/contracts/utils/Address.sol\":5874:5891  returndata.length */\n      mload\n        /* \"@openzeppelin/contracts/utils/Address.sol\":5874:5895  returndata.length > 0 */\n      gt\n        /* \"@openzeppelin/contracts/utils/Address.sol\":5870:6253  if (returndata.length > 0) {... */\n      iszero\n      tag_311\n      jumpi\n        /* \"@openzeppelin/contracts/utils/Address.sol\":6102:6112  returndata */\n      dup1\n        /* \"@openzeppelin/contracts/utils/Address.sol\":6096:6113  mload(returndata) */\n      mload\n        /* \"@openzeppelin/contracts/utils/Address.sol\":6158:6173  returndata_size */\n      dup1\n        /* \"@openzeppelin/contracts/utils/Address.sol\":6145:6155  returndata */\n      dup3\n        /* \"@openzeppelin/contracts/utils/Address.sol\":6141:6143  32 */\n      0x20\n        /* \"@openzeppelin/contracts/utils/Address.sol\":6137:6156  add(32, returndata) */\n      add\n        /* \"@openzeppelin/contracts/utils/Address.sol\":6130:6174  revert(add(32, returndata), returndata_size) */\n      revert\n        /* \"@openzeppelin/contracts/utils/Address.sol\":5870:6253  if (returndata.length > 0) {... */\n    tag_311:\n        /* \"@openzeppelin/contracts/utils/Address.sol\":6225:6242  FailedInnerCall() */\n      mload(0x40)\n      0x1425ea4200000000000000000000000000000000000000000000000000000000\n      dup2\n      mstore\n      0x04\n      add\n      mload(0x40)\n      dup1\n      swap2\n      sub\n      swap1\n      revert\n    tag_254:\n      mload(0x40)\n      dup1\n      0x80\n      add\n      0x40\n      mstore\n      dup1\n      0x00\n      dup2\n      mstore\n      0x20\n      add\n      0x00\n      dup2\n      mstore\n      0x20\n      add\n      0x00\n      dup2\n      mstore\n      0x20\n      add\n      iszero(iszero(0x00))\n      dup2\n      mstore\n      pop\n      swap1\n      jump\t// out\n        /* \"#utility.yul\":7:84   */\n    tag_313:\n        /* \"#utility.yul\":44:51   */\n      0x00\n        /* \"#utility.yul\":73:78   */\n      dup2\n        /* \"#utility.yul\":62:78   */\n      swap1\n      pop\n        /* \"#utility.yul\":7:84   */\n      swap2\n      swap1\n      pop\n      jump\t// out\n        /* \"#utility.yul\":90:208   */\n    tag_314:\n        /* \"#utility.yul\":177:201   */\n      tag_366\n        /* \"#utility.yul\":195:200   */\n      dup2\n        /* \"#utility.yul\":177:201   */\n      tag_313\n      jump\t// in\n    tag_366:\n        /* \"#utility.yul\":172:175   */\n      dup3\n        /* \"#utility.yul\":165:202   */\n      mstore\n        /* \"#utility.yul\":90:208   */\n      pop\n      pop\n      jump\t// out\n        /* \"#utility.yul\":214:436   */\n    tag_41:\n        /* \"#utility.yul\":307:311   */\n      0x00\n        /* \"#utility.yul\":345:347   */\n      0x20\n        /* \"#utility.yul\":334:343   */\n      dup3\n        /* \"#utility.yul\":330:348   */\n      add\n        /* \"#utility.yul\":322:348   */\n      swap1\n      pop\n        /* \"#utility.yul\":358:429   */\n      tag_368\n        /* \"#utility.yul\":426:427   */\n      0x00\n        /* \"#utility.yul\":415:424   */\n      dup4\n        /* \"#utility.yul\":411:428   */\n      add\n        /* \"#utility.yul\":402:408   */\n      dup5\n        /* \"#utility.yul\":358:429   */\n      tag_314\n      jump\t// in\n    tag_368:\n        /* \"#utility.yul\":214:436   */\n      swap3\n      swap2\n      pop\n      pop\n      jump\t// out\n        /* \"#utility.yul\":523:640   */\n    tag_316:\n        /* \"#utility.yul\":632:633   */\n      0x00\n        /* \"#utility.yul\":629:630   */\n      dup1\n        /* \"#utility.yul\":622:634   */\n      revert\n        /* \"#utility.yul\":769:895   */\n    tag_318:\n        /* \"#utility.yul\":806:813   */\n      0x00\n        /* \"#utility.yul\":846:888   */\n      0xffffffffffffffffffffffffffffffffffffffff\n        /* \"#utility.yul\":839:844   */\n      dup3\n        /* \"#utility.yul\":835:889   */\n      and\n        /* \"#utility.yul\":824:889   */\n      swap1\n      pop\n        /* \"#utility.yul\":769:895   */\n      swap2\n      swap1\n      pop\n      jump\t// out\n        /* \"#utility.yul\":901:997   */\n    tag_319:\n        /* \"#utility.yul\":938:945   */\n      0x00\n        /* \"#utility.yul\":967:991   */\n      tag_374\n        /* \"#utility.yul\":985:990   */\n      dup3\n        /* \"#utility.yul\":967:991   */\n      tag_318\n      jump\t// in\n    tag_374:\n        /* \"#utility.yul\":956:991   */\n      swap1\n      pop\n        /* \"#utility.yul\":901:997   */\n      swap2\n      swap1\n      pop\n      jump\t// out\n        /* \"#utility.yul\":1003:1125   */\n    tag_320:\n        /* \"#utility.yul\":1076:1100   */\n      tag_376\n        /* \"#utility.yul\":1094:1099   */\n      dup2\n        /* \"#utility.yul\":1076:1100   */\n      tag_319\n      jump\t// in\n    tag_376:\n        /* \"#utility.yul\":1069:1074   */\n      dup2\n        /* \"#utility.yul\":1066:1101   */\n      eq\n        /* \"#utility.yul\":1056:1119   */\n      tag_377\n      jumpi\n        /* \"#utility.yul\":1115:1116   */\n      0x00\n        /* \"#utility.yul\":1112:1113   */\n      dup1\n        /* \"#utility.yul\":1105:1117   */\n      revert\n        /* \"#utility.yul\":1056:1119   */\n    tag_377:\n        /* \"#utility.yul\":1003:1125   */\n      pop\n      jump\t// out\n        /* \"#utility.yul\":1131:1270   */\n    tag_321:\n        /* \"#utility.yul\":1177:1182   */\n      0x00\n        /* \"#utility.yul\":1215:1221   */\n      dup2\n        /* \"#utility.yul\":1202:1222   */\n      calldataload\n        /* \"#utility.yul\":1193:1222   */\n      swap1\n      pop\n        /* \"#utility.yul\":1231:1264   */\n      tag_379\n        /* \"#utility.yul\":1258:1263   */\n      dup2\n        /* \"#utility.yul\":1231:1264   */\n      tag_320\n      jump\t// in\n    tag_379:\n        /* \"#utility.yul\":1131:1270   */\n      swap3\n      swap2\n      pop\n      pop\n      jump\t// out\n        /* \"#utility.yul\":1276:1605   */\n    tag_47:\n        /* \"#utility.yul\":1335:1341   */\n      0x00\n        /* \"#utility.yul\":1384:1386   */\n      0x20\n        /* \"#utility.yul\":1372:1381   */\n      dup3\n        /* \"#utility.yul\":1363:1370   */\n      dup5\n        /* \"#utility.yul\":1359:1382   */\n      sub\n        /* \"#utility.yul\":1355:1387   */\n      slt\n        /* \"#utility.yul\":1352:1471   */\n      iszero\n      tag_381\n      jumpi\n        /* \"#utility.yul\":1390:1469   */\n      tag_382\n      tag_316\n      jump\t// in\n    tag_382:\n        /* \"#utility.yul\":1352:1471   */\n    tag_381:\n        /* \"#utility.yul\":1510:1511   */\n      0x00\n        /* \"#utility.yul\":1535:1588   */\n      tag_383\n        /* \"#utility.yul\":1580:1587   */\n      dup5\n        /* \"#utility.yul\":1571:1577   */\n      dup3\n        /* \"#utility.yul\":1560:1569   */\n      dup6\n        /* \"#utility.yul\":1556:1578   */\n      add\n        /* \"#utility.yul\":1535:1588   */\n      tag_321\n      jump\t// in\n    tag_383:\n        /* \"#utility.yul\":1525:1588   */\n      swap2\n      pop\n        /* \"#utility.yul\":1481:1598   */\n      pop\n        /* \"#utility.yul\":1276:1605   */\n      swap3\n      swap2\n      pop\n      pop\n      jump\t// out\n        /* \"#utility.yul\":1611:1671   */\n    tag_322:\n        /* \"#utility.yul\":1639:1642   */\n      0x00\n        /* \"#utility.yul\":1660:1665   */\n      dup2\n        /* \"#utility.yul\":1653:1665   */\n      swap1\n      pop\n        /* \"#utility.yul\":1611:1671   */\n      swap2\n      swap1\n      pop\n      jump\t// out\n        /* \"#utility.yul\":1677:1819   */\n    tag_323:\n        /* \"#utility.yul\":1727:1736   */\n      0x00\n        /* \"#utility.yul\":1760:1813   */\n      tag_386\n        /* \"#utility.yul\":1778:1812   */\n      tag_387\n        /* \"#utility.yul\":1787:1811   */\n      tag_388\n        /* \"#utility.yul\":1805:1810   */\n      dup5\n        /* \"#utility.yul\":1787:1811   */\n      tag_318\n      jump\t// in\n    tag_388:\n        /* \"#utility.yul\":1778:1812   */\n      tag_322\n      jump\t// in\n    tag_387:\n        /* \"#utility.yul\":1760:1813   */\n      tag_318\n      jump\t// in\n    tag_386:\n        /* \"#utility.yul\":1747:1813   */\n      swap1\n      pop\n        /* \"#utility.yul\":1677:1819   */\n      swap2\n      swap1\n      pop\n      jump\t// out\n        /* \"#utility.yul\":1825:1951   */\n    tag_324:\n        /* \"#utility.yul\":1875:1884   */\n      0x00\n        /* \"#utility.yul\":1908:1945   */\n      tag_390\n        /* \"#utility.yul\":1939:1944   */\n      dup3\n        /* \"#utility.yul\":1908:1945   */\n      tag_323\n      jump\t// in\n    tag_390:\n        /* \"#utility.yul\":1895:1945   */\n      swap1\n      pop\n        /* \"#utility.yul\":1825:1951   */\n      swap2\n      swap1\n      pop\n      jump\t// out\n        /* \"#utility.yul\":1957:2097   */\n    tag_325:\n        /* \"#utility.yul\":2021:2030   */\n      0x00\n        /* \"#utility.yul\":2054:2091   */\n      tag_392\n        /* \"#utility.yul\":2085:2090   */\n      dup3\n        /* \"#utility.yul\":2054:2091   */\n      tag_324\n      jump\t// in\n    tag_392:\n        /* \"#utility.yul\":2041:2091   */\n      swap1\n      pop\n        /* \"#utility.yul\":1957:2097   */\n      swap2\n      swap1\n      pop\n      jump\t// out\n        /* \"#utility.yul\":2103:2262   */\n    tag_326:\n        /* \"#utility.yul\":2204:2255   */\n      tag_394\n        /* \"#utility.yul\":2249:2254   */\n      dup2\n        /* \"#utility.yul\":2204:2255   */\n      tag_325\n      jump\t// in\n    tag_394:\n        /* \"#utility.yul\":2199:2202   */\n      dup3\n        /* \"#utility.yul\":2192:2256   */\n      mstore\n        /* \"#utility.yul\":2103:2262   */\n      pop\n      pop\n      jump\t// out\n        /* \"#utility.yul\":2268:2518   */\n    tag_52:\n        /* \"#utility.yul\":2375:2379   */\n      0x00\n        /* \"#utility.yul\":2413:2415   */\n      0x20\n        /* \"#utility.yul\":2402:2411   */\n      dup3\n        /* \"#utility.yul\":2398:2416   */\n      add\n        /* \"#utility.yul\":2390:2416   */\n      swap1\n      pop\n        /* \"#utility.yul\":2426:2511   */\n      tag_396\n        /* \"#utility.yul\":2508:2509   */\n      0x00\n        /* \"#utility.yul\":2497:2506   */\n      dup4\n        /* \"#utility.yul\":2493:2510   */\n      add\n        /* \"#utility.yul\":2484:2490   */\n      dup5\n        /* \"#utility.yul\":2426:2511   */\n      tag_326\n      jump\t// in\n    tag_396:\n        /* \"#utility.yul\":2268:2518   */\n      swap3\n      swap2\n      pop\n      pop\n      jump\t// out\n        /* \"#utility.yul\":2524:2646   */\n    tag_327:\n        /* \"#utility.yul\":2597:2621   */\n      tag_398\n        /* \"#utility.yul\":2615:2620   */\n      dup2\n        /* \"#utility.yul\":2597:2621   */\n      tag_313\n      jump\t// in\n    tag_398:\n        /* \"#utility.yul\":2590:2595   */\n      dup2\n        /* \"#utility.yul\":2587:2622   */\n      eq\n        /* \"#utility.yul\":2577:2640   */\n      tag_399\n      jumpi\n        /* \"#utility.yul\":2636:2637   */\n      0x00\n        /* \"#utility.yul\":2633:2634   */\n      dup1\n        /* \"#utility.yul\":2626:2638   */\n      revert\n        /* \"#utility.yul\":2577:2640   */\n    tag_399:\n        /* \"#utility.yul\":2524:2646   */\n      pop\n      jump\t// out\n        /* \"#utility.yul\":2652:2791   */\n    tag_328:\n        /* \"#utility.yul\":2698:2703   */\n      0x00\n        /* \"#utility.yul\":2736:2742   */\n      dup2\n        /* \"#utility.yul\":2723:2743   */\n      calldataload\n        /* \"#utility.yul\":2714:2743   */\n      swap1\n      pop\n        /* \"#utility.yul\":2752:2785   */\n      tag_401\n        /* \"#utility.yul\":2779:2784   */\n      dup2\n        /* \"#utility.yul\":2752:2785   */\n      tag_327\n      jump\t// in\n    tag_401:\n        /* \"#utility.yul\":2652:2791   */\n      swap3\n      swap2\n      pop\n      pop\n      jump\t// out\n        /* \"#utility.yul\":2797:3126   */\n    tag_61:\n        /* \"#utility.yul\":2856:2862   */\n      0x00\n        /* \"#utility.yul\":2905:2907   */\n      0x20\n        /* \"#utility.yul\":2893:2902   */\n      dup3\n        /* \"#utility.yul\":2884:2891   */\n      dup5\n        /* \"#utility.yul\":2880:2903   */\n      sub\n        /* \"#utility.yul\":2876:2908   */\n      slt\n        /* \"#utility.yul\":2873:2992   */\n      iszero\n      tag_403\n      jumpi\n        /* \"#utility.yul\":2911:2990   */\n      tag_404\n      tag_316\n      jump\t// in\n    tag_404:\n        /* \"#utility.yul\":2873:2992   */\n    tag_403:\n        /* \"#utility.yul\":3031:3032   */\n      0x00\n        /* \"#utility.yul\":3056:3109   */\n      tag_405\n        /* \"#utility.yul\":3101:3108   */\n      dup5\n        /* \"#utility.yul\":3092:3098   */\n      dup3\n        /* \"#utility.yul\":3081:3090   */\n      dup6\n        /* \"#utility.yul\":3077:3099   */\n      add\n        /* \"#utility.yul\":3056:3109   */\n      tag_328\n      jump\t// in\n    tag_405:\n        /* \"#utility.yul\":3046:3109   */\n      swap2\n      pop\n        /* \"#utility.yul\":3002:3119   */\n      pop\n        /* \"#utility.yul\":2797:3126   */\n      swap3\n      swap2\n      pop\n      pop\n      jump\t// out\n        /* \"#utility.yul\":3132:3222   */\n    tag_329:\n        /* \"#utility.yul\":3166:3173   */\n      0x00\n        /* \"#utility.yul\":3209:3214   */\n      dup2\n        /* \"#utility.yul\":3202:3215   */\n      iszero\n        /* \"#utility.yul\":3195:3216   */\n      iszero\n        /* \"#utility.yul\":3184:3216   */\n      swap1\n      pop\n        /* \"#utility.yul\":3132:3222   */\n      swap2\n      swap1\n      pop\n      jump\t// out\n        /* \"#utility.yul\":3228:3337   */\n    tag_330:\n        /* \"#utility.yul\":3309:3330   */\n      tag_408\n        /* \"#utility.yul\":3324:3329   */\n      dup2\n        /* \"#utility.yul\":3309:3330   */\n      tag_329\n      jump\t// in\n    tag_408:\n        /* \"#utility.yul\":3304:3307   */\n      dup3\n        /* \"#utility.yul\":3297:3331   */\n      mstore\n        /* \"#utility.yul\":3228:3337   */\n      pop\n      pop\n      jump\t// out\n        /* \"#utility.yul\":3343:3884   */\n    tag_76:\n        /* \"#utility.yul\":3514:3518   */\n      0x00\n        /* \"#utility.yul\":3552:3555   */\n      0x80\n        /* \"#utility.yul\":3541:3550   */\n      dup3\n        /* \"#utility.yul\":3537:3556   */\n      add\n        /* \"#utility.yul\":3529:3556   */\n      swap1\n      pop\n        /* \"#utility.yul\":3566:3637   */\n      tag_410\n        /* \"#utility.yul\":3634:3635   */\n      0x00\n        /* \"#utility.yul\":3623:3632   */\n      dup4\n        /* \"#utility.yul\":3619:3636   */\n      add\n        /* \"#utility.yul\":3610:3616   */\n      dup8\n        /* \"#utility.yul\":3566:3637   */\n      tag_314\n      jump\t// in\n    tag_410:\n        /* \"#utility.yul\":3647:3719   */\n      tag_411\n        /* \"#utility.yul\":3715:3717   */\n      0x20\n        /* \"#utility.yul\":3704:3713   */\n      dup4\n        /* \"#utility.yul\":3700:3718   */\n      add\n        /* \"#utility.yul\":3691:3697   */\n      dup7\n        /* \"#utility.yul\":3647:3719   */\n      tag_314\n      jump\t// in\n    tag_411:\n        /* \"#utility.yul\":3729:3801   */\n      tag_412\n        /* \"#utility.yul\":3797:3799   */\n      0x40\n        /* \"#utility.yul\":3786:3795   */\n      dup4\n        /* \"#utility.yul\":3782:3800   */\n      add\n        /* \"#utility.yul\":3773:3779   */\n      dup6\n        /* \"#utility.yul\":3729:3801   */\n      tag_314\n      jump\t// in\n    tag_412:\n        /* \"#utility.yul\":3811:3877   */\n      tag_413\n        /* \"#utility.yul\":3873:3875   */\n      0x60\n        /* \"#utility.yul\":3862:3871   */\n      dup4\n        /* \"#utility.yul\":3858:3876   */\n      add\n        /* \"#utility.yul\":3849:3855   */\n      dup5\n        /* \"#utility.yul\":3811:3877   */\n      tag_330\n      jump\t// in\n    tag_413:\n        /* \"#utility.yul\":3343:3884   */\n      swap6\n      swap5\n      pop\n      pop\n      pop\n      pop\n      pop\n      jump\t// out\n        /* \"#utility.yul\":3890:4008   */\n    tag_331:\n        /* \"#utility.yul\":3977:4001   */\n      tag_415\n        /* \"#utility.yul\":3995:4000   */\n      dup2\n        /* \"#utility.yul\":3977:4001   */\n      tag_319\n      jump\t// in\n    tag_415:\n        /* \"#utility.yul\":3972:3975   */\n      dup3\n        /* \"#utility.yul\":3965:4002   */\n      mstore\n        /* \"#utility.yul\":3890:4008   */\n      pop\n      pop\n      jump\t// out\n        /* \"#utility.yul\":4014:4236   */\n    tag_80:\n        /* \"#utility.yul\":4107:4111   */\n      0x00\n        /* \"#utility.yul\":4145:4147   */\n      0x20\n        /* \"#utility.yul\":4134:4143   */\n      dup3\n        /* \"#utility.yul\":4130:4148   */\n      add\n        /* \"#utility.yul\":4122:4148   */\n      swap1\n      pop\n        /* \"#utility.yul\":4158:4229   */\n      tag_417\n        /* \"#utility.yul\":4226:4227   */\n      0x00\n        /* \"#utility.yul\":4215:4224   */\n      dup4\n        /* \"#utility.yul\":4211:4228   */\n      add\n        /* \"#utility.yul\":4202:4208   */\n      dup5\n        /* \"#utility.yul\":4158:4229   */\n      tag_331\n      jump\t// in\n    tag_417:\n        /* \"#utility.yul\":4014:4236   */\n      swap3\n      swap2\n      pop\n      pop\n      jump\t// out\n        /* \"#utility.yul\":4242:4350   */\n    tag_332:\n        /* \"#utility.yul\":4319:4343   */\n      tag_419\n        /* \"#utility.yul\":4337:4342   */\n      dup2\n        /* \"#utility.yul\":4319:4343   */\n      tag_313\n      jump\t// in\n    tag_419:\n        /* \"#utility.yul\":4314:4317   */\n      dup3\n        /* \"#utility.yul\":4307:4344   */\n      mstore\n        /* \"#utility.yul\":4242:4350   */\n      pop\n      pop\n      jump\t// out\n        /* \"#utility.yul\":4356:4455   */\n    tag_333:\n        /* \"#utility.yul\":4427:4448   */\n      tag_421\n        /* \"#utility.yul\":4442:4447   */\n      dup2\n        /* \"#utility.yul\":4427:4448   */\n      tag_329\n      jump\t// in\n    tag_421:\n        /* \"#utility.yul\":4422:4425   */\n      dup3\n        /* \"#utility.yul\":4415:4449   */\n      mstore\n        /* \"#utility.yul\":4356:4455   */\n      pop\n      pop\n      jump\t// out\n        /* \"#utility.yul\":4529:5385   */\n    tag_334:\n        /* \"#utility.yul\":4668:4672   */\n      0x80\n        /* \"#utility.yul\":4663:4666   */\n      dup3\n        /* \"#utility.yul\":4659:4673   */\n      add\n        /* \"#utility.yul\":4757:4761   */\n      0x00\n        /* \"#utility.yul\":4750:4755   */\n      dup3\n        /* \"#utility.yul\":4746:4762   */\n      add\n        /* \"#utility.yul\":4740:4763   */\n      mload\n        /* \"#utility.yul\":4776:4839   */\n      tag_423\n        /* \"#utility.yul\":4833:4837   */\n      0x00\n        /* \"#utility.yul\":4828:4831   */\n      dup6\n        /* \"#utility.yul\":4824:4838   */\n      add\n        /* \"#utility.yul\":4810:4822   */\n      dup3\n        /* \"#utility.yul\":4776:4839   */\n      tag_332\n      jump\t// in\n    tag_423:\n        /* \"#utility.yul\":4683:4849   */\n      pop\n        /* \"#utility.yul\":4937:4941   */\n      0x20\n        /* \"#utility.yul\":4930:4935   */\n      dup3\n        /* \"#utility.yul\":4926:4942   */\n      add\n        /* \"#utility.yul\":4920:4943   */\n      mload\n        /* \"#utility.yul\":4956:5019   */\n      tag_424\n        /* \"#utility.yul\":5013:5017   */\n      0x20\n        /* \"#utility.yul\":5008:5011   */\n      dup6\n        /* \"#utility.yul\":5004:5018   */\n      add\n        /* \"#utility.yul\":4990:5002   */\n      dup3\n        /* \"#utility.yul\":4956:5019   */\n      tag_332\n      jump\t// in\n    tag_424:\n        /* \"#utility.yul\":4859:5029   */\n      pop\n        /* \"#utility.yul\":5116:5120   */\n      0x40\n        /* \"#utility.yul\":5109:5114   */\n      dup3\n        /* \"#utility.yul\":5105:5121   */\n      add\n        /* \"#utility.yul\":5099:5122   */\n      mload\n        /* \"#utility.yul\":5135:5198   */\n      tag_425\n        /* \"#utility.yul\":5192:5196   */\n      0x40\n        /* \"#utility.yul\":5187:5190   */\n      dup6\n        /* \"#utility.yul\":5183:5197   */\n      add\n        /* \"#utility.yul\":5169:5181   */\n      dup3\n        /* \"#utility.yul\":5135:5198   */\n      tag_332\n      jump\t// in\n    tag_425:\n        /* \"#utility.yul\":5039:5208   */\n      pop\n        /* \"#utility.yul\":5292:5296   */\n      0x60\n        /* \"#utility.yul\":5285:5290   */\n      dup3\n        /* \"#utility.yul\":5281:5297   */\n      add\n        /* \"#utility.yul\":5275:5298   */\n      mload\n        /* \"#utility.yul\":5311:5368   */\n      tag_426\n        /* \"#utility.yul\":5362:5366   */\n      0x60\n        /* \"#utility.yul\":5357:5360   */\n      dup6\n        /* \"#utility.yul\":5353:5367   */\n      add\n        /* \"#utility.yul\":5339:5351   */\n      dup3\n        /* \"#utility.yul\":5311:5368   */\n      tag_333\n      jump\t// in\n    tag_426:\n        /* \"#utility.yul\":5218:5378   */\n      pop\n        /* \"#utility.yul\":4637:5385   */\n      pop\n        /* \"#utility.yul\":4529:5385   */\n      pop\n      pop\n      jump\t// out\n        /* \"#utility.yul\":5391:5698   */\n    tag_127:\n        /* \"#utility.yul\":5526:5530   */\n      0x00\n        /* \"#utility.yul\":5564:5567   */\n      0x80\n        /* \"#utility.yul\":5553:5562   */\n      dup3\n        /* \"#utility.yul\":5549:5568   */\n      add\n        /* \"#utility.yul\":5541:5568   */\n      swap1\n      pop\n        /* \"#utility.yul\":5578:5691   */\n      tag_428\n        /* \"#utility.yul\":5688:5689   */\n      0x00\n        /* \"#utility.yul\":5677:5686   */\n      dup4\n        /* \"#utility.yul\":5673:5690   */\n      add\n        /* \"#utility.yul\":5664:5670   */\n      dup5\n        /* \"#utility.yul\":5578:5691   */\n      tag_334\n      jump\t// in\n    tag_428:\n        /* \"#utility.yul\":5391:5698   */\n      swap3\n      swap2\n      pop\n      pop\n      jump\t// out\n        /* \"#utility.yul\":5704:5873   */\n    tag_335:\n        /* \"#utility.yul\":5788:5799   */\n      0x00\n        /* \"#utility.yul\":5822:5828   */\n      dup3\n        /* \"#utility.yul\":5817:5820   */\n      dup3\n        /* \"#utility.yul\":5810:5829   */\n      mstore\n        /* \"#utility.yul\":5862:5866   */\n      0x20\n        /* \"#utility.yul\":5857:5860   */\n      dup3\n        /* \"#utility.yul\":5853:5867   */\n      add\n        /* \"#utility.yul\":5838:5867   */\n      swap1\n      pop\n        /* \"#utility.yul\":5704:5873   */\n      swap3\n      swap2\n      pop\n      pop\n      jump\t// out\n        /* \"#utility.yul\":5879:6043   */\n    tag_336:\n        /* \"#utility.yul\":6019:6035   */\n      0x4e6f20616374697665206c6f616e000000000000000000000000000000000000\n        /* \"#utility.yul\":6015:6016   */\n      0x00\n        /* \"#utility.yul\":6007:6013   */\n      dup3\n        /* \"#utility.yul\":6003:6017   */\n      add\n        /* \"#utility.yul\":5996:6036   */\n      mstore\n        /* \"#utility.yul\":5879:6043   */\n      pop\n      jump\t// out\n        /* \"#utility.yul\":6049:6415   */\n    tag_337:\n        /* \"#utility.yul\":6191:6194   */\n      0x00\n        /* \"#utility.yul\":6212:6279   */\n      tag_432\n        /* \"#utility.yul\":6276:6278   */\n      0x0e\n        /* \"#utility.yul\":6271:6274   */\n      dup4\n        /* \"#utility.yul\":6212:6279   */\n      tag_335\n      jump\t// in\n    tag_432:\n        /* \"#utility.yul\":6205:6279   */\n      swap2\n      pop\n        /* \"#utility.yul\":6288:6381   */\n      tag_433\n        /* \"#utility.yul\":6377:6380   */\n      dup3\n        /* \"#utility.yul\":6288:6381   */\n      tag_336\n      jump\t// in\n    tag_433:\n        /* \"#utility.yul\":6406:6408   */\n      0x20\n        /* \"#utility.yul\":6401:6404   */\n      dup3\n        /* \"#utility.yul\":6397:6409   */\n      add\n        /* \"#utility.yul\":6390:6409   */\n      swap1\n      pop\n        /* \"#utility.yul\":6049:6415   */\n      swap2\n      swap1\n      pop\n      jump\t// out\n        /* \"#utility.yul\":6421:6840   */\n    tag_143:\n        /* \"#utility.yul\":6587:6591   */\n      0x00\n        /* \"#utility.yul\":6625:6627   */\n      0x20\n        /* \"#utility.yul\":6614:6623   */\n      dup3\n        /* \"#utility.yul\":6610:6628   */\n      add\n        /* \"#utility.yul\":6602:6628   */\n      swap1\n      pop\n        /* \"#utility.yul\":6674:6683   */\n      dup2\n        /* \"#utility.yul\":6668:6672   */\n      dup2\n        /* \"#utility.yul\":6664:6684   */\n      sub\n        /* \"#utility.yul\":6660:6661   */\n      0x00\n        /* \"#utility.yul\":6649:6658   */\n      dup4\n        /* \"#utility.yul\":6645:6662   */\n      add\n        /* \"#utility.yul\":6638:6685   */\n      mstore\n        /* \"#utility.yul\":6702:6833   */\n      tag_435\n        /* \"#utility.yul\":6828:6832   */\n      dup2\n        /* \"#utility.yul\":6702:6833   */\n      tag_337\n      jump\t// in\n    tag_435:\n        /* \"#utility.yul\":6694:6833   */\n      swap1\n      pop\n        /* \"#utility.yul\":6421:6840   */\n      swap2\n      swap1\n      pop\n      jump\t// out\n        /* \"#utility.yul\":6846:7026   */\n    tag_338:\n        /* \"#utility.yul\":6894:6971   */\n      0x4e487b7100000000000000000000000000000000000000000000000000000000\n        /* \"#utility.yul\":6891:6892   */\n      0x00\n        /* \"#utility.yul\":6884:6972   */\n      mstore\n        /* \"#utility.yul\":6991:6995   */\n      0x11\n        /* \"#utility.yul\":6988:6989   */\n      0x04\n        /* \"#utility.yul\":6981:6996   */\n      mstore\n        /* \"#utility.yul\":7015:7019   */\n      0x24\n        /* \"#utility.yul\":7012:7013   */\n      0x00\n        /* \"#utility.yul\":7005:7020   */\n      revert\n        /* \"#utility.yul\":7032:7226   */\n    tag_145:\n        /* \"#utility.yul\":7072:7076   */\n      0x00\n        /* \"#utility.yul\":7092:7112   */\n      tag_438\n        /* \"#utility.yul\":7110:7111   */\n      dup3\n        /* \"#utility.yul\":7092:7112   */\n      tag_313\n      jump\t// in\n    tag_438:\n        /* \"#utility.yul\":7087:7112   */\n      swap2\n      pop\n        /* \"#utility.yul\":7126:7146   */\n      tag_439\n        /* \"#utility.yul\":7144:7145   */\n      dup4\n        /* \"#utility.yul\":7126:7146   */\n      tag_313\n      jump\t// in\n    tag_439:\n        /* \"#utility.yul\":7121:7146   */\n      swap3\n      pop\n        /* \"#utility.yul\":7170:7171   */\n      dup3\n        /* \"#utility.yul\":7167:7168   */\n      dup3\n        /* \"#utility.yul\":7163:7172   */\n      sub\n        /* \"#utility.yul\":7155:7172   */\n      swap1\n      pop\n        /* \"#utility.yul\":7194:7195   */\n      dup2\n        /* \"#utility.yul\":7188:7192   */\n      dup2\n        /* \"#utility.yul\":7185:7196   */\n      gt\n        /* \"#utility.yul\":7182:7219   */\n      iszero\n      tag_440\n      jumpi\n        /* \"#utility.yul\":7199:7217   */\n      tag_441\n      tag_338\n      jump\t// in\n    tag_441:\n        /* \"#utility.yul\":7182:7219   */\n    tag_440:\n        /* \"#utility.yul\":7032:7226   */\n      swap3\n      swap2\n      pop\n      pop\n      jump\t// out\n        /* \"#utility.yul\":7232:7412   */\n    tag_339:\n        /* \"#utility.yul\":7280:7357   */\n      0x4e487b7100000000000000000000000000000000000000000000000000000000\n        /* \"#utility.yul\":7277:7278   */\n      0x00\n        /* \"#utility.yul\":7270:7358   */\n      mstore\n        /* \"#utility.yul\":7377:7381   */\n      0x12\n        /* \"#utility.yul\":7374:7375   */\n      0x04\n        /* \"#utility.yul\":7367:7382   */\n      mstore\n        /* \"#utility.yul\":7401:7405   */\n      0x24\n        /* \"#utility.yul\":7398:7399   */\n      0x00\n        /* \"#utility.yul\":7391:7406   */\n      revert\n        /* \"#utility.yul\":7418:7603   */\n    tag_147:\n        /* \"#utility.yul\":7458:7459   */\n      0x00\n        /* \"#utility.yul\":7475:7495   */\n      tag_444\n        /* \"#utility.yul\":7493:7494   */\n      dup3\n        /* \"#utility.yul\":7475:7495   */\n      tag_313\n      jump\t// in\n    tag_444:\n        /* \"#utility.yul\":7470:7495   */\n      swap2\n      pop\n        /* \"#utility.yul\":7509:7529   */\n      tag_445\n        /* \"#utility.yul\":7527:7528   */\n      dup4\n        /* \"#utility.yul\":7509:7529   */\n      tag_313\n      jump\t// in\n    tag_445:\n        /* \"#utility.yul\":7504:7529   */\n      swap3\n      pop\n        /* \"#utility.yul\":7548:7549   */\n      dup3\n        /* \"#utility.yul\":7538:7573   */\n      tag_446\n      jumpi\n        /* \"#utility.yul\":7553:7571   */\n      tag_447\n      tag_339\n      jump\t// in\n    tag_447:\n        /* \"#utility.yul\":7538:7573   */\n    tag_446:\n        /* \"#utility.yul\":7595:7596   */\n      dup3\n        /* \"#utility.yul\":7592:7593   */\n      dup3\n        /* \"#utility.yul\":7588:7597   */\n      div\n        /* \"#utility.yul\":7583:7597   */\n      swap1\n      pop\n        /* \"#utility.yul\":7418:7603   */\n      swap3\n      swap2\n      pop\n      pop\n      jump\t// out\n        /* \"#utility.yul\":7609:7789   */\n    tag_340:\n        /* \"#utility.yul\":7749:7781   */\n      0x4c6f616e206475726174696f6e20657863656564656420333020646179730000\n        /* \"#utility.yul\":7745:7746   */\n      0x00\n        /* \"#utility.yul\":7737:7743   */\n      dup3\n        /* \"#utility.yul\":7733:7747   */\n      add\n        /* \"#utility.yul\":7726:7782   */\n      mstore\n        /* \"#utility.yul\":7609:7789   */\n      pop\n      jump\t// out\n        /* \"#utility.yul\":7795:8161   */\n    tag_341:\n        /* \"#utility.yul\":7937:7940   */\n      0x00\n        /* \"#utility.yul\":7958:8025   */\n      tag_450\n        /* \"#utility.yul\":8022:8024   */\n      0x1e\n        /* \"#utility.yul\":8017:8020   */\n      dup4\n        /* \"#utility.yul\":7958:8025   */\n      tag_335\n      jump\t// in\n    tag_450:\n        /* \"#utility.yul\":7951:8025   */\n      swap2\n      pop\n        /* \"#utility.yul\":8034:8127   */\n      tag_451\n        /* \"#utility.yul\":8123:8126   */\n      dup3\n        /* \"#utility.yul\":8034:8127   */\n      tag_340\n      jump\t// in\n    tag_451:\n        /* \"#utility.yul\":8152:8154   */\n      0x20\n        /* \"#utility.yul\":8147:8150   */\n      dup3\n        /* \"#utility.yul\":8143:8155   */\n      add\n        /* \"#utility.yul\":8136:8155   */\n      swap1\n      pop\n        /* \"#utility.yul\":7795:8161   */\n      swap2\n      swap1\n      pop\n      jump\t// out\n        /* \"#utility.yul\":8167:8586   */\n    tag_150:\n        /* \"#utility.yul\":8333:8337   */\n      0x00\n        /* \"#utility.yul\":8371:8373   */\n      0x20\n        /* \"#utility.yul\":8360:8369   */\n      dup3\n        /* \"#utility.yul\":8356:8374   */\n      add\n        /* \"#utility.yul\":8348:8374   */\n      swap1\n      pop\n        /* \"#utility.yul\":8420:8429   */\n      dup2\n        /* \"#utility.yul\":8414:8418   */\n      dup2\n        /* \"#utility.yul\":8410:8430   */\n      sub\n        /* \"#utility.yul\":8406:8407   */\n      0x00\n        /* \"#utility.yul\":8395:8404   */\n      dup4\n        /* \"#utility.yul\":8391:8408   */\n      add\n        /* \"#utility.yul\":8384:8431   */\n      mstore\n        /* \"#utility.yul\":8448:8579   */\n      tag_453\n        /* \"#utility.yul\":8574:8578   */\n      dup2\n        /* \"#utility.yul\":8448:8579   */\n      tag_341\n      jump\t// in\n    tag_453:\n        /* \"#utility.yul\":8440:8579   */\n      swap1\n      pop\n        /* \"#utility.yul\":8167:8586   */\n      swap2\n      swap1\n      pop\n      jump\t// out\n        /* \"#utility.yul\":8592:9002   */\n    tag_152:\n        /* \"#utility.yul\":8632:8639   */\n      0x00\n        /* \"#utility.yul\":8655:8675   */\n      tag_455\n        /* \"#utility.yul\":8673:8674   */\n      dup3\n        /* \"#utility.yul\":8655:8675   */\n      tag_313\n      jump\t// in\n    tag_455:\n        /* \"#utility.yul\":8650:8675   */\n      swap2\n      pop\n        /* \"#utility.yul\":8689:8709   */\n      tag_456\n        /* \"#utility.yul\":8707:8708   */\n      dup4\n        /* \"#utility.yul\":8689:8709   */\n      tag_313\n      jump\t// in\n    tag_456:\n        /* \"#utility.yul\":8684:8709   */\n      swap3\n      pop\n        /* \"#utility.yul\":8744:8745   */\n      dup3\n        /* \"#utility.yul\":8741:8742   */\n      dup3\n        /* \"#utility.yul\":8737:8746   */\n      mul\n        /* \"#utility.yul\":8766:8796   */\n      tag_457\n        /* \"#utility.yul\":8784:8795   */\n      dup2\n        /* \"#utility.yul\":8766:8796   */\n      tag_313\n      jump\t// in\n    tag_457:\n        /* \"#utility.yul\":8755:8796   */\n      swap2\n      pop\n        /* \"#utility.yul\":8945:8946   */\n      dup3\n        /* \"#utility.yul\":8936:8943   */\n      dup3\n        /* \"#utility.yul\":8932:8947   */\n      div\n        /* \"#utility.yul\":8929:8930   */\n      dup5\n        /* \"#utility.yul\":8926:8948   */\n      eq\n        /* \"#utility.yul\":8906:8907   */\n      dup4\n        /* \"#utility.yul\":8899:8908   */\n      iszero\n        /* \"#utility.yul\":8879:8962   */\n      or\n        /* \"#utility.yul\":8856:8995   */\n      tag_458\n      jumpi\n        /* \"#utility.yul\":8975:8993   */\n      tag_459\n      tag_338\n      jump\t// in\n    tag_459:\n        /* \"#utility.yul\":8856:8995   */\n    tag_458:\n        /* \"#utility.yul\":8640:9002   */\n      pop\n        /* \"#utility.yul\":8592:9002   */\n      swap3\n      swap2\n      pop\n      pop\n      jump\t// out\n        /* \"#utility.yul\":9008:9199   */\n    tag_156:\n        /* \"#utility.yul\":9048:9051   */\n      0x00\n        /* \"#utility.yul\":9067:9087   */\n      tag_461\n        /* \"#utility.yul\":9085:9086   */\n      dup3\n        /* \"#utility.yul\":9067:9087   */\n      tag_313\n      jump\t// in\n    tag_461:\n        /* \"#utility.yul\":9062:9087   */\n      swap2\n      pop\n        /* \"#utility.yul\":9101:9121   */\n      tag_462\n        /* \"#utility.yul\":9119:9120   */\n      dup4\n        /* \"#utility.yul\":9101:9121   */\n      tag_313\n      jump\t// in\n    tag_462:\n        /* \"#utility.yul\":9096:9121   */\n      swap3\n      pop\n        /* \"#utility.yul\":9144:9145   */\n      dup3\n        /* \"#utility.yul\":9141:9142   */\n      dup3\n        /* \"#utility.yul\":9137:9146   */\n      add\n        /* \"#utility.yul\":9130:9146   */\n      swap1\n      pop\n        /* \"#utility.yul\":9165:9168   */\n      dup1\n        /* \"#utility.yul\":9162:9163   */\n      dup3\n        /* \"#utility.yul\":9159:9169   */\n      gt\n        /* \"#utility.yul\":9156:9192   */\n      iszero\n      tag_463\n      jumpi\n        /* \"#utility.yul\":9172:9190   */\n      tag_464\n      tag_338\n      jump\t// in\n    tag_464:\n        /* \"#utility.yul\":9156:9192   */\n    tag_463:\n        /* \"#utility.yul\":9008:9199   */\n      swap3\n      swap2\n      pop\n      pop\n      jump\t// out\n        /* \"#utility.yul\":9205:9537   */\n    tag_161:\n        /* \"#utility.yul\":9326:9330   */\n      0x00\n        /* \"#utility.yul\":9364:9366   */\n      0x40\n        /* \"#utility.yul\":9353:9362   */\n      dup3\n        /* \"#utility.yul\":9349:9367   */\n      add\n        /* \"#utility.yul\":9341:9367   */\n      swap1\n      pop\n        /* \"#utility.yul\":9377:9448   */\n      tag_466\n        /* \"#utility.yul\":9445:9446   */\n      0x00\n        /* \"#utility.yul\":9434:9443   */\n      dup4\n        /* \"#utility.yul\":9430:9447   */\n      add\n        /* \"#utility.yul\":9421:9427   */\n      dup6\n        /* \"#utility.yul\":9377:9448   */\n      tag_314\n      jump\t// in\n    tag_466:\n        /* \"#utility.yul\":9458:9530   */\n      tag_467\n        /* \"#utility.yul\":9526:9528   */\n      0x20\n        /* \"#utility.yul\":9515:9524   */\n      dup4\n        /* \"#utility.yul\":9511:9529   */\n      add\n        /* \"#utility.yul\":9502:9508   */\n      dup5\n        /* \"#utility.yul\":9458:9530   */\n      tag_314\n      jump\t// in\n    tag_467:\n        /* \"#utility.yul\":9205:9537   */\n      swap4\n      swap3\n      pop\n      pop\n      pop\n      jump\t// out\n        /* \"#utility.yul\":9543:9722   */\n    tag_342:\n        /* \"#utility.yul\":9683:9714   */\n      0x416d6f756e74206d7573742062652067726561746572207468616e2030000000\n        /* \"#utility.yul\":9679:9680   */\n      0x00\n        /* \"#utility.yul\":9671:9677   */\n      dup3\n        /* \"#utility.yul\":9667:9681   */\n      add\n        /* \"#utility.yul\":9660:9715   */\n      mstore\n        /* \"#utility.yul\":9543:9722   */\n      pop\n      jump\t// out\n        /* \"#utility.yul\":9728:10094   */\n    tag_343:\n        /* \"#utility.yul\":9870:9873   */\n      0x00\n        /* \"#utility.yul\":9891:9958   */\n      tag_470\n        /* \"#utility.yul\":9955:9957   */\n      0x1d\n        /* \"#utility.yul\":9950:9953   */\n      dup4\n        /* \"#utility.yul\":9891:9958   */\n      tag_335\n      jump\t// in\n    tag_470:\n        /* \"#utility.yul\":9884:9958   */\n      swap2\n      pop\n        /* \"#utility.yul\":9967:10060   */\n      tag_471\n        /* \"#utility.yul\":10056:10059   */\n      dup3\n        /* \"#utility.yul\":9967:10060   */\n      tag_342\n      jump\t// in\n    tag_471:\n        /* \"#utility.yul\":10085:10087   */\n      0x20\n        /* \"#utility.yul\":10080:10083   */\n      dup3\n        /* \"#utility.yul\":10076:10088   */\n      add\n        /* \"#utility.yul\":10069:10088   */\n      swap1\n      pop\n        /* \"#utility.yul\":9728:10094   */\n      swap2\n      swap1\n      pop\n      jump\t// out\n        /* \"#utility.yul\":10100:10519   */\n    tag_165:\n        /* \"#utility.yul\":10266:10270   */\n      0x00\n        /* \"#utility.yul\":10304:10306   */\n      0x20\n        /* \"#utility.yul\":10293:10302   */\n      dup3\n        /* \"#utility.yul\":10289:10307   */\n      add\n        /* \"#utility.yul\":10281:10307   */\n      swap1\n      pop\n        /* \"#utility.yul\":10353:10362   */\n      dup2\n        /* \"#utility.yul\":10347:10351   */\n      dup2\n        /* \"#utility.yul\":10343:10363   */\n      sub\n        /* \"#utility.yul\":10339:10340   */\n      0x00\n        /* \"#utility.yul\":10328:10337   */\n      dup4\n        /* \"#utility.yul\":10324:10341   */\n      add\n        /* \"#utility.yul\":10317:10364   */\n      mstore\n        /* \"#utility.yul\":10381:10512   */\n      tag_473\n        /* \"#utility.yul\":10507:10511   */\n      dup2\n        /* \"#utility.yul\":10381:10512   */\n      tag_343\n      jump\t// in\n    tag_473:\n        /* \"#utility.yul\":10373:10512   */\n      swap1\n      pop\n        /* \"#utility.yul\":10100:10519   */\n      swap2\n      swap1\n      pop\n      jump\t// out\n        /* \"#utility.yul\":10525:10698   */\n    tag_344:\n        /* \"#utility.yul\":10665:10690   */\n      0x496e73756666696369656e7420636f6c6c61746572616c000000000000000000\n        /* \"#utility.yul\":10661:10662   */\n      0x00\n        /* \"#utility.yul\":10653:10659   */\n      dup3\n        /* \"#utility.yul\":10649:10663   */\n      add\n        /* \"#utility.yul\":10642:10691   */\n      mstore\n        /* \"#utility.yul\":10525:10698   */\n      pop\n      jump\t// out\n        /* \"#utility.yul\":10704:11070   */\n    tag_345:\n        /* \"#utility.yul\":10846:10849   */\n      0x00\n        /* \"#utility.yul\":10867:10934   */\n      tag_476\n        /* \"#utility.yul\":10931:10933   */\n      0x17\n        /* \"#utility.yul\":10926:10929   */\n      dup4\n        /* \"#utility.yul\":10867:10934   */\n      tag_335\n      jump\t// in\n    tag_476:\n        /* \"#utility.yul\":10860:10934   */\n      swap2\n      pop\n        /* \"#utility.yul\":10943:11036   */\n      tag_477\n        /* \"#utility.yul\":11032:11035   */\n      dup3\n        /* \"#utility.yul\":10943:11036   */\n      tag_344\n      jump\t// in\n    tag_477:\n        /* \"#utility.yul\":11061:11063   */\n      0x20\n        /* \"#utility.yul\":11056:11059   */\n      dup3\n        /* \"#utility.yul\":11052:11064   */\n      add\n        /* \"#utility.yul\":11045:11064   */\n      swap1\n      pop\n        /* \"#utility.yul\":10704:11070   */\n      swap2\n      swap1\n      pop\n      jump\t// out\n        /* \"#utility.yul\":11076:11495   */\n    tag_168:\n        /* \"#utility.yul\":11242:11246   */\n      0x00\n        /* \"#utility.yul\":11280:11282   */\n      0x20\n        /* \"#utility.yul\":11269:11278   */\n      dup3\n        /* \"#utility.yul\":11265:11283   */\n      add\n        /* \"#utility.yul\":11257:11283   */\n      swap1\n      pop\n        /* \"#utility.yul\":11329:11338   */\n      dup2\n        /* \"#utility.yul\":11323:11327   */\n      dup2\n        /* \"#utility.yul\":11319:11339   */\n      sub\n        /* \"#utility.yul\":11315:11316   */\n      0x00\n        /* \"#utility.yul\":11304:11313   */\n      dup4\n        /* \"#utility.yul\":11300:11317   */\n      add\n        /* \"#utility.yul\":11293:11340   */\n      mstore\n        /* \"#utility.yul\":11357:11488   */\n      tag_479\n        /* \"#utility.yul\":11483:11487   */\n      dup2\n        /* \"#utility.yul\":11357:11488   */\n      tag_345\n      jump\t// in\n    tag_479:\n        /* \"#utility.yul\":11349:11488   */\n      swap1\n      pop\n        /* \"#utility.yul\":11076:11495   */\n      swap2\n      swap1\n      pop\n      jump\t// out\n        /* \"#utility.yul\":11501:11728   */\n    tag_346:\n        /* \"#utility.yul\":11641:11675   */\n      0x5769746864726177616c20776f756c6420756e646572636f6c6c61746572616c\n        /* \"#utility.yul\":11637:11638   */\n      0x00\n        /* \"#utility.yul\":11629:11635   */\n      dup3\n        /* \"#utility.yul\":11625:11639   */\n      add\n        /* \"#utility.yul\":11618:11676   */\n      mstore\n        /* \"#utility.yul\":11710:11720   */\n      0x697a65206c6f616e000000000000000000000000000000000000000000000000\n        /* \"#utility.yul\":11705:11707   */\n      0x20\n        /* \"#utility.yul\":11697:11703   */\n      dup3\n        /* \"#utility.yul\":11693:11708   */\n      add\n        /* \"#utility.yul\":11686:11721   */\n      mstore\n        /* \"#utility.yul\":11501:11728   */\n      pop\n      jump\t// out\n        /* \"#utility.yul\":11734:12100   */\n    tag_347:\n        /* \"#utility.yul\":11876:11879   */\n      0x00\n        /* \"#utility.yul\":11897:11964   */\n      tag_482\n        /* \"#utility.yul\":11961:11963   */\n      0x28\n        /* \"#utility.yul\":11956:11959   */\n      dup4\n        /* \"#utility.yul\":11897:11964   */\n      tag_335\n      jump\t// in\n    tag_482:\n        /* \"#utility.yul\":11890:11964   */\n      swap2\n      pop\n        /* \"#utility.yul\":11973:12066   */\n      tag_483\n        /* \"#utility.yul\":12062:12065   */\n      dup3\n        /* \"#utility.yul\":11973:12066   */\n      tag_346\n      jump\t// in\n    tag_483:\n        /* \"#utility.yul\":12091:12093   */\n      0x40\n        /* \"#utility.yul\":12086:12089   */\n      dup3\n        /* \"#utility.yul\":12082:12094   */\n      add\n        /* \"#utility.yul\":12075:12094   */\n      swap1\n      pop\n        /* \"#utility.yul\":11734:12100   */\n      swap2\n      swap1\n      pop\n      jump\t// out\n        /* \"#utility.yul\":12106:12525   */\n    tag_176:\n        /* \"#utility.yul\":12272:12276   */\n      0x00\n        /* \"#utility.yul\":12310:12312   */\n      0x20\n        /* \"#utility.yul\":12299:12308   */\n      dup3\n        /* \"#utility.yul\":12295:12313   */\n      add\n        /* \"#utility.yul\":12287:12313   */\n      swap1\n      pop\n        /* \"#utility.yul\":12359:12368   */\n      dup2\n        /* \"#utility.yul\":12353:12357   */\n      dup2\n        /* \"#utility.yul\":12349:12369   */\n      sub\n        /* \"#utility.yul\":12345:12346   */\n      0x00\n        /* \"#utility.yul\":12334:12343   */\n      dup4\n        /* \"#utility.yul\":12330:12347   */\n      add\n        /* \"#utility.yul\":12323:12370   */\n      mstore\n        /* \"#utility.yul\":12387:12518   */\n      tag_485\n        /* \"#utility.yul\":12513:12517   */\n      dup2\n        /* \"#utility.yul\":12387:12518   */\n      tag_347\n      jump\t// in\n    tag_485:\n        /* \"#utility.yul\":12379:12518   */\n      swap1\n      pop\n        /* \"#utility.yul\":12106:12525   */\n      swap2\n      swap1\n      pop\n      jump\t// out\n        /* \"#utility.yul\":12531:12701   */\n    tag_348:\n        /* \"#utility.yul\":12671:12693   */\n      0x496e73756666696369656e742062616c616e6365000000000000000000000000\n        /* \"#utility.yul\":12667:12668   */\n      0x00\n        /* \"#utility.yul\":12659:12665   */\n      dup3\n        /* \"#utility.yul\":12655:12669   */\n      add\n        /* \"#utility.yul\":12648:12694   */\n      mstore\n        /* \"#utility.yul\":12531:12701   */\n      pop\n      jump\t// out\n        /* \"#utility.yul\":12707:13073   */\n    tag_349:\n        /* \"#utility.yul\":12849:12852   */\n      0x00\n        /* \"#utility.yul\":12870:12937   */\n      tag_488\n        /* \"#utility.yul\":12934:12936   */\n      0x14\n        /* \"#utility.yul\":12929:12932   */\n      dup4\n        /* \"#utility.yul\":12870:12937   */\n      tag_335\n      jump\t// in\n    tag_488:\n        /* \"#utility.yul\":12863:12937   */\n      swap2\n      pop\n        /* \"#utility.yul\":12946:13039   */\n      tag_489\n        /* \"#utility.yul\":13035:13038   */\n      dup3\n        /* \"#utility.yul\":12946:13039   */\n      tag_348\n      jump\t// in\n    tag_489:\n        /* \"#utility.yul\":13064:13066   */\n      0x20\n        /* \"#utility.yul\":13059:13062   */\n      dup3\n        /* \"#utility.yul\":13055:13067   */\n      add\n        /* \"#utility.yul\":13048:13067   */\n      swap1\n      pop\n        /* \"#utility.yul\":12707:13073   */\n      swap2\n      swap1\n      pop\n      jump\t// out\n        /* \"#utility.yul\":13079:13498   */\n    tag_196:\n        /* \"#utility.yul\":13245:13249   */\n      0x00\n        /* \"#utility.yul\":13283:13285   */\n      0x20\n        /* \"#utility.yul\":13272:13281   */\n      dup3\n        /* \"#utility.yul\":13268:13286   */\n      add\n        /* \"#utility.yul\":13260:13286   */\n      swap1\n      pop\n        /* \"#utility.yul\":13332:13341   */\n      dup2\n        /* \"#utility.yul\":13326:13330   */\n      dup2\n        /* \"#utility.yul\":13322:13342   */\n      sub\n        /* \"#utility.yul\":13318:13319   */\n      0x00\n        /* \"#utility.yul\":13307:13316   */\n      dup4\n        /* \"#utility.yul\":13303:13320   */\n      add\n        /* \"#utility.yul\":13296:13343   */\n      mstore\n        /* \"#utility.yul\":13360:13491   */\n      tag_491\n        /* \"#utility.yul\":13486:13490   */\n      dup2\n        /* \"#utility.yul\":13360:13491   */\n      tag_349\n      jump\t// in\n    tag_491:\n        /* \"#utility.yul\":13352:13491   */\n      swap1\n      pop\n        /* \"#utility.yul\":13079:13498   */\n      swap2\n      swap1\n      pop\n      jump\t// out\n        /* \"#utility.yul\":13504:13725   */\n    tag_350:\n        /* \"#utility.yul\":13644:13678   */\n      0x4578697374696e67206c6f616e206d7573742062652072657061696420666972\n        /* \"#utility.yul\":13640:13641   */\n      0x00\n        /* \"#utility.yul\":13632:13638   */\n      dup3\n        /* \"#utility.yul\":13628:13642   */\n      add\n        /* \"#utility.yul\":13621:13679   */\n      mstore\n        /* \"#utility.yul\":13713:13717   */\n      0x7374000000000000000000000000000000000000000000000000000000000000\n        /* \"#utility.yul\":13708:13710   */\n      0x20\n        /* \"#utility.yul\":13700:13706   */\n      dup3\n        /* \"#utility.yul\":13696:13711   */\n      add\n        /* \"#utility.yul\":13689:13718   */\n      mstore\n        /* \"#utility.yul\":13504:13725   */\n      pop\n      jump\t// out\n        /* \"#utility.yul\":13731:14097   */\n    tag_351:\n        /* \"#utility.yul\":13873:13876   */\n      0x00\n        /* \"#utility.yul\":13894:13961   */\n      tag_494\n        /* \"#utility.yul\":13958:13960   */\n      0x22\n        /* \"#utility.yul\":13953:13956   */\n      dup4\n        /* \"#utility.yul\":13894:13961   */\n      tag_335\n      jump\t// in\n    tag_494:\n        /* \"#utility.yul\":13887:13961   */\n      swap2\n      pop\n        /* \"#utility.yul\":13970:14063   */\n      tag_495\n        /* \"#utility.yul\":14059:14062   */\n      dup3\n        /* \"#utility.yul\":13970:14063   */\n      tag_350\n      jump\t// in\n    tag_495:\n        /* \"#utility.yul\":14088:14090   */\n      0x40\n        /* \"#utility.yul\":14083:14086   */\n      dup3\n        /* \"#utility.yul\":14079:14091   */\n      add\n        /* \"#utility.yul\":14072:14091   */\n      swap1\n      pop\n        /* \"#utility.yul\":13731:14097   */\n      swap2\n      swap1\n      pop\n      jump\t// out\n        /* \"#utility.yul\":14103:14522   */\n    tag_221:\n        /* \"#utility.yul\":14269:14273   */\n      0x00\n        /* \"#utility.yul\":14307:14309   */\n      0x20\n        /* \"#utility.yul\":14296:14305   */\n      dup3\n        /* \"#utility.yul\":14292:14310   */\n      add\n        /* \"#utility.yul\":14284:14310   */\n      swap1\n      pop\n        /* \"#utility.yul\":14356:14365   */\n      dup2\n        /* \"#utility.yul\":14350:14354   */\n      dup2\n        /* \"#utility.yul\":14346:14366   */\n      sub\n        /* \"#utility.yul\":14342:14343   */\n      0x00\n        /* \"#utility.yul\":14331:14340   */\n      dup4\n        /* \"#utility.yul\":14327:14344   */\n      add\n        /* \"#utility.yul\":14320:14367   */\n      mstore\n        /* \"#utility.yul\":14384:14515   */\n      tag_497\n        /* \"#utility.yul\":14510:14514   */\n      dup2\n        /* \"#utility.yul\":14384:14515   */\n      tag_351\n      jump\t// in\n    tag_497:\n        /* \"#utility.yul\":14376:14515   */\n      swap1\n      pop\n        /* \"#utility.yul\":14103:14522   */\n      swap2\n      swap1\n      pop\n      jump\t// out\n        /* \"#utility.yul\":14528:14705   */\n    tag_352:\n        /* \"#utility.yul\":14668:14697   */\n      0x426f72726f7720616d6f756e742065786365656473206c696d69740000000000\n        /* \"#utility.yul\":14664:14665   */\n      0x00\n        /* \"#utility.yul\":14656:14662   */\n      dup3\n        /* \"#utility.yul\":14652:14666   */\n      add\n        /* \"#utility.yul\":14645:14698   */\n      mstore\n        /* \"#utility.yul\":14528:14705   */\n      pop\n      jump\t// out\n        /* \"#utility.yul\":14711:15077   */\n    tag_353:\n        /* \"#utility.yul\":14853:14856   */\n      0x00\n        /* \"#utility.yul\":14874:14941   */\n      tag_500\n        /* \"#utility.yul\":14938:14940   */\n      0x1b\n        /* \"#utility.yul\":14933:14936   */\n      dup4\n        /* \"#utility.yul\":14874:14941   */\n      tag_335\n      jump\t// in\n    tag_500:\n        /* \"#utility.yul\":14867:14941   */\n      swap2\n      pop\n        /* \"#utility.yul\":14950:15043   */\n      tag_501\n        /* \"#utility.yul\":15039:15042   */\n      dup3\n        /* \"#utility.yul\":14950:15043   */\n      tag_352\n      jump\t// in\n    tag_501:\n        /* \"#utility.yul\":15068:15070   */\n      0x20\n        /* \"#utility.yul\":15063:15066   */\n      dup3\n        /* \"#utility.yul\":15059:15071   */\n      add\n        /* \"#utility.yul\":15052:15071   */\n      swap1\n      pop\n        /* \"#utility.yul\":14711:15077   */\n      swap2\n      swap1\n      pop\n      jump\t// out\n        /* \"#utility.yul\":15083:15502   */\n    tag_230:\n        /* \"#utility.yul\":15249:15253   */\n      0x00\n        /* \"#utility.yul\":15287:15289   */\n      0x20\n        /* \"#utility.yul\":15276:15285   */\n      dup3\n        /* \"#utility.yul\":15272:15290   */\n      add\n        /* \"#utility.yul\":15264:15290   */\n      swap1\n      pop\n        /* \"#utility.yul\":15336:15345   */\n      dup2\n        /* \"#utility.yul\":15330:15334   */\n      dup2\n        /* \"#utility.yul\":15326:15346   */\n      sub\n        /* \"#utility.yul\":15322:15323   */\n      0x00\n        /* \"#utility.yul\":15311:15320   */\n      dup4\n        /* \"#utility.yul\":15307:15324   */\n      add\n        /* \"#utility.yul\":15300:15347   */\n      mstore\n        /* \"#utility.yul\":15364:15495   */\n      tag_503\n        /* \"#utility.yul\":15490:15494   */\n      dup2\n        /* \"#utility.yul\":15364:15495   */\n      tag_353\n      jump\t// in\n    tag_503:\n        /* \"#utility.yul\":15356:15495   */\n      swap1\n      pop\n        /* \"#utility.yul\":15083:15502   */\n      swap2\n      swap1\n      pop\n      jump\t// out\n        /* \"#utility.yul\":15508:15651   */\n    tag_354:\n        /* \"#utility.yul\":15565:15570   */\n      0x00\n        /* \"#utility.yul\":15596:15602   */\n      dup2\n        /* \"#utility.yul\":15590:15603   */\n      mload\n        /* \"#utility.yul\":15581:15603   */\n      swap1\n      pop\n        /* \"#utility.yul\":15612:15645   */\n      tag_505\n        /* \"#utility.yul\":15639:15644   */\n      dup2\n        /* \"#utility.yul\":15612:15645   */\n      tag_327\n      jump\t// in\n    tag_505:\n        /* \"#utility.yul\":15508:15651   */\n      swap3\n      swap2\n      pop\n      pop\n      jump\t// out\n        /* \"#utility.yul\":15657:16008   */\n    tag_235:\n        /* \"#utility.yul\":15727:15733   */\n      0x00\n        /* \"#utility.yul\":15776:15778   */\n      0x20\n        /* \"#utility.yul\":15764:15773   */\n      dup3\n        /* \"#utility.yul\":15755:15762   */\n      dup5\n        /* \"#utility.yul\":15751:15774   */\n      sub\n        /* \"#utility.yul\":15747:15779   */\n      slt\n        /* \"#utility.yul\":15744:15863   */\n      iszero\n      tag_507\n      jumpi\n        /* \"#utility.yul\":15782:15861   */\n      tag_508\n      tag_316\n      jump\t// in\n    tag_508:\n        /* \"#utility.yul\":15744:15863   */\n    tag_507:\n        /* \"#utility.yul\":15902:15903   */\n      0x00\n        /* \"#utility.yul\":15927:15991   */\n      tag_509\n        /* \"#utility.yul\":15983:15990   */\n      dup5\n        /* \"#utility.yul\":15974:15980   */\n      dup3\n        /* \"#utility.yul\":15963:15972   */\n      dup6\n        /* \"#utility.yul\":15959:15981   */\n      add\n        /* \"#utility.yul\":15927:15991   */\n      tag_354\n      jump\t// in\n    tag_509:\n        /* \"#utility.yul\":15917:15991   */\n      swap2\n      pop\n        /* \"#utility.yul\":15873:16001   */\n      pop\n        /* \"#utility.yul\":15657:16008   */\n      swap3\n      swap2\n      pop\n      pop\n      jump\t// out\n        /* \"#utility.yul\":16014:16192   */\n    tag_355:\n        /* \"#utility.yul\":16154:16184   */\n      0x496e73756666696369656e742042544320696e20636f6e747261637400000000\n        /* \"#utility.yul\":16150:16151   */\n      0x00\n        /* \"#utility.yul\":16142:16148   */\n      dup3\n        /* \"#utility.yul\":16138:16152   */\n      add\n        /* \"#utility.yul\":16131:16185   */\n      mstore\n        /* \"#utility.yul\":16014:16192   */\n      pop\n      jump\t// out\n        /* \"#utility.yul\":16198:16564   */\n    tag_356:\n        /* \"#utility.yul\":16340:16343   */\n      0x00\n        /* \"#utility.yul\":16361:16428   */\n      tag_512\n        /* \"#utility.yul\":16425:16427   */\n      0x1c\n        /* \"#utility.yul\":16420:16423   */\n      dup4\n        /* \"#utility.yul\":16361:16428   */\n      tag_335\n      jump\t// in\n    tag_512:\n        /* \"#utility.yul\":16354:16428   */\n      swap2\n      pop\n        /* \"#utility.yul\":16437:16530   */\n      tag_513\n        /* \"#utility.yul\":16526:16529   */\n      dup3\n        /* \"#utility.yul\":16437:16530   */\n      tag_355\n      jump\t// in\n    tag_513:\n        /* \"#utility.yul\":16555:16557   */\n      0x20\n        /* \"#utility.yul\":16550:16553   */\n      dup3\n        /* \"#utility.yul\":16546:16558   */\n      add\n        /* \"#utility.yul\":16539:16558   */\n      swap1\n      pop\n        /* \"#utility.yul\":16198:16564   */\n      swap2\n      swap1\n      pop\n      jump\t// out\n        /* \"#utility.yul\":16570:16989   */\n    tag_238:\n        /* \"#utility.yul\":16736:16740   */\n      0x00\n        /* \"#utility.yul\":16774:16776   */\n      0x20\n        /* \"#utility.yul\":16763:16772   */\n      dup3\n        /* \"#utility.yul\":16759:16777   */\n      add\n        /* \"#utility.yul\":16751:16777   */\n      swap1\n      pop\n        /* \"#utility.yul\":16823:16832   */\n      dup2\n        /* \"#utility.yul\":16817:16821   */\n      dup2\n        /* \"#utility.yul\":16813:16833   */\n      sub\n        /* \"#utility.yul\":16809:16810   */\n      0x00\n        /* \"#utility.yul\":16798:16807   */\n      dup4\n        /* \"#utility.yul\":16794:16811   */\n      add\n        /* \"#utility.yul\":16787:16834   */\n      mstore\n        /* \"#utility.yul\":16851:16982   */\n      tag_515\n        /* \"#utility.yul\":16977:16981   */\n      dup2\n        /* \"#utility.yul\":16851:16982   */\n      tag_356\n      jump\t// in\n    tag_515:\n        /* \"#utility.yul\":16843:16982   */\n      swap1\n      pop\n        /* \"#utility.yul\":16570:16989   */\n      swap2\n      swap1\n      pop\n      jump\t// out\n        /* \"#utility.yul\":16995:17437   */\n    tag_266:\n        /* \"#utility.yul\":17144:17148   */\n      0x00\n        /* \"#utility.yul\":17182:17184   */\n      0x60\n        /* \"#utility.yul\":17171:17180   */\n      dup3\n        /* \"#utility.yul\":17167:17185   */\n      add\n        /* \"#utility.yul\":17159:17185   */\n      swap1\n      pop\n        /* \"#utility.yul\":17195:17266   */\n      tag_517\n        /* \"#utility.yul\":17263:17264   */\n      0x00\n        /* \"#utility.yul\":17252:17261   */\n      dup4\n        /* \"#utility.yul\":17248:17265   */\n      add\n        /* \"#utility.yul\":17239:17245   */\n      dup7\n        /* \"#utility.yul\":17195:17266   */\n      tag_331\n      jump\t// in\n    tag_517:\n        /* \"#utility.yul\":17276:17348   */\n      tag_518\n        /* \"#utility.yul\":17344:17346   */\n      0x20\n        /* \"#utility.yul\":17333:17342   */\n      dup4\n        /* \"#utility.yul\":17329:17347   */\n      add\n        /* \"#utility.yul\":17320:17326   */\n      dup6\n        /* \"#utility.yul\":17276:17348   */\n      tag_331\n      jump\t// in\n    tag_518:\n        /* \"#utility.yul\":17358:17430   */\n      tag_519\n        /* \"#utility.yul\":17426:17428   */\n      0x40\n        /* \"#utility.yul\":17415:17424   */\n      dup4\n        /* \"#utility.yul\":17411:17429   */\n      add\n        /* \"#utility.yul\":17402:17408   */\n      dup5\n        /* \"#utility.yul\":17358:17430   */\n      tag_314\n      jump\t// in\n    tag_519:\n        /* \"#utility.yul\":16995:17437   */\n      swap5\n      swap4\n      pop\n      pop\n      pop\n      pop\n      jump\t// out\n        /* \"#utility.yul\":17443:17775   */\n    tag_271:\n        /* \"#utility.yul\":17564:17568   */\n      0x00\n        /* \"#utility.yul\":17602:17604   */\n      0x40\n        /* \"#utility.yul\":17591:17600   */\n      dup3\n        /* \"#utility.yul\":17587:17605   */\n      add\n        /* \"#utility.yul\":17579:17605   */\n      swap1\n      pop\n        /* \"#utility.yul\":17615:17686   */\n      tag_521\n        /* \"#utility.yul\":17683:17684   */\n      0x00\n        /* \"#utility.yul\":17672:17681   */\n      dup4\n        /* \"#utility.yul\":17668:17685   */\n      add\n        /* \"#utility.yul\":17659:17665   */\n      dup6\n        /* \"#utility.yul\":17615:17686   */\n      tag_331\n      jump\t// in\n    tag_521:\n        /* \"#utility.yul\":17696:17768   */\n      tag_522\n        /* \"#utility.yul\":17764:17766   */\n      0x20\n        /* \"#utility.yul\":17753:17762   */\n      dup4\n        /* \"#utility.yul\":17749:17767   */\n      add\n        /* \"#utility.yul\":17740:17746   */\n      dup5\n        /* \"#utility.yul\":17696:17768   */\n      tag_314\n      jump\t// in\n    tag_522:\n        /* \"#utility.yul\":17443:17775   */\n      swap4\n      swap3\n      pop\n      pop\n      pop\n      jump\t// out\n        /* \"#utility.yul\":17781:17897   */\n    tag_357:\n        /* \"#utility.yul\":17851:17872   */\n      tag_524\n        /* \"#utility.yul\":17866:17871   */\n      dup2\n        /* \"#utility.yul\":17851:17872   */\n      tag_329\n      jump\t// in\n    tag_524:\n        /* \"#utility.yul\":17844:17849   */\n      dup2\n        /* \"#utility.yul\":17841:17873   */\n      eq\n        /* \"#utility.yul\":17831:17891   */\n      tag_525\n      jumpi\n        /* \"#utility.yul\":17887:17888   */\n      0x00\n        /* \"#utility.yul\":17884:17885   */\n      dup1\n        /* \"#utility.yul\":17877:17889   */\n      revert\n        /* \"#utility.yul\":17831:17891   */\n    tag_525:\n        /* \"#utility.yul\":17781:17897   */\n      pop\n      jump\t// out\n        /* \"#utility.yul\":17903:18040   */\n    tag_358:\n        /* \"#utility.yul\":17957:17962   */\n      0x00\n        /* \"#utility.yul\":17988:17994   */\n      dup2\n        /* \"#utility.yul\":17982:17995   */\n      mload\n        /* \"#utility.yul\":17973:17995   */\n      swap1\n      pop\n        /* \"#utility.yul\":18004:18034   */\n      tag_527\n        /* \"#utility.yul\":18028:18033   */\n      dup2\n        /* \"#utility.yul\":18004:18034   */\n      tag_357\n      jump\t// in\n    tag_527:\n        /* \"#utility.yul\":17903:18040   */\n      swap3\n      swap2\n      pop\n      pop\n      jump\t// out\n        /* \"#utility.yul\":18046:18391   */\n    tag_285:\n        /* \"#utility.yul\":18113:18119   */\n      0x00\n        /* \"#utility.yul\":18162:18164   */\n      0x20\n        /* \"#utility.yul\":18150:18159   */\n      dup3\n        /* \"#utility.yul\":18141:18148   */\n      dup5\n        /* \"#utility.yul\":18137:18160   */\n      sub\n        /* \"#utility.yul\":18133:18165   */\n      slt\n        /* \"#utility.yul\":18130:18249   */\n      iszero\n      tag_529\n      jumpi\n        /* \"#utility.yul\":18168:18247   */\n      tag_530\n      tag_316\n      jump\t// in\n    tag_530:\n        /* \"#utility.yul\":18130:18249   */\n    tag_529:\n        /* \"#utility.yul\":18288:18289   */\n      0x00\n        /* \"#utility.yul\":18313:18374   */\n      tag_531\n        /* \"#utility.yul\":18366:18373   */\n      dup5\n        /* \"#utility.yul\":18357:18363   */\n      dup3\n        /* \"#utility.yul\":18346:18355   */\n      dup6\n        /* \"#utility.yul\":18342:18364   */\n      add\n        /* \"#utility.yul\":18313:18374   */\n      tag_358\n      jump\t// in\n    tag_531:\n        /* \"#utility.yul\":18303:18374   */\n      swap2\n      pop\n        /* \"#utility.yul\":18259:18384   */\n      pop\n        /* \"#utility.yul\":18046:18391   */\n      swap3\n      swap2\n      pop\n      pop\n      jump\t// out\n        /* \"#utility.yul\":18397:18495   */\n    tag_359:\n        /* \"#utility.yul\":18448:18454   */\n      0x00\n        /* \"#utility.yul\":18482:18487   */\n      dup2\n        /* \"#utility.yul\":18476:18488   */\n      mload\n        /* \"#utility.yul\":18466:18488   */\n      swap1\n      pop\n        /* \"#utility.yul\":18397:18495   */\n      swap2\n      swap1\n      pop\n      jump\t// out\n        /* \"#utility.yul\":18501:18648   */\n    tag_360:\n        /* \"#utility.yul\":18602:18613   */\n      0x00\n        /* \"#utility.yul\":18639:18642   */\n      dup2\n        /* \"#utility.yul\":18624:18642   */\n      swap1\n      pop\n        /* \"#utility.yul\":18501:18648   */\n      swap3\n      swap2\n      pop\n      pop\n      jump\t// out\n        /* \"#utility.yul\":18654:18902   */\n    tag_361:\n        /* \"#utility.yul\":18736:18737   */\n      0x00\n        /* \"#utility.yul\":18746:18859   */\n    tag_535:\n        /* \"#utility.yul\":18760:18766   */\n      dup4\n        /* \"#utility.yul\":18757:18758   */\n      dup2\n        /* \"#utility.yul\":18754:18767   */\n      lt\n        /* \"#utility.yul\":18746:18859   */\n      iszero\n      tag_537\n      jumpi\n        /* \"#utility.yul\":18845:18846   */\n      dup1\n        /* \"#utility.yul\":18840:18843   */\n      dup3\n        /* \"#utility.yul\":18836:18847   */\n      add\n        /* \"#utility.yul\":18830:18848   */\n      mload\n        /* \"#utility.yul\":18826:18827   */\n      dup2\n        /* \"#utility.yul\":18821:18824   */\n      dup5\n        /* \"#utility.yul\":18817:18828   */\n      add\n        /* \"#utility.yul\":18810:18849   */\n      mstore\n        /* \"#utility.yul\":18782:18784   */\n      0x20\n        /* \"#utility.yul\":18779:18780   */\n      dup2\n        /* \"#utility.yul\":18775:18785   */\n      add\n        /* \"#utility.yul\":18770:18785   */\n      swap1\n      pop\n        /* \"#utility.yul\":18746:18859   */\n      jump(tag_535)\n    tag_537:\n        /* \"#utility.yul\":18893:18894   */\n      0x00\n        /* \"#utility.yul\":18884:18890   */\n      dup5\n        /* \"#utility.yul\":18879:18882   */\n      dup5\n        /* \"#utility.yul\":18875:18891   */\n      add\n        /* \"#utility.yul\":18868:18895   */\n      mstore\n        /* \"#utility.yul\":18716:18902   */\n      pop\n        /* \"#utility.yul\":18654:18902   */\n      pop\n      pop\n      pop\n      jump\t// out\n        /* \"#utility.yul\":18908:19294   */\n    tag_362:\n        /* \"#utility.yul\":19012:19015   */\n      0x00\n        /* \"#utility.yul\":19040:19078   */\n      tag_539\n        /* \"#utility.yul\":19072:19077   */\n      dup3\n        /* \"#utility.yul\":19040:19078   */\n      tag_359\n      jump\t// in\n    tag_539:\n        /* \"#utility.yul\":19094:19182   */\n      tag_540\n        /* \"#utility.yul\":19175:19181   */\n      dup2\n        /* \"#utility.yul\":19170:19173   */\n      dup6\n        /* \"#utility.yul\":19094:19182   */\n      tag_360\n      jump\t// in\n    tag_540:\n        /* \"#utility.yul\":19087:19182   */\n      swap4\n      pop\n        /* \"#utility.yul\":19191:19256   */\n      tag_541\n        /* \"#utility.yul\":19249:19255   */\n      dup2\n        /* \"#utility.yul\":19244:19247   */\n      dup6\n        /* \"#utility.yul\":19237:19241   */\n      0x20\n        /* \"#utility.yul\":19230:19235   */\n      dup7\n        /* \"#utility.yul\":19226:19242   */\n      add\n        /* \"#utility.yul\":19191:19256   */\n      tag_361\n      jump\t// in\n    tag_541:\n        /* \"#utility.yul\":19281:19287   */\n      dup1\n        /* \"#utility.yul\":19276:19279   */\n      dup5\n        /* \"#utility.yul\":19272:19288   */\n      add\n        /* \"#utility.yul\":19265:19288   */\n      swap2\n      pop\n        /* \"#utility.yul\":19016:19294   */\n      pop\n        /* \"#utility.yul\":18908:19294   */\n      swap3\n      swap2\n      pop\n      pop\n      jump\t// out\n        /* \"#utility.yul\":19300:19571   */\n    tag_296:\n        /* \"#utility.yul\":19430:19433   */\n      0x00\n        /* \"#utility.yul\":19452:19545   */\n      tag_543\n        /* \"#utility.yul\":19541:19544   */\n      dup3\n        /* \"#utility.yul\":19532:19538   */\n      dup5\n        /* \"#utility.yul\":19452:19545   */\n      tag_362\n      jump\t// in\n    tag_543:\n        /* \"#utility.yul\":19445:19545   */\n      swap2\n      pop\n        /* \"#utility.yul\":19562:19565   */\n      dup2\n        /* \"#utility.yul\":19555:19565   */\n      swap1\n      pop\n        /* \"#utility.yul\":19300:19571   */\n      swap3\n      swap2\n      pop\n      pop\n      jump\t// out\n\n    auxdata: 0xa26469706673582212205727f18691e4eec948595c84a9e106ca36f54798dfa6d564e0ea40331243351d64736f6c634300081a0033\n}\n",
				"bytecode": {
					"linkReferences": {},
					"object": "60c06040526000600155600060025534801561001a57600080fd5b50604051612afa380380612afa833981810160405281019061003c91906102fe565b33600073ffffffffffffffffffffffffffffffffffffffff168173ffffffffffffffffffffffffffffffffffffffff16036100af5760006040517f1e4fbdf70000000000000000000000000000000000000000000000000000000081526004016100a6919061034d565b60405180910390fd5b6100be816101d760201b60201c565b50600073ffffffffffffffffffffffffffffffffffffffff168273ffffffffffffffffffffffffffffffffffffffff16141580156101295750600073ffffffffffffffffffffffffffffffffffffffff168173ffffffffffffffffffffffffffffffffffffffff1614155b610168576040517f08c379a000000000000000000000000000000000000000000000000000000000815260040161015f906103c5565b60405180910390fd5b8173ffffffffffffffffffffffffffffffffffffffff1660808173ffffffffffffffffffffffffffffffffffffffff16815250508073ffffffffffffffffffffffffffffffffffffffff1660a08173ffffffffffffffffffffffffffffffffffffffff168152505050506103e5565b60008060009054906101000a900473ffffffffffffffffffffffffffffffffffffffff169050816000806101000a81548173ffffffffffffffffffffffffffffffffffffffff021916908373ffffffffffffffffffffffffffffffffffffffff1602179055508173ffffffffffffffffffffffffffffffffffffffff168173ffffffffffffffffffffffffffffffffffffffff167f8be0079c531659141344cd1fd0a4f28419497f9722a3daafe3b4186f6b6457e060405160405180910390a35050565b600080fd5b600073ffffffffffffffffffffffffffffffffffffffff82169050919050565b60006102cb826102a0565b9050919050565b6102db816102c0565b81146102e657600080fd5b50565b6000815190506102f8816102d2565b92915050565b600080604083850312156103155761031461029b565b5b6000610323858286016102e9565b9250506020610334858286016102e9565b9150509250929050565b610347816102c0565b82525050565b6000602082019050610362600083018461033e565b92915050565b600082825260208201905092915050565b7f496e76616c696420746f6b656e20616464726573736573000000000000000000600082015250565b60006103af601783610368565b91506103ba82610379565b602082019050919050565b600060208201905081810360008301526103de816103a2565b9050919050565b60805160a0516126bf61043b600039600081816106fd015281816107f801528181610d3b01528181610e330152818161130f01526114930152600081816107d401528181610a8e0152610fc601526126bf6000f3fe608060405234801561001057600080fd5b50600436106101c45760003560e01c8063a6b6d798116100f9578063e02a4dfd11610097578063e8a7da8e11610071578063e8a7da8e1461050c578063f2fde38b1461053c578063f4925de514610558578063f69f1e4a14610576576101c4565b8063e02a4dfd1461048e578063e11932cf146104ac578063e86ef40b146104dc576101c4565b8063bd09085a116100d3578063bd09085a146103f4578063d1a4056414610424578063d9e69a0514610440578063dac3fc3f1461045e576101c4565b8063a6b6d7981461038c578063b6f7132f146103a8578063bad4a01f146103d8576101c4565b8063691d1eb31161016657806373b4086b1161014057806373b4086b146102ef5780638da5cb5b1461032257806390b4588b14610340578063a27a944d1461035c576101c4565b8063691d1eb3146102975780636e35f124146102c7578063715018a6146102e5576101c4565b80631bf6c21b116101a25780631bf6c21b146102215780632792949d1461023f5780635b72a33a1461025d5780636112fe2e1461027b576101c4565b80630307c4a1146101c95780630917e776146101e7578063190ef1e614610205575b600080fd5b6101d16105a6565b6040516101de9190611ce5565b60405180910390f35b6101ef6105b0565b6040516101fc9190611ce5565b60405180910390f35b61021f600480360381019061021a9190611d63565b6105ba565b005b6102296107d2565b6040516102369190611def565b60405180910390f35b6102476107f6565b6040516102549190611def565b60405180910390f35b61026561081a565b6040516102729190611ce5565b60405180910390f35b61029560048036038101906102909190611e36565b61081f565b005b6102b160048036038101906102ac9190611d63565b610b25565b6040516102be9190611ce5565b60405180910390f35b6102cf610b86565b6040516102dc9190611ce5565b60405180910390f35b6102ed610b8b565b005b61030960048036038101906103049190611d63565b610b9f565b6040516103199493929190611e7e565b60405180910390f35b61032a610bdc565b6040516103379190611ed2565b60405180910390f35b61035a60048036038101906103559190611e36565b610c05565b005b61037660048036038101906103719190611d63565b610dd0565b6040516103839190611ce5565b60405180910390f35b6103a660048036038101906103a19190611e36565b610de8565b005b6103c260048036038101906103bd9190611d63565b610f32565b6040516103cf9190611ce5565b60405180910390f35b6103f260048036038101906103ed9190611e36565b610f7b565b005b61040e60048036038101906104099190611d63565b6110b2565b60405161041b9190611ce5565b60405180910390f35b61043e60048036038101906104399190611e36565b6110fb565b005b61044861153f565b6040516104559190611ce5565b60405180910390f35b61047860048036038101906104739190611d63565b611544565b6040516104859190611ce5565b60405180910390f35b61049661158d565b6040516104a39190611ce5565b60405180910390f35b6104c660048036038101906104c19190611d63565b611594565b6040516104d39190611ce5565b60405180910390f35b6104f660048036038101906104f19190611d63565b611654565b6040516105039190611ce5565b60405180910390f35b61052660048036038101906105219190611d63565b6116c7565b6040516105339190611f60565b60405180910390f35b61055660048036038101906105519190611d63565b611759565b005b6105606117df565b60405161056d9190611ce5565b60405180910390f35b610590600480360381019061058b9190611d63565b6117e8565b60405161059d9190611ce5565b60405180910390f35b6000600254905090565b6000600154905090565b6000600360008373ffffffffffffffffffffffffffffffffffffffff1673ffffffffffffffffffffffffffffffffffffffff16815260200190815260200160002090508060030160009054906101000a900460ff1661064e576040517f08c379a000000000000000000000000000000000000000000000000000000000815260040161064590611fd8565b60405180910390fd5b6000620151808260020154426106649190612027565b61066e919061208a565b9050601e8111156106b4576040517f08c379a00000000000000000000000000000000000000000000000000000000081526004016106ab90612107565b60405180910390fd5b6000618e9482600585600001546106cb9190612127565b6106d59190612127565b6106df919061208a565b905060008184600001546106f39190612169565b90506107428530837f000000000000000000000000000000000000000000000000000000000000000073ffffffffffffffffffffffffffffffffffffffff16611800909392919063ffffffff16565b60008460030160006101000a81548160ff02191690831515021790555083600001546002546107719190612027565b6002819055503373ffffffffffffffffffffffffffffffffffffffff167fc7ce0a35f17b490de2a317e7fecb2cae86b1abffb03800b2f4928235213826988560000154846040516107c392919061219d565b60405180910390a25050505050565b7f000000000000000000000000000000000000000000000000000000000000000081565b7f000000000000000000000000000000000000000000000000000000000000000081565b600581565b60008111610862576040517f08c379a000000000000000000000000000000000000000000000000000000000815260040161085990612212565b60405180910390fd5b80600460003373ffffffffffffffffffffffffffffffffffffffff1673ffffffffffffffffffffffffffffffffffffffff1681526020019081526020016000205410156108e4576040517f08c379a00000000000000000000000000000000000000000000000000000000081526004016108db9061227e565b60405180910390fd5b6000600360003373ffffffffffffffffffffffffffffffffffffffff1673ffffffffffffffffffffffffffffffffffffffff16815260200190815260200160002060030160009054906101000a900460ff16610941576000610985565b600360003373ffffffffffffffffffffffffffffffffffffffff1673ffffffffffffffffffffffffffffffffffffffff168152602001908152602001600020600001545b9050600060646096836109989190612127565b6109a2919061208a565b90508083600460003373ffffffffffffffffffffffffffffffffffffffff1673ffffffffffffffffffffffffffffffffffffffff168152602001908152602001600020546109f09190612027565b1015610a31576040517f08c379a0000000000000000000000000000000000000000000000000000000008152600401610a2890612310565b60405180910390fd5b82600460003373ffffffffffffffffffffffffffffffffffffffff1673ffffffffffffffffffffffffffffffffffffffff1681526020019081526020016000206000828254610a809190612027565b92505081905550610ad233847f000000000000000000000000000000000000000000000000000000000000000073ffffffffffffffffffffffffffffffffffffffff166118829092919063ffffffff16565b3373ffffffffffffffffffffffffffffffffffffffff167fc30fcfbcaac9e0deffa719714eaa82396ff506a0d0d0eebe170830177288715d84604051610b189190611ce5565b60405180910390a2505050565b600060646050600460008573ffffffffffffffffffffffffffffffffffffffff1673ffffffffffffffffffffffffffffffffffffffff16815260200190815260200160002054610b759190612127565b610b7f919061208a565b9050919050565b605081565b610b93611901565b610b9d6000611988565b565b60036020528060005260406000206000915090508060000154908060010154908060020154908060030160009054906101000a900460ff16905084565b60008060009054906101000a900473ffffffffffffffffffffffffffffffffffffffff16905090565b60008111610c48576040517f08c379a0000000000000000000000000000000000000000000000000000000008152600401610c3f90612212565b60405180910390fd5b80600560003373ffffffffffffffffffffffffffffffffffffffff1673ffffffffffffffffffffffffffffffffffffffff168152602001908152602001600020541015610cca576040517f08c379a0000000000000000000000000000000000000000000000000000000008152600401610cc19061237c565b60405180910390fd5b80600560003373ffffffffffffffffffffffffffffffffffffffff1673ffffffffffffffffffffffffffffffffffffffff1681526020019081526020016000206000828254610d199190612027565b9250508190555080600154610d2e9190612027565b600181905550610d7f33827f000000000000000000000000000000000000000000000000000000000000000073ffffffffffffffffffffffffffffffffffffffff166118829092919063ffffffff16565b3373ffffffffffffffffffffffffffffffffffffffff167f46cb947848d6e66f42fd865aff4e0b9765da557ed05874db5a3c931ccea58ef182604051610dc59190611ce5565b60405180910390a250565b60056020528060005260406000206000915090505481565b60008111610e2b576040517f08c379a0000000000000000000000000000000000000000000000000000000008152600401610e2290612212565b60405180910390fd5b610e783330837f000000000000000000000000000000000000000000000000000000000000000073ffffffffffffffffffffffffffffffffffffffff16611800909392919063ffffffff16565b80600560003373ffffffffffffffffffffffffffffffffffffffff1673ffffffffffffffffffffffffffffffffffffffff1681526020019081526020016000206000828254610ec79190612169565b9250508190555080600154610edc9190612169565b6001819055503373ffffffffffffffffffffffffffffffffffffffff167ec876900062bf6768530bd9be84c146f5c051f4a50a5bf7fbcdd9ed4c8fb15482604051610f279190611ce5565b60405180910390a250565b6000600460008373ffffffffffffffffffffffffffffffffffffffff1673ffffffffffffffffffffffffffffffffffffffff168152602001908152602001600020549050919050565b60008111610fbe576040517f08c379a0000000000000000000000000000000000000000000000000000000008152600401610fb590612212565b60405180910390fd5b61100b3330837f000000000000000000000000000000000000000000000000000000000000000073ffffffffffffffffffffffffffffffffffffffff16611800909392919063ffffffff16565b80600460003373ffffffffffffffffffffffffffffffffffffffff1673ffffffffffffffffffffffffffffffffffffffff168152602001908152602001600020600082825461105a9190612169565b925050819055503373ffffffffffffffffffffffffffffffffffffffff167fd7243f6f8212d5188fd054141cf6ea89cfc0d91facb8c3afe2f88a1358480142826040516110a79190611ce5565b60405180910390a250565b6000600560008373ffffffffffffffffffffffffffffffffffffffff1673ffffffffffffffffffffffffffffffffffffffff168152602001908152602001600020549050919050565b6000811161113e576040517f08c379a000000000000000000000000000000000000000000000000000000000815260040161113590612212565b60405180910390fd5b600360003373ffffffffffffffffffffffffffffffffffffffff1673ffffffffffffffffffffffffffffffffffffffff16815260200190815260200160002060030160009054906101000a900460ff16156111ce576040517f08c379a00000000000000000000000000000000000000000000000000000000081526004016111c59061240e565b60405180910390fd5b600060646096836111df9190612127565b6111e9919061208a565b905080600460003373ffffffffffffffffffffffffffffffffffffffff1673ffffffffffffffffffffffffffffffffffffffff16815260200190815260200160002054101561126d576040517f08c379a00000000000000000000000000000000000000000000000000000000081526004016112649061227e565b60405180910390fd5b600060646050600460003373ffffffffffffffffffffffffffffffffffffffff1673ffffffffffffffffffffffffffffffffffffffff168152602001908152602001600020546112bd9190612127565b6112c7919061208a565b90508083111561130c576040517f08c379a00000000000000000000000000000000000000000000000000000000081526004016113039061247a565b60405180910390fd5b827f000000000000000000000000000000000000000000000000000000000000000073ffffffffffffffffffffffffffffffffffffffff166370a08231306040518263ffffffff1660e01b81526004016113669190611ed2565b602060405180830381865afa158015611383573d6000803e3d6000fd5b505050506040513d601f19601f820116820180604052508101906113a791906124af565b10156113e8576040517f08c379a00000000000000000000000000000000000000000000000000000000081526004016113df90612528565b60405180910390fd5b604051806080016040528084815260200183815260200142815260200160011515815250600360003373ffffffffffffffffffffffffffffffffffffffff1673ffffffffffffffffffffffffffffffffffffffff16815260200190815260200160002060008201518160000155602082015181600101556040820151816002015560608201518160030160006101000a81548160ff0219169083151502179055509050506114d733847f000000000000000000000000000000000000000000000000000000000000000073ffffffffffffffffffffffffffffffffffffffff166118829092919063ffffffff16565b826002546114e59190612169565b6002819055503373ffffffffffffffffffffffffffffffffffffffff167e6b9bb4766cf5ab74b890df959e4fad0e54b1c3885e49c9541d36253a6e39e6848460405161153292919061219d565b60405180910390a2505050565b609681565b6000600560008373ffffffffffffffffffffffffffffffffffffffff1673ffffffffffffffffffffffffffffffffffffffff168152602001908152602001600020549050919050565b62278d0081565b600080600360008473ffffffffffffffffffffffffffffffffffffffff1673ffffffffffffffffffffffffffffffffffffffff16815260200190815260200160002090508060030160009054906101000a900460ff1615611649576000620151808260020154426116059190612027565b61160f919061208a565b90506000618e9482600585600001546116289190612127565b6116329190612127565b61163c919061208a565b905080935050505061164f565b60009150505b919050565b600080600360008473ffffffffffffffffffffffffffffffffffffffff1673ffffffffffffffffffffffffffffffffffffffff16815260200190815260200160002090508060030160009054906101000a900460ff16156116bc5780600001549150506116c2565b60009150505b919050565b6116cf611ca2565b600360008373ffffffffffffffffffffffffffffffffffffffff1673ffffffffffffffffffffffffffffffffffffffff1681526020019081526020016000206040518060800160405290816000820154815260200160018201548152602001600282015481526020016003820160009054906101000a900460ff1615151515815250509050919050565b611761611901565b600073ffffffffffffffffffffffffffffffffffffffff168173ffffffffffffffffffffffffffffffffffffffff16036117d35760006040517f1e4fbdf70000000000000000000000000000000000000000000000000000000081526004016117ca9190611ed2565b60405180910390fd5b6117dc81611988565b50565b60006005905090565b60046020528060005260406000206000915090505481565b61187c848573ffffffffffffffffffffffffffffffffffffffff166323b872dd86868660405160240161183593929190612548565b604051602081830303815290604052915060e01b6020820180517bffffffffffffffffffffffffffffffffffffffffffffffffffffffff8381831617835250505050611a4c565b50505050565b6118fc838473ffffffffffffffffffffffffffffffffffffffff1663a9059cbb85856040516024016118b592919061257f565b604051602081830303815290604052915060e01b6020820180517bffffffffffffffffffffffffffffffffffffffffffffffffffffffff8381831617835250505050611a4c565b505050565b611909611ae3565b73ffffffffffffffffffffffffffffffffffffffff16611927610bdc565b73ffffffffffffffffffffffffffffffffffffffff16146119865761194a611ae3565b6040517f118cdaa700000000000000000000000000000000000000000000000000000000815260040161197d9190611ed2565b60405180910390fd5b565b60008060009054906101000a900473ffffffffffffffffffffffffffffffffffffffff169050816000806101000a81548173ffffffffffffffffffffffffffffffffffffffff021916908373ffffffffffffffffffffffffffffffffffffffff1602179055508173ffffffffffffffffffffffffffffffffffffffff168173ffffffffffffffffffffffffffffffffffffffff167f8be0079c531659141344cd1fd0a4f28419497f9722a3daafe3b4186f6b6457e060405160405180910390a35050565b6000611a77828473ffffffffffffffffffffffffffffffffffffffff16611aeb90919063ffffffff16565b90506000815114158015611a9c575080806020019051810190611a9a91906125d4565b155b15611ade57826040517f5274afe7000000000000000000000000000000000000000000000000000000008152600401611ad59190611ed2565b60405180910390fd5b505050565b600033905090565b6060611af983836000611b01565b905092915050565b606081471015611b4857306040517fcd786059000000000000000000000000000000000000000000000000000000008152600401611b3f9190611ed2565b60405180910390fd5b6000808573ffffffffffffffffffffffffffffffffffffffff168486604051611b719190612672565b60006040518083038185875af1925050503d8060008114611bae576040519150601f19603f3d011682016040523d82523d6000602084013e611bb3565b606091505b5091509150611bc3868383611bce565b925050509392505050565b606082611be357611bde82611c5d565b611c55565b60008251148015611c0b575060008473ffffffffffffffffffffffffffffffffffffffff163b145b15611c4d57836040517f9996b315000000000000000000000000000000000000000000000000000000008152600401611c449190611ed2565b60405180910390fd5b819050611c56565b5b9392505050565b600081511115611c705780518082602001fd5b6040517f1425ea4200000000000000000000000000000000000000000000000000000000815260040160405180910390fd5b60405180608001604052806000815260200160008152602001600081526020016000151581525090565b6000819050919050565b611cdf81611ccc565b82525050565b6000602082019050611cfa6000830184611cd6565b92915050565b600080fd5b600073ffffffffffffffffffffffffffffffffffffffff82169050919050565b6000611d3082611d05565b9050919050565b611d4081611d25565b8114611d4b57600080fd5b50565b600081359050611d5d81611d37565b92915050565b600060208284031215611d7957611d78611d00565b5b6000611d8784828501611d4e565b91505092915050565b6000819050919050565b6000611db5611db0611dab84611d05565b611d90565b611d05565b9050919050565b6000611dc782611d9a565b9050919050565b6000611dd982611dbc565b9050919050565b611de981611dce565b82525050565b6000602082019050611e046000830184611de0565b92915050565b611e1381611ccc565b8114611e1e57600080fd5b50565b600081359050611e3081611e0a565b92915050565b600060208284031215611e4c57611e4b611d00565b5b6000611e5a84828501611e21565b91505092915050565b60008115159050919050565b611e7881611e63565b82525050565b6000608082019050611e936000830187611cd6565b611ea06020830186611cd6565b611ead6040830185611cd6565b611eba6060830184611e6f565b95945050505050565b611ecc81611d25565b82525050565b6000602082019050611ee76000830184611ec3565b92915050565b611ef681611ccc565b82525050565b611f0581611e63565b82525050565b608082016000820151611f216000850182611eed565b506020820151611f346020850182611eed565b506040820151611f476040850182611eed565b506060820151611f5a6060850182611efc565b50505050565b6000608082019050611f756000830184611f0b565b92915050565b600082825260208201905092915050565b7f4e6f20616374697665206c6f616e000000000000000000000000000000000000600082015250565b6000611fc2600e83611f7b565b9150611fcd82611f8c565b602082019050919050565b60006020820190508181036000830152611ff181611fb5565b9050919050565b7f4e487b7100000000000000000000000000000000000000000000000000000000600052601160045260246000fd5b600061203282611ccc565b915061203d83611ccc565b925082820390508181111561205557612054611ff8565b5b92915050565b7f4e487b7100000000000000000000000000000000000000000000000000000000600052601260045260246000fd5b600061209582611ccc565b91506120a083611ccc565b9250826120b0576120af61205b565b5b828204905092915050565b7f4c6f616e206475726174696f6e20657863656564656420333020646179730000600082015250565b60006120f1601e83611f7b565b91506120fc826120bb565b602082019050919050565b60006020820190508181036000830152612120816120e4565b9050919050565b600061213282611ccc565b915061213d83611ccc565b925082820261214b81611ccc565b9150828204841483151761216257612161611ff8565b5b5092915050565b600061217482611ccc565b915061217f83611ccc565b925082820190508082111561219757612196611ff8565b5b92915050565b60006040820190506121b26000830185611cd6565b6121bf6020830184611cd6565b9392505050565b7f416d6f756e74206d7573742062652067726561746572207468616e2030000000600082015250565b60006121fc601d83611f7b565b9150612207826121c6565b602082019050919050565b6000602082019050818103600083015261222b816121ef565b9050919050565b7f496e73756666696369656e7420636f6c6c61746572616c000000000000000000600082015250565b6000612268601783611f7b565b915061227382612232565b602082019050919050565b600060208201905081810360008301526122978161225b565b9050919050565b7f5769746864726177616c20776f756c6420756e646572636f6c6c61746572616c60008201527f697a65206c6f616e000000000000000000000000000000000000000000000000602082015250565b60006122fa602883611f7b565b91506123058261229e565b604082019050919050565b60006020820190508181036000830152612329816122ed565b9050919050565b7f496e73756666696369656e742062616c616e6365000000000000000000000000600082015250565b6000612366601483611f7b565b915061237182612330565b602082019050919050565b6000602082019050818103600083015261239581612359565b9050919050565b7f4578697374696e67206c6f616e206d757374206265207265706169642066697260008201527f7374000000000000000000000000000000000000000000000000000000000000602082015250565b60006123f8602283611f7b565b91506124038261239c565b604082019050919050565b60006020820190508181036000830152612427816123eb565b9050919050565b7f426f72726f7720616d6f756e742065786365656473206c696d69740000000000600082015250565b6000612464601b83611f7b565b915061246f8261242e565b602082019050919050565b6000602082019050818103600083015261249381612457565b9050919050565b6000815190506124a981611e0a565b92915050565b6000602082840312156124c5576124c4611d00565b5b60006124d38482850161249a565b91505092915050565b7f496e73756666696369656e742042544320696e20636f6e747261637400000000600082015250565b6000612512601c83611f7b565b915061251d826124dc565b602082019050919050565b6000602082019050818103600083015261254181612505565b9050919050565b600060608201905061255d6000830186611ec3565b61256a6020830185611ec3565b6125776040830184611cd6565b949350505050565b60006040820190506125946000830185611ec3565b6125a16020830184611cd6565b9392505050565b6125b181611e63565b81146125bc57600080fd5b50565b6000815190506125ce816125a8565b92915050565b6000602082840312156125ea576125e9611d00565b5b60006125f8848285016125bf565b91505092915050565b600081519050919050565b600081905092915050565b60005b8381101561263557808201518184015260208101905061261a565b60008484015250505050565b600061264c82612601565b612656818561260c565b9350612666818560208601612617565b80840191505092915050565b600061267e8284612641565b91508190509291505056fea26469706673582212205727f18691e4eec948595c84a9e106ca36f54798dfa6d564e0ea40331243351d64736f6c634300081a0033",
					"opcodes": "PUSH1 0xC0 PUSH1 0x40 MSTORE PUSH1 0x0 PUSH1 0x1 SSTORE PUSH1 0x0 PUSH1 0x2 SSTORE CALLVALUE DUP1 ISZERO PUSH2 0x1A JUMPI PUSH1 0x0 DUP1 REVERT JUMPDEST POP PUSH1 0x40 MLOAD PUSH2 0x2AFA CODESIZE SUB DUP1 PUSH2 0x2AFA DUP4 CODECOPY DUP2 DUP2 ADD PUSH1 0x40 MSTORE DUP2 ADD SWAP1 PUSH2 0x3C SWAP2 SWAP1 PUSH2 0x2FE JUMP JUMPDEST CALLER PUSH1 0x0 PUSH20 0xFFFFFFFFFFFFFFFFFFFFFFFFFFFFFFFFFFFFFFFF AND DUP2 PUSH20 0xFFFFFFFFFFFFFFFFFFFFFFFFFFFFFFFFFFFFFFFF AND SUB PUSH2 0xAF JUMPI PUSH1 0x0 PUSH1 0x40 MLOAD PUSH32 0x1E4FBDF700000000000000000000000000000000000000000000000000000000 DUP2 MSTORE PUSH1 0x4 ADD PUSH2 0xA6 SWAP2 SWAP1 PUSH2 0x34D JUMP JUMPDEST PUSH1 0x40 MLOAD DUP1 SWAP2 SUB SWAP1 REVERT JUMPDEST PUSH2 0xBE DUP2 PUSH2 0x1D7 PUSH1 0x20 SHL PUSH1 0x20 SHR JUMP JUMPDEST POP PUSH1 0x0 PUSH20 0xFFFFFFFFFFFFFFFFFFFFFFFFFFFFFFFFFFFFFFFF AND DUP3 PUSH20 0xFFFFFFFFFFFFFFFFFFFFFFFFFFFFFFFFFFFFFFFF AND EQ ISZERO DUP1 ISZERO PUSH2 0x129 JUMPI POP PUSH1 0x0 PUSH20 0xFFFFFFFFFFFFFFFFFFFFFFFFFFFFFFFFFFFFFFFF AND DUP2 PUSH20 0xFFFFFFFFFFFFFFFFFFFFFFFFFFFFFFFFFFFFFFFF AND EQ ISZERO JUMPDEST PUSH2 0x168 JUMPI PUSH1 0x40 MLOAD PUSH32 0x8C379A000000000000000000000000000000000000000000000000000000000 DUP2 MSTORE PUSH1 0x4 ADD PUSH2 0x15F SWAP1 PUSH2 0x3C5 JUMP JUMPDEST PUSH1 0x40 MLOAD DUP1 SWAP2 SUB SWAP1 REVERT JUMPDEST DUP2 PUSH20 0xFFFFFFFFFFFFFFFFFFFFFFFFFFFFFFFFFFFFFFFF AND PUSH1 0x80 DUP2 PUSH20 0xFFFFFFFFFFFFFFFFFFFFFFFFFFFFFFFFFFFFFFFF AND DUP2 MSTORE POP POP DUP1 PUSH20 0xFFFFFFFFFFFFFFFFFFFFFFFFFFFFFFFFFFFFFFFF AND PUSH1 0xA0 DUP2 PUSH20 0xFFFFFFFFFFFFFFFFFFFFFFFFFFFFFFFFFFFFFFFF AND DUP2 MSTORE POP POP POP POP PUSH2 0x3E5 JUMP JUMPDEST PUSH1 0x0 DUP1 PUSH1 0x0 SWAP1 SLOAD SWAP1 PUSH2 0x100 EXP SWAP1 DIV PUSH20 0xFFFFFFFFFFFFFFFFFFFFFFFFFFFFFFFFFFFFFFFF AND SWAP1 POP DUP2 PUSH1 0x0 DUP1 PUSH2 0x100 EXP DUP2 SLOAD DUP2 PUSH20 0xFFFFFFFFFFFFFFFFFFFFFFFFFFFFFFFFFFFFFFFF MUL NOT AND SWAP1 DUP4 PUSH20 0xFFFFFFFFFFFFFFFFFFFFFFFFFFFFFFFFFFFFFFFF AND MUL OR SWAP1 SSTORE POP DUP2 PUSH20 0xFFFFFFFFFFFFFFFFFFFFFFFFFFFFFFFFFFFFFFFF AND DUP2 PUSH20 0xFFFFFFFFFFFFFFFFFFFFFFFFFFFFFFFFFFFFFFFF AND PUSH32 0x8BE0079C531659141344CD1FD0A4F28419497F9722A3DAAFE3B4186F6B6457E0 PUSH1 0x40 MLOAD PUSH1 0x40 MLOAD DUP1 SWAP2 SUB SWAP1 LOG3 POP POP JUMP JUMPDEST PUSH1 0x0 DUP1 REVERT JUMPDEST PUSH1 0x0 PUSH20 0xFFFFFFFFFFFFFFFFFFFFFFFFFFFFFFFFFFFFFFFF DUP3 AND SWAP1 POP SWAP2 SWAP1 POP JUMP JUMPDEST PUSH1 0x0 PUSH2 0x2CB DUP3 PUSH2 0x2A0 JUMP JUMPDEST SWAP1 POP SWAP2 SWAP1 POP JUMP JUMPDEST PUSH2 0x2DB DUP2 PUSH2 0x2C0 JUMP JUMPDEST DUP2 EQ PUSH2 0x2E6 JUMPI PUSH1 0x0 DUP1 REVERT JUMPDEST POP JUMP JUMPDEST PUSH1 0x0 DUP2 MLOAD SWAP1 POP PUSH2 0x2F8 DUP2 PUSH2 0x2D2 JUMP JUMPDEST SWAP3 SWAP2 POP POP JUMP JUMPDEST PUSH1 0x0 DUP1 PUSH1 0x40 DUP4 DUP6 SUB SLT ISZERO PUSH2 0x315 JUMPI PUSH2 0x314 PUSH2 0x29B JUMP JUMPDEST JUMPDEST PUSH1 0x0 PUSH2 0x323 DUP6 DUP3 DUP7 ADD PUSH2 0x2E9 JUMP JUMPDEST SWAP3 POP POP PUSH1 0x20 PUSH2 0x334 DUP6 DUP3 DUP7 ADD PUSH2 0x2E9 JUMP JUMPDEST SWAP2 POP POP SWAP3 POP SWAP3 SWAP1 POP JUMP JUMPDEST PUSH2 0x347 DUP2 PUSH2 0x2C0 JUMP JUMPDEST DUP3 MSTORE POP POP JUMP JUMPDEST PUSH1 0x0 PUSH1 0x20 DUP3 ADD SWAP1 POP PUSH2 0x362 PUSH1 0x0 DUP4 ADD DUP5 PUSH2 0x33E JUMP JUMPDEST SWAP3 SWAP2 POP POP JUMP JUMPDEST PUSH1 0x0 DUP3 DUP3 MSTORE PUSH1 0x20 DUP3 ADD SWAP1 POP SWAP3 SWAP2 POP POP JUMP JUMPDEST PUSH32 0x496E76616C696420746F6B656E20616464726573736573000000000000000000 PUSH1 0x0 DUP3 ADD MSTORE POP JUMP JUMPDEST PUSH1 0x0 PUSH2 0x3AF PUSH1 0x17 DUP4 PUSH2 0x368 JUMP JUMPDEST SWAP2 POP PUSH2 0x3BA DUP3 PUSH2 0x379 JUMP JUMPDEST PUSH1 0x20 DUP3 ADD SWAP1 POP SWAP2 SWAP1 POP JUMP JUMPDEST PUSH1 0x0 PUSH1 0x20 DUP3 ADD SWAP1 POP DUP2 DUP2 SUB PUSH1 0x0 DUP4 ADD MSTORE PUSH2 0x3DE DUP2 PUSH2 0x3A2 JUMP JUMPDEST SWAP1 POP SWAP2 SWAP1 POP JUMP JUMPDEST PUSH1 0x80 MLOAD PUSH1 0xA0 MLOAD PUSH2 0x26BF PUSH2 0x43B PUSH1 0x0 CODECOPY PUSH1 0x0 DUP2 DUP2 PUSH2 0x6FD ADD MSTORE DUP2 DUP2 PUSH2 0x7F8 ADD MSTORE DUP2 DUP2 PUSH2 0xD3B ADD MSTORE DUP2 DUP2 PUSH2 0xE33 ADD MSTORE DUP2 DUP2 PUSH2 0x130F ADD MSTORE PUSH2 0x1493 ADD MSTORE PUSH1 0x0 DUP2 DUP2 PUSH2 0x7D4 ADD MSTORE DUP2 DUP2 PUSH2 0xA8E ADD MSTORE PUSH2 0xFC6 ADD MSTORE PUSH2 0x26BF PUSH1 0x0 RETURN INVALID PUSH1 0x80 PUSH1 0x40 MSTORE CALLVALUE DUP1 ISZERO PUSH2 0x10 JUMPI PUSH1 0x0 DUP1 REVERT JUMPDEST POP PUSH1 0x4 CALLDATASIZE LT PUSH2 0x1C4 JUMPI PUSH1 0x0 CALLDATALOAD PUSH1 0xE0 SHR DUP1 PUSH4 0xA6B6D798 GT PUSH2 0xF9 JUMPI DUP1 PUSH4 0xE02A4DFD GT PUSH2 0x97 JUMPI DUP1 PUSH4 0xE8A7DA8E GT PUSH2 0x71 JUMPI DUP1 PUSH4 0xE8A7DA8E EQ PUSH2 0x50C JUMPI DUP1 PUSH4 0xF2FDE38B EQ PUSH2 0x53C JUMPI DUP1 PUSH4 0xF4925DE5 EQ PUSH2 0x558 JUMPI DUP1 PUSH4 0xF69F1E4A EQ PUSH2 0x576 JUMPI PUSH2 0x1C4 JUMP JUMPDEST DUP1 PUSH4 0xE02A4DFD EQ PUSH2 0x48E JUMPI DUP1 PUSH4 0xE11932CF EQ PUSH2 0x4AC JUMPI DUP1 PUSH4 0xE86EF40B EQ PUSH2 0x4DC JUMPI PUSH2 0x1C4 JUMP JUMPDEST DUP1 PUSH4 0xBD09085A GT PUSH2 0xD3 JUMPI DUP1 PUSH4 0xBD09085A EQ PUSH2 0x3F4 JUMPI DUP1 PUSH4 0xD1A40564 EQ PUSH2 0x424 JUMPI DUP1 PUSH4 0xD9E69A05 EQ PUSH2 0x440 JUMPI DUP1 PUSH4 0xDAC3FC3F EQ PUSH2 0x45E JUMPI PUSH2 0x1C4 JUMP JUMPDEST DUP1 PUSH4 0xA6B6D798 EQ PUSH2 0x38C JUMPI DUP1 PUSH4 0xB6F7132F EQ PUSH2 0x3A8 JUMPI DUP1 PUSH4 0xBAD4A01F EQ PUSH2 0x3D8 JUMPI PUSH2 0x1C4 JUMP JUMPDEST DUP1 PUSH4 0x691D1EB3 GT PUSH2 0x166 JUMPI DUP1 PUSH4 0x73B4086B GT PUSH2 0x140 JUMPI DUP1 PUSH4 0x73B4086B EQ PUSH2 0x2EF JUMPI DUP1 PUSH4 0x8DA5CB5B EQ PUSH2 0x322 JUMPI DUP1 PUSH4 0x90B4588B EQ PUSH2 0x340 JUMPI DUP1 PUSH4 0xA27A944D EQ PUSH2 0x35C JUMPI PUSH2 0x1C4 JUMP JUMPDEST DUP1 PUSH4 0x691D1EB3 EQ PUSH2 0x297 JUMPI DUP1 PUSH4 0x6E35F124 EQ PUSH2 0x2C7 JUMPI DUP1 PUSH4 0x715018A6 EQ PUSH2 0x2E5 JUMPI PUSH2 0x1C4 JUMP JUMPDEST DUP1 PUSH4 0x1BF6C21B GT PUSH2 0x1A2 JUMPI DUP1 PUSH4 0x1BF6C21B EQ PUSH2 0x221 JUMPI DUP1 PUSH4 0x2792949D EQ PUSH2 0x23F JUMPI DUP1 PUSH4 0x5B72A33A EQ PUSH2 0x25D JUMPI DUP1 PUSH4 0x6112FE2E EQ PUSH2 0x27B JUMPI PUSH2 0x1C4 JUMP JUMPDEST DUP1 PUSH4 0x307C4A1 EQ PUSH2 0x1C9 JUMPI DUP1 PUSH4 0x917E776 EQ PUSH2 0x1E7 JUMPI DUP1 PUSH4 0x190EF1E6 EQ PUSH2 0x205 JUMPI JUMPDEST PUSH1 0x0 DUP1 REVERT JUMPDEST PUSH2 0x1D1 PUSH2 0x5A6 JUMP JUMPDEST PUSH1 0x40 MLOAD PUSH2 0x1DE SWAP2 SWAP1 PUSH2 0x1CE5 JUMP JUMPDEST PUSH1 0x40 MLOAD DUP1 SWAP2 SUB SWAP1 RETURN JUMPDEST PUSH2 0x1EF PUSH2 0x5B0 JUMP JUMPDEST PUSH1 0x40 MLOAD PUSH2 0x1FC SWAP2 SWAP1 PUSH2 0x1CE5 JUMP JUMPDEST PUSH1 0x40 MLOAD DUP1 SWAP2 SUB SWAP1 RETURN JUMPDEST PUSH2 0x21F PUSH1 0x4 DUP1 CALLDATASIZE SUB DUP2 ADD SWAP1 PUSH2 0x21A SWAP2 SWAP1 PUSH2 0x1D63 JUMP JUMPDEST PUSH2 0x5BA JUMP JUMPDEST STOP JUMPDEST PUSH2 0x229 PUSH2 0x7D2 JUMP JUMPDEST PUSH1 0x40 MLOAD PUSH2 0x236 SWAP2 SWAP1 PUSH2 0x1DEF JUMP JUMPDEST PUSH1 0x40 MLOAD DUP1 SWAP2 SUB SWAP1 RETURN JUMPDEST PUSH2 0x247 PUSH2 0x7F6 JUMP JUMPDEST PUSH1 0x40 MLOAD PUSH2 0x254 SWAP2 SWAP1 PUSH2 0x1DEF JUMP JUMPDEST PUSH1 0x40 MLOAD DUP1 SWAP2 SUB SWAP1 RETURN JUMPDEST PUSH2 0x265 PUSH2 0x81A JUMP JUMPDEST PUSH1 0x40 MLOAD PUSH2 0x272 SWAP2 SWAP1 PUSH2 0x1CE5 JUMP JUMPDEST PUSH1 0x40 MLOAD DUP1 SWAP2 SUB SWAP1 RETURN JUMPDEST PUSH2 0x295 PUSH1 0x4 DUP1 CALLDATASIZE SUB DUP2 ADD SWAP1 PUSH2 0x290 SWAP2 SWAP1 PUSH2 0x1E36 JUMP JUMPDEST PUSH2 0x81F JUMP JUMPDEST STOP JUMPDEST PUSH2 0x2B1 PUSH1 0x4 DUP1 CALLDATASIZE SUB DUP2 ADD SWAP1 PUSH2 0x2AC SWAP2 SWAP1 PUSH2 0x1D63 JUMP JUMPDEST PUSH2 0xB25 JUMP JUMPDEST PUSH1 0x40 MLOAD PUSH2 0x2BE SWAP2 SWAP1 PUSH2 0x1CE5 JUMP JUMPDEST PUSH1 0x40 MLOAD DUP1 SWAP2 SUB SWAP1 RETURN JUMPDEST PUSH2 0x2CF PUSH2 0xB86 JUMP JUMPDEST PUSH1 0x40 MLOAD PUSH2 0x2DC SWAP2 SWAP1 PUSH2 0x1CE5 JUMP JUMPDEST PUSH1 0x40 MLOAD DUP1 SWAP2 SUB SWAP1 RETURN JUMPDEST PUSH2 0x2ED PUSH2 0xB8B JUMP JUMPDEST STOP JUMPDEST PUSH2 0x309 PUSH1 0x4 DUP1 CALLDATASIZE SUB DUP2 ADD SWAP1 PUSH2 0x304 SWAP2 SWAP1 PUSH2 0x1D63 JUMP JUMPDEST PUSH2 0xB9F JUMP JUMPDEST PUSH1 0x40 MLOAD PUSH2 0x319 SWAP5 SWAP4 SWAP3 SWAP2 SWAP1 PUSH2 0x1E7E JUMP JUMPDEST PUSH1 0x40 MLOAD DUP1 SWAP2 SUB SWAP1 RETURN JUMPDEST PUSH2 0x32A PUSH2 0xBDC JUMP JUMPDEST PUSH1 0x40 MLOAD PUSH2 0x337 SWAP2 SWAP1 PUSH2 0x1ED2 JUMP JUMPDEST PUSH1 0x40 MLOAD DUP1 SWAP2 SUB SWAP1 RETURN JUMPDEST PUSH2 0x35A PUSH1 0x4 DUP1 CALLDATASIZE SUB DUP2 ADD SWAP1 PUSH2 0x355 SWAP2 SWAP1 PUSH2 0x1E36 JUMP JUMPDEST PUSH2 0xC05 JUMP JUMPDEST STOP JUMPDEST PUSH2 0x376 PUSH1 0x4 DUP1 CALLDATASIZE SUB DUP2 ADD SWAP1 PUSH2 0x371 SWAP2 SWAP1 PUSH2 0x1D63 JUMP JUMPDEST PUSH2 0xDD0 JUMP JUMPDEST PUSH1 0x40 MLOAD PUSH2 0x383 SWAP2 SWAP1 PUSH2 0x1CE5 JUMP JUMPDEST PUSH1 0x40 MLOAD DUP1 SWAP2 SUB SWAP1 RETURN JUMPDEST PUSH2 0x3A6 PUSH1 0x4 DUP1 CALLDATASIZE SUB DUP2 ADD SWAP1 PUSH2 0x3A1 SWAP2 SWAP1 PUSH2 0x1E36 JUMP JUMPDEST PUSH2 0xDE8 JUMP JUMPDEST STOP JUMPDEST PUSH2 0x3C2 PUSH1 0x4 DUP1 CALLDATASIZE SUB DUP2 ADD SWAP1 PUSH2 0x3BD SWAP2 SWAP1 PUSH2 0x1D63 JUMP JUMPDEST PUSH2 0xF32 JUMP JUMPDEST PUSH1 0x40 MLOAD PUSH2 0x3CF SWAP2 SWAP1 PUSH2 0x1CE5 JUMP JUMPDEST PUSH1 0x40 MLOAD DUP1 SWAP2 SUB SWAP1 RETURN JUMPDEST PUSH2 0x3F2 PUSH1 0x4 DUP1 CALLDATASIZE SUB DUP2 ADD SWAP1 PUSH2 0x3ED SWAP2 SWAP1 PUSH2 0x1E36 JUMP JUMPDEST PUSH2 0xF7B JUMP JUMPDEST STOP JUMPDEST PUSH2 0x40E PUSH1 0x4 DUP1 CALLDATASIZE SUB DUP2 ADD SWAP1 PUSH2 0x409 SWAP2 SWAP1 PUSH2 0x1D63 JUMP JUMPDEST PUSH2 0x10B2 JUMP JUMPDEST PUSH1 0x40 MLOAD PUSH2 0x41B SWAP2 SWAP1 PUSH2 0x1CE5 JUMP JUMPDEST PUSH1 0x40 MLOAD DUP1 SWAP2 SUB SWAP1 RETURN JUMPDEST PUSH2 0x43E PUSH1 0x4 DUP1 CALLDATASIZE SUB DUP2 ADD SWAP1 PUSH2 0x439 SWAP2 SWAP1 PUSH2 0x1E36 JUMP JUMPDEST PUSH2 0x10FB JUMP JUMPDEST STOP JUMPDEST PUSH2 0x448 PUSH2 0x153F JUMP JUMPDEST PUSH1 0x40 MLOAD PUSH2 0x455 SWAP2 SWAP1 PUSH2 0x1CE5 JUMP JUMPDEST PUSH1 0x40 MLOAD DUP1 SWAP2 SUB SWAP1 RETURN JUMPDEST PUSH2 0x478 PUSH1 0x4 DUP1 CALLDATASIZE SUB DUP2 ADD SWAP1 PUSH2 0x473 SWAP2 SWAP1 PUSH2 0x1D63 JUMP JUMPDEST PUSH2 0x1544 JUMP JUMPDEST PUSH1 0x40 MLOAD PUSH2 0x485 SWAP2 SWAP1 PUSH2 0x1CE5 JUMP JUMPDEST PUSH1 0x40 MLOAD DUP1 SWAP2 SUB SWAP1 RETURN JUMPDEST PUSH2 0x496 PUSH2 0x158D JUMP JUMPDEST PUSH1 0x40 MLOAD PUSH2 0x4A3 SWAP2 SWAP1 PUSH2 0x1CE5 JUMP JUMPDEST PUSH1 0x40 MLOAD DUP1 SWAP2 SUB SWAP1 RETURN JUMPDEST PUSH2 0x4C6 PUSH1 0x4 DUP1 CALLDATASIZE SUB DUP2 ADD SWAP1 PUSH2 0x4C1 SWAP2 SWAP1 PUSH2 0x1D63 JUMP JUMPDEST PUSH2 0x1594 JUMP JUMPDEST PUSH1 0x40 MLOAD PUSH2 0x4D3 SWAP2 SWAP1 PUSH2 0x1CE5 JUMP JUMPDEST PUSH1 0x40 MLOAD DUP1 SWAP2 SUB SWAP1 RETURN JUMPDEST PUSH2 0x4F6 PUSH1 0x4 DUP1 CALLDATASIZE SUB DUP2 ADD SWAP1 PUSH2 0x4F1 SWAP2 SWAP1 PUSH2 0x1D63 JUMP JUMPDEST PUSH2 0x1654 JUMP JUMPDEST PUSH1 0x40 MLOAD PUSH2 0x503 SWAP2 SWAP1 PUSH2 0x1CE5 JUMP JUMPDEST PUSH1 0x40 MLOAD DUP1 SWAP2 SUB SWAP1 RETURN JUMPDEST PUSH2 0x526 PUSH1 0x4 DUP1 CALLDATASIZE SUB DUP2 ADD SWAP1 PUSH2 0x521 SWAP2 SWAP1 PUSH2 0x1D63 JUMP JUMPDEST PUSH2 0x16C7 JUMP JUMPDEST PUSH1 0x40 MLOAD PUSH2 0x533 SWAP2 SWAP1 PUSH2 0x1F60 JUMP JUMPDEST PUSH1 0x40 MLOAD DUP1 SWAP2 SUB SWAP1 RETURN JUMPDEST PUSH2 0x556 PUSH1 0x4 DUP1 CALLDATASIZE SUB DUP2 ADD SWAP1 PUSH2 0x551 SWAP2 SWAP1 PUSH2 0x1D63 JUMP JUMPDEST PUSH2 0x1759 JUMP JUMPDEST STOP JUMPDEST PUSH2 0x560 PUSH2 0x17DF JUMP JUMPDEST PUSH1 0x40 MLOAD PUSH2 0x56D SWAP2 SWAP1 PUSH2 0x1CE5 JUMP JUMPDEST PUSH1 0x40 MLOAD DUP1 SWAP2 SUB SWAP1 RETURN JUMPDEST PUSH2 0x590 PUSH1 0x4 DUP1 CALLDATASIZE SUB DUP2 ADD SWAP1 PUSH2 0x58B SWAP2 SWAP1 PUSH2 0x1D63 JUMP JUMPDEST PUSH2 0x17E8 JUMP JUMPDEST PUSH1 0x40 MLOAD PUSH2 0x59D SWAP2 SWAP1 PUSH2 0x1CE5 JUMP JUMPDEST PUSH1 0x40 MLOAD DUP1 SWAP2 SUB SWAP1 RETURN JUMPDEST PUSH1 0x0 PUSH1 0x2 SLOAD SWAP1 POP SWAP1 JUMP JUMPDEST PUSH1 0x0 PUSH1 0x1 SLOAD SWAP1 POP SWAP1 JUMP JUMPDEST PUSH1 0x0 PUSH1 0x3 PUSH1 0x0 DUP4 PUSH20 0xFFFFFFFFFFFFFFFFFFFFFFFFFFFFFFFFFFFFFFFF AND PUSH20 0xFFFFFFFFFFFFFFFFFFFFFFFFFFFFFFFFFFFFFFFF AND DUP2 MSTORE PUSH1 0x20 ADD SWAP1 DUP2 MSTORE PUSH1 0x20 ADD PUSH1 0x0 KECCAK256 SWAP1 POP DUP1 PUSH1 0x3 ADD PUSH1 0x0 SWAP1 SLOAD SWAP1 PUSH2 0x100 EXP SWAP1 DIV PUSH1 0xFF AND PUSH2 0x64E JUMPI PUSH1 0x40 MLOAD PUSH32 0x8C379A000000000000000000000000000000000000000000000000000000000 DUP2 MSTORE PUSH1 0x4 ADD PUSH2 0x645 SWAP1 PUSH2 0x1FD8 JUMP JUMPDEST PUSH1 0x40 MLOAD DUP1 SWAP2 SUB SWAP1 REVERT JUMPDEST PUSH1 0x0 PUSH3 0x15180 DUP3 PUSH1 0x2 ADD SLOAD TIMESTAMP PUSH2 0x664 SWAP2 SWAP1 PUSH2 0x2027 JUMP JUMPDEST PUSH2 0x66E SWAP2 SWAP1 PUSH2 0x208A JUMP JUMPDEST SWAP1 POP PUSH1 0x1E DUP2 GT ISZERO PUSH2 0x6B4 JUMPI PUSH1 0x40 MLOAD PUSH32 0x8C379A000000000000000000000000000000000000000000000000000000000 DUP2 MSTORE PUSH1 0x4 ADD PUSH2 0x6AB SWAP1 PUSH2 0x2107 JUMP JUMPDEST PUSH1 0x40 MLOAD DUP1 SWAP2 SUB SWAP1 REVERT JUMPDEST PUSH1 0x0 PUSH2 0x8E94 DUP3 PUSH1 0x5 DUP6 PUSH1 0x0 ADD SLOAD PUSH2 0x6CB SWAP2 SWAP1 PUSH2 0x2127 JUMP JUMPDEST PUSH2 0x6D5 SWAP2 SWAP1 PUSH2 0x2127 JUMP JUMPDEST PUSH2 0x6DF SWAP2 SWAP1 PUSH2 0x208A JUMP JUMPDEST SWAP1 POP PUSH1 0x0 DUP2 DUP5 PUSH1 0x0 ADD SLOAD PUSH2 0x6F3 SWAP2 SWAP1 PUSH2 0x2169 JUMP JUMPDEST SWAP1 POP PUSH2 0x742 DUP6 ADDRESS DUP4 PUSH32 0x0 PUSH20 0xFFFFFFFFFFFFFFFFFFFFFFFFFFFFFFFFFFFFFFFF AND PUSH2 0x1800 SWAP1 SWAP4 SWAP3 SWAP2 SWAP1 PUSH4 0xFFFFFFFF AND JUMP JUMPDEST PUSH1 0x0 DUP5 PUSH1 0x3 ADD PUSH1 0x0 PUSH2 0x100 EXP DUP2 SLOAD DUP2 PUSH1 0xFF MUL NOT AND SWAP1 DUP4 ISZERO ISZERO MUL OR SWAP1 SSTORE POP DUP4 PUSH1 0x0 ADD SLOAD PUSH1 0x2 SLOAD PUSH2 0x771 SWAP2 SWAP1 PUSH2 0x2027 JUMP JUMPDEST PUSH1 0x2 DUP2 SWAP1 SSTORE POP CALLER PUSH20 0xFFFFFFFFFFFFFFFFFFFFFFFFFFFFFFFFFFFFFFFF AND PUSH32 0xC7CE0A35F17B490DE2A317E7FECB2CAE86B1ABFFB03800B2F492823521382698 DUP6 PUSH1 0x0 ADD SLOAD DUP5 PUSH1 0x40 MLOAD PUSH2 0x7C3 SWAP3 SWAP2 SWAP1 PUSH2 0x219D JUMP JUMPDEST PUSH1 0x40 MLOAD DUP1 SWAP2 SUB SWAP1 LOG2 POP POP POP POP POP JUMP JUMPDEST PUSH32 0x0 DUP2 JUMP JUMPDEST PUSH32 0x0 DUP2 JUMP JUMPDEST PUSH1 0x5 DUP2 JUMP JUMPDEST PUSH1 0x0 DUP2 GT PUSH2 0x862 JUMPI PUSH1 0x40 MLOAD PUSH32 0x8C379A000000000000000000000000000000000000000000000000000000000 DUP2 MSTORE PUSH1 0x4 ADD PUSH2 0x859 SWAP1 PUSH2 0x2212 JUMP JUMPDEST PUSH1 0x40 MLOAD DUP1 SWAP2 SUB SWAP1 REVERT JUMPDEST DUP1 PUSH1 0x4 PUSH1 0x0 CALLER PUSH20 0xFFFFFFFFFFFFFFFFFFFFFFFFFFFFFFFFFFFFFFFF AND PUSH20 0xFFFFFFFFFFFFFFFFFFFFFFFFFFFFFFFFFFFFFFFF AND DUP2 MSTORE PUSH1 0x20 ADD SWAP1 DUP2 MSTORE PUSH1 0x20 ADD PUSH1 0x0 KECCAK256 SLOAD LT ISZERO PUSH2 0x8E4 JUMPI PUSH1 0x40 MLOAD PUSH32 0x8C379A000000000000000000000000000000000000000000000000000000000 DUP2 MSTORE PUSH1 0x4 ADD PUSH2 0x8DB SWAP1 PUSH2 0x227E JUMP JUMPDEST PUSH1 0x40 MLOAD DUP1 SWAP2 SUB SWAP1 REVERT JUMPDEST PUSH1 0x0 PUSH1 0x3 PUSH1 0x0 CALLER PUSH20 0xFFFFFFFFFFFFFFFFFFFFFFFFFFFFFFFFFFFFFFFF AND PUSH20 0xFFFFFFFFFFFFFFFFFFFFFFFFFFFFFFFFFFFFFFFF AND DUP2 MSTORE PUSH1 0x20 ADD SWAP1 DUP2 MSTORE PUSH1 0x20 ADD PUSH1 0x0 KECCAK256 PUSH1 0x3 ADD PUSH1 0x0 SWAP1 SLOAD SWAP1 PUSH2 0x100 EXP SWAP1 DIV PUSH1 0xFF AND PUSH2 0x941 JUMPI PUSH1 0x0 PUSH2 0x985 JUMP JUMPDEST PUSH1 0x3 PUSH1 0x0 CALLER PUSH20 0xFFFFFFFFFFFFFFFFFFFFFFFFFFFFFFFFFFFFFFFF AND PUSH20 0xFFFFFFFFFFFFFFFFFFFFFFFFFFFFFFFFFFFFFFFF AND DUP2 MSTORE PUSH1 0x20 ADD SWAP1 DUP2 MSTORE PUSH1 0x20 ADD PUSH1 0x0 KECCAK256 PUSH1 0x0 ADD SLOAD JUMPDEST SWAP1 POP PUSH1 0x0 PUSH1 0x64 PUSH1 0x96 DUP4 PUSH2 0x998 SWAP2 SWAP1 PUSH2 0x2127 JUMP JUMPDEST PUSH2 0x9A2 SWAP2 SWAP1 PUSH2 0x208A JUMP JUMPDEST SWAP1 POP DUP1 DUP4 PUSH1 0x4 PUSH1 0x0 CALLER PUSH20 0xFFFFFFFFFFFFFFFFFFFFFFFFFFFFFFFFFFFFFFFF AND PUSH20 0xFFFFFFFFFFFFFFFFFFFFFFFFFFFFFFFFFFFFFFFF AND DUP2 MSTORE PUSH1 0x20 ADD SWAP1 DUP2 MSTORE PUSH1 0x20 ADD PUSH1 0x0 KECCAK256 SLOAD PUSH2 0x9F0 SWAP2 SWAP1 PUSH2 0x2027 JUMP JUMPDEST LT ISZERO PUSH2 0xA31 JUMPI PUSH1 0x40 MLOAD PUSH32 0x8C379A000000000000000000000000000000000000000000000000000000000 DUP2 MSTORE PUSH1 0x4 ADD PUSH2 0xA28 SWAP1 PUSH2 0x2310 JUMP JUMPDEST PUSH1 0x40 MLOAD DUP1 SWAP2 SUB SWAP1 REVERT JUMPDEST DUP3 PUSH1 0x4 PUSH1 0x0 CALLER PUSH20 0xFFFFFFFFFFFFFFFFFFFFFFFFFFFFFFFFFFFFFFFF AND PUSH20 0xFFFFFFFFFFFFFFFFFFFFFFFFFFFFFFFFFFFFFFFF AND DUP2 MSTORE PUSH1 0x20 ADD SWAP1 DUP2 MSTORE PUSH1 0x20 ADD PUSH1 0x0 KECCAK256 PUSH1 0x0 DUP3 DUP3 SLOAD PUSH2 0xA80 SWAP2 SWAP1 PUSH2 0x2027 JUMP JUMPDEST SWAP3 POP POP DUP2 SWAP1 SSTORE POP PUSH2 0xAD2 CALLER DUP5 PUSH32 0x0 PUSH20 0xFFFFFFFFFFFFFFFFFFFFFFFFFFFFFFFFFFFFFFFF AND PUSH2 0x1882 SWAP1 SWAP3 SWAP2 SWAP1 PUSH4 0xFFFFFFFF AND JUMP JUMPDEST CALLER PUSH20 0xFFFFFFFFFFFFFFFFFFFFFFFFFFFFFFFFFFFFFFFF AND PUSH32 0xC30FCFBCAAC9E0DEFFA719714EAA82396FF506A0D0D0EEBE170830177288715D DUP5 PUSH1 0x40 MLOAD PUSH2 0xB18 SWAP2 SWAP1 PUSH2 0x1CE5 JUMP JUMPDEST PUSH1 0x40 MLOAD DUP1 SWAP2 SUB SWAP1 LOG2 POP POP POP JUMP JUMPDEST PUSH1 0x0 PUSH1 0x64 PUSH1 0x50 PUSH1 0x4 PUSH1 0x0 DUP6 PUSH20 0xFFFFFFFFFFFFFFFFFFFFFFFFFFFFFFFFFFFFFFFF AND PUSH20 0xFFFFFFFFFFFFFFFFFFFFFFFFFFFFFFFFFFFFFFFF AND DUP2 MSTORE PUSH1 0x20 ADD SWAP1 DUP2 MSTORE PUSH1 0x20 ADD PUSH1 0x0 KECCAK256 SLOAD PUSH2 0xB75 SWAP2 SWAP1 PUSH2 0x2127 JUMP JUMPDEST PUSH2 0xB7F SWAP2 SWAP1 PUSH2 0x208A JUMP JUMPDEST SWAP1 POP SWAP2 SWAP1 POP JUMP JUMPDEST PUSH1 0x50 DUP2 JUMP JUMPDEST PUSH2 0xB93 PUSH2 0x1901 JUMP JUMPDEST PUSH2 0xB9D PUSH1 0x0 PUSH2 0x1988 JUMP JUMPDEST JUMP JUMPDEST PUSH1 0x3 PUSH1 0x20 MSTORE DUP1 PUSH1 0x0 MSTORE PUSH1 0x40 PUSH1 0x0 KECCAK256 PUSH1 0x0 SWAP2 POP SWAP1 POP DUP1 PUSH1 0x0 ADD SLOAD SWAP1 DUP1 PUSH1 0x1 ADD SLOAD SWAP1 DUP1 PUSH1 0x2 ADD SLOAD SWAP1 DUP1 PUSH1 0x3 ADD PUSH1 0x0 SWAP1 SLOAD SWAP1 PUSH2 0x100 EXP SWAP1 DIV PUSH1 0xFF AND SWAP1 POP DUP5 JUMP JUMPDEST PUSH1 0x0 DUP1 PUSH1 0x0 SWAP1 SLOAD SWAP1 PUSH2 0x100 EXP SWAP1 DIV PUSH20 0xFFFFFFFFFFFFFFFFFFFFFFFFFFFFFFFFFFFFFFFF AND SWAP1 POP SWAP1 JUMP JUMPDEST PUSH1 0x0 DUP2 GT PUSH2 0xC48 JUMPI PUSH1 0x40 MLOAD PUSH32 0x8C379A000000000000000000000000000000000000000000000000000000000 DUP2 MSTORE PUSH1 0x4 ADD PUSH2 0xC3F SWAP1 PUSH2 0x2212 JUMP JUMPDEST PUSH1 0x40 MLOAD DUP1 SWAP2 SUB SWAP1 REVERT JUMPDEST DUP1 PUSH1 0x5 PUSH1 0x0 CALLER PUSH20 0xFFFFFFFFFFFFFFFFFFFFFFFFFFFFFFFFFFFFFFFF AND PUSH20 0xFFFFFFFFFFFFFFFFFFFFFFFFFFFFFFFFFFFFFFFF AND DUP2 MSTORE PUSH1 0x20 ADD SWAP1 DUP2 MSTORE PUSH1 0x20 ADD PUSH1 0x0 KECCAK256 SLOAD LT ISZERO PUSH2 0xCCA JUMPI PUSH1 0x40 MLOAD PUSH32 0x8C379A000000000000000000000000000000000000000000000000000000000 DUP2 MSTORE PUSH1 0x4 ADD PUSH2 0xCC1 SWAP1 PUSH2 0x237C JUMP JUMPDEST PUSH1 0x40 MLOAD DUP1 SWAP2 SUB SWAP1 REVERT JUMPDEST DUP1 PUSH1 0x5 PUSH1 0x0 CALLER PUSH20 0xFFFFFFFFFFFFFFFFFFFFFFFFFFFFFFFFFFFFFFFF AND PUSH20 0xFFFFFFFFFFFFFFFFFFFFFFFFFFFFFFFFFFFFFFFF AND DUP2 MSTORE PUSH1 0x20 ADD SWAP1 DUP2 MSTORE PUSH1 0x20 ADD PUSH1 0x0 KECCAK256 PUSH1 0x0 DUP3 DUP3 SLOAD PUSH2 0xD19 SWAP2 SWAP1 PUSH2 0x2027 JUMP JUMPDEST SWAP3 POP POP DUP2 SWAP1 SSTORE POP DUP1 PUSH1 0x1 SLOAD PUSH2 0xD2E SWAP2 SWAP1 PUSH2 0x2027 JUMP JUMPDEST PUSH1 0x1 DUP2 SWAP1 SSTORE POP PUSH2 0xD7F CALLER DUP3 PUSH32 0x0 PUSH20 0xFFFFFFFFFFFFFFFFFFFFFFFFFFFFFFFFFFFFFFFF AND PUSH2 0x1882 SWAP1 SWAP3 SWAP2 SWAP1 PUSH4 0xFFFFFFFF AND JUMP JUMPDEST CALLER PUSH20 0xFFFFFFFFFFFFFFFFFFFFFFFFFFFFFFFFFFFFFFFF AND PUSH32 0x46CB947848D6E66F42FD865AFF4E0B9765DA557ED05874DB5A3C931CCEA58EF1 DUP3 PUSH1 0x40 MLOAD PUSH2 0xDC5 SWAP2 SWAP1 PUSH2 0x1CE5 JUMP JUMPDEST PUSH1 0x40 MLOAD DUP1 SWAP2 SUB SWAP1 LOG2 POP JUMP JUMPDEST PUSH1 0x5 PUSH1 0x20 MSTORE DUP1 PUSH1 0x0 MSTORE PUSH1 0x40 PUSH1 0x0 KECCAK256 PUSH1 0x0 SWAP2 POP SWAP1 POP SLOAD DUP2 JUMP JUMPDEST PUSH1 0x0 DUP2 GT PUSH2 0xE2B JUMPI PUSH1 0x40 MLOAD PUSH32 0x8C379A000000000000000000000000000000000000000000000000000000000 DUP2 MSTORE PUSH1 0x4 ADD PUSH2 0xE22 SWAP1 PUSH2 0x2212 JUMP JUMPDEST PUSH1 0x40 MLOAD DUP1 SWAP2 SUB SWAP1 REVERT JUMPDEST PUSH2 0xE78 CALLER ADDRESS DUP4 PUSH32 0x0 PUSH20 0xFFFFFFFFFFFFFFFFFFFFFFFFFFFFFFFFFFFFFFFF AND PUSH2 0x1800 SWAP1 SWAP4 SWAP3 SWAP2 SWAP1 PUSH4 0xFFFFFFFF AND JUMP JUMPDEST DUP1 PUSH1 0x5 PUSH1 0x0 CALLER PUSH20 0xFFFFFFFFFFFFFFFFFFFFFFFFFFFFFFFFFFFFFFFF AND PUSH20 0xFFFFFFFFFFFFFFFFFFFFFFFFFFFFFFFFFFFFFFFF AND DUP2 MSTORE PUSH1 0x20 ADD SWAP1 DUP2 MSTORE PUSH1 0x20 ADD PUSH1 0x0 KECCAK256 PUSH1 0x0 DUP3 DUP3 SLOAD PUSH2 0xEC7 SWAP2 SWAP1 PUSH2 0x2169 JUMP JUMPDEST SWAP3 POP POP DUP2 SWAP1 SSTORE POP DUP1 PUSH1 0x1 SLOAD PUSH2 0xEDC SWAP2 SWAP1 PUSH2 0x2169 JUMP JUMPDEST PUSH1 0x1 DUP2 SWAP1 SSTORE POP CALLER PUSH20 0xFFFFFFFFFFFFFFFFFFFFFFFFFFFFFFFFFFFFFFFF AND PUSH31 0xC876900062BF6768530BD9BE84C146F5C051F4A50A5BF7FBCDD9ED4C8FB154 DUP3 PUSH1 0x40 MLOAD PUSH2 0xF27 SWAP2 SWAP1 PUSH2 0x1CE5 JUMP JUMPDEST PUSH1 0x40 MLOAD DUP1 SWAP2 SUB SWAP1 LOG2 POP JUMP JUMPDEST PUSH1 0x0 PUSH1 0x4 PUSH1 0x0 DUP4 PUSH20 0xFFFFFFFFFFFFFFFFFFFFFFFFFFFFFFFFFFFFFFFF AND PUSH20 0xFFFFFFFFFFFFFFFFFFFFFFFFFFFFFFFFFFFFFFFF AND DUP2 MSTORE PUSH1 0x20 ADD SWAP1 DUP2 MSTORE PUSH1 0x20 ADD PUSH1 0x0 KECCAK256 SLOAD SWAP1 POP SWAP2 SWAP1 POP JUMP JUMPDEST PUSH1 0x0 DUP2 GT PUSH2 0xFBE JUMPI PUSH1 0x40 MLOAD PUSH32 0x8C379A000000000000000000000000000000000000000000000000000000000 DUP2 MSTORE PUSH1 0x4 ADD PUSH2 0xFB5 SWAP1 PUSH2 0x2212 JUMP JUMPDEST PUSH1 0x40 MLOAD DUP1 SWAP2 SUB SWAP1 REVERT JUMPDEST PUSH2 0x100B CALLER ADDRESS DUP4 PUSH32 0x0 PUSH20 0xFFFFFFFFFFFFFFFFFFFFFFFFFFFFFFFFFFFFFFFF AND PUSH2 0x1800 SWAP1 SWAP4 SWAP3 SWAP2 SWAP1 PUSH4 0xFFFFFFFF AND JUMP JUMPDEST DUP1 PUSH1 0x4 PUSH1 0x0 CALLER PUSH20 0xFFFFFFFFFFFFFFFFFFFFFFFFFFFFFFFFFFFFFFFF AND PUSH20 0xFFFFFFFFFFFFFFFFFFFFFFFFFFFFFFFFFFFFFFFF AND DUP2 MSTORE PUSH1 0x20 ADD SWAP1 DUP2 MSTORE PUSH1 0x20 ADD PUSH1 0x0 KECCAK256 PUSH1 0x0 DUP3 DUP3 SLOAD PUSH2 0x105A SWAP2 SWAP1 PUSH2 0x2169 JUMP JUMPDEST SWAP3 POP POP DUP2 SWAP1 SSTORE POP CALLER PUSH20 0xFFFFFFFFFFFFFFFFFFFFFFFFFFFFFFFFFFFFFFFF AND PUSH32 0xD7243F6F8212D5188FD054141CF6EA89CFC0D91FACB8C3AFE2F88A1358480142 DUP3 PUSH1 0x40 MLOAD PUSH2 0x10A7 SWAP2 SWAP1 PUSH2 0x1CE5 JUMP JUMPDEST PUSH1 0x40 MLOAD DUP1 SWAP2 SUB SWAP1 LOG2 POP JUMP JUMPDEST PUSH1 0x0 PUSH1 0x5 PUSH1 0x0 DUP4 PUSH20 0xFFFFFFFFFFFFFFFFFFFFFFFFFFFFFFFFFFFFFFFF AND PUSH20 0xFFFFFFFFFFFFFFFFFFFFFFFFFFFFFFFFFFFFFFFF AND DUP2 MSTORE PUSH1 0x20 ADD SWAP1 DUP2 MSTORE PUSH1 0x20 ADD PUSH1 0x0 KECCAK256 SLOAD SWAP1 POP SWAP2 SWAP1 POP JUMP JUMPDEST PUSH1 0x0 DUP2 GT PUSH2 0x113E JUMPI PUSH1 0x40 MLOAD PUSH32 0x8C379A000000000000000000000000000000000000000000000000000000000 DUP2 MSTORE PUSH1 0x4 ADD PUSH2 0x1135 SWAP1 PUSH2 0x2212 JUMP JUMPDEST PUSH1 0x40 MLOAD DUP1 SWAP2 SUB SWAP1 REVERT JUMPDEST PUSH1 0x3 PUSH1 0x0 CALLER PUSH20 0xFFFFFFFFFFFFFFFFFFFFFFFFFFFFFFFFFFFFFFFF AND PUSH20 0xFFFFFFFFFFFFFFFFFFFFFFFFFFFFFFFFFFFFFFFF AND DUP2 MSTORE PUSH1 0x20 ADD SWAP1 DUP2 MSTORE PUSH1 0x20 ADD PUSH1 0x0 KECCAK256 PUSH1 0x3 ADD PUSH1 0x0 SWAP1 SLOAD SWAP1 PUSH2 0x100 EXP SWAP1 DIV PUSH1 0xFF AND ISZERO PUSH2 0x11CE JUMPI PUSH1 0x40 MLOAD PUSH32 0x8C379A000000000000000000000000000000000000000000000000000000000 DUP2 MSTORE PUSH1 0x4 ADD PUSH2 0x11C5 SWAP1 PUSH2 0x240E JUMP JUMPDEST PUSH1 0x40 MLOAD DUP1 SWAP2 SUB SWAP1 REVERT JUMPDEST PUSH1 0x0 PUSH1 0x64 PUSH1 0x96 DUP4 PUSH2 0x11DF SWAP2 SWAP1 PUSH2 0x2127 JUMP JUMPDEST PUSH2 0x11E9 SWAP2 SWAP1 PUSH2 0x208A JUMP JUMPDEST SWAP1 POP DUP1 PUSH1 0x4 PUSH1 0x0 CALLER PUSH20 0xFFFFFFFFFFFFFFFFFFFFFFFFFFFFFFFFFFFFFFFF AND PUSH20 0xFFFFFFFFFFFFFFFFFFFFFFFFFFFFFFFFFFFFFFFF AND DUP2 MSTORE PUSH1 0x20 ADD SWAP1 DUP2 MSTORE PUSH1 0x20 ADD PUSH1 0x0 KECCAK256 SLOAD LT ISZERO PUSH2 0x126D JUMPI PUSH1 0x40 MLOAD PUSH32 0x8C379A000000000000000000000000000000000000000000000000000000000 DUP2 MSTORE PUSH1 0x4 ADD PUSH2 0x1264 SWAP1 PUSH2 0x227E JUMP JUMPDEST PUSH1 0x40 MLOAD DUP1 SWAP2 SUB SWAP1 REVERT JUMPDEST PUSH1 0x0 PUSH1 0x64 PUSH1 0x50 PUSH1 0x4 PUSH1 0x0 CALLER PUSH20 0xFFFFFFFFFFFFFFFFFFFFFFFFFFFFFFFFFFFFFFFF AND PUSH20 0xFFFFFFFFFFFFFFFFFFFFFFFFFFFFFFFFFFFFFFFF AND DUP2 MSTORE PUSH1 0x20 ADD SWAP1 DUP2 MSTORE PUSH1 0x20 ADD PUSH1 0x0 KECCAK256 SLOAD PUSH2 0x12BD SWAP2 SWAP1 PUSH2 0x2127 JUMP JUMPDEST PUSH2 0x12C7 SWAP2 SWAP1 PUSH2 0x208A JUMP JUMPDEST SWAP1 POP DUP1 DUP4 GT ISZERO PUSH2 0x130C JUMPI PUSH1 0x40 MLOAD PUSH32 0x8C379A000000000000000000000000000000000000000000000000000000000 DUP2 MSTORE PUSH1 0x4 ADD PUSH2 0x1303 SWAP1 PUSH2 0x247A JUMP JUMPDEST PUSH1 0x40 MLOAD DUP1 SWAP2 SUB SWAP1 REVERT JUMPDEST DUP3 PUSH32 0x0 PUSH20 0xFFFFFFFFFFFFFFFFFFFFFFFFFFFFFFFFFFFFFFFF AND PUSH4 0x70A08231 ADDRESS PUSH1 0x40 MLOAD DUP3 PUSH4 0xFFFFFFFF AND PUSH1 0xE0 SHL DUP2 MSTORE PUSH1 0x4 ADD PUSH2 0x1366 SWAP2 SWAP1 PUSH2 0x1ED2 JUMP JUMPDEST PUSH1 0x20 PUSH1 0x40 MLOAD DUP1 DUP4 SUB DUP2 DUP7 GAS STATICCALL ISZERO DUP1 ISZERO PUSH2 0x1383 JUMPI RETURNDATASIZE PUSH1 0x0 DUP1 RETURNDATACOPY RETURNDATASIZE PUSH1 0x0 REVERT JUMPDEST POP POP POP POP PUSH1 0x40 MLOAD RETURNDATASIZE PUSH1 0x1F NOT PUSH1 0x1F DUP3 ADD AND DUP3 ADD DUP1 PUSH1 0x40 MSTORE POP DUP2 ADD SWAP1 PUSH2 0x13A7 SWAP2 SWAP1 PUSH2 0x24AF JUMP JUMPDEST LT ISZERO PUSH2 0x13E8 JUMPI PUSH1 0x40 MLOAD PUSH32 0x8C379A000000000000000000000000000000000000000000000000000000000 DUP2 MSTORE PUSH1 0x4 ADD PUSH2 0x13DF SWAP1 PUSH2 0x2528 JUMP JUMPDEST PUSH1 0x40 MLOAD DUP1 SWAP2 SUB SWAP1 REVERT JUMPDEST PUSH1 0x40 MLOAD DUP1 PUSH1 0x80 ADD PUSH1 0x40 MSTORE DUP1 DUP5 DUP2 MSTORE PUSH1 0x20 ADD DUP4 DUP2 MSTORE PUSH1 0x20 ADD TIMESTAMP DUP2 MSTORE PUSH1 0x20 ADD PUSH1 0x1 ISZERO ISZERO DUP2 MSTORE POP PUSH1 0x3 PUSH1 0x0 CALLER PUSH20 0xFFFFFFFFFFFFFFFFFFFFFFFFFFFFFFFFFFFFFFFF AND PUSH20 0xFFFFFFFFFFFFFFFFFFFFFFFFFFFFFFFFFFFFFFFF AND DUP2 MSTORE PUSH1 0x20 ADD SWAP1 DUP2 MSTORE PUSH1 0x20 ADD PUSH1 0x0 KECCAK256 PUSH1 0x0 DUP3 ADD MLOAD DUP2 PUSH1 0x0 ADD SSTORE PUSH1 0x20 DUP3 ADD MLOAD DUP2 PUSH1 0x1 ADD SSTORE PUSH1 0x40 DUP3 ADD MLOAD DUP2 PUSH1 0x2 ADD SSTORE PUSH1 0x60 DUP3 ADD MLOAD DUP2 PUSH1 0x3 ADD PUSH1 0x0 PUSH2 0x100 EXP DUP2 SLOAD DUP2 PUSH1 0xFF MUL NOT AND SWAP1 DUP4 ISZERO ISZERO MUL OR SWAP1 SSTORE POP SWAP1 POP POP PUSH2 0x14D7 CALLER DUP5 PUSH32 0x0 PUSH20 0xFFFFFFFFFFFFFFFFFFFFFFFFFFFFFFFFFFFFFFFF AND PUSH2 0x1882 SWAP1 SWAP3 SWAP2 SWAP1 PUSH4 0xFFFFFFFF AND JUMP JUMPDEST DUP3 PUSH1 0x2 SLOAD PUSH2 0x14E5 SWAP2 SWAP1 PUSH2 0x2169 JUMP JUMPDEST PUSH1 0x2 DUP2 SWAP1 SSTORE POP CALLER PUSH20 0xFFFFFFFFFFFFFFFFFFFFFFFFFFFFFFFFFFFFFFFF AND PUSH31 0x6B9BB4766CF5AB74B890DF959E4FAD0E54B1C3885E49C9541D36253A6E39E6 DUP5 DUP5 PUSH1 0x40 MLOAD PUSH2 0x1532 SWAP3 SWAP2 SWAP1 PUSH2 0x219D JUMP JUMPDEST PUSH1 0x40 MLOAD DUP1 SWAP2 SUB SWAP1 LOG2 POP POP POP JUMP JUMPDEST PUSH1 0x96 DUP2 JUMP JUMPDEST PUSH1 0x0 PUSH1 0x5 PUSH1 0x0 DUP4 PUSH20 0xFFFFFFFFFFFFFFFFFFFFFFFFFFFFFFFFFFFFFFFF AND PUSH20 0xFFFFFFFFFFFFFFFFFFFFFFFFFFFFFFFFFFFFFFFF AND DUP2 MSTORE PUSH1 0x20 ADD SWAP1 DUP2 MSTORE PUSH1 0x20 ADD PUSH1 0x0 KECCAK256 SLOAD SWAP1 POP SWAP2 SWAP1 POP JUMP JUMPDEST PUSH3 0x278D00 DUP2 JUMP JUMPDEST PUSH1 0x0 DUP1 PUSH1 0x3 PUSH1 0x0 DUP5 PUSH20 0xFFFFFFFFFFFFFFFFFFFFFFFFFFFFFFFFFFFFFFFF AND PUSH20 0xFFFFFFFFFFFFFFFFFFFFFFFFFFFFFFFFFFFFFFFF AND DUP2 MSTORE PUSH1 0x20 ADD SWAP1 DUP2 MSTORE PUSH1 0x20 ADD PUSH1 0x0 KECCAK256 SWAP1 POP DUP1 PUSH1 0x3 ADD PUSH1 0x0 SWAP1 SLOAD SWAP1 PUSH2 0x100 EXP SWAP1 DIV PUSH1 0xFF AND ISZERO PUSH2 0x1649 JUMPI PUSH1 0x0 PUSH3 0x15180 DUP3 PUSH1 0x2 ADD SLOAD TIMESTAMP PUSH2 0x1605 SWAP2 SWAP1 PUSH2 0x2027 JUMP JUMPDEST PUSH2 0x160F SWAP2 SWAP1 PUSH2 0x208A JUMP JUMPDEST SWAP1 POP PUSH1 0x0 PUSH2 0x8E94 DUP3 PUSH1 0x5 DUP6 PUSH1 0x0 ADD SLOAD PUSH2 0x1628 SWAP2 SWAP1 PUSH2 0x2127 JUMP JUMPDEST PUSH2 0x1632 SWAP2 SWAP1 PUSH2 0x2127 JUMP JUMPDEST PUSH2 0x163C SWAP2 SWAP1 PUSH2 0x208A JUMP JUMPDEST SWAP1 POP DUP1 SWAP4 POP POP POP POP PUSH2 0x164F JUMP JUMPDEST PUSH1 0x0 SWAP2 POP POP JUMPDEST SWAP2 SWAP1 POP JUMP JUMPDEST PUSH1 0x0 DUP1 PUSH1 0x3 PUSH1 0x0 DUP5 PUSH20 0xFFFFFFFFFFFFFFFFFFFFFFFFFFFFFFFFFFFFFFFF AND PUSH20 0xFFFFFFFFFFFFFFFFFFFFFFFFFFFFFFFFFFFFFFFF AND DUP2 MSTORE PUSH1 0x20 ADD SWAP1 DUP2 MSTORE PUSH1 0x20 ADD PUSH1 0x0 KECCAK256 SWAP1 POP DUP1 PUSH1 0x3 ADD PUSH1 0x0 SWAP1 SLOAD SWAP1 PUSH2 0x100 EXP SWAP1 DIV PUSH1 0xFF AND ISZERO PUSH2 0x16BC JUMPI DUP1 PUSH1 0x0 ADD SLOAD SWAP2 POP POP PUSH2 0x16C2 JUMP JUMPDEST PUSH1 0x0 SWAP2 POP POP JUMPDEST SWAP2 SWAP1 POP JUMP JUMPDEST PUSH2 0x16CF PUSH2 0x1CA2 JUMP JUMPDEST PUSH1 0x3 PUSH1 0x0 DUP4 PUSH20 0xFFFFFFFFFFFFFFFFFFFFFFFFFFFFFFFFFFFFFFFF AND PUSH20 0xFFFFFFFFFFFFFFFFFFFFFFFFFFFFFFFFFFFFFFFF AND DUP2 MSTORE PUSH1 0x20 ADD SWAP1 DUP2 MSTORE PUSH1 0x20 ADD PUSH1 0x0 KECCAK256 PUSH1 0x40 MLOAD DUP1 PUSH1 0x80 ADD PUSH1 0x40 MSTORE SWAP1 DUP2 PUSH1 0x0 DUP3 ADD SLOAD DUP2 MSTORE PUSH1 0x20 ADD PUSH1 0x1 DUP3 ADD SLOAD DUP2 MSTORE PUSH1 0x20 ADD PUSH1 0x2 DUP3 ADD SLOAD DUP2 MSTORE PUSH1 0x20 ADD PUSH1 0x3 DUP3 ADD PUSH1 0x0 SWAP1 SLOAD SWAP1 PUSH2 0x100 EXP SWAP1 DIV PUSH1 0xFF AND ISZERO ISZERO ISZERO ISZERO DUP2 MSTORE POP POP SWAP1 POP SWAP2 SWAP1 POP JUMP JUMPDEST PUSH2 0x1761 PUSH2 0x1901 JUMP JUMPDEST PUSH1 0x0 PUSH20 0xFFFFFFFFFFFFFFFFFFFFFFFFFFFFFFFFFFFFFFFF AND DUP2 PUSH20 0xFFFFFFFFFFFFFFFFFFFFFFFFFFFFFFFFFFFFFFFF AND SUB PUSH2 0x17D3 JUMPI PUSH1 0x0 PUSH1 0x40 MLOAD PUSH32 0x1E4FBDF700000000000000000000000000000000000000000000000000000000 DUP2 MSTORE PUSH1 0x4 ADD PUSH2 0x17CA SWAP2 SWAP1 PUSH2 0x1ED2 JUMP JUMPDEST PUSH1 0x40 MLOAD DUP1 SWAP2 SUB SWAP1 REVERT JUMPDEST PUSH2 0x17DC DUP2 PUSH2 0x1988 JUMP JUMPDEST POP JUMP JUMPDEST PUSH1 0x0 PUSH1 0x5 SWAP1 POP SWAP1 JUMP JUMPDEST PUSH1 0x4 PUSH1 0x20 MSTORE DUP1 PUSH1 0x0 MSTORE PUSH1 0x40 PUSH1 0x0 KECCAK256 PUSH1 0x0 SWAP2 POP SWAP1 POP SLOAD DUP2 JUMP JUMPDEST PUSH2 0x187C DUP5 DUP6 PUSH20 0xFFFFFFFFFFFFFFFFFFFFFFFFFFFFFFFFFFFFFFFF AND PUSH4 0x23B872DD DUP7 DUP7 DUP7 PUSH1 0x40 MLOAD PUSH1 0x24 ADD PUSH2 0x1835 SWAP4 SWAP3 SWAP2 SWAP1 PUSH2 0x2548 JUMP JUMPDEST PUSH1 0x40 MLOAD PUSH1 0x20 DUP2 DUP4 SUB SUB DUP2 MSTORE SWAP1 PUSH1 0x40 MSTORE SWAP2 POP PUSH1 0xE0 SHL PUSH1 0x20 DUP3 ADD DUP1 MLOAD PUSH28 0xFFFFFFFFFFFFFFFFFFFFFFFFFFFFFFFFFFFFFFFFFFFFFFFFFFFFFFFF DUP4 DUP2 DUP4 AND OR DUP4 MSTORE POP POP POP POP PUSH2 0x1A4C JUMP JUMPDEST POP POP POP POP JUMP JUMPDEST PUSH2 0x18FC DUP4 DUP5 PUSH20 0xFFFFFFFFFFFFFFFFFFFFFFFFFFFFFFFFFFFFFFFF AND PUSH4 0xA9059CBB DUP6 DUP6 PUSH1 0x40 MLOAD PUSH1 0x24 ADD PUSH2 0x18B5 SWAP3 SWAP2 SWAP1 PUSH2 0x257F JUMP JUMPDEST PUSH1 0x40 MLOAD PUSH1 0x20 DUP2 DUP4 SUB SUB DUP2 MSTORE SWAP1 PUSH1 0x40 MSTORE SWAP2 POP PUSH1 0xE0 SHL PUSH1 0x20 DUP3 ADD DUP1 MLOAD PUSH28 0xFFFFFFFFFFFFFFFFFFFFFFFFFFFFFFFFFFFFFFFFFFFFFFFFFFFFFFFF DUP4 DUP2 DUP4 AND OR DUP4 MSTORE POP POP POP POP PUSH2 0x1A4C JUMP JUMPDEST POP POP POP JUMP JUMPDEST PUSH2 0x1909 PUSH2 0x1AE3 JUMP JUMPDEST PUSH20 0xFFFFFFFFFFFFFFFFFFFFFFFFFFFFFFFFFFFFFFFF AND PUSH2 0x1927 PUSH2 0xBDC JUMP JUMPDEST PUSH20 0xFFFFFFFFFFFFFFFFFFFFFFFFFFFFFFFFFFFFFFFF AND EQ PUSH2 0x1986 JUMPI PUSH2 0x194A PUSH2 0x1AE3 JUMP JUMPDEST PUSH1 0x40 MLOAD PUSH32 0x118CDAA700000000000000000000000000000000000000000000000000000000 DUP2 MSTORE PUSH1 0x4 ADD PUSH2 0x197D SWAP2 SWAP1 PUSH2 0x1ED2 JUMP JUMPDEST PUSH1 0x40 MLOAD DUP1 SWAP2 SUB SWAP1 REVERT JUMPDEST JUMP JUMPDEST PUSH1 0x0 DUP1 PUSH1 0x0 SWAP1 SLOAD SWAP1 PUSH2 0x100 EXP SWAP1 DIV PUSH20 0xFFFFFFFFFFFFFFFFFFFFFFFFFFFFFFFFFFFFFFFF AND SWAP1 POP DUP2 PUSH1 0x0 DUP1 PUSH2 0x100 EXP DUP2 SLOAD DUP2 PUSH20 0xFFFFFFFFFFFFFFFFFFFFFFFFFFFFFFFFFFFFFFFF MUL NOT AND SWAP1 DUP4 PUSH20 0xFFFFFFFFFFFFFFFFFFFFFFFFFFFFFFFFFFFFFFFF AND MUL OR SWAP1 SSTORE POP DUP2 PUSH20 0xFFFFFFFFFFFFFFFFFFFFFFFFFFFFFFFFFFFFFFFF AND DUP2 PUSH20 0xFFFFFFFFFFFFFFFFFFFFFFFFFFFFFFFFFFFFFFFF AND PUSH32 0x8BE0079C531659141344CD1FD0A4F28419497F9722A3DAAFE3B4186F6B6457E0 PUSH1 0x40 MLOAD PUSH1 0x40 MLOAD DUP1 SWAP2 SUB SWAP1 LOG3 POP POP JUMP JUMPDEST PUSH1 0x0 PUSH2 0x1A77 DUP3 DUP5 PUSH20 0xFFFFFFFFFFFFFFFFFFFFFFFFFFFFFFFFFFFFFFFF AND PUSH2 0x1AEB SWAP1 SWAP2 SWAP1 PUSH4 0xFFFFFFFF AND JUMP JUMPDEST SWAP1 POP PUSH1 0x0 DUP2 MLOAD EQ ISZERO DUP1 ISZERO PUSH2 0x1A9C JUMPI POP DUP1 DUP1 PUSH1 0x20 ADD SWAP1 MLOAD DUP2 ADD SWAP1 PUSH2 0x1A9A SWAP2 SWAP1 PUSH2 0x25D4 JUMP JUMPDEST ISZERO JUMPDEST ISZERO PUSH2 0x1ADE JUMPI DUP3 PUSH1 0x40 MLOAD PUSH32 0x5274AFE700000000000000000000000000000000000000000000000000000000 DUP2 MSTORE PUSH1 0x4 ADD PUSH2 0x1AD5 SWAP2 SWAP1 PUSH2 0x1ED2 JUMP JUMPDEST PUSH1 0x40 MLOAD DUP1 SWAP2 SUB SWAP1 REVERT JUMPDEST POP POP POP JUMP JUMPDEST PUSH1 0x0 CALLER SWAP1 POP SWAP1 JUMP JUMPDEST PUSH1 0x60 PUSH2 0x1AF9 DUP4 DUP4 PUSH1 0x0 PUSH2 0x1B01 JUMP JUMPDEST SWAP1 POP SWAP3 SWAP2 POP POP JUMP JUMPDEST PUSH1 0x60 DUP2 SELFBALANCE LT ISZERO PUSH2 0x1B48 JUMPI ADDRESS PUSH1 0x40 MLOAD PUSH32 0xCD78605900000000000000000000000000000000000000000000000000000000 DUP2 MSTORE PUSH1 0x4 ADD PUSH2 0x1B3F SWAP2 SWAP1 PUSH2 0x1ED2 JUMP JUMPDEST PUSH1 0x40 MLOAD DUP1 SWAP2 SUB SWAP1 REVERT JUMPDEST PUSH1 0x0 DUP1 DUP6 PUSH20 0xFFFFFFFFFFFFFFFFFFFFFFFFFFFFFFFFFFFFFFFF AND DUP5 DUP7 PUSH1 0x40 MLOAD PUSH2 0x1B71 SWAP2 SWAP1 PUSH2 0x2672 JUMP JUMPDEST PUSH1 0x0 PUSH1 0x40 MLOAD DUP1 DUP4 SUB DUP2 DUP6 DUP8 GAS CALL SWAP3 POP POP POP RETURNDATASIZE DUP1 PUSH1 0x0 DUP2 EQ PUSH2 0x1BAE JUMPI PUSH1 0x40 MLOAD SWAP2 POP PUSH1 0x1F NOT PUSH1 0x3F RETURNDATASIZE ADD AND DUP3 ADD PUSH1 0x40 MSTORE RETURNDATASIZE DUP3 MSTORE RETURNDATASIZE PUSH1 0x0 PUSH1 0x20 DUP5 ADD RETURNDATACOPY PUSH2 0x1BB3 JUMP JUMPDEST PUSH1 0x60 SWAP2 POP JUMPDEST POP SWAP2 POP SWAP2 POP PUSH2 0x1BC3 DUP7 DUP4 DUP4 PUSH2 0x1BCE JUMP JUMPDEST SWAP3 POP POP POP SWAP4 SWAP3 POP POP POP JUMP JUMPDEST PUSH1 0x60 DUP3 PUSH2 0x1BE3 JUMPI PUSH2 0x1BDE DUP3 PUSH2 0x1C5D JUMP JUMPDEST PUSH2 0x1C55 JUMP JUMPDEST PUSH1 0x0 DUP3 MLOAD EQ DUP1 ISZERO PUSH2 0x1C0B JUMPI POP PUSH1 0x0 DUP5 PUSH20 0xFFFFFFFFFFFFFFFFFFFFFFFFFFFFFFFFFFFFFFFF AND EXTCODESIZE EQ JUMPDEST ISZERO PUSH2 0x1C4D JUMPI DUP4 PUSH1 0x40 MLOAD PUSH32 0x9996B31500000000000000000000000000000000000000000000000000000000 DUP2 MSTORE PUSH1 0x4 ADD PUSH2 0x1C44 SWAP2 SWAP1 PUSH2 0x1ED2 JUMP JUMPDEST PUSH1 0x40 MLOAD DUP1 SWAP2 SUB SWAP1 REVERT JUMPDEST DUP2 SWAP1 POP PUSH2 0x1C56 JUMP JUMPDEST JUMPDEST SWAP4 SWAP3 POP POP POP JUMP JUMPDEST PUSH1 0x0 DUP2 MLOAD GT ISZERO PUSH2 0x1C70 JUMPI DUP1 MLOAD DUP1 DUP3 PUSH1 0x20 ADD REVERT JUMPDEST PUSH1 0x40 MLOAD PUSH32 0x1425EA4200000000000000000000000000000000000000000000000000000000 DUP2 MSTORE PUSH1 0x4 ADD PUSH1 0x40 MLOAD DUP1 SWAP2 SUB SWAP1 REVERT JUMPDEST PUSH1 0x40 MLOAD DUP1 PUSH1 0x80 ADD PUSH1 0x40 MSTORE DUP1 PUSH1 0x0 DUP2 MSTORE PUSH1 0x20 ADD PUSH1 0x0 DUP2 MSTORE PUSH1 0x20 ADD PUSH1 0x0 DUP2 MSTORE PUSH1 0x20 ADD PUSH1 0x0 ISZERO ISZERO DUP2 MSTORE POP SWAP1 JUMP JUMPDEST PUSH1 0x0 DUP2 SWAP1 POP SWAP2 SWAP1 POP JUMP JUMPDEST PUSH2 0x1CDF DUP2 PUSH2 0x1CCC JUMP JUMPDEST DUP3 MSTORE POP POP JUMP JUMPDEST PUSH1 0x0 PUSH1 0x20 DUP3 ADD SWAP1 POP PUSH2 0x1CFA PUSH1 0x0 DUP4 ADD DUP5 PUSH2 0x1CD6 JUMP JUMPDEST SWAP3 SWAP2 POP POP JUMP JUMPDEST PUSH1 0x0 DUP1 REVERT JUMPDEST PUSH1 0x0 PUSH20 0xFFFFFFFFFFFFFFFFFFFFFFFFFFFFFFFFFFFFFFFF DUP3 AND SWAP1 POP SWAP2 SWAP1 POP JUMP JUMPDEST PUSH1 0x0 PUSH2 0x1D30 DUP3 PUSH2 0x1D05 JUMP JUMPDEST SWAP1 POP SWAP2 SWAP1 POP JUMP JUMPDEST PUSH2 0x1D40 DUP2 PUSH2 0x1D25 JUMP JUMPDEST DUP2 EQ PUSH2 0x1D4B JUMPI PUSH1 0x0 DUP1 REVERT JUMPDEST POP JUMP JUMPDEST PUSH1 0x0 DUP2 CALLDATALOAD SWAP1 POP PUSH2 0x1D5D DUP2 PUSH2 0x1D37 JUMP JUMPDEST SWAP3 SWAP2 POP POP JUMP JUMPDEST PUSH1 0x0 PUSH1 0x20 DUP3 DUP5 SUB SLT ISZERO PUSH2 0x1D79 JUMPI PUSH2 0x1D78 PUSH2 0x1D00 JUMP JUMPDEST JUMPDEST PUSH1 0x0 PUSH2 0x1D87 DUP5 DUP3 DUP6 ADD PUSH2 0x1D4E JUMP JUMPDEST SWAP2 POP POP SWAP3 SWAP2 POP POP JUMP JUMPDEST PUSH1 0x0 DUP2 SWAP1 POP SWAP2 SWAP1 POP JUMP JUMPDEST PUSH1 0x0 PUSH2 0x1DB5 PUSH2 0x1DB0 PUSH2 0x1DAB DUP5 PUSH2 0x1D05 JUMP JUMPDEST PUSH2 0x1D90 JUMP JUMPDEST PUSH2 0x1D05 JUMP JUMPDEST SWAP1 POP SWAP2 SWAP1 POP JUMP JUMPDEST PUSH1 0x0 PUSH2 0x1DC7 DUP3 PUSH2 0x1D9A JUMP JUMPDEST SWAP1 POP SWAP2 SWAP1 POP JUMP JUMPDEST PUSH1 0x0 PUSH2 0x1DD9 DUP3 PUSH2 0x1DBC JUMP JUMPDEST SWAP1 POP SWAP2 SWAP1 POP JUMP JUMPDEST PUSH2 0x1DE9 DUP2 PUSH2 0x1DCE JUMP JUMPDEST DUP3 MSTORE POP POP JUMP JUMPDEST PUSH1 0x0 PUSH1 0x20 DUP3 ADD SWAP1 POP PUSH2 0x1E04 PUSH1 0x0 DUP4 ADD DUP5 PUSH2 0x1DE0 JUMP JUMPDEST SWAP3 SWAP2 POP POP JUMP JUMPDEST PUSH2 0x1E13 DUP2 PUSH2 0x1CCC JUMP JUMPDEST DUP2 EQ PUSH2 0x1E1E JUMPI PUSH1 0x0 DUP1 REVERT JUMPDEST POP JUMP JUMPDEST PUSH1 0x0 DUP2 CALLDATALOAD SWAP1 POP PUSH2 0x1E30 DUP2 PUSH2 0x1E0A JUMP JUMPDEST SWAP3 SWAP2 POP POP JUMP JUMPDEST PUSH1 0x0 PUSH1 0x20 DUP3 DUP5 SUB SLT ISZERO PUSH2 0x1E4C JUMPI PUSH2 0x1E4B PUSH2 0x1D00 JUMP JUMPDEST JUMPDEST PUSH1 0x0 PUSH2 0x1E5A DUP5 DUP3 DUP6 ADD PUSH2 0x1E21 JUMP JUMPDEST SWAP2 POP POP SWAP3 SWAP2 POP POP JUMP JUMPDEST PUSH1 0x0 DUP2 ISZERO ISZERO SWAP1 POP SWAP2 SWAP1 POP JUMP JUMPDEST PUSH2 0x1E78 DUP2 PUSH2 0x1E63 JUMP JUMPDEST DUP3 MSTORE POP POP JUMP JUMPDEST PUSH1 0x0 PUSH1 0x80 DUP3 ADD SWAP1 POP PUSH2 0x1E93 PUSH1 0x0 DUP4 ADD DUP8 PUSH2 0x1CD6 JUMP JUMPDEST PUSH2 0x1EA0 PUSH1 0x20 DUP4 ADD DUP7 PUSH2 0x1CD6 JUMP JUMPDEST PUSH2 0x1EAD PUSH1 0x40 DUP4 ADD DUP6 PUSH2 0x1CD6 JUMP JUMPDEST PUSH2 0x1EBA PUSH1 0x60 DUP4 ADD DUP5 PUSH2 0x1E6F JUMP JUMPDEST SWAP6 SWAP5 POP POP POP POP POP JUMP JUMPDEST PUSH2 0x1ECC DUP2 PUSH2 0x1D25 JUMP JUMPDEST DUP3 MSTORE POP POP JUMP JUMPDEST PUSH1 0x0 PUSH1 0x20 DUP3 ADD SWAP1 POP PUSH2 0x1EE7 PUSH1 0x0 DUP4 ADD DUP5 PUSH2 0x1EC3 JUMP JUMPDEST SWAP3 SWAP2 POP POP JUMP JUMPDEST PUSH2 0x1EF6 DUP2 PUSH2 0x1CCC JUMP JUMPDEST DUP3 MSTORE POP POP JUMP JUMPDEST PUSH2 0x1F05 DUP2 PUSH2 0x1E63 JUMP JUMPDEST DUP3 MSTORE POP POP JUMP JUMPDEST PUSH1 0x80 DUP3 ADD PUSH1 0x0 DUP3 ADD MLOAD PUSH2 0x1F21 PUSH1 0x0 DUP6 ADD DUP3 PUSH2 0x1EED JUMP JUMPDEST POP PUSH1 0x20 DUP3 ADD MLOAD PUSH2 0x1F34 PUSH1 0x20 DUP6 ADD DUP3 PUSH2 0x1EED JUMP JUMPDEST POP PUSH1 0x40 DUP3 ADD MLOAD PUSH2 0x1F47 PUSH1 0x40 DUP6 ADD DUP3 PUSH2 0x1EED JUMP JUMPDEST POP PUSH1 0x60 DUP3 ADD MLOAD PUSH2 0x1F5A PUSH1 0x60 DUP6 ADD DUP3 PUSH2 0x1EFC JUMP JUMPDEST POP POP POP POP JUMP JUMPDEST PUSH1 0x0 PUSH1 0x80 DUP3 ADD SWAP1 POP PUSH2 0x1F75 PUSH1 0x0 DUP4 ADD DUP5 PUSH2 0x1F0B JUMP JUMPDEST SWAP3 SWAP2 POP POP JUMP JUMPDEST PUSH1 0x0 DUP3 DUP3 MSTORE PUSH1 0x20 DUP3 ADD SWAP1 POP SWAP3 SWAP2 POP POP JUMP JUMPDEST PUSH32 0x4E6F20616374697665206C6F616E000000000000000000000000000000000000 PUSH1 0x0 DUP3 ADD MSTORE POP JUMP JUMPDEST PUSH1 0x0 PUSH2 0x1FC2 PUSH1 0xE DUP4 PUSH2 0x1F7B JUMP JUMPDEST SWAP2 POP PUSH2 0x1FCD DUP3 PUSH2 0x1F8C JUMP JUMPDEST PUSH1 0x20 DUP3 ADD SWAP1 POP SWAP2 SWAP1 POP JUMP JUMPDEST PUSH1 0x0 PUSH1 0x20 DUP3 ADD SWAP1 POP DUP2 DUP2 SUB PUSH1 0x0 DUP4 ADD MSTORE PUSH2 0x1FF1 DUP2 PUSH2 0x1FB5 JUMP JUMPDEST SWAP1 POP SWAP2 SWAP1 POP JUMP JUMPDEST PUSH32 0x4E487B7100000000000000000000000000000000000000000000000000000000 PUSH1 0x0 MSTORE PUSH1 0x11 PUSH1 0x4 MSTORE PUSH1 0x24 PUSH1 0x0 REVERT JUMPDEST PUSH1 0x0 PUSH2 0x2032 DUP3 PUSH2 0x1CCC JUMP JUMPDEST SWAP2 POP PUSH2 0x203D DUP4 PUSH2 0x1CCC JUMP JUMPDEST SWAP3 POP DUP3 DUP3 SUB SWAP1 POP DUP2 DUP2 GT ISZERO PUSH2 0x2055 JUMPI PUSH2 0x2054 PUSH2 0x1FF8 JUMP JUMPDEST JUMPDEST SWAP3 SWAP2 POP POP JUMP JUMPDEST PUSH32 0x4E487B7100000000000000000000000000000000000000000000000000000000 PUSH1 0x0 MSTORE PUSH1 0x12 PUSH1 0x4 MSTORE PUSH1 0x24 PUSH1 0x0 REVERT JUMPDEST PUSH1 0x0 PUSH2 0x2095 DUP3 PUSH2 0x1CCC JUMP JUMPDEST SWAP2 POP PUSH2 0x20A0 DUP4 PUSH2 0x1CCC JUMP JUMPDEST SWAP3 POP DUP3 PUSH2 0x20B0 JUMPI PUSH2 0x20AF PUSH2 0x205B JUMP JUMPDEST JUMPDEST DUP3 DUP3 DIV SWAP1 POP SWAP3 SWAP2 POP POP JUMP JUMPDEST PUSH32 0x4C6F616E206475726174696F6E20657863656564656420333020646179730000 PUSH1 0x0 DUP3 ADD MSTORE POP JUMP JUMPDEST PUSH1 0x0 PUSH2 0x20F1 PUSH1 0x1E DUP4 PUSH2 0x1F7B JUMP JUMPDEST SWAP2 POP PUSH2 0x20FC DUP3 PUSH2 0x20BB JUMP JUMPDEST PUSH1 0x20 DUP3 ADD SWAP1 POP SWAP2 SWAP1 POP JUMP JUMPDEST PUSH1 0x0 PUSH1 0x20 DUP3 ADD SWAP1 POP DUP2 DUP2 SUB PUSH1 0x0 DUP4 ADD MSTORE PUSH2 0x2120 DUP2 PUSH2 0x20E4 JUMP JUMPDEST SWAP1 POP SWAP2 SWAP1 POP JUMP JUMPDEST PUSH1 0x0 PUSH2 0x2132 DUP3 PUSH2 0x1CCC JUMP JUMPDEST SWAP2 POP PUSH2 0x213D DUP4 PUSH2 0x1CCC JUMP JUMPDEST SWAP3 POP DUP3 DUP3 MUL PUSH2 0x214B DUP2 PUSH2 0x1CCC JUMP JUMPDEST SWAP2 POP DUP3 DUP3 DIV DUP5 EQ DUP4 ISZERO OR PUSH2 0x2162 JUMPI PUSH2 0x2161 PUSH2 0x1FF8 JUMP JUMPDEST JUMPDEST POP SWAP3 SWAP2 POP POP JUMP JUMPDEST PUSH1 0x0 PUSH2 0x2174 DUP3 PUSH2 0x1CCC JUMP JUMPDEST SWAP2 POP PUSH2 0x217F DUP4 PUSH2 0x1CCC JUMP JUMPDEST SWAP3 POP DUP3 DUP3 ADD SWAP1 POP DUP1 DUP3 GT ISZERO PUSH2 0x2197 JUMPI PUSH2 0x2196 PUSH2 0x1FF8 JUMP JUMPDEST JUMPDEST SWAP3 SWAP2 POP POP JUMP JUMPDEST PUSH1 0x0 PUSH1 0x40 DUP3 ADD SWAP1 POP PUSH2 0x21B2 PUSH1 0x0 DUP4 ADD DUP6 PUSH2 0x1CD6 JUMP JUMPDEST PUSH2 0x21BF PUSH1 0x20 DUP4 ADD DUP5 PUSH2 0x1CD6 JUMP JUMPDEST SWAP4 SWAP3 POP POP POP JUMP JUMPDEST PUSH32 0x416D6F756E74206D7573742062652067726561746572207468616E2030000000 PUSH1 0x0 DUP3 ADD MSTORE POP JUMP JUMPDEST PUSH1 0x0 PUSH2 0x21FC PUSH1 0x1D DUP4 PUSH2 0x1F7B JUMP JUMPDEST SWAP2 POP PUSH2 0x2207 DUP3 PUSH2 0x21C6 JUMP JUMPDEST PUSH1 0x20 DUP3 ADD SWAP1 POP SWAP2 SWAP1 POP JUMP JUMPDEST PUSH1 0x0 PUSH1 0x20 DUP3 ADD SWAP1 POP DUP2 DUP2 SUB PUSH1 0x0 DUP4 ADD MSTORE PUSH2 0x222B DUP2 PUSH2 0x21EF JUMP JUMPDEST SWAP1 POP SWAP2 SWAP1 POP JUMP JUMPDEST PUSH32 0x496E73756666696369656E7420636F6C6C61746572616C000000000000000000 PUSH1 0x0 DUP3 ADD MSTORE POP JUMP JUMPDEST PUSH1 0x0 PUSH2 0x2268 PUSH1 0x17 DUP4 PUSH2 0x1F7B JUMP JUMPDEST SWAP2 POP PUSH2 0x2273 DUP3 PUSH2 0x2232 JUMP JUMPDEST PUSH1 0x20 DUP3 ADD SWAP1 POP SWAP2 SWAP1 POP JUMP JUMPDEST PUSH1 0x0 PUSH1 0x20 DUP3 ADD SWAP1 POP DUP2 DUP2 SUB PUSH1 0x0 DUP4 ADD MSTORE PUSH2 0x2297 DUP2 PUSH2 0x225B JUMP JUMPDEST SWAP1 POP SWAP2 SWAP1 POP JUMP JUMPDEST PUSH32 0x5769746864726177616C20776F756C6420756E646572636F6C6C61746572616C PUSH1 0x0 DUP3 ADD MSTORE PUSH32 0x697A65206C6F616E000000000000000000000000000000000000000000000000 PUSH1 0x20 DUP3 ADD MSTORE POP JUMP JUMPDEST PUSH1 0x0 PUSH2 0x22FA PUSH1 0x28 DUP4 PUSH2 0x1F7B JUMP JUMPDEST SWAP2 POP PUSH2 0x2305 DUP3 PUSH2 0x229E JUMP JUMPDEST PUSH1 0x40 DUP3 ADD SWAP1 POP SWAP2 SWAP1 POP JUMP JUMPDEST PUSH1 0x0 PUSH1 0x20 DUP3 ADD SWAP1 POP DUP2 DUP2 SUB PUSH1 0x0 DUP4 ADD MSTORE PUSH2 0x2329 DUP2 PUSH2 0x22ED JUMP JUMPDEST SWAP1 POP SWAP2 SWAP1 POP JUMP JUMPDEST PUSH32 0x496E73756666696369656E742062616C616E6365000000000000000000000000 PUSH1 0x0 DUP3 ADD MSTORE POP JUMP JUMPDEST PUSH1 0x0 PUSH2 0x2366 PUSH1 0x14 DUP4 PUSH2 0x1F7B JUMP JUMPDEST SWAP2 POP PUSH2 0x2371 DUP3 PUSH2 0x2330 JUMP JUMPDEST PUSH1 0x20 DUP3 ADD SWAP1 POP SWAP2 SWAP1 POP JUMP JUMPDEST PUSH1 0x0 PUSH1 0x20 DUP3 ADD SWAP1 POP DUP2 DUP2 SUB PUSH1 0x0 DUP4 ADD MSTORE PUSH2 0x2395 DUP2 PUSH2 0x2359 JUMP JUMPDEST SWAP1 POP SWAP2 SWAP1 POP JUMP JUMPDEST PUSH32 0x4578697374696E67206C6F616E206D7573742062652072657061696420666972 PUSH1 0x0 DUP3 ADD MSTORE PUSH32 0x7374000000000000000000000000000000000000000000000000000000000000 PUSH1 0x20 DUP3 ADD MSTORE POP JUMP JUMPDEST PUSH1 0x0 PUSH2 0x23F8 PUSH1 0x22 DUP4 PUSH2 0x1F7B JUMP JUMPDEST SWAP2 POP PUSH2 0x2403 DUP3 PUSH2 0x239C JUMP JUMPDEST PUSH1 0x40 DUP3 ADD SWAP1 POP SWAP2 SWAP1 POP JUMP JUMPDEST PUSH1 0x0 PUSH1 0x20 DUP3 ADD SWAP1 POP DUP2 DUP2 SUB PUSH1 0x0 DUP4 ADD MSTORE PUSH2 0x2427 DUP2 PUSH2 0x23EB JUMP JUMPDEST SWAP1 POP SWAP2 SWAP1 POP JUMP JUMPDEST PUSH32 0x426F72726F7720616D6F756E742065786365656473206C696D69740000000000 PUSH1 0x0 DUP3 ADD MSTORE POP JUMP JUMPDEST PUSH1 0x0 PUSH2 0x2464 PUSH1 0x1B DUP4 PUSH2 0x1F7B JUMP JUMPDEST SWAP2 POP PUSH2 0x246F DUP3 PUSH2 0x242E JUMP JUMPDEST PUSH1 0x20 DUP3 ADD SWAP1 POP SWAP2 SWAP1 POP JUMP JUMPDEST PUSH1 0x0 PUSH1 0x20 DUP3 ADD SWAP1 POP DUP2 DUP2 SUB PUSH1 0x0 DUP4 ADD MSTORE PUSH2 0x2493 DUP2 PUSH2 0x2457 JUMP JUMPDEST SWAP1 POP SWAP2 SWAP1 POP JUMP JUMPDEST PUSH1 0x0 DUP2 MLOAD SWAP1 POP PUSH2 0x24A9 DUP2 PUSH2 0x1E0A JUMP JUMPDEST SWAP3 SWAP2 POP POP JUMP JUMPDEST PUSH1 0x0 PUSH1 0x20 DUP3 DUP5 SUB SLT ISZERO PUSH2 0x24C5 JUMPI PUSH2 0x24C4 PUSH2 0x1D00 JUMP JUMPDEST JUMPDEST PUSH1 0x0 PUSH2 0x24D3 DUP5 DUP3 DUP6 ADD PUSH2 0x249A JUMP JUMPDEST SWAP2 POP POP SWAP3 SWAP2 POP POP JUMP JUMPDEST PUSH32 0x496E73756666696369656E742042544320696E20636F6E747261637400000000 PUSH1 0x0 DUP3 ADD MSTORE POP JUMP JUMPDEST PUSH1 0x0 PUSH2 0x2512 PUSH1 0x1C DUP4 PUSH2 0x1F7B JUMP JUMPDEST SWAP2 POP PUSH2 0x251D DUP3 PUSH2 0x24DC JUMP JUMPDEST PUSH1 0x20 DUP3 ADD SWAP1 POP SWAP2 SWAP1 POP JUMP JUMPDEST PUSH1 0x0 PUSH1 0x20 DUP3 ADD SWAP1 POP DUP2 DUP2 SUB PUSH1 0x0 DUP4 ADD MSTORE PUSH2 0x2541 DUP2 PUSH2 0x2505 JUMP JUMPDEST SWAP1 POP SWAP2 SWAP1 POP JUMP JUMPDEST PUSH1 0x0 PUSH1 0x60 DUP3 ADD SWAP1 POP PUSH2 0x255D PUSH1 0x0 DUP4 ADD DUP7 PUSH2 0x1EC3 JUMP JUMPDEST PUSH2 0x256A PUSH1 0x20 DUP4 ADD DUP6 PUSH2 0x1EC3 JUMP JUMPDEST PUSH2 0x2577 PUSH1 0x40 DUP4 ADD DUP5 PUSH2 0x1CD6 JUMP JUMPDEST SWAP5 SWAP4 POP POP POP POP JUMP JUMPDEST PUSH1 0x0 PUSH1 0x40 DUP3 ADD SWAP1 POP PUSH2 0x2594 PUSH1 0x0 DUP4 ADD DUP6 PUSH2 0x1EC3 JUMP JUMPDEST PUSH2 0x25A1 PUSH1 0x20 DUP4 ADD DUP5 PUSH2 0x1CD6 JUMP JUMPDEST SWAP4 SWAP3 POP POP POP JUMP JUMPDEST PUSH2 0x25B1 DUP2 PUSH2 0x1E63 JUMP JUMPDEST DUP2 EQ PUSH2 0x25BC JUMPI PUSH1 0x0 DUP1 REVERT JUMPDEST POP JUMP JUMPDEST PUSH1 0x0 DUP2 MLOAD SWAP1 POP PUSH2 0x25CE DUP2 PUSH2 0x25A8 JUMP JUMPDEST SWAP3 SWAP2 POP POP JUMP JUMPDEST PUSH1 0x0 PUSH1 0x20 DUP3 DUP5 SUB SLT ISZERO PUSH2 0x25EA JUMPI PUSH2 0x25E9 PUSH2 0x1D00 JUMP JUMPDEST JUMPDEST PUSH1 0x0 PUSH2 0x25F8 DUP5 DUP3 DUP6 ADD PUSH2 0x25BF JUMP JUMPDEST SWAP2 POP POP SWAP3 SWAP2 POP POP JUMP JUMPDEST PUSH1 0x0 DUP2 MLOAD SWAP1 POP SWAP2 SWAP1 POP JUMP JUMPDEST PUSH1 0x0 DUP2 SWAP1 POP SWAP3 SWAP2 POP POP JUMP JUMPDEST PUSH1 0x0 JUMPDEST DUP4 DUP2 LT ISZERO PUSH2 0x2635 JUMPI DUP1 DUP3 ADD MLOAD DUP2 DUP5 ADD MSTORE PUSH1 0x20 DUP2 ADD SWAP1 POP PUSH2 0x261A JUMP JUMPDEST PUSH1 0x0 DUP5 DUP5 ADD MSTORE POP POP POP POP JUMP JUMPDEST PUSH1 0x0 PUSH2 0x264C DUP3 PUSH2 0x2601 JUMP JUMPDEST PUSH2 0x2656 DUP2 DUP6 PUSH2 0x260C JUMP JUMPDEST SWAP4 POP PUSH2 0x2666 DUP2 DUP6 PUSH1 0x20 DUP7 ADD PUSH2 0x2617 JUMP JUMPDEST DUP1 DUP5 ADD SWAP2 POP POP SWAP3 SWAP2 POP POP JUMP JUMPDEST PUSH1 0x0 PUSH2 0x267E DUP3 DUP5 PUSH2 0x2641 JUMP JUMPDEST SWAP2 POP DUP2 SWAP1 POP SWAP3 SWAP2 POP POP JUMP INVALID LOG2 PUSH5 0x6970667358 0x22 SLT KECCAK256 JUMPI 0x27 CALL DUP7 SWAP2 0xE4 0xEE 0xC9 BASEFEE MSIZE TLOAD DUP5 0xA9 0xE1 MOD 0xCA CALLDATASIZE CREATE2 SELFBALANCE SWAP9 0xDF 0xA6 0xD5 PUSH5 0xE0EA403312 NUMBER CALLDATALOAD SAR PUSH5 0x736F6C6343 STOP ADDMOD BYTE STOP CALLER "
				},
				"gasEstimates": {
					"creation": {
						"codeDepositCost": "1983800",
						"executionCost": "infinite",
						"totalCost": "infinite"
					},
					"external": {
						"BORROWABLE_RATIO()": "397",
						"BTC()": "infinite",
						"COLLATERAL_RATIO()": "418",
						"INTEREST_RATE()": "419",
						"LOAN_DURATION()": "374",
						"USD()": "infinite",
						"borrowBTC(uint256)": "infinite",
						"calculateInterest(address)": "infinite",
						"depositBTC(uint256)": "infinite",
						"depositCollateral(uint256)": "infinite",
						"getBorrowableAmount(address)": "infinite",
						"getCurrentApy()": "425",
						"getLenderBalance(address)": "2886",
						"getLoanDetails(address)": "infinite",
						"getTotalBorrowed()": "2484",
						"getTotalStaked()": "2506",
						"getUserBorrowed(address)": "5122",
						"getUserCollateral(address)": "2909",
						"getUserStaked(address)": "2952",
						"lenderBalances(address)": "2925",
						"loans(address)": "infinite",
						"owner()": "2589",
						"renounceOwnership()": "infinite",
						"repayLoan(address)": "infinite",
						"transferOwnership(address)": "infinite",
						"userCollateral(address)": "2924",
						"withdrawBTC(uint256)": "infinite",
						"withdrawCollateral(uint256)": "infinite"
					}
				},
				"methodIdentifiers": {
					"BORROWABLE_RATIO()": "6e35f124",
					"BTC()": "2792949d",
					"COLLATERAL_RATIO()": "d9e69a05",
					"INTEREST_RATE()": "5b72a33a",
					"LOAN_DURATION()": "e02a4dfd",
					"USD()": "1bf6c21b",
					"borrowBTC(uint256)": "d1a40564",
					"calculateInterest(address)": "e11932cf",
					"depositBTC(uint256)": "a6b6d798",
					"depositCollateral(uint256)": "bad4a01f",
					"getBorrowableAmount(address)": "691d1eb3",
					"getCurrentApy()": "f4925de5",
					"getLenderBalance(address)": "bd09085a",
					"getLoanDetails(address)": "e8a7da8e",
					"getTotalBorrowed()": "0307c4a1",
					"getTotalStaked()": "0917e776",
					"getUserBorrowed(address)": "e86ef40b",
					"getUserCollateral(address)": "b6f7132f",
					"getUserStaked(address)": "dac3fc3f",
					"lenderBalances(address)": "a27a944d",
					"loans(address)": "73b4086b",
					"owner()": "8da5cb5b",
					"renounceOwnership()": "715018a6",
					"repayLoan(address)": "190ef1e6",
					"transferOwnership(address)": "f2fde38b",
					"userCollateral(address)": "f69f1e4a",
					"withdrawBTC(uint256)": "90b4588b",
					"withdrawCollateral(uint256)": "6112fe2e"
				}
			},
			"storageLayout": {
				"storage": [
					{
						"astId": 8,
						"contract": "contracts/CoreLoanPlatform.sol:CoreLoanPlatform",
						"label": "_owner",
						"offset": 0,
						"slot": "0",
						"type": "t_address"
					},
					{
						"astId": 869,
						"contract": "contracts/CoreLoanPlatform.sol:CoreLoanPlatform",
						"label": "totalStaked",
						"offset": 0,
						"slot": "1",
						"type": "t_uint256"
					},
					{
						"astId": 872,
						"contract": "contracts/CoreLoanPlatform.sol:CoreLoanPlatform",
						"label": "totalBorrowed",
						"offset": 0,
						"slot": "2",
						"type": "t_uint256"
					},
					{
						"astId": 886,
						"contract": "contracts/CoreLoanPlatform.sol:CoreLoanPlatform",
						"label": "loans",
						"offset": 0,
						"slot": "3",
						"type": "t_mapping(t_address,t_struct(Loan)881_storage)"
					},
					{
						"astId": 890,
						"contract": "contracts/CoreLoanPlatform.sol:CoreLoanPlatform",
						"label": "userCollateral",
						"offset": 0,
						"slot": "4",
						"type": "t_mapping(t_address,t_uint256)"
					},
					{
						"astId": 894,
						"contract": "contracts/CoreLoanPlatform.sol:CoreLoanPlatform",
						"label": "lenderBalances",
						"offset": 0,
						"slot": "5",
						"type": "t_mapping(t_address,t_uint256)"
					}
				],
				"types": {
					"t_address": {
						"encoding": "inplace",
						"label": "address",
						"numberOfBytes": "20"
					},
					"t_bool": {
						"encoding": "inplace",
						"label": "bool",
						"numberOfBytes": "1"
					},
					"t_mapping(t_address,t_struct(Loan)881_storage)": {
						"encoding": "mapping",
						"key": "t_address",
						"label": "mapping(address => struct CoreLoanPlatform.Loan)",
						"numberOfBytes": "32",
						"value": "t_struct(Loan)881_storage"
					},
					"t_mapping(t_address,t_uint256)": {
						"encoding": "mapping",
						"key": "t_address",
						"label": "mapping(address => uint256)",
						"numberOfBytes": "32",
						"value": "t_uint256"
					},
					"t_struct(Loan)881_storage": {
						"encoding": "inplace",
						"label": "struct CoreLoanPlatform.Loan",
						"members": [
							{
								"astId": 874,
								"contract": "contracts/CoreLoanPlatform.sol:CoreLoanPlatform",
								"label": "amount",
								"offset": 0,
								"slot": "0",
								"type": "t_uint256"
							},
							{
								"astId": 876,
								"contract": "contracts/CoreLoanPlatform.sol:CoreLoanPlatform",
								"label": "collateral",
								"offset": 0,
								"slot": "1",
								"type": "t_uint256"
							},
							{
								"astId": 878,
								"contract": "contracts/CoreLoanPlatform.sol:CoreLoanPlatform",
								"label": "timestamp",
								"offset": 0,
								"slot": "2",
								"type": "t_uint256"
							},
							{
								"astId": 880,
								"contract": "contracts/CoreLoanPlatform.sol:CoreLoanPlatform",
								"label": "active",
								"offset": 0,
								"slot": "3",
								"type": "t_bool"
							}
						],
						"numberOfBytes": "128"
					},
					"t_uint256": {
						"encoding": "inplace",
						"label": "uint256",
						"numberOfBytes": "32"
					}
				}
			},
			"userdoc": {
				"kind": "user",
				"methods": {},
				"version": 1
			}
		}
	}
}