{
  "abi": [
    {
      "type": "function",
      "name": "UPGRADE_INTERFACE_VERSION",
      "inputs": [],
      "outputs": [
        {
          "name": "",
          "type": "string",
          "internalType": "string"
        }
      ],
      "stateMutability": "view"
    },
    {
      "type": "function",
      "name": "checkContractBalance",
      "inputs": [],
      "outputs": [
        {
          "name": "bal_",
          "type": "uint256",
          "internalType": "uint256"
        }
      ],
      "stateMutability": "view"
    },
    {
      "type": "function",
      "name": "checkUserBalance",
      "inputs": [
        {
          "name": "_addr",
          "type": "address",
          "internalType": "address"
        }
      ],
      "outputs": [
        {
          "name": "bal_",
          "type": "uint256",
          "internalType": "uint256"
        }
      ],
      "stateMutability": "view"
    },
    {
      "type": "function",
      "name": "createAccount",
      "inputs": [
        {
          "name": "_email",
          "type": "string",
          "internalType": "string"
        },
        {
          "name": "_addr",
          "type": "address",
          "internalType": "address"
        },
        {
          "name": "_avatar",
          "type": "string",
          "internalType": "string"
        }
      ],
      "outputs": [],
      "stateMutability": "nonpayable"
    },
    {
      "type": "function",
      "name": "createEvent",
      "inputs": [
        {
          "name": "_title",
          "type": "string",
          "internalType": "string"
        },
        {
          "name": "_imageUrl",
          "type": "string",
          "internalType": "string"
        },
        {
          "name": "_description",
          "type": "string",
          "internalType": "string"
        },
        {
          "name": "_location",
          "type": "string",
          "internalType": "string"
        },
        {
          "name": "_capacity",
          "type": "uint32",
          "internalType": "uint32"
        },
        {
          "name": "_regStartTime",
          "type": "uint256",
          "internalType": "uint256"
        },
        {
          "name": "_regEndTime",
          "type": "uint256",
          "internalType": "uint256"
        },
        {
          "name": "_eventStartTime",
          "type": "uint256",
          "internalType": "uint256"
        },
        {
          "name": "_eventEndTime",
          "type": "uint256",
          "internalType": "uint256"
        },
        {
          "name": "_ticketPrice",
          "type": "uint96",
          "internalType": "uint96"
        },
        {
          "name": "_isEventPaid",
          "type": "bool",
          "internalType": "bool"
        }
      ],
      "outputs": [],
      "stateMutability": "nonpayable"
    },
    {
      "type": "function",
      "name": "createGroup",
      "inputs": [
        {
          "name": "_eventId",
          "type": "uint32",
          "internalType": "uint32"
        }
      ],
      "outputs": [],
      "stateMutability": "nonpayable"
    },
    {
      "type": "function",
      "name": "getAllEventGroups",
      "inputs": [],
      "outputs": [
        {
          "name": "",
          "type": "tuple[]",
          "internalType": "struct BlumaProtocol.EventGroup[]",
          "components": [
            {
              "name": "eventId",
              "type": "uint32",
              "internalType": "uint32"
            },
            {
              "name": "title",
              "type": "string",
              "internalType": "string"
            },
            {
              "name": "imageUrl",
              "type": "string",
              "internalType": "string"
            },
            {
              "name": "description",
              "type": "string",
              "internalType": "string"
            },
            {
              "name": "members",
              "type": "tuple[]",
              "internalType": "struct BlumaProtocol.Member[]",
              "components": [
                {
                  "name": "user",
                  "type": "address",
                  "internalType": "address"
                },
                {
                  "name": "joinTime",
                  "type": "uint256",
                  "internalType": "uint256"
                }
              ]
            },
            {
              "name": "messages",
              "type": "tuple[]",
              "internalType": "struct BlumaProtocol.Message[]",
              "components": [
                {
                  "name": "sender",
                  "type": "address",
                  "internalType": "address"
                },
                {
                  "name": "email",
                  "type": "string",
                  "internalType": "string"
                },
                {
                  "name": "text",
                  "type": "string",
                  "internalType": "string"
                },
                {
                  "name": "timestamp",
                  "type": "uint256",
                  "internalType": "uint256"
                }
              ]
            }
          ]
        }
      ],
      "stateMutability": "view"
    },
    {
      "type": "function",
      "name": "getAllEvents",
      "inputs": [],
      "outputs": [
        {
          "name": "",
          "type": "tuple[]",
          "internalType": "struct BlumaProtocol.Event[]",
          "components": [
            {
              "name": "eventId",
              "type": "uint32",
              "internalType": "uint32"
            },
            {
              "name": "title",
              "type": "string",
              "internalType": "string"
            },
            {
              "name": "imageUrl",
              "type": "string",
              "internalType": "string"
            },
            {
              "name": "location",
              "type": "string",
              "internalType": "string"
            },
            {
              "name": "description",
              "type": "string",
              "internalType": "string"
            },
            {
              "name": "creator",
              "type": "address",
              "internalType": "address"
            },
            {
              "name": "seats",
              "type": "uint32",
              "internalType": "uint32"
            },
            {
              "name": "capacity",
              "type": "uint32",
              "internalType": "uint32"
            },
            {
              "name": "regStartTime",
              "type": "uint256",
              "internalType": "uint256"
            },
            {
              "name": "regEndTime",
              "type": "uint256",
              "internalType": "uint256"
            },
            {
              "name": "groups",
              "type": "tuple",
              "internalType": "struct BlumaProtocol.EventGroup",
              "components": [
                {
                  "name": "eventId",
                  "type": "uint32",
                  "internalType": "uint32"
                },
                {
                  "name": "title",
                  "type": "string",
                  "internalType": "string"
                },
                {
                  "name": "imageUrl",
                  "type": "string",
                  "internalType": "string"
                },
                {
                  "name": "description",
                  "type": "string",
                  "internalType": "string"
                },
                {
                  "name": "members",
                  "type": "tuple[]",
                  "internalType": "struct BlumaProtocol.Member[]",
                  "components": [
                    {
                      "name": "user",
                      "type": "address",
                      "internalType": "address"
                    },
                    {
                      "name": "joinTime",
                      "type": "uint256",
                      "internalType": "uint256"
                    }
                  ]
                },
                {
                  "name": "messages",
                  "type": "tuple[]",
                  "internalType": "struct BlumaProtocol.Message[]",
                  "components": [
                    {
                      "name": "sender",
                      "type": "address",
                      "internalType": "address"
                    },
                    {
                      "name": "email",
                      "type": "string",
                      "internalType": "string"
                    },
                    {
                      "name": "text",
                      "type": "string",
                      "internalType": "string"
                    },
                    {
                      "name": "timestamp",
                      "type": "uint256",
                      "internalType": "uint256"
                    }
                  ]
                }
              ]
            },
            {
              "name": "regStatus",
              "type": "uint8",
              "internalType": "enum BlumaProtocol.RegStatus"
            },
            {
              "name": "eventStatus",
              "type": "uint8",
              "internalType": "enum BlumaProtocol.EventStatus"
            },
            {
              "name": "eventType",
              "type": "uint8",
              "internalType": "enum BlumaProtocol.EventType"
            },
            {
              "name": "nftUrl",
              "type": "string",
              "internalType": "string"
            },
            {
              "name": "eventStartTime",
              "type": "uint256",
              "internalType": "uint256"
            },
            {
              "name": "eventEndTime",
              "type": "uint256",
              "internalType": "uint256"
            },
            {
              "name": "ticketPrice",
              "type": "uint96",
              "internalType": "uint96"
            },
            {
              "name": "totalSales",
              "type": "uint256",
              "internalType": "uint256"
            },
            {
              "name": "createdAt",
              "type": "uint256",
              "internalType": "uint256"
            },
            {
              "name": "isCreatorPaid",
              "type": "bool",
              "internalType": "bool"
            },
            {
              "name": "hasMinted",
              "type": "bool",
              "internalType": "bool"
            }
          ]
        }
      ],
      "stateMutability": "view"
    },
    {
      "type": "function",
      "name": "getAllGroupMessages",
      "inputs": [
        {
          "name": "_eventId",
          "type": "uint32",
          "internalType": "uint32"
        }
      ],
      "outputs": [
        {
          "name": "",
          "type": "tuple[]",
          "internalType": "struct BlumaProtocol.Message[]",
          "components": [
            {
              "name": "sender",
              "type": "address",
              "internalType": "address"
            },
            {
              "name": "email",
              "type": "string",
              "internalType": "string"
            },
            {
              "name": "text",
              "type": "string",
              "internalType": "string"
            },
            {
              "name": "timestamp",
              "type": "uint256",
              "internalType": "uint256"
            }
          ]
        }
      ],
      "stateMutability": "view"
    },
    {
      "type": "function",
      "name": "getAllTickets",
      "inputs": [],
      "outputs": [
        {
          "name": "_tickets",
          "type": "tuple[]",
          "internalType": "struct BlumaProtocol.Ticket[]",
          "components": [
            {
              "name": "ticketId",
              "type": "uint32",
              "internalType": "uint32"
            },
            {
              "name": "eventId",
              "type": "uint32",
              "internalType": "uint32"
            },
            {
              "name": "owner",
              "type": "address",
              "internalType": "address"
            },
            {
              "name": "ticketCost",
              "type": "uint256",
              "internalType": "uint256"
            },
            {
              "name": "purchaseTime",
              "type": "uint256",
              "internalType": "uint256"
            },
            {
              "name": "numberOfTicket",
              "type": "uint32",
              "internalType": "uint32"
            }
          ]
        }
      ],
      "stateMutability": "view"
    },
    {
      "type": "function",
      "name": "getAllUser",
      "inputs": [],
      "outputs": [
        {
          "name": "",
          "type": "tuple[]",
          "internalType": "struct BlumaProtocol.User[]",
          "components": [
            {
              "name": "email",
              "type": "string",
              "internalType": "string"
            },
            {
              "name": "userAddr",
              "type": "address",
              "internalType": "address"
            },
            {
              "name": "isRegistered",
              "type": "bool",
              "internalType": "bool"
            },
            {
              "name": "avatar",
              "type": "string",
              "internalType": "string"
            },
            {
              "name": "balance",
              "type": "uint256",
              "internalType": "uint256"
            }
          ]
        }
      ],
      "stateMutability": "view"
    },
    {
      "type": "function",
      "name": "getEventById",
      "inputs": [
        {
          "name": "_eventId",
          "type": "uint32",
          "internalType": "uint32"
        }
      ],
      "outputs": [
        {
          "name": "events_",
          "type": "tuple",
          "internalType": "struct BlumaProtocol.Event",
          "components": [
            {
              "name": "eventId",
              "type": "uint32",
              "internalType": "uint32"
            },
            {
              "name": "title",
              "type": "string",
              "internalType": "string"
            },
            {
              "name": "imageUrl",
              "type": "string",
              "internalType": "string"
            },
            {
              "name": "location",
              "type": "string",
              "internalType": "string"
            },
            {
              "name": "description",
              "type": "string",
              "internalType": "string"
            },
            {
              "name": "creator",
              "type": "address",
              "internalType": "address"
            },
            {
              "name": "seats",
              "type": "uint32",
              "internalType": "uint32"
            },
            {
              "name": "capacity",
              "type": "uint32",
              "internalType": "uint32"
            },
            {
              "name": "regStartTime",
              "type": "uint256",
              "internalType": "uint256"
            },
            {
              "name": "regEndTime",
              "type": "uint256",
              "internalType": "uint256"
            },
            {
              "name": "groups",
              "type": "tuple",
              "internalType": "struct BlumaProtocol.EventGroup",
              "components": [
                {
                  "name": "eventId",
                  "type": "uint32",
                  "internalType": "uint32"
                },
                {
                  "name": "title",
                  "type": "string",
                  "internalType": "string"
                },
                {
                  "name": "imageUrl",
                  "type": "string",
                  "internalType": "string"
                },
                {
                  "name": "description",
                  "type": "string",
                  "internalType": "string"
                },
                {
                  "name": "members",
                  "type": "tuple[]",
                  "internalType": "struct BlumaProtocol.Member[]",
                  "components": [
                    {
                      "name": "user",
                      "type": "address",
                      "internalType": "address"
                    },
                    {
                      "name": "joinTime",
                      "type": "uint256",
                      "internalType": "uint256"
                    }
                  ]
                },
                {
                  "name": "messages",
                  "type": "tuple[]",
                  "internalType": "struct BlumaProtocol.Message[]",
                  "components": [
                    {
                      "name": "sender",
                      "type": "address",
                      "internalType": "address"
                    },
                    {
                      "name": "email",
                      "type": "string",
                      "internalType": "string"
                    },
                    {
                      "name": "text",
                      "type": "string",
                      "internalType": "string"
                    },
                    {
                      "name": "timestamp",
                      "type": "uint256",
                      "internalType": "uint256"
                    }
                  ]
                }
              ]
            },
            {
              "name": "regStatus",
              "type": "uint8",
              "internalType": "enum BlumaProtocol.RegStatus"
            },
            {
              "name": "eventStatus",
              "type": "uint8",
              "internalType": "enum BlumaProtocol.EventStatus"
            },
            {
              "name": "eventType",
              "type": "uint8",
              "internalType": "enum BlumaProtocol.EventType"
            },
            {
              "name": "nftUrl",
              "type": "string",
              "internalType": "string"
            },
            {
              "name": "eventStartTime",
              "type": "uint256",
              "internalType": "uint256"
            },
            {
              "name": "eventEndTime",
              "type": "uint256",
              "internalType": "uint256"
            },
            {
              "name": "ticketPrice",
              "type": "uint96",
              "internalType": "uint96"
            },
            {
              "name": "totalSales",
              "type": "uint256",
              "internalType": "uint256"
            },
            {
              "name": "createdAt",
              "type": "uint256",
              "internalType": "uint256"
            },
            {
              "name": "isCreatorPaid",
              "type": "bool",
              "internalType": "bool"
            },
            {
              "name": "hasMinted",
              "type": "bool",
              "internalType": "bool"
            }
          ]
        }
      ],
      "stateMutability": "view"
    },
    {
      "type": "function",
      "name": "getEventGroup",
      "inputs": [
        {
          "name": "_eventId",
          "type": "uint32",
          "internalType": "uint32"
        }
      ],
      "outputs": [
        {
          "name": "",
          "type": "tuple",
          "internalType": "struct BlumaProtocol.EventGroup",
          "components": [
            {
              "name": "eventId",
              "type": "uint32",
              "internalType": "uint32"
            },
            {
              "name": "title",
              "type": "string",
              "internalType": "string"
            },
            {
              "name": "imageUrl",
              "type": "string",
              "internalType": "string"
            },
            {
              "name": "description",
              "type": "string",
              "internalType": "string"
            },
            {
              "name": "members",
              "type": "tuple[]",
              "internalType": "struct BlumaProtocol.Member[]",
              "components": [
                {
                  "name": "user",
                  "type": "address",
                  "internalType": "address"
                },
                {
                  "name": "joinTime",
                  "type": "uint256",
                  "internalType": "uint256"
                }
              ]
            },
            {
              "name": "messages",
              "type": "tuple[]",
              "internalType": "struct BlumaProtocol.Message[]",
              "components": [
                {
                  "name": "sender",
                  "type": "address",
                  "internalType": "address"
                },
                {
                  "name": "email",
                  "type": "string",
                  "internalType": "string"
                },
                {
                  "name": "text",
                  "type": "string",
                  "internalType": "string"
                },
                {
                  "name": "timestamp",
                  "type": "uint256",
                  "internalType": "uint256"
                }
              ]
            }
          ]
        }
      ],
      "stateMutability": "view"
    },
    {
      "type": "function",
      "name": "getGroupMember",
      "inputs": [
        {
          "name": "_groupId",
          "type": "uint32",
          "internalType": "uint32"
        },
        {
          "name": "_index",
          "type": "uint256",
          "internalType": "uint256"
        }
      ],
      "outputs": [
        {
          "name": "",
          "type": "tuple",
          "internalType": "struct BlumaProtocol.Member",
          "components": [
            {
              "name": "user",
              "type": "address",
              "internalType": "address"
            },
            {
              "name": "joinTime",
              "type": "uint256",
              "internalType": "uint256"
            }
          ]
        }
      ],
      "stateMutability": "view"
    },
    {
      "type": "function",
      "name": "getGroupMembers",
      "inputs": [
        {
          "name": "_eventId",
          "type": "uint32",
          "internalType": "uint32"
        }
      ],
      "outputs": [
        {
          "name": "",
          "type": "tuple[]",
          "internalType": "struct BlumaProtocol.Member[]",
          "components": [
            {
              "name": "user",
              "type": "address",
              "internalType": "address"
            },
            {
              "name": "joinTime",
              "type": "uint256",
              "internalType": "uint256"
            }
          ]
        }
      ],
      "stateMutability": "view"
    },
    {
      "type": "function",
      "name": "getNfts",
      "inputs": [
        {
          "name": "_user",
          "type": "address",
          "internalType": "address"
        }
      ],
      "outputs": [
        {
          "name": "",
          "type": "tuple",
          "internalType": "struct BlumaProtocol.NFT",
          "components": [
            {
              "name": "eventId",
              "type": "uint32",
              "internalType": "uint32"
            },
            {
              "name": "title",
              "type": "string",
              "internalType": "string"
            },
            {
              "name": "owner",
              "type": "address",
              "internalType": "address"
            },
            {
              "name": "nftUrl",
              "type": "string",
              "internalType": "string"
            }
          ]
        }
      ],
      "stateMutability": "view"
    },
    {
      "type": "function",
      "name": "getTicket",
      "inputs": [
        {
          "name": "_addr",
          "type": "address",
          "internalType": "address"
        }
      ],
      "outputs": [
        {
          "name": "_ticket",
          "type": "tuple",
          "internalType": "struct BlumaProtocol.Ticket",
          "components": [
            {
              "name": "ticketId",
              "type": "uint32",
              "internalType": "uint32"
            },
            {
              "name": "eventId",
              "type": "uint32",
              "internalType": "uint32"
            },
            {
              "name": "owner",
              "type": "address",
              "internalType": "address"
            },
            {
              "name": "ticketCost",
              "type": "uint256",
              "internalType": "uint256"
            },
            {
              "name": "purchaseTime",
              "type": "uint256",
              "internalType": "uint256"
            },
            {
              "name": "numberOfTicket",
              "type": "uint32",
              "internalType": "uint32"
            }
          ]
        }
      ],
      "stateMutability": "view"
    },
    {
      "type": "function",
      "name": "getUser",
      "inputs": [
        {
          "name": "_addr",
          "type": "address",
          "internalType": "address"
        }
      ],
      "outputs": [
        {
          "name": "_user",
          "type": "tuple",
          "internalType": "struct BlumaProtocol.User",
          "components": [
            {
              "name": "email",
              "type": "string",
              "internalType": "string"
            },
            {
              "name": "userAddr",
              "type": "address",
              "internalType": "address"
            },
            {
              "name": "isRegistered",
              "type": "bool",
              "internalType": "bool"
            },
            {
              "name": "avatar",
              "type": "string",
              "internalType": "string"
            },
            {
              "name": "balance",
              "type": "uint256",
              "internalType": "uint256"
            }
          ]
        }
      ],
      "stateMutability": "view"
    },
    {
      "type": "function",
      "name": "groupChat",
      "inputs": [
        {
          "name": "_eventId",
          "type": "uint32",
          "internalType": "uint32"
        },
        {
          "name": "_text",
          "type": "string",
          "internalType": "string"
        }
      ],
      "outputs": [],
      "stateMutability": "nonpayable"
    },
    {
      "type": "function",
      "name": "hasPurchasedTicket",
      "inputs": [
        {
          "name": "_user",
          "type": "address",
          "internalType": "address"
        },
        {
          "name": "_eventId",
          "type": "uint32",
          "internalType": "uint32"
        }
      ],
      "outputs": [
        {
          "name": "",
          "type": "bool",
          "internalType": "bool"
        }
      ],
      "stateMutability": "view"
    },
    {
      "type": "function",
      "name": "initialize",
      "inputs": [
        {
          "name": "initialOwner",
          "type": "address",
          "internalType": "address"
        },
        {
          "name": "_blumaToken",
          "type": "address",
          "internalType": "address"
        },
        {
          "name": "_blumaNFT",
          "type": "address",
          "internalType": "address"
        }
      ],
      "outputs": [],
      "stateMutability": "nonpayable"
    },
    {
      "type": "function",
      "name": "isRegistered",
      "inputs": [
        {
          "name": "_addr",
          "type": "address",
          "internalType": "address"
        }
      ],
      "outputs": [
        {
          "name": "",
          "type": "bool",
          "internalType": "bool"
        }
      ],
      "stateMutability": "view"
    },
    {
      "type": "function",
      "name": "joinGroup",
      "inputs": [
        {
          "name": "_eventId",
          "type": "uint32",
          "internalType": "uint32"
        }
      ],
      "outputs": [],
      "stateMutability": "nonpayable"
    },
    {
      "type": "function",
      "name": "mintNFTsForAttendees",
      "inputs": [
        {
          "name": "_eventId",
          "type": "uint32",
          "internalType": "uint32"
        }
      ],
      "outputs": [],
      "stateMutability": "nonpayable"
    },
    {
      "type": "function",
      "name": "mintNft",
      "inputs": [
        {
          "name": "_eventId",
          "type": "uint32",
          "internalType": "uint32"
        },
        {
          "name": "_nftUrl",
          "type": "string",
          "internalType": "string"
        }
      ],
      "outputs": [],
      "stateMutability": "nonpayable"
    },
    {
      "type": "function",
      "name": "owner",
      "inputs": [],
      "outputs": [
        {
          "name": "",
          "type": "address",
          "internalType": "address"
        }
      ],
      "stateMutability": "view"
    },
    {
      "type": "function",
      "name": "proxiableUUID",
      "inputs": [],
      "outputs": [
        {
          "name": "",
          "type": "bytes32",
          "internalType": "bytes32"
        }
      ],
      "stateMutability": "view"
    },
    {
      "type": "function",
      "name": "purchaseFreeTicket",
      "inputs": [
        {
          "name": "_eventId",
          "type": "uint32",
          "internalType": "uint32"
        },
        {
          "name": "_numberOfTickets",
          "type": "uint32",
          "internalType": "uint32"
        }
      ],
      "outputs": [],
      "stateMutability": "nonpayable"
    },
    {
      "type": "function",
      "name": "purchasePaidTicket",
      "inputs": [
        {
          "name": "_eventId",
          "type": "uint32",
          "internalType": "uint32"
        },
        {
          "name": "_numberOfTickets",
          "type": "uint32",
          "internalType": "uint32"
        }
      ],
      "outputs": [],
      "stateMutability": "nonpayable"
    },
    {
      "type": "function",
      "name": "refundFee",
      "inputs": [
        {
          "name": "_eventId",
          "type": "uint32",
          "internalType": "uint32"
        }
      ],
      "outputs": [],
      "stateMutability": "nonpayable"
    },
    {
      "type": "function",
      "name": "renounceOwnership",
      "inputs": [],
      "outputs": [],
      "stateMutability": "nonpayable"
    },
    {
      "type": "function",
      "name": "transferOwnership",
      "inputs": [
        {
          "name": "newOwner",
          "type": "address",
          "internalType": "address"
        }
      ],
      "outputs": [],
      "stateMutability": "nonpayable"
    },
    {
      "type": "function",
      "name": "updateEventStatus",
      "inputs": [
        {
          "name": "_eventId",
          "type": "uint32",
          "internalType": "uint32"
        }
      ],
      "outputs": [],
      "stateMutability": "nonpayable"
    },
    {
      "type": "function",
      "name": "updateRegStatus",
      "inputs": [
        {
          "name": "_eventId",
          "type": "uint32",
          "internalType": "uint32"
        }
      ],
      "outputs": [],
      "stateMutability": "nonpayable"
    },
    {
      "type": "function",
      "name": "upgradeToAndCall",
      "inputs": [
        {
          "name": "newImplementation",
          "type": "address",
          "internalType": "address"
        },
        {
          "name": "data",
          "type": "bytes",
          "internalType": "bytes"
        }
      ],
      "outputs": [],
      "stateMutability": "payable"
    },
    {
      "type": "function",
      "name": "withdrawEventFee",
      "inputs": [
        {
          "name": "_eventId",
          "type": "uint32",
          "internalType": "uint32"
        }
      ],
      "outputs": [],
      "stateMutability": "nonpayable"
    },
    {
      "type": "event",
      "name": "AttendeesNFTMinted",
      "inputs": [
        {
          "name": "owner",
          "type": "address",
          "indexed": true,
          "internalType": "address"
        },
        {
          "name": "eventId",
          "type": "uint32",
          "indexed": true,
          "internalType": "uint32"
        },
        {
          "name": "numberOfTickets",
          "type": "uint32",
          "indexed": false,
          "internalType": "uint32"
        },
        {
          "name": "tokenId",
          "type": "uint256",
          "indexed": true,
          "internalType": "uint256"
        }
      ],
      "anonymous": false
    },
    {
      "type": "event",
      "name": "EventClosed",
      "inputs": [
        {
          "name": "_eventId",
          "type": "uint32",
          "indexed": true,
          "internalType": "uint32"
        },
        {
          "name": "_currentTime",
          "type": "uint256",
          "indexed": true,
          "internalType": "uint256"
        }
      ],
      "anonymous": false
    },
    {
      "type": "event",
      "name": "EventCreated",
      "inputs": [
        {
          "name": "_totalEventsId",
          "type": "uint32",
          "indexed": true,
          "internalType": "uint32"
        },
        {
          "name": "_seatNumber",
          "type": "uint32",
          "indexed": true,
          "internalType": "uint32"
        },
        {
          "name": "_capacity",
          "type": "uint32",
          "indexed": true,
          "internalType": "uint32"
        }
      ],
      "anonymous": false
    },
    {
      "type": "event",
      "name": "GroupCreated",
      "inputs": [
        {
          "name": "_roomId",
          "type": "uint32",
          "indexed": true,
          "internalType": "uint32"
        },
        {
          "name": "imageUrl",
          "type": "string",
          "indexed": false,
          "internalType": "string"
        },
        {
          "name": "_title",
          "type": "string",
          "indexed": false,
          "internalType": "string"
        }
      ],
      "anonymous": false
    },
    {
      "type": "event",
      "name": "GroupJoinedSuccessfully",
      "inputs": [
        {
          "name": "_sender",
          "type": "address",
          "indexed": true,
          "internalType": "address"
        },
        {
          "name": "_eventId",
          "type": "uint32",
          "indexed": true,
          "internalType": "uint32"
        },
        {
          "name": "_joinedTimw",
          "type": "uint256",
          "indexed": true,
          "internalType": "uint256"
        }
      ],
      "anonymous": false
    },
    {
      "type": "event",
      "name": "Initialized",
      "inputs": [
        {
          "name": "version",
          "type": "uint64",
          "indexed": false,
          "internalType": "uint64"
        }
      ],
      "anonymous": false
    },
    {
      "type": "event",
      "name": "MessageSent",
      "inputs": [
        {
          "name": "sender",
          "type": "address",
          "indexed": true,
          "internalType": "address"
        },
        {
          "name": "groupId",
          "type": "uint32",
          "indexed": true,
          "internalType": "uint32"
        },
        {
          "name": "text",
          "type": "string",
          "indexed": false,
          "internalType": "string"
        },
        {
          "name": "timestamp",
          "type": "uint256",
          "indexed": false,
          "internalType": "uint256"
        }
      ],
      "anonymous": false
    },
    {
      "type": "event",
      "name": "NftMintedSuccessful",
      "inputs": [
        {
          "name": "sender",
          "type": "address",
          "indexed": true,
          "internalType": "address"
        },
        {
          "name": "nftUrl",
          "type": "string",
          "indexed": true,
          "internalType": "string"
        },
        {
          "name": "eventId",
          "type": "uint32",
          "indexed": true,
          "internalType": "uint32"
        },
        {
          "name": "title",
          "type": "string",
          "indexed": false,
          "internalType": "string"
        }
      ],
      "anonymous": false
    },
    {
      "type": "event",
      "name": "OwnershipTransferred",
      "inputs": [
        {
          "name": "previousOwner",
          "type": "address",
          "indexed": true,
          "internalType": "address"
        },
        {
          "name": "newOwner",
          "type": "address",
          "indexed": true,
          "internalType": "address"
        }
      ],
      "anonymous": false
    },
    {
      "type": "event",
      "name": "RefundIssued",
      "inputs": [
        {
          "name": "buyer",
          "type": "address",
          "indexed": true,
          "internalType": "address"
        },
        {
          "name": "_ticketId",
          "type": "uint32",
          "indexed": true,
          "internalType": "uint32"
        },
        {
          "name": "_eventId",
          "type": "uint32",
          "indexed": true,
          "internalType": "uint32"
        },
        {
          "name": "amount",
          "type": "uint256",
          "indexed": false,
          "internalType": "uint256"
        }
      ],
      "anonymous": false
    },
    {
      "type": "event",
      "name": "RegistrationClose",
      "inputs": [
        {
          "name": "_currentTime",
          "type": "uint256",
          "indexed": true,
          "internalType": "uint256"
        },
        {
          "name": "_status",
          "type": "uint8",
          "indexed": true,
          "internalType": "uint8"
        }
      ],
      "anonymous": false
    },
    {
      "type": "event",
      "name": "TicketPurchased",
      "inputs": [
        {
          "name": "buyer",
          "type": "address",
          "indexed": true,
          "internalType": "address"
        },
        {
          "name": "_eventId",
          "type": "uint32",
          "indexed": true,
          "internalType": "uint32"
        },
        {
          "name": "numberOfTickets",
          "type": "uint32",
          "indexed": false,
          "internalType": "uint32"
        }
      ],
      "anonymous": false
    },
    {
      "type": "event",
      "name": "Upgraded",
      "inputs": [
        {
          "name": "implementation",
          "type": "address",
          "indexed": true,
          "internalType": "address"
        }
      ],
      "anonymous": false
    },
    {
      "type": "error",
      "name": "ALREADY_A_MEMBER",
      "inputs": []
    },
    {
      "type": "error",
      "name": "ALREADY_PAID",
      "inputs": []
    },
    {
      "type": "error",
      "name": "AddressEmptyCode",
      "inputs": [
        {
          "name": "target",
          "type": "address",
          "internalType": "address"
        }
      ]
    },
    {
      "type": "error",
      "name": "EMPTY_INPUT_FIELD",
      "inputs": []
    },
    {
      "type": "error",
      "name": "ERC1967InvalidImplementation",
      "inputs": [
        {
          "name": "implementation",
          "type": "address",
          "internalType": "address"
        }
      ]
    },
    {
      "type": "error",
      "name": "ERC1967NonPayable",
      "inputs": []
    },
    {
      "type": "error",
      "name": "EVENT_NOT_CLOSED",
      "inputs": []
    },
    {
      "type": "error",
      "name": "FailedInnerCall",
      "inputs": []
    },
    {
      "type": "error",
      "name": "GROUP_ALREADY_EXISTS",
      "inputs": []
    },
    {
      "type": "error",
      "name": "INSUFFICIENT_BALANCE",
      "inputs": []
    },
    {
      "type": "error",
      "name": "INSUFFICIENT_TICKET_PURCHASED",
      "inputs": []
    },
    {
      "type": "error",
      "name": "INVALID_EVENT_ID",
      "inputs": []
    },
    {
      "type": "error",
      "name": "INVALID_ID",
      "inputs": []
    },
    {
      "type": "error",
      "name": "INVALID_NOT_AUTHORIZED",
      "inputs": []
    },
    {
      "type": "error",
      "name": "InvalidInitialization",
      "inputs": []
    },
    {
      "type": "error",
      "name": "NFT_ALREADY_MINTED",
      "inputs": []
    },
    {
      "type": "error",
      "name": "NOT_CREATOR",
      "inputs": []
    },
    {
      "type": "error",
      "name": "NOT_ENOUGH_AVAILABLE_SEAT",
      "inputs": []
    },
    {
      "type": "error",
      "name": "NOT_OWNER",
      "inputs": []
    },
    {
      "type": "error",
      "name": "NOT_PAID_EVENT",
      "inputs": []
    },
    {
      "type": "error",
      "name": "NO_ALLOWANCE",
      "inputs": []
    },
    {
      "type": "error",
      "name": "NotInitializing",
      "inputs": []
    },
    {
      "type": "error",
      "name": "OwnableInvalidOwner",
      "inputs": [
        {
          "name": "owner",
          "type": "address",
          "internalType": "address"
        }
      ]
    },
    {
      "type": "error",
      "name": "OwnableUnauthorizedAccount",
      "inputs": [
        {
          "name": "account",
          "type": "address",
          "internalType": "address"
        }
      ]
    },
    {
      "type": "error",
      "name": "REGISTRATION_CLOSE",
      "inputs": []
    },
    {
      "type": "error",
      "name": "REGISTRATION_NOT_CLOSED",
      "inputs": []
    },
    {
      "type": "error",
      "name": "REGISTRATION_NOT_OPEN",
      "inputs": []
    },
    {
      "type": "error",
      "name": "UUPSUnauthorizedCallContext",
      "inputs": []
    },
    {
      "type": "error",
      "name": "UUPSUnsupportedProxiableUUID",
      "inputs": [
        {
          "name": "slot",
          "type": "bytes32",
          "internalType": "bytes32"
        }
      ]
    }
  ],
  "bytecode": {
    "object": "0x60a0806040523461002a57306080526149fd908161003082396080518181816118cc0152611a0e0152f35b600080fdfe6080604052600436101561001257600080fd5b60e060003560e01c90816303e96fe3146134335781630a9bfef5146133f65781631755b97a1461331b57816317f69df6146132c257816325f3724b146126c05781632b5d935c146123cb578163331ef976146120a45781633809f6f51461204157816344cc2afe14611f495781634717dea914611ed757816347531df814611ded5781634886285714611bed5781634f1ef286146119bf57816350312c9e1461193657816352d1902d146118b9578163654a3c6d146116455781636f77926b146115d0578163715018a61461156657816385a646c9146114d65781638da5cb5b146114a05781638fd9baca14611212578163909fdec914611128578163a87f86f914611107578163ad3cb1cc146110c1578163b33f650e14610f79578163bce888fb14610f58578163bdacb17a14610d1f578163be7fb5d714610b44578163c0c53b8b146109d2578163c27a500d1461071357508063c3c5a547146106ce578063cd71ed35146104f5578063e020cf9114610359578063ec976a0a146102e0578063eec932f7146101dc5763f2fde38b146101ac57600080fd5b346101d75760203660031901126101d7576101d56101c861354a565b6101d06148ca565b6147f0565b005b600080fd5b346101d7576020806003193601126101d7576101f6613576565b90610200826148b7565b63ffffffff809216918260005260028252604060002090815416156102ce573360005260068252604060002083600052825260ff604060002054166102bc5761026890600c61024d614897565b916040519261025b84613625565b33845285840152016144b9565b336000526006815260406000209082600052526040600020600160ff19825416179055610293614897565b90337ff11404c60069f7d8b6ecebb855f6ac5080f851b85152f4cb855640c49a30c2dd600080a4005b60405163cea6102760e01b8152600490fd5b6040516316a7994d60e21b8152600490fd5b346101d75760203660031901126101d7576102f9613576565b610302816148b7565b63ffffffff8091166000526002602052604060002090815416156103475761032f600c6103439201614357565b604051918291602083526020830190613708565b0390f35b60405163e955b73b60e01b8152600490fd5b346101d75760403660031901126101d757610372613576565b61037a613589565b610383826148b7565b63ffffffff91828116928360005260209060028252604060002060ff600e820154166103ae81613919565b6104e3576005016103e86103c88684845460a01c16613c8a565b825463ffffffff60a01b191660a09190911b63ffffffff60a01b16178255565b5481808260c01c169160a01c16116104d1576104c57fc541e3defd92fd2d8306e9c91b36c15f096115c41c7a9a36ac548a487d8891aa9360005463ffffffff60201b6104378583881c16613c75565b861b169063ffffffff60201b1916178060005533600052600385526104a56040600020928563ffffffff1993881c16838554161784556104773385614128565b61047f614897565b6002850155835467ffffffff00000000191660209190911b63ffffffff60201b16178355565b6003820190815490856104ba8a828516613c8a565b169116179055614195565b604051931683523392a3005b6040516374a227cd60e01b8152600490fd5b6040516305fb6d9960e41b8152600490fd5b346101d75760203660031901126101d757610343610511613576565b610519613cd4565b50610523816148b7565b63ffffffff809116600052600260205260ff60156040600020604051936105498561365b565b80825416855260405161056a816105638160018701613b3a565b0382613677565b6020860152604051610583816105638160028701613b3a565b604086015260405161059c816105638160038701613b3a565b60608601526040516105b5816105638160048701613b3a565b6080860152600582015460018060a01b03811660a0870152818160a01c1660c087015260c01c1660e085015260068101546101008501526007810154610120850152610603600882016143ad565b61014085015261064783600e83015481811661061e81613919565b610160880152818160081c1661063381613919565b61018088015260101c166101a08601613d7b565b60405161065b8161056381600f8601613b3a565b6101c085015260108101546101e085015260118101546102008501526001600160601b03601282015416610220850152601381015461024085015260148101546102608501520154818116151561028084015260081c1615156102a0820152604051918291602083526020830190613923565b346101d75760203660031901126101d7576001600160a01b036106ef61354a565b166000526001602052602060ff60016040600020015460a01c166040519015158152f35b346101d75760003660031901126101d75763ffffffff9081600054169161073983614777565b9060009060015b818116868111610929576000526002602090808252604060002090848254169283610778575b50505050610773906147c7565b610740565b926107739496926105636107c96109199461091f976040519561079a8761365b565b8652604051906107b8826107b18160018a01613b3a565b0383613677565b860152604051928380928601613b3a565b60408301526040516107e2816105638160038601613b3a565b60608301526040516107fb816105638160048601613b3a565b608083015286600582015460a060018060a01b03821681860152828260c0921c16818601521c168a8301526006810154610100830152600781015461012083015260086108498183016143ad565b6101408401526015600e8301549260ff9384811661086681613919565b6101608701528481851c1661087a81613919565b61018087015261089485601092831c166101a08801613d7b565b6040516108a88161056381600f8701613b3a565b6101c08701528101546101e086015260118101546102008601526001600160601b036012820154166102208601526013810154610240860152601481015461026086015201549082821615156102808501521c1615156102a082015285831690610912828a6147dc565b52876147dc565b506147c7565b9290878080610766565b50508091169161093883614777565b9260005b8381168281101561097357849161096b82610959600194886147dc565b51610964828b6147dc565b52886147dc565b50011661093c565b6040805160208082528851818301819052600093600582901b8401810192808c01929185015b8287106109a65785850386f35b9091929382806109c2600193603f198a82030186528851613923565b9601920196019592919092610999565b346101d75760603660031901126101d7576109eb61354a565b6109f3613560565b6001600160a01b03919060443583811691908290036101d7577ff0c57e16840df040f15088dc2f81fe391c3923bec73e23a9662efc9c229c6a0093845460ff8160401c1615946001600160401b03821680159081610b3c575b6001149081610b32575b159081610b29575b50610b175767ffffffffffffffff1982166001178755610a8f9186610af8575b50610a87614903565b6101d0614903565b610a97614903565b6001600160601b0360a01b911681600c541617600c55600d541617600d55610abb57005b68ff00000000000000001981541690557fc7f505b2f371ae2175ee4913f4499e1f2633a7b5936321eed1cdaeb6115181d2602060405160018152a1005b68ffffffffffffffffff19166801000000000000000117875587610a7e565b60405163f92ee8a960e01b8152600490fd5b90501588610a5e565b303b159150610a56565b879150610a4c565b346101d757610b52366138c0565b91610b5c816148b7565b6001610b693685856136b3565b5110610d0d5763ffffffff809116928360005260209260028452604060002092835416156102ce5760058301546001600160a01b03163314610ce5575b3360005260068452604060002085600052845260ff6040600020541615610cd35760405192610bd4846135dc565b60008452600d858501916060835260408601606081526107b16060880194600086523360005260018a52610c12604060002060405193848092613b3a565b52338752610c213687876136b3565b9052610c2b614897565b83520190815491600160401b831015610cbd5760018301808255831015610ca7577fd643c4cb96915f246339ac52f899dfc112f2ccf8254cca6b9cb9d0b8f0276e1095610c9b93610c8792600052886000209060021b01613f20565b51916040519360408552604085019161461a565b938201528033930390a3005b634e487b7160e01b600052603260045260246000fd5b634e487b7160e01b600052604160045260246000fd5b60405163082e385d60e01b8152600490fd5b336000526006845260406000208560005284526040600020600160ff19825416179055610ba6565b604051631ee8943b60e21b8152600490fd5b346101d7576020806003193601126101d757610d39613576565b90610d43826148b7565b63ffffffff91828116928360005260028352610d636040600020926146ed565b3360005260038352604060002090600e83015460ff8160101c166002811015610f4257610f305760ff16610d9681613919565b610f1e5781546001600160a01b039033604082901c831603610f0c57828791871c1603610efa578160038401541660018110610ee8576001600160601b03610de481601288015416836140e5565b1694600581019184835460a01c160391848311610ed257805463ffffffff60a01b191660a09390931b63ffffffff60a01b1692909217909155601301805490858203918211610ed25755600c5460405163a9059cbb60e01b8152336004820152602481018690529391869185916044918391600091165af1928315610ec6577f4f6fb365c29f3632d91fcd919dbfdf50155c34cd0ea613bd43e7e76529fec43593610e99575b505416926040519283523392a4005b610eb890863d8811610ebf575b610eb08183613677565b810190614103565b5086610e8a565b503d610ea6565b6040513d6000823e3d90fd5b634e487b7160e01b600052601160045260246000fd5b60405163a2ed46e160e01b8152600490fd5b60405163b790ffed60e01b8152600490fd5b6040516338ebc58960e11b8152600490fd5b604051630738c50360e41b8152600490fd5b6040516380e4469160e01b8152600490fd5b634e487b7160e01b600052602160045260246000fd5b346101d75760203660031901126101d7576101d5610f74613576565b6146ed565b346101d7576020806003193601126101d757610f93613576565b610f9c816148b7565b63ffffffff8116600052600282526040600020903360005260018352610fc660406000209161463b565b600160ff600e84015460081c16610fdc81613919565b036110af5760058201546001600160a01b0390339082160361109d57601583019081549060ff821661108b576003869461106594600160136000990195898754975560ff19161790550161103183825461411b565b9055600c5460405163a9059cbb60e01b81523360048201526024810193909352919485939190921691839182906044820190565b03925af18015610ec65761107557005b816101d592903d10610ebf57610eb08183613677565b60405163d2e53ca760e01b8152600490fd5b604051632cff942760e01b8152600490fd5b604051631988a70d60e01b8152600490fd5b346101d75760003660031901126101d7576103436040516110e181613625565b60058152640352e302e360dc1b602082015260405191829160208352602083019061359c565b346101d75760203660031901126101d7576101d5611123613576565b61463b565b346101d75760003660031901126101d75760095461114581613a91565b906111536040519283613677565b808252602090818301908160096000527f6e1540171b6c0c960b71a7020d9f60077f6af931a8bbf590da0223dacf75c7af6000915b8383106111ef5750505050604051918083019381845251809452604083019360408160051b85010192916000955b8287106111c35785850386f35b9091929382806111df600193603f198a8203018652885161375b565b96019201960195929190926111b6565b600686600192611201859a999a6143ad565b815201920192019190959495611188565b346101d757611220366138c0565b91906112356112303685846136b3565b614864565b63ffffffff809216600052602090600282526040600020928084541680156102ce5760058501546001600160a01b03939084163303610cd357336000526007855260406000209163ffffffff1983541617825560028201336001600160601b0360a01b8254161790556001966112b088808501980188614253565b60038301946001600160401b038211610cbd576112d7826112d18854613b00565b88613d9e565b600082601f811160011461143857806113069260009161142d575b508160011b916000199060031b1c19161790565b86555b600d541691823b156101d7576113479260009283604051809681958294636902622f60e11b845233600485015260406024850152604484019161461a565b03925af18015610ec65761141e575b505416936040519160009181549161136d83613b00565b9282811690811561140357506001146113c7575b505050817f8c6653ecb56f1604fdb19b4dd01ceb99a9e9fb9699223449f110cbb5accd38d8926113c292039020936040519182918583523395830190613b3a565b0390a4005b909192506000528360002090846000925b8484106113f157505050908201905081806113c2611381565b805486850152920191859082016113d8565b60ff19168652505050801515028201905081806113c2611381565b61142790613612565b86611356565b90508501358c6112f2565b50601f19831690876000528389600020928c8b6000915b838310611487575050501061146d575b50508882811b018655611309565b840135600019600385901b60f8161c19169055898061145f565b858a013587559095019493840193879350018b8e61144f565b346101d75760003660031901126101d7576000805160206149a8833981519152546040516001600160a01b039091168152602090f35b346101d75760403660031901126101d7576114ef613576565b63ffffffff602435916000602060405161150881613625565b8281520152611516816148b7565b16600052600460205260046040600020019081548110156102ce576115406115469160409361449d565b50614330565b815181516001600160a01b0316815260209182015191810191909152f35bf35b346101d75760003660031901126101d75761157f6148ca565b6000805160206149a883398151915280546001600160a01b031981169091556000906001600160a01b03167f8be0079c531659141344cd1fd0a4f28419497f9722a3daafe3b4186f6b6457e08280a3005b346101d75760203660031901126101d7576115e961354a565b600060806040516115f981613640565b60608152826020820152826040820152606080820152015260018060a01b031660005260016020526103436116316040600020614434565b60405191829160208352602083019061386d565b346101d75760203660031901126101d75763ffffffff80611664613576565b1660005260026020526040600020818154169081156102ce5760058101805490926001600160a01b0392909183163303610cd357600881019463ffffffff19928387541617865560098201956116bd6001840188614253565b600a8301936116cf6002850186614253565b61170d600b8501966116e46004870189614253565b600c86019854166116f3614897565b6040519161170083613625565b82526020820152886144b9565b60095496600160401b881015610cbd576001880180600955881015610ca757886117af976117bd96859460067ffc11613b01ba3b178277748ad3ec5529ed312225618063459881a4d1dad390689c6009600052029488867f6e1540171b6c0c960b71a7020d9f60077f6af931a8bbf590da0223dacf75c7af01948886036117c2575b505050505050505050541694604051938493604085526040850190613b3a565b908382036020850152613b3a565b0390a2005b6118277f6e1540171b6c0c960b71a7020d9f60077f6af931a8bbf590da0223dacf75c7b497600d976118a39661187b956118ab9d5416908254161790557f6e1540171b6c0c960b71a7020d9f60077f6af931a8bbf590da0223dacf75c7b08a01614253565b6118538d7f6e1540171b6c0c960b71a7020d9f60077f6af931a8bbf590da0223dacf75c7b18a01614253565b7f6e1540171b6c0c960b71a7020d9f60077f6af931a8bbf590da0223dacf75c7b28801614253565b7f6e1540171b6c0c960b71a7020d9f60077f6af931a8bbf590da0223dacf75c7b38601614506565b019101614580565b80888881808080888161178f565b346101d75760003660031901126101d7577f00000000000000000000000000000000000000000000000000000000000000006001600160a01b031630036119245760206040517f360894a13ba1a3210667c828492db98dca3e2076cc3735a920a3ca505d382bbc8152f35b60405163703e46dd60e11b8152600490fd5b346101d75760003660031901126101d757600c546040516370a0823160e01b815230600482015290602090829060249082906001600160a01b03165afa8015610ec65760009061198c575b602090604051908152f35b506020813d6020116119b7575b816119a660209383613677565b810103126101d75760209051611981565b3d9150611999565b60403660031901126101d7576119d361354a565b6024356001600160401b0381116101d757366023820112156101d757611a039036906024816004013591016136b3565b906001600160a01b037f00000000000000000000000000000000000000000000000000000000000000008116308114908115611bbf575b5061192457611a476148ca565b6040516352d1902d60e01b8152908216916020918281600481875afa60009181611b90575b50611a8a57604051634c9c8ce360e01b815260048101859052602490fd5b9284937f360894a13ba1a3210667c828492db98dca3e2076cc3735a920a3ca505d382bbc90818103611b785750823b15611b5f5780546001600160a01b03191682179055604051907fbc7cd75a20ee27fd9adebab32041f755214dbc6bffa90cc0225b39da2e5c2d3b600080a2835115611b45575060008084846101d596519101845af4903d15611b3c573d611b1f81613698565b90611b2d6040519283613677565b8152600081943d92013e614944565b60609250614944565b9250505034611b5057005b63b398979f60e01b8152600490fd5b604051634c9c8ce360e01b815260048101839052602490fd5b60249060405190632a87526960e21b82526004820152fd5b9091508381813d8311611bb8575b611ba88183613677565b810103126101d757519086611a6c565b503d611b9e565b9050817f360894a13ba1a3210667c828492db98dca3e2076cc3735a920a3ca505d382bbc5416141584611a3a565b346101d7576020806003193601126101d75763ffffffff80611c0d613576565b1680600052600283526040600020908282541615610efa57611c2d614897565b600783015411611ddb57601582019260ff845460081c16611dc95760005b600a54811015611dba578282611c608361415b565b5054881c161480611d9b575b611c79575b600101611c4b565b600d546040516365507c9560e11b81526001600160a01b0391821692918882600481875afa918215610ec657600092611d6c575b5080611cb88461415b565b505460401c16843b156101d757600090604051958691636902622f60e11b8352600483015260406024830152818381611cf88d600f604484019101613b3a565b03925af1908115610ec6576001948792611d5d575b50611d178461415b565b505460401c167f66555f994e1af4e5e9289ab0b1a3dd45aa678a9d41cba0aa1f064e78f5d039828a876003611d4b8861415b565b50015416604051908152a49050611c71565b611d6690613612565b8a611d0d565b9091508881813d8311611d94575b611d848183613677565b810103126101d757519089611cad565b503d611d7a565b50611da58161415b565b505460401c6001600160a01b03161515611c6c565b845461ff001916610100178555005b60405163c1d7938360e01b8152600490fd5b604051630f036da960e21b8152600490fd5b346101d75760003660031901126101d757600b54611e0a81613a91565b90611e186040519283613677565b8082526020908183019081600b6000527f0175b7a638427703f0dbe7bb9bbf987a2551717b34e79f33b5b1008d1fa01db96000915b838310611eb45750505050604051918083019381845251809452604083019360408160051b85010192916000955b828710611e885785850386f35b909192938280611ea4600193603f198a8203018652885161386d565b9601920196019592919092611e7b565b600486600192611ec6859a999a614434565b815201920192019190959495611e4d565b346101d75760203660031901126101d757611ef061354a565b600060a0604051611f00816135f7565b828152826020820152826040820152826060820152826080820152015260018060a01b0316600052600360205260c0611f3c6040600020613aa8565b6115646040518092613501565b346101d7576020806003193601126101d757611f6361354a565b606080604051611f72816135dc565b60008152818582015260006040820152015260018060a01b03809116600052600782526103436040600020600360405193611fac856135dc565b61202763ffffffff9687855416875260405190611fd0826107b18160018a01613b3a565b808801918252611fff846002880154169660408a01978852611ff86040518098819301613b3a565b0386613677565b60608801948552604051988998828a52511690880152516080604088015260a087019061359c565b925116606085015251838203601f1901608085015261359c565b346101d75760203660031901126101d75761205a613576565b612062613ca2565b5063ffffffff80911660005260026020526040600020908154161561034757612090600861034392016143ad565b60405191829160208352602083019061375b565b346101d75760603660031901126101d7576001600160401b036004358181116101d7576120d59036906004016136ea565b906120de613560565b6044358281116101d7576120f69036906004016136ea565b9261210081614864565b61210984614864565b60018060a01b0380921691826000526001602095818752604060002093805190878211610cbd5761213e826112d18854613b00565b8890601f83116001146123695761216e92916000918361235e575b50508160011b916000199060031b1c19161790565b84555b818401956affffffffffffffffffffff60a81b95600160a01b90878954161717875560028501978251918211610cbd576121b5826121af8b54613b00565b8b613d9e565b80601f83116001146122fa575081906121e4936000926122ef5750508160011b916000199060031b1c19161790565b86555b600b5490600160401b821015610cbd57810180600b55811015610ca757600b60005260021b94857f0175b7a638427703f0dbe7bb9bbf987a2551717b34e79f33b5b1008d1fa01db9019183830361223a57005b7f0175b7a638427703f0dbe7bb9bbf987a2551717b34e79f33b5b1008d1fa01dbc9560039561226c866122e896614253565b7f0175b7a638427703f0dbe7bb9bbf987a2551717b34e79f33b5b1008d1fa01dba89019282541690835492826001600160601b0360a01b851617855560ff8060a01b915460a01c16151560a01b169216171790557f0175b7a638427703f0dbe7bb9bbf987a2551717b34e79f33b5b1008d1fa01dbb8601614253565b0154910155005b015190508980612159565b908493601f1984168b60005283600020936000905b828210612345575050841161232c575b505050811b0186556121e7565b015160001960f88460031b161c1916905588808061231f565b848401518655889790950194938401939081019061230f565b015190508a80612159565b849291601f19831691886000528b6000209260005b8d8282106123b5575050841161239c575b505050811b018455612171565b015160001960f88460031b161c1916905589808061238f565b838501518655899790950194938401930161237e565b346101d75760403660031901126101d7576123e4613576565b6123ec613589565b6123f5826148b7565b60005463ffffffff9060209063ffffffff60201b6124168483851c16613c75565b831b169063ffffffff60201b191617600055818416938460005260028252604060002092600584016124516103c88784845460a01c16613c8a565b600e8501549060ff821661246481613919565b6104e3575482808260c01c169160a01c16116104d15760101c60ff166002811015610f4257610f305733600052600383526040600020906001600160601b039586601287015416966124b983831698896140e5565b169360018060a01b03600c5416946040516370a0823160e01b815233600482015287816024818a5afa8015610ec657829160009161268f575b501061267d57604051636eb1769f60e11b815233600482015230602482015287816044818a5afa8015610ec657829160009161264c575b501061263a57866000966064604051809981936323b872dd60e01b83523360048401523060248401528660448401525af18015610ec6577fc541e3defd92fd2d8306e9c91b36c15f096115c41c7a9a36ac548a487d8891aa986126129760139261261d575b500161259b82825461411b565b90556125ac6001860191825461411b565b90556125ff83600054881c169163ffffffff1992838754161786556125d13387614128565b6125d9614897565b6002870155855467ffffffff00000000191660209190911b63ffffffff60201b16178555565b60038401926104ba845493828516613c8a565b6040519283523392a3005b612633908a3d8c11610ebf57610eb08183613677565b508c61258e565b60405163ea75ebd560e01b8152600490fd5b809250898092503d8311612676575b6126658183613677565b810103126101d7578190518c612529565b503d61265b565b604051632858f9ab60e11b8152600490fd5b809250898092503d83116126b9575b6126a88183613677565b810103126101d7578190518c6124f2565b503d61269e565b346101d7576101603660031901126101d7576004356001600160401b0381116101d7576126f19036906004016136ea565b6024356001600160401b0381116101d7576127109036906004016136ea565b6044356001600160401b0381116101d75761272f9036906004016136ea565b916064356001600160401b0381116101d75761274f9036906004016136ea565b6084359363ffffffff851685036101d75761012435936001600160601b03851685036101d75761014435151561014435036101d75761278d84614864565b61279681614864565b61279f82614864565b6127a883614864565b60c43560a43511613265576101043560e4351161320f576000549363ffffffff6127d3818716613c75565b16809563ffffffff1916176000556127e9613cd4565b9560a4356127f5614897565b10156132025760026101608801525b61014435156131ec5760006101a08801526001600160601b03166102208701525b8486526020860152604085015260808401523360a0840152606083015263ffffffff831660e083015260a43561010083015260c43561012083015260e4356101e0830152610104356102008301526002610180830152612883614897565b610260830152600052600260205260406000209063ffffffff81511663ffffffff1983541617825560208101519283516001600160401b038111610cbd576128db816128d26001870154613b00565b60018701613d9e565b6020601f821160011461317d57819061290d939495966000926130255750508160011b916000199060031b1c19161790565b60018401555b60408201519283516001600160401b038111610cbd576129438161293a6002850154613b00565b60028501613d9e565b6020601f821160011461310e578190612975939495966000926130255750508160011b916000199060031b1c19161790565b60028201555b60608301519283516001600160401b038111610cbd576129ab816129a26003860154613b00565b60038601613d9e565b6020601f821160011461309f5781906129dd939495966000926130255750508160011b916000199060031b1c19161790565b60038301555b60808101519283516001600160401b038111610cbd57612a1381612a0a6004870154613b00565b60048701613d9e565b6020601f8211600114613030578190612a45939495966000926130255750508160011b916000199060031b1c19161790565b60048401555b60a08281015160058501805460c08087015160e088015163ffffffff60c01b921b91909116941b63ffffffff60a01b166001600160a01b039093166001600160e01b0319909116179190911791909117905561010082015160068401556101208201516007840155610140820151805160088501805463ffffffff90921663ffffffff1990921691909117905560208101518051906001600160401b038211610cbd57612b0882612aff6009890154613b00565b60098901613d9e565b602090601f8311600114612fb357612b38929160009183612df55750508160011b916000199060031b1c19161790565b60098501555b60408101518051906001600160401b038211610cbd57612b6e82612b65600a890154613b00565b600a8901613d9e565b602090601f8311600114612f4157612b9e929160009183612df55750508160011b916000199060031b1c19161790565b600a8501555b60608101518051906001600160401b038211610cbd57612bd482612bcb600b890154613b00565b600b8901613d9e565b602090601f8311600114612ecf57612c04929160009183612df55750508160011b916000199060031b1c19161790565b600b8501555b60808101516020815191612c2183600c8901613de5565b01600c860160005260206000206000915b838310612e8f575050505060a0600d8501910151906020825192612c568484613e9b565b019060005260206000206000915b838310612e715750505050610160820151612c7e81613919565b612c8781613919565b600e84015461018084015190612c9c82613919565b612ca582613919565b6101a0850151906002821015610f425760ff62ff000061ff009360101b1694169062ffffff1916179160081b161717600e8401556101c08201519283516001600160401b038111610cbd57612d0a81612d01600f850154613b00565b600f8501613d9e565b6020601f8211600114612e00579080612d3e926015959697600092612df55750508160011b916000199060031b1c19161790565b600f8201555b6101e084015160108201556102008401516011820155601281016001600160601b03610220860151166001600160601b031982541617905561024084015160138201556102608401516014820155016102808301511515815460ff61ff006102a0870151151560081b1692169061ffff19161717905563ffffffff60c0818060005416931693015116907fac3c2fbb08f906d92c1b4be6fa025f63708bafa70869110e931d718b9532c411600080a4005b015190508780612159565b601f19821695600f840160005260206000209660005b818110612e59575091601595969791846001959410612e40575b505050811b01600f820155612d44565b015160001960f88460031b161c19169055868080612e30565b83830151895560019098019760209384019301612e16565b6004602082612e836001945186613f20565b01920192019190612c64565b6002602082612ec36001945186906020600191828060a01b038151166001600160601b0360a01b8554161784550151910155565b01920192019190612c32565b9190600b87016000526020600020906000935b601f1984168510612f26576001945083601f19811610612f0d575b505050811b01600b850155612c0a565b015160001960f88460031b161c19169055868080612efd565b81810151835560209485019460019093019290910190612ee2565b9190600a87016000526020600020906000935b601f1984168510612f98576001945083601f19811610612f7f575b505050811b01600a850155612ba4565b015160001960f88460031b161c19169055868080612f6f565b81810151835560209485019460019093019290910190612f54565b9190600987016000526020600020906000935b601f198416851061300a576001945083601f19811610612ff1575b505050811b016009850155612b3e565b015160001960f88460031b161c19169055868080612fe1565b81810151835560209485019460019093019290910190612fc6565b015190508680612159565b6004850160005260206000209060005b601f1984168110613087575060019394959683601f1981161061306e575b505050811b016004840155612a4b565b015160001960f88460031b161c1916905585808061305e565b9091602060018192858b015181550193019101613040565b6003840160005260206000209060005b601f19841681106130f6575060019394959683601f198116106130dd575b505050811b0160038301556129e3565b015160001960f88460031b161c191690558580806130cd565b9091602060018192858b0151815501930191016130af565b6002830160005260206000209060005b601f1984168110613165575060019394959683601f1981161061314c575b505050811b01600282015561297b565b015160001960f88460031b161c1916905585808061313c565b9091602060018192858b01518155019301910161311e565b6001850160005260206000209060005b601f19841681106131d4575060019394959683601f198116106131bb575b505050811b016001840155612913565b015160001960f88460031b161c191690558580806131ab565b9091602060018192858b01518155019301910161318d565b50600061022087015260016101a0870152612825565b6000610160880152612804565b60405162461bcd60e51b815260206004820152602860248201527f4576656e742073746172742074696d65206d757374206265206265666f726520604482015267656e642074696d6560c01b6064820152608490fd5b60405162461bcd60e51b815260206004820152602f60248201527f526567697374726174696f6e2073746172742074696d65206d7573742062652060448201526e6265666f726520656e642074696d6560881b6064820152608490fd5b346101d75760403660031901126101d7576132db61354a565b6132e3613589565b9060018060a01b0316600052600560205263ffffffff60406000209116600052602052602060ff604060002054166040519015158152f35b346101d7576020806003193601126101d75763ffffffff8061333b613576565b16600052600282526040600020908154161561034757600d61335d9101613bd0565b6040519082820192808352815180945260408301938160408260051b8601019301916000955b8287106133905785850386f35b909192938280600192603f198982030185528751906133dc6133ca6080878060a01b0385511684528585015190808786015284019061359c565b6040840151838203604085015261359c565b916060809101519101529601920196019592919092613383565b346101d75760203660031901126101d7576001600160a01b0361341761354a565b1660005260016020526020600360406000200154604051908152f35b346101d75760003660031901126101d757600a5461345081613a91565b61345d6040519182613677565b818152602090602081019283600a6000527fc65a7bb8d6351c1cf70c95a316cc6a92839c986682d98bc35f958f4883f9d2a86000915b8383106134e457604080516020808252875190820181905289928201908960005b8281106134c15784840385f35b9091928260c0826134d56001948a51613501565b019601910194929190946134b4565b6004866001926134f385613aa8565b815201920192019190613493565b60a0908163ffffffff91828151168552826020820151166020860152600180831b0360408201511660408601526060810151606086015260808101516080860152015116910152565b600435906001600160a01b03821682036101d757565b602435906001600160a01b03821682036101d757565b6004359063ffffffff821682036101d757565b6024359063ffffffff821682036101d757565b919082519283825260005b8481106135c8575050826000602080949584010152601f8019910116010190565b6020818301810151848301820152016135a7565b608081019081106001600160401b03821117610cbd57604052565b60c081019081106001600160401b03821117610cbd57604052565b6001600160401b038111610cbd57604052565b604081019081106001600160401b03821117610cbd57604052565b60a081019081106001600160401b03821117610cbd57604052565b6102c081019081106001600160401b03821117610cbd57604052565b90601f801991011681019081106001600160401b03821117610cbd57604052565b6001600160401b038111610cbd57601f01601f191660200190565b9291926136bf82613698565b916136cd6040519384613677565b8294818452818301116101d7578281602093846000960137010152565b9080601f830112156101d757816020613705933591016136b3565b90565b90815180825260208080930193019160005b828110613728575050505090565b909192938260408261374f60019489516020809160018060a01b0381511684520151910152565b0195019392910161371a565b63ffffffff815116825260209061377f8282015160c08486015260c085019061359c565b916137986040936040840151868203604088015261359c565b916137b16060936060830151878203606089015261359c565b9260a06137cc608095608085015189820360808b0152613708565b9201519560a08184039101528551938483528383019184808760051b8601019801966000945b8786106138055750505050505050505090565b9091929394959697988780600192601f198582030189528c5190848060a01b0382511681528780613854613844868601518d888701528d86019061359c565b8a8601518582038c87015261359c565b9301519101529b019601960194979695939291906137f2565b906080806138b7613887855160a0865260a086019061359c565b60018060a01b0360208701511660208601526040860151151560408601526060860151858203606087015261359c565b93015191015290565b60406003198201126101d75760043563ffffffff811681036101d757916024356001600160401b03928382116101d757806023830112156101d75781600401359384116101d757602484830101116101d7576024019190565b60031115610f4257565b906139e06102c061398c61397a61396861395663ffffffff948589511688526020890151908060208a015288019061359c565b6040880151878203604089015261359c565b6060870151868203606088015261359c565b6080860151858203608087015261359c565b9060018060a01b0360a08601511660a08501528060c08601511660c085015260e08501511660e08401526101008085015190840152610120808501519084015261014080850151908483039085015261375b565b61016080840151906139f182613919565b8301526101808084015190613a0582613919565b8301526101a090818401516002811015610f4257613a34928401526101c080850151908483039085015261359c565b916101e0808201519083015261020080820151908301526102206001600160601b0381830151169083015261024080820151908301526102608082015190830152610280808201511515908301526102a080910151151591015290565b6001600160401b038111610cbd5760051b60200190565b90604051613ab5816135f7565b60a08193600381549163ffffffff928381168652838160201c166020870152600180861b039060401c1660408601526001810154606086015260028101546080860152015416910152565b90600182811c92168015613b30575b6020831014613b1a57565b634e487b7160e01b600052602260045260246000fd5b91607f1691613b0f565b805460009392613b4982613b00565b91828252602093600191600181169081600014613bb15750600114613b70575b5050505050565b90939495506000929192528360002092846000945b838610613b9d57505050500101903880808080613b69565b805485870183015294019385908201613b85565b60ff19168685015250505090151560051b010191503880808080613b69565b908154613bdc81613a91565b92604093613bed6040519182613677565b82815280946020809201926000526020600020906000935b858510613c1457505050505050565b6004846001928451613c25816135dc565b848060a01b0387541681528551613c428161056381898c01613b3a565b838201528551613c59816105638160028c01613b3a565b8682015260038701546060820152815201930194019391613c05565b90600163ffffffff80931601918211610ed257565b91909163ffffffff80809416911601918211610ed257565b60405190613caf826135f7565b816000815260a060609182602082015282604082015282808201528260808201520152565b60405190613ce18261365b565b816102a0600091828152606080602083015280604083015280808301528060808301528360a08301528360c08301528360e08301528361010083015283610120830152613d2c613ca2565b6101408301528361016083015283610180830152836101a08301526101c0820152826101e082015282610200820152826102208201528261024082015282610260820152826102808201520152565b6002821015610f425752565b818110613d92575050565b60008155600101613d87565b9190601f8111613dad57505050565b613dd9926000526020600020906020601f840160051c83019310613ddb575b601f0160051c0190613d87565b565b9091508190613dcc565b600160401b8211610cbd578054828255808310613e0157505050565b6001906001600160ff1b038082168203610ed25784168403610ed25760009260005260206000209060011b81019360011b015b838110613e415750505050565b808360029255838382015501613e34565b613e5c8154613b00565b9081613e66575050565b81601f60009311600114613e78575055565b908083918252613e97601f60208420940160051c840160018501613d87565b5555565b600160401b8211610cbd578054828255808310613eb757505050565b6002906001600160fe1b038082168203610ed25784168403610ed25760009260005260206000209060021b81019360021b015b838110613ef75750505050565b808360049255613f0960018201613e52565b613f14838201613e52565b83600382015501613eea565b9060018060a01b038151166001600160601b0360a01b83541617825560018083016020808401519182516001600160401b0393848211610cbd57613f6e82613f688554613b00565b85613d9e565b8390601f831160011461408357613f9d9291600091836140095750508160011b916000199060031b1c19161790565b90555b60028501926040850151908151938411610cbd57613fc884613fc28754613b00565b87613d9e565b82601f8511600114614014575050826003959360609593613fff936000926140095750508160011b916000199060031b1c19161790565b90555b0151910155565b015190503880612159565b91601f949391941984168660005283600020936000905b82821061406c5750509160039795939185606098969410614054575b505050811b019055614002565b015160001983891b60f8161c19169055388080614047565b80888697829497870151815501960194019061402b565b869291601f1983169185600052866000209260005b888282106140cf57505084116140b6575b505050811b019055613fa0565b015160001960f88460031b161c191690553880806140a9565b8385015186558b97909501949384019301614098565b9190916001600160601b0380809416911602918216918203610ed257565b908160209103126101d7575180151581036101d75790565b91908201809211610ed257565b805468010000000000000000600160e01b03191660409290921b68010000000000000000600160e01b0316919091179055565b600a54811015610ca757600a60005260021b7fc65a7bb8d6351c1cf70c95a316cc6a92839c986682d98bc35f958f4883f9d2a80190600090565b600a54600160401b811015610cbd578060016141b49201600a5561415b565b61423d578181036141c3575050565b8154815463ffffffff91821663ffffffff1980831682178555855463ffffffff60201b1667ffffffffffffffff19909316909117919091178355916003908190855461421b9060401c6001600160a01b031682614128565b6001860154600182015560028601546002820155019301541690825416179055565b634e487b7160e01b600052600060045260246000fd5b9080821461432c576142658154613b00565b906001600160401b038211610cbd5761428282613f688554613b00565b600090601f83116001146142c1576142b29291600091836142b65750508160011b916000199060031b1c19161790565b9055565b015490503880612159565b815260208082208483528183209291601f1985169083905b8282106143135750509084600195949392106142fa575b505050811b019055565b015460001960f88460031b161c191690553880806142f0565b84958192958501548155600180910196019401906142d9565b5050565b9060405161433d81613625565b82546001600160a01b031681526001909201546020830152565b90815461436381613a91565b926143716040519485613677565b818452600090815260208082208186015b848410614390575050505050565b60028360019261439f85614330565b815201920193019290614382565b906040516143ba816135f7565b60a061442f6005839563ffffffff81541685526040516143e1816105638160018601613b3a565b60208601526040516143fa816105638160028601613b3a565b6040860152604051614413816105638160038601613b3a565b606086015261442460048201614357565b608086015201613bd0565b910152565b9060405161444181613640565b608060038294604051614458816105638185613b3a565b845260018101546001600160a01b038116602086015260a01c60ff16151560408086019190915251614491816105638160028601613b3a565b60608501520154910152565b8054821015610ca75760005260206000209060011b0190600090565b8054600160401b811015610cbd576144d69160018201815561449d565b91909161423d57805182546001600160a01b0319166001600160a01b039190911617825560200151600190910155565b81811461432c5781549161451a8383613de5565b6000526020600020906000526020600020906000905b83821061453d5750505050565b806001918403614558575b6002809101930191019091614530565b818060a01b038154166001600160601b0360a01b855416178455818082015490850155614548565b81811461432c578154916145948383613e9b565b6000526020600020906000526020600020906000905b8382106145b75750505050565b8060019184036145d2575b60048091019301910190916145aa565b818060a01b038154166001600160601b0360a01b8554161784556145fb82808301908601614253565b61460b6002808301908601614253565b600380820154908501556145c2565b908060209392818452848401376000828201840152601f01601f1916010190565b63ffffffff9061464a816148b7565b168060005260026020526040600020614661614897565b60108201541115806146d8575b1561468257600e01805461ff001916905550565b61468a614897565b601182015410614698575050565b600e01805461ff0019166101001790556146b0614897565b907f835839f42ff642197e82f2887491db41a51c32dc7004091799724e9e3d6f2489600080a3565b506146e1614897565b6011820154101561466e565b63ffffffff906146fc816148b7565b1660005260026020526040600020614712614897565b60078201541061471f5750565b600e018054600160ff821661473381613919565b0361473c575050565b60019060ff19161790556001614750614897565b7f9c8ea6489f3baa31d321639e3a41ad67158fa673511a98870906b5a9eced0dd4600080a3565b9061478182613a91565b61478e6040519182613677565b828152809261479f601f1991613a91565b019060005b8281106147b057505050565b6020906147bb613cd4565b828285010152016147a4565b63ffffffff809116908114610ed25760010190565b8051821015610ca75760209160051b010190565b6001600160a01b0390811690811561484b576000805160206149a883398151915280546001600160a01b031981168417909155167f8be0079c531659141344cd1fd0a4f28419497f9722a3daafe3b4186f6b6457e0600080a3565b604051631e4fbdf760e01b815260006004820152602490fd5b6020815191012060405160208101908082106001600160401b03831117610cbd57600091604052526000802014610d0d57565b6103e880420290428204811442151715610ed2578101809111610ed25790565b63ffffffff80600054169116116102ce57565b6000805160206149a8833981519152546001600160a01b031633036148eb57565b60405163118cdaa760e01b8152336004820152602490fd5b60ff7ff0c57e16840df040f15088dc2f81fe391c3923bec73e23a9662efc9c229c6a005460401c161561493257565b604051631afcd79f60e31b8152600490fd5b9061496b575080511561495957805190602001fd5b604051630a12f52160e11b8152600490fd5b8151158061499e575b61497c575090565b604051639996b31560e01b81526001600160a01b039091166004820152602490fd5b50803b1561497456fe9016d09d72d40fdae2fd8ceac6b6234c7706214fd39c1cd1e609a0528c199300a2646970667358221220a17a9f9f1852c360c50597c123f9ca637c69a50f46ab6ab54f0a25e3aace066264736f6c63430008180033",
    "linkReferences": {}
  },
  "methodIdentifiers": {
    "UPGRADE_INTERFACE_VERSION()": "ad3cb1cc",
    "checkContractBalance()": "50312c9e",
    "checkUserBalance(address)": "0a9bfef5",
    "createAccount(string,address,string)": "331ef976",
    "createEvent(string,string,string,string,uint32,uint256,uint256,uint256,uint256,uint96,bool)": "25f3724b",
    "createGroup(uint32)": "654a3c6d",
    "getAllEventGroups()": "909fdec9",
    "getAllEvents()": "c27a500d",
    "getAllGroupMessages(uint32)": "1755b97a",
    "getAllTickets()": "03e96fe3",
    "getAllUser()": "47531df8",
    "getEventById(uint32)": "cd71ed35",
    "getEventGroup(uint32)": "3809f6f5",
    "getGroupMember(uint32,uint256)": "85a646c9",
    "getGroupMembers(uint32)": "ec976a0a",
    "getNfts(address)": "44cc2afe",
    "getTicket(address)": "4717dea9",
    "getUser(address)": "6f77926b",
    "groupChat(uint32,string)": "be7fb5d7",
    "hasPurchasedTicket(address,uint32)": "17f69df6",
    "initialize(address,address,address)": "c0c53b8b",
    "isRegistered(address)": "c3c5a547",
    "joinGroup(uint32)": "eec932f7",
    "mintNFTsForAttendees(uint32)": "48862857",
    "mintNft(uint32,string)": "8fd9baca",
    "owner()": "8da5cb5b",
    "proxiableUUID()": "52d1902d",
    "purchaseFreeTicket(uint32,uint32)": "e020cf91",
    "purchasePaidTicket(uint32,uint32)": "2b5d935c",
    "refundFee(uint32)": "bdacb17a",
    "renounceOwnership()": "715018a6",
    "transferOwnership(address)": "f2fde38b",
    "updateEventStatus(uint32)": "a87f86f9",
    "updateRegStatus(uint32)": "bce888fb",
    "upgradeToAndCall(address,bytes)": "4f1ef286",
    "withdrawEventFee(uint32)": "b33f650e"
  },
  "id": 53
}