{
  "abi": [
    {
      "type": "constructor",
      "inputs": [],
      "stateMutability": "nonpayable"
    },
    {
      "type": "function",
      "name": "approve",
      "inputs": [
        {
          "name": "to",
          "type": "address",
          "internalType": "address"
        },
        {
          "name": "tokenId",
          "type": "uint256",
          "internalType": "uint256"
        }
      ],
      "outputs": [],
      "stateMutability": "nonpayable"
    },
    {
      "type": "function",
      "name": "balanceOf",
      "inputs": [
        {
          "name": "owner",
          "type": "address",
          "internalType": "address"
        }
      ],
      "outputs": [
        {
          "name": "",
          "type": "uint256",
          "internalType": "uint256"
        }
      ],
      "stateMutability": "view"
    },
    {
      "type": "function",
      "name": "getApproved",
      "inputs": [
        {
          "name": "tokenId",
          "type": "uint256",
          "internalType": "uint256"
        }
      ],
      "outputs": [
        {
          "name": "",
          "type": "address",
          "internalType": "address"
        }
      ],
      "stateMutability": "view"
    },
    {
      "type": "function",
      "name": "getNextTokenId",
      "inputs": [],
      "outputs": [
        {
          "name": "",
          "type": "uint256",
          "internalType": "uint256"
        }
      ],
      "stateMutability": "view"
    },
    {
      "type": "function",
      "name": "isApprovedForAll",
      "inputs": [
        {
          "name": "owner",
          "type": "address",
          "internalType": "address"
        },
        {
          "name": "operator",
          "type": "address",
          "internalType": "address"
        }
      ],
      "outputs": [
        {
          "name": "",
          "type": "bool",
          "internalType": "bool"
        }
      ],
      "stateMutability": "view"
    },
    {
      "type": "function",
      "name": "name",
      "inputs": [],
      "outputs": [
        {
          "name": "",
          "type": "string",
          "internalType": "string"
        }
      ],
      "stateMutability": "view"
    },
    {
      "type": "function",
      "name": "ownerOf",
      "inputs": [
        {
          "name": "tokenId",
          "type": "uint256",
          "internalType": "uint256"
        }
      ],
      "outputs": [
        {
          "name": "",
          "type": "address",
          "internalType": "address"
        }
      ],
      "stateMutability": "view"
    },
    {
      "type": "function",
      "name": "safeMint",
      "inputs": [
        {
          "name": "to",
          "type": "address",
          "internalType": "address"
        },
        {
          "name": "uri",
          "type": "string",
          "internalType": "string"
        }
      ],
      "outputs": [],
      "stateMutability": "nonpayable"
    },
    {
      "type": "function",
      "name": "safeTransferFrom",
      "inputs": [
        {
          "name": "from",
          "type": "address",
          "internalType": "address"
        },
        {
          "name": "to",
          "type": "address",
          "internalType": "address"
        },
        {
          "name": "tokenId",
          "type": "uint256",
          "internalType": "uint256"
        }
      ],
      "outputs": [],
      "stateMutability": "nonpayable"
    },
    {
      "type": "function",
      "name": "safeTransferFrom",
      "inputs": [
        {
          "name": "from",
          "type": "address",
          "internalType": "address"
        },
        {
          "name": "to",
          "type": "address",
          "internalType": "address"
        },
        {
          "name": "tokenId",
          "type": "uint256",
          "internalType": "uint256"
        },
        {
          "name": "data",
          "type": "bytes",
          "internalType": "bytes"
        }
      ],
      "outputs": [],
      "stateMutability": "nonpayable"
    },
    {
      "type": "function",
      "name": "setApprovalForAll",
      "inputs": [
        {
          "name": "operator",
          "type": "address",
          "internalType": "address"
        },
        {
          "name": "approved",
          "type": "bool",
          "internalType": "bool"
        }
      ],
      "outputs": [],
      "stateMutability": "nonpayable"
    },
    {
      "type": "function",
      "name": "supportsInterface",
      "inputs": [
        {
          "name": "interfaceId",
          "type": "bytes4",
          "internalType": "bytes4"
        }
      ],
      "outputs": [
        {
          "name": "",
          "type": "bool",
          "internalType": "bool"
        }
      ],
      "stateMutability": "view"
    },
    {
      "type": "function",
      "name": "symbol",
      "inputs": [],
      "outputs": [
        {
          "name": "",
          "type": "string",
          "internalType": "string"
        }
      ],
      "stateMutability": "view"
    },
    {
      "type": "function",
      "name": "tokenURI",
      "inputs": [
        {
          "name": "tokenId",
          "type": "uint256",
          "internalType": "uint256"
        }
      ],
      "outputs": [
        {
          "name": "",
          "type": "string",
          "internalType": "string"
        }
      ],
      "stateMutability": "view"
    },
    {
      "type": "function",
      "name": "transferFrom",
      "inputs": [
        {
          "name": "from",
          "type": "address",
          "internalType": "address"
        },
        {
          "name": "to",
          "type": "address",
          "internalType": "address"
        },
        {
          "name": "tokenId",
          "type": "uint256",
          "internalType": "uint256"
        }
      ],
      "outputs": [],
      "stateMutability": "nonpayable"
    },
    {
      "type": "event",
      "name": "Approval",
      "inputs": [
        {
          "name": "owner",
          "type": "address",
          "indexed": true,
          "internalType": "address"
        },
        {
          "name": "approved",
          "type": "address",
          "indexed": true,
          "internalType": "address"
        },
        {
          "name": "tokenId",
          "type": "uint256",
          "indexed": true,
          "internalType": "uint256"
        }
      ],
      "anonymous": false
    },
    {
      "type": "event",
      "name": "ApprovalForAll",
      "inputs": [
        {
          "name": "owner",
          "type": "address",
          "indexed": true,
          "internalType": "address"
        },
        {
          "name": "operator",
          "type": "address",
          "indexed": true,
          "internalType": "address"
        },
        {
          "name": "approved",
          "type": "bool",
          "indexed": false,
          "internalType": "bool"
        }
      ],
      "anonymous": false
    },
    {
      "type": "event",
      "name": "BatchMetadataUpdate",
      "inputs": [
        {
          "name": "_fromTokenId",
          "type": "uint256",
          "indexed": false,
          "internalType": "uint256"
        },
        {
          "name": "_toTokenId",
          "type": "uint256",
          "indexed": false,
          "internalType": "uint256"
        }
      ],
      "anonymous": false
    },
    {
      "type": "event",
      "name": "MetadataUpdate",
      "inputs": [
        {
          "name": "_tokenId",
          "type": "uint256",
          "indexed": false,
          "internalType": "uint256"
        }
      ],
      "anonymous": false
    },
    {
      "type": "event",
      "name": "Transfer",
      "inputs": [
        {
          "name": "from",
          "type": "address",
          "indexed": true,
          "internalType": "address"
        },
        {
          "name": "to",
          "type": "address",
          "indexed": true,
          "internalType": "address"
        },
        {
          "name": "tokenId",
          "type": "uint256",
          "indexed": true,
          "internalType": "uint256"
        }
      ],
      "anonymous": false
    },
    {
      "type": "error",
      "name": "ERC721IncorrectOwner",
      "inputs": [
        {
          "name": "sender",
          "type": "address",
          "internalType": "address"
        },
        {
          "name": "tokenId",
          "type": "uint256",
          "internalType": "uint256"
        },
        {
          "name": "owner",
          "type": "address",
          "internalType": "address"
        }
      ]
    },
    {
      "type": "error",
      "name": "ERC721InsufficientApproval",
      "inputs": [
        {
          "name": "operator",
          "type": "address",
          "internalType": "address"
        },
        {
          "name": "tokenId",
          "type": "uint256",
          "internalType": "uint256"
        }
      ]
    },
    {
      "type": "error",
      "name": "ERC721InvalidApprover",
      "inputs": [
        {
          "name": "approver",
          "type": "address",
          "internalType": "address"
        }
      ]
    },
    {
      "type": "error",
      "name": "ERC721InvalidOperator",
      "inputs": [
        {
          "name": "operator",
          "type": "address",
          "internalType": "address"
        }
      ]
    },
    {
      "type": "error",
      "name": "ERC721InvalidOwner",
      "inputs": [
        {
          "name": "owner",
          "type": "address",
          "internalType": "address"
        }
      ]
    },
    {
      "type": "error",
      "name": "ERC721InvalidReceiver",
      "inputs": [
        {
          "name": "receiver",
          "type": "address",
          "internalType": "address"
        }
      ]
    },
    {
      "type": "error",
      "name": "ERC721InvalidSender",
      "inputs": [
        {
          "name": "sender",
          "type": "address",
          "internalType": "address"
        }
      ]
    },
    {
      "type": "error",
      "name": "ERC721NonexistentToken",
      "inputs": [
        {
          "name": "tokenId",
          "type": "uint256",
          "internalType": "uint256"
        }
      ]
    }
  ],
  "bytecode": {
    "object": "0x6080346200030c576001600160401b039060409080820183811182821017620002f65782526008815260209267109b1d5b5853919560c21b84830152825183810181811083821117620002f65784526004815263424c554d60e01b85820152825190828211620002f65760008054926001958685811c95168015620002eb575b89861014620002d7578190601f9586811162000284575b5089908683116001146200022057849262000214575b5050600019600383901b1c191690861b1781555b8151938411620002005784548581811c91168015620001f5575b88821014620001e15783811162000199575b5086928411600114620001335783949596509262000127575b5050600019600383901b1c191690821b1790555b5161102f9081620003128239f35b01519050388062000105565b9190601f1984169685845280842093905b88821062000181575050838596971062000167575b505050811b01905562000119565b015160001960f88460031b161c1916905538808062000159565b80878596829496860151815501950193019062000144565b8582528782208480870160051c8201928a8810620001d7575b0160051c019086905b828110620001cb575050620000ec565b838155018690620001bb565b92508192620001b2565b634e487b7160e01b82526022600452602482fd5b90607f1690620000da565b634e487b7160e01b81526041600452602490fd5b015190503880620000ac565b8480528a85208994509190601f198416865b8d8282106200026d575050841162000253575b505050811b018155620000c0565b015160001960f88460031b161c1916905538808062000245565b8385015186558c9790950194938401930162000232565b9091508380528984208680850160051c8201928c8610620002cd575b918a91869594930160051c01915b828110620002be57505062000096565b8681558594508a9101620002ae565b92508192620002a0565b634e487b7160e01b83526022600452602483fd5b94607f16946200007f565b634e487b7160e01b600052604160045260246000fd5b600080fdfe608060408181526004918236101561001657600080fd5b600092833560e01c91826301ffc9a714610acf5750816306fdde0314610a1e578163081812fc146109e2578163095ea7b31461090557816323b872dd146108ed57816342842e0e146108be5781636352211e1461088d57816370a082311461083857816395d89b411461074a578163a22cb465146106a8578163b88d4fde1461063a578163c87b56dd1461053f578163caa0f92a14610520578163d204c45e1461011a575063e985e9c5146100ca57600080fd5b3461011657806003193601126101165760ff816020936100e8610b94565b6100f0610baf565b6001600160a01b0391821683526005875283832091168252855220549151911615158152f35b5080fd5b838334610116578060031936011261011657610134610b94565b9060249081359467ffffffffffffffff9586811161051c573660238201121561051c5761016990369085818501359101610c6a565b6007549460019586810180911161050a5780600755845161018981610bfa565b8881526001600160a01b03838116939084156104f457908392918a9695948c5283858d60209d8e94600286528d83205416918d831515967fddf252ad1be2c89b69c2b068fc378daa952ba7f163c4a11628f55a4df523b3ef93600292896104c1575b87855260038352842080549091019055868352528d812080546001600160a01b0319168517905580a46104ab573b610385575b5050506007549485885260068752848820938251998a116103745750506102458354610ca1565b601f811161032e575b508590601f89116001146102b0579780928192899a7ff8e1a15aba9398e019f0b49df1a4fde98ee17ae345cb5f6b5e2c27f5033e8ce79a946102a5575b50501b916000199060031b1c19161790555b51908152a180f35b015192508a8061028b565b838852868820909891601f198316895b818110610319575099837ff8e1a15aba9398e019f0b49df1a4fde98ee17ae345cb5f6b5e2c27f5033e8ce79a9b10610300575b505050811b01905561029d565b015160001960f88460031b161c191690558880806102f3565b8b8301518455928501929189019189016102c0565b838852868820601f8a0160051c810191888b1061036a575b601f0160051c019083905b82811061035f57505061024e565b898155018390610351565b9091508190610346565b634e487b7160e01b89526041905287fd5b90888a896103c8899d99958b9c9f9998979d9b519586948594630a85bd0160e11b998a875233908701528501526044840152608060648401526084830190610b54565b0381898d5af1869181610467575b506104305750505050503d600014610428573d6103f281610c4e565b906103ff85519283610c2c565b81528091833d92013e5b80519182610425575050505191633250574960e11b8352820152fd5b01fd5b506060610409565b63ffffffff60e09b9897999394959b9a969a1b1603610452575088808061021e565b838691865191633250574960e11b8352820152fd5b9091508781813d83116104a4575b61047f8183610c2c565b810103126104a057516001600160e01b0319811681036104a057908c6103d6565b8680fd5b503d610475565b87516339e3563760e11b81528088018c90528990fd5b600089815260046020526040902080546001600160a01b03191690558685526003835280852080546000190190556101eb565b8751633250574960e11b81528088018c90528990fd5b634e487b7160e01b8852601184528588fd5b8580fd5b5050346101165781600319360112610116576020906007549051908152f35b919050346106365760209182600319360112610632573561055f81610e7a565b5083526006825280832092815180948290805461057b81610ca1565b918285526001918860018216918260001461060b5750506001146105cd575b5050506105c99392916105ae910386610c2c565b81516105b981610bfa565b5251928284938452830190610b54565b0390f35b8552868520879350859291905b8284106105f357505050820101816105ae6105c961059a565b8054848b0186015289955088949093019281016105da565b60ff19168782015293151560051b860190930193508492506105ae91506105c9905061059a565b8380fd5b8280fd5b83903461011657608036600319011261011657610655610b94565b61065d610baf565b6044359060643567ffffffffffffffff811161051c573660238201121561051c576106a59481602461069493369301359101610c6a565b926106a0838383610cdb565b610eb5565b80f35b919050346106365780600319360112610636576106c3610b94565b9060243591821515809303610746576001600160a01b03169283156107315750338452600560205280842083855260205280842060ff1981541660ff8416179055519081527f17307eab39ab6107e8899845ad3d59bd9653f200f220920489ca2b5937696c3160203392a380f35b836024925191630b61174360e31b8352820152fd5b8480fd5b82843461083557806003193601126108355781519182826001936001549461077186610ca1565b918285526020968760018216918260001461080e5750506001146107b2575b5050506105c992916107a3910385610c2c565b51928284938452830190610b54565b9190869350600183527fb10e2d527612073b26eecdfd717e6a320cf44b4afac2b0732d9fcbe2b7fa0cf65b8284106107f657505050820101816107a36105c9610790565b8054848a0186015288955087949093019281016107dd565b60ff19168782015293151560051b860190930193508492506107a391506105c99050610790565b80fd5b828434610835576020366003190112610835576001600160a01b0361085b610b94565b169283156108785750806020938392526003845220549051908152f35b91516322718ad960e21b815291820152602490fd5b82843461083557602036600319011261083557506108ad60209235610e7a565b90516001600160a01b039091168152f35b505034610116576106a5906108d236610bc5565b919251926108df84610bfa565b8584526106a0838383610cdb565b8334610835576106a56108ff36610bc5565b91610cdb565b91905034610636578060031936011261063657610920610b94565b9160243561092d81610e7a565b331515806109cf575b806109a6575b610990576001600160a01b039485169482918691167f8c5be1e5ebec7d5bd14f71427d1e84f3dd0314c0f7b2291e5b200ac8c7c3b9258880a48452602052822080546001600160a01b031916909117905580f35b835163a9fbf51f60e01b81523381850152602490fd5b506001600160a01b03811686526005602090815284872033885290528386205460ff161561093c565b506001600160a01b038116331415610936565b90503461063657602036600319011261063657918260209335610a0481610e7a565b50825283528190205490516001600160a01b039091168152f35b82843461083557806003193601126108355781519182828354610a4081610ca1565b908184526020956001918760018216918260001461080e575050600114610a74575050506105c992916107a3910385610c2c565b91908693508280527f290decd9548b62a8d60345a988386fc84ba6bc95484008f6362f93160ef3e5635b828410610ab757505050820101816107a36105c9610790565b8054848a018601528895508794909301928101610a9e565b849134610636576020366003190112610636573563ffffffff60e01b81168091036106365760209250632483248360e11b8114908115610b11575b5015158152f35b6380ac58cd60e01b811491508115610b43575b8115610b32575b5083610b0a565b6301ffc9a760e01b14905083610b2b565b635b5e139f60e01b81149150610b24565b919082519283825260005b848110610b80575050826000602080949584010152601f8019910116010190565b602081830181015184830182015201610b5f565b600435906001600160a01b0382168203610baa57565b600080fd5b602435906001600160a01b0382168203610baa57565b6060906003190112610baa576001600160a01b03906004358281168103610baa57916024359081168103610baa579060443590565b6020810190811067ffffffffffffffff821117610c1657604052565b634e487b7160e01b600052604160045260246000fd5b90601f8019910116810190811067ffffffffffffffff821117610c1657604052565b67ffffffffffffffff8111610c1657601f01601f191660200190565b929192610c7682610c4e565b91610c846040519384610c2c565b829481845281830111610baa578281602093846000960137010152565b90600182811c92168015610cd1575b6020831014610cbb57565b634e487b7160e01b600052602260045260246000fd5b91607f1691610cb0565b6001600160a01b039182169290918315610e6157600092828452826020956002875260409684888820541696879133151580610dcb575b509060027fddf252ad1be2c89b69c2b068fc378daa952ba7f163c4a11628f55a4df523b3ef9284610d98575b858352600381528b8320805460010190558683525289812080546001600160a01b0319168517905580a41692838303610d775750505050565b6064945051926364283d7b60e01b8452600484015260248301526044820152fd5b600087815260046020526040902080546001600160a01b0319169055848352600381528b83208054600019019055610d3e565b91939450915080610e20575b15610de757859291879138610d12565b878688610e04576024915190637e27328960e01b82526004820152fd5b604491519063177e802f60e01b82523360048301526024820152fd5b503387148015610e45575b80610dd75750858252600481523385898420541614610dd7565b5086825260058152878220338352815260ff8883205416610e2b565b604051633250574960e11b815260006004820152602490fd5b6000818152600260205260409020546001600160a01b0316908115610e9d575090565b60249060405190637e27328960e01b82526004820152fd5b813b610ec2575b50505050565b604051630a85bd0160e11b8082523360048301526001600160a01b03928316602483015260448201949094526080606482015260209592909116939092908390610f10906084830190610b54565b039285816000958187895af1849181610fb9575b50610f84575050503d600014610f7c573d610f3e81610c4e565b90610f4c6040519283610c2c565b81528091843d92013e5b80519283610f7757604051633250574960e11b815260048101849052602490fd5b019050fd5b506060610f56565b919450915063ffffffff60e01b1603610fa1575038808080610ebc565b60249060405190633250574960e11b82526004820152fd5b9091508681813d8311610ff2575b610fd18183610c2c565b8101031261074657516001600160e01b031981168103610746579038610f24565b503d610fc756fea2646970667358221220a8b90870666e0185b86d5896cfd12548015ef15bc6d43150ad025aae6e4c227064736f6c63430008180033",
    "linkReferences": {}
  },
  "methodIdentifiers": {
    "approve(address,uint256)": "095ea7b3",
    "balanceOf(address)": "70a08231",
    "getApproved(uint256)": "081812fc",
    "getNextTokenId()": "caa0f92a",
    "isApprovedForAll(address,address)": "e985e9c5",
    "name()": "06fdde03",
    "ownerOf(uint256)": "6352211e",
    "safeMint(address,string)": "d204c45e",
    "safeTransferFrom(address,address,uint256)": "42842e0e",
    "safeTransferFrom(address,address,uint256,bytes)": "b88d4fde",
    "setApprovalForAll(address,bool)": "a22cb465",
    "supportsInterface(bytes4)": "01ffc9a7",
    "symbol()": "95d89b41",
    "tokenURI(uint256)": "c87b56dd",
    "transferFrom(address,address,uint256)": "23b872dd"
  },
  "id": 53
}